{
  "_format": "hh-sol-artifact-1",
  "contractName": "StakingAccountFacet",
  "sourceName": "contracts/facets/StakingAccountFacet.sol",
  "abi": [
    {
      "inputs": [
        {
          "internalType": "address",
          "name": "account",
          "type": "address"
        },
        {
          "internalType": "address",
          "name": "stakeToken",
          "type": "address"
        }
      ],
      "name": "getAccountPoolBalance",
      "outputs": [
        {
          "components": [
            {
              "internalType": "uint256",
              "name": "stakeAmount",
              "type": "uint256"
            },
            {
              "internalType": "address[]",
              "name": "collateralTokens",
              "type": "address[]"
            },
            {
              "internalType": "uint256[]",
              "name": "collateralAmounts",
              "type": "uint256[]"
            },
            {
              "internalType": "uint256[]",
              "name": "collateralStakeLiability",
              "type": "uint256[]"
            }
          ],
          "internalType": "struct IStakingAccount.TokenBalance",
          "name": "",
          "type": "tuple"
        }
      ],
      "stateMutability": "view",
      "type": "function"
    },
    {
      "inputs": [
        {
          "internalType": "address",
          "name": "account",
          "type": "address"
        },
        {
          "internalType": "address",
          "name": "stakeToken",
          "type": "address"
        },
        {
          "internalType": "address",
          "name": "collateral",
          "type": "address"
        }
      ],
      "name": "getAccountPoolCollateralAmount",
      "outputs": [
        {
          "internalType": "uint256",
          "name": "",
          "type": "uint256"
        }
      ],
      "stateMutability": "view",
      "type": "function"
    },
    {
      "inputs": [
        {
          "internalType": "address",
          "name": "account",
          "type": "address"
        }
      ],
      "name": "getAccountUsdPoolAmount",
      "outputs": [
        {
          "internalType": "uint256",
          "name": "",
          "type": "uint256"
        }
      ],
      "stateMutability": "view",
      "type": "function"
    }
  ],
  "bytecode": "0x608060405234801561001057600080fd5b50610a83806100206000396000f3fe608060405234801561001057600080fd5b50600436106100415760003560e01c80638e941347146100465780639fe30b031461006c578063c93c5b401461007f575b600080fd5b61005961005436600461067a565b61009f565b6040519081526020015b60405180910390f35b61005961007a3660046106c5565b6101fe565b61009261008d3660046106e9565b6102ad565b604051610063919061075d565b6040517f2f40e73400000000000000000000000000000000000000000000000000000000815273ffffffffffffffffffffffffffffffffffffffff8416600482015260009073__$c2028ccb9058768042ba03031ed37ddd55$__90632f40e73490602401602060405180830381865af4158015610120573d6000803e3d6000fd5b505050506040513d601f19601f820116820180604052508101906101449190610827565b6040517ff077a96b000000000000000000000000000000000000000000000000000000008152600481019190915273ffffffffffffffffffffffffffffffffffffffff80851660248301528316604482015273__$c2028ccb9058768042ba03031ed37ddd55$__9063f077a96b906064016040805180830381865af41580156101d1573d6000803e3d6000fd5b505050506040513d601f19601f820116820180604052508101906101f591906108be565b51949350505050565b6040517f2f40e73400000000000000000000000000000000000000000000000000000000815273ffffffffffffffffffffffffffffffffffffffff8216600482015260009073__$c2028ccb9058768042ba03031ed37ddd55$__90632f40e73490602401602060405180830381865af415801561027f573d6000803e3d6000fd5b505050506040513d601f19601f820116820180604052508101906102a39190610827565b6005015492915050565b6102d86040518060800160405280600081526020016060815260200160608152602001606081525090565b6040517f2f40e73400000000000000000000000000000000000000000000000000000000815273ffffffffffffffffffffffffffffffffffffffff8416600482015260009073__$c2028ccb9058768042ba03031ed37ddd55$__90632f40e73490602401602060405180830381865af4158015610359573d6000803e3d6000fd5b505050506040513d601f19601f8201168201806040525081019061037d9190610827565b6040517fb4396a5b0000000000000000000000000000000000000000000000000000000081526004810182905273ffffffffffffffffffffffffffffffffffffffff8516602482015290915060009073__$c2028ccb9058768042ba03031ed37ddd55$__9063b4396a5b90604401600060405180830381865af4158015610408573d6000803e3d6000fd5b505050506040513d6000823e601f3d9081017fffffffffffffffffffffffffffffffffffffffffffffffffffffffffffffffe016820160405261044e919081019061090d565b90506000815167ffffffffffffffff81111561046c5761046c610840565b604051908082528060200260200182016040528015610495578160200160208202803683370190505b5090506000825167ffffffffffffffff8111156104b4576104b4610840565b6040519080825280602002602001820160405280156104dd578160200160208202803683370190505b50905060005b83518110156106055760008573__$c2028ccb9058768042ba03031ed37ddd55$__63f077a96b90918a88868151811061051e5761051e6109bf565b60200260200101516040518463ffffffff1660e01b815260040161056b9392919092835273ffffffffffffffffffffffffffffffffffffffff918216602084015216604082015260600190565b6040805180830381865af4158015610587573d6000803e3d6000fd5b505050506040513d601f19601f820116820180604052508101906105ab91906108be565b905080600001518483815181106105c4576105c46109bf565b60200260200101818152505080602001518383815181106105e7576105e76109bf565b602090810291909101015250806105fd816109ee565b9150506104e3565b506040805160808101825273ffffffffffffffffffffffffffffffffffffffff88166000908152600390960160209081529582902054815294850193909352918301526060820152905092915050565b73ffffffffffffffffffffffffffffffffffffffff8116811461067757600080fd5b50565b60008060006060848603121561068f57600080fd5b833561069a81610655565b925060208401356106aa81610655565b915060408401356106ba81610655565b809150509250925092565b6000602082840312156106d757600080fd5b81356106e281610655565b9392505050565b600080604083850312156106fc57600080fd5b823561070781610655565b9150602083013561071781610655565b809150509250929050565b600081518084526020808501945080840160005b8381101561075257815187529582019590820190600101610736565b509495945050505050565b60208082528251828201528281015160806040840152805160a0840181905260009291820190839060c08601905b808310156107c157835173ffffffffffffffffffffffffffffffffffffffff16825292840192600192909201919084019061078b565b50604087015193507fffffffffffffffffffffffffffffffffffffffffffffffffffffffffffffffe09250828682030160608701526108008185610722565b9350505060608501518185840301608086015261081d8382610722565b9695505050505050565b60006020828403121561083957600080fd5b5051919050565b7f4e487b7100000000000000000000000000000000000000000000000000000000600052604160045260246000fd5b604051601f82017fffffffffffffffffffffffffffffffffffffffffffffffffffffffffffffffe016810167ffffffffffffffff811182821017156108b6576108b6610840565b604052919050565b6000604082840312156108d057600080fd5b6040516040810181811067ffffffffffffffff821117156108f3576108f3610840565b604052825181526020928301519281019290925250919050565b6000602080838503121561092057600080fd5b825167ffffffffffffffff8082111561093857600080fd5b818501915085601f83011261094c57600080fd5b81518181111561095e5761095e610840565b8060051b915061096f84830161086f565b818152918301840191848101908884111561098957600080fd5b938501935b838510156109b357845192506109a383610655565b828252938501939085019061098e565b98975050505050505050565b7f4e487b7100000000000000000000000000000000000000000000000000000000600052603260045260246000fd5b60007fffffffffffffffffffffffffffffffffffffffffffffffffffffffffffffffff8203610a46577f4e487b7100000000000000000000000000000000000000000000000000000000600052601160045260246000fd5b506001019056fea26469706673582212202bfebd78104b0f599062d538f61999026a88090426f9508011ea9bca73b4a8ab64736f6c63430008120033",
  "linkReferences": {
    "contracts/storage/StakingAccount.sol": {
      "StakingAccount": [
        {
          "length": 20,
          "start": 262
        },
        {
          "length": 20,
          "start": 440
        },
        {
          "length": 20,
          "start": 613
        },
        {
          "length": 20,
          "start": 831
        },
        {
          "length": 20,
          "start": 1006
        },
        {
          "length": 20,
          "start": 1297
        }
      ]
    }
  },
  "deployedLinkReferences": {
    "contracts/storage/StakingAccount.sol": {
      "StakingAccount": [
        {
          "length": 20,
          "start": 230
        },
        {
          "length": 20,
          "start": 408
        },
        {
          "length": 20,
          "start": 581
        },
        {
          "length": 20,
          "start": 799
        },
        {
          "length": 20,
          "start": 974
        },
        {
          "length": 20,
          "start": 1265
        }
      ]
    }
  }
}