{"abi":[{"type":"function","name":"get","inputs":[{"name":"requestId","type":"uint256","internalType":"uint256"}],"outputs":[{"name":"","type":"tuple","internalType":"struct ClaimRewards.Request","components":[{"name":"account","type":"address","internalType":"address"},{"name":"claimUsdToken","type":"address","internalType":"address"},{"name":"executionFee","type":"uint256","internalType":"uint256"}]}],"stateMutability":"view"}],"bytecode":{"object":"0x61025e610039600b82828239805160001a607314602c57634e487b7160e01b600052600060045260246000fd5b30600052607381538281f3fe73000000000000000000000000000000000000000030146080604052600436106100565760003560e01c80634cc822151461005b578063780900dc1461007d57806386d5c4be146100a35780639507d39a146100ab575b600080fd5b81801561006757600080fd5b5061007b61007636600461020f565b6100ee565b005b61009061008b36600461020f565b610126565b6040519081526020015b60405180910390f35b610090610142565b6100be6100b936600461020f565b6101a4565b6040805182516001600160a01b03908116825260208085015190911690820152918101519082015260600161009a565b60006100f8610142565b6000928352602052506040812080546001600160a01b03199081168255600182018054909116905560020155565b600080610131610142565b600093845260205250506040902090565b600080604051602001610186906020808252601d908201527f78797a2e656c66692e73746f726167652e436c61696d52657761726473000000604082015260600190565b60408051601f19818403018152919052805160209091012092915050565b60408051606081018252600080825260208201819052918101829052906101c9610142565b60009384526020908152604093849020845160608101865281546001600160a01b0390811682526001830154169281019290925260020154938101939093525090919050565b60006020828403121561022157600080fd5b503591905056fea2646970667358221220915b5b512a371c83a0fdb0a0e889a6ea30f891e4ef0eaf779f01db34afdcfdf364736f6c63430008190033","linkReferences":{}},"methodIdentifiers":{"create(uint256)":"780900dc","get(uint256)":"9507d39a","load()":"86d5c4be","remove(uint256)":"4cc82215"},"id":82}