{"abi":[{"type":"function","name":"TEST","inputs":[],"outputs":[{"name":"","type":"uint256","internalType":"uint256"}],"stateMutability":"view"},{"type":"function","name":"validEmpty","inputs":[{"name":"addr","type":"address","internalType":"address"}],"outputs":[],"stateMutability":"pure"},{"type":"error","name":"AddressZero","inputs":[]}],"bytecode":{"object":"0x60fa610038600b82828239805160001a607314602b57634e487b7160e01b600052600060045260246000fd5b30600052607381538281f3fe7300000000000000000000000000000000000000003014608060405260043610603d5760003560e01c806351d977a61460425780637ff8770014605c575b600080fd5b604a6103e881565b60405190815260200160405180910390f35b606b60673660046096565b606d565b005b6001600160a01b038116609357604051639fabe1c160e01b815260040160405180910390fd5b50565b60006020828403121560a757600080fd5b81356001600160a01b038116811460bd57600080fd5b939250505056fea2646970667358221220084da1da43b78fd6ebfc27e9a5ac7e3e43bce896dbf0342640489e5a1f1a00b064736f6c63430008190033","linkReferences":{}},"methodIdentifiers":{"TEST()":"51d977a6","validEmpty(address)":"7ff87700"},"id":106}