{"abi":[{"type":"function","name":"cancelMintStakeToken","inputs":[{"name":"requestId","type":"uint256","internalType":"uint256"},{"name":"reasonCode","type":"bytes32","internalType":"bytes32"}],"outputs":[],"stateMutability":"nonpayable"},{"type":"function","name":"cancelRedeemStakeToken","inputs":[{"name":"requestId","type":"uint256","internalType":"uint256"},{"name":"reasonCode","type":"bytes32","internalType":"bytes32"}],"outputs":[],"stateMutability":"nonpayable"},{"type":"function","name":"createMintStakeTokenRequest","inputs":[{"name":"params","type":"tuple","internalType":"struct IStake.MintStakeTokenParams","components":[{"name":"stakeToken","type":"address","internalType":"address"},{"name":"requestToken","type":"address","internalType":"address"},{"name":"requestTokenAmount","type":"uint256","internalType":"uint256"},{"name":"walletRequestTokenAmount","type":"uint256","internalType":"uint256"},{"name":"minStakeAmount","type":"uint256","internalType":"uint256"},{"name":"executionFee","type":"uint256","internalType":"uint256"},{"name":"isCollateral","type":"bool","internalType":"bool"},{"name":"isNativeToken","type":"bool","internalType":"bool"}]}],"outputs":[],"stateMutability":"payable"},{"type":"function","name":"createRedeemStakeTokenRequest","inputs":[{"name":"params","type":"tuple","internalType":"struct IStake.RedeemStakeTokenParams","components":[{"name":"receiver","type":"address","internalType":"address"},{"name":"stakeToken","type":"address","internalType":"address"},{"name":"redeemToken","type":"address","internalType":"address"},{"name":"unStakeAmount","type":"uint256","internalType":"uint256"},{"name":"minRedeemAmount","type":"uint256","internalType":"uint256"},{"name":"executionFee","type":"uint256","internalType":"uint256"}]}],"outputs":[],"stateMutability":"payable"},{"type":"function","name":"executeMintStakeToken","inputs":[{"name":"requestId","type":"uint256","internalType":"uint256"},{"name":"oracles","type":"tuple[]","internalType":"struct OracleProcess.OracleParam[]","components":[{"name":"token","type":"address","internalType":"address"},{"name":"targetToken","type":"address","internalType":"address"},{"name":"minPrice","type":"int256","internalType":"int256"},{"name":"maxPrice","type":"int256","internalType":"int256"}]}],"outputs":[],"stateMutability":"nonpayable"},{"type":"function","name":"executeRedeemStakeToken","inputs":[{"name":"requestId","type":"uint256","internalType":"uint256"},{"name":"oracles","type":"tuple[]","internalType":"struct OracleProcess.OracleParam[]","components":[{"name":"token","type":"address","internalType":"address"},{"name":"targetToken","type":"address","internalType":"address"},{"name":"minPrice","type":"int256","internalType":"int256"},{"name":"maxPrice","type":"int256","internalType":"int256"}]}],"outputs":[],"stateMutability":"nonpayable"},{"type":"error","name":"InvalidRoleAccess","inputs":[{"name":"account","type":"address","internalType":"address"},{"name":"role","type":"bytes32","internalType":"bytes32"}]},{"type":"error","name":"MintRequestNotExists","inputs":[]},{"type":"error","name":"MintTokenInvalid","inputs":[{"name":"stakeToken","type":"address","internalType":"address"},{"name":"mintToken","type":"address","internalType":"address"}]},{"type":"error","name":"MintWithAmountZero","inputs":[]},{"type":"error","name":"MintWithParamError","inputs":[]},{"type":"error","name":"RedeemRequestNotExists","inputs":[]},{"type":"error","name":"RedeemTokenInvalid","inputs":[{"name":"stakeToken","type":"address","internalType":"address"},{"name":"mintToken","type":"address","internalType":"address"}]},{"type":"error","name":"RedeemWithAmountNotEnough","inputs":[{"name":"account","type":"address","internalType":"address"},{"name":"stakeToken","type":"address","internalType":"address"}]},{"type":"error","name":"StakeTokenInvalid","inputs":[{"name":"stakeToken","type":"address","internalType":"address"}]}],"bytecode":{"object":"0x6080604052348015600f57600080fd5b506001600055611f8d806100246000396000f3fe6080604052600436106100555760003560e01c8063182250891461005a5780633b6f91441461007c5780636990d2451461009c5780639d437bd8146100bc578063a7cb6602146100dc578063a8b6d8aa146100ef575b600080fd5b34801561006657600080fd5b5061007a61007536600461182c565b610102565b005b34801561008857600080fd5b5061007a6100973660046118ab565b610497565b3480156100a857600080fd5b5061007a6100b736600461182c565b610744565b3480156100c857600080fd5b5061007a6100d73660046118ab565b610999565b61007a6100ea3660046118cd565b610b23565b61007a6100fd3660046118e6565b611144565b61010a6116ee565b60005a90506101216525a2a2a822a960d11b611747565b604051634a83e9cd60e11b81526004810185905260009073__$68fa9dd76f14c3fca41ae20e35b826bf8f$__90639507d39a9060240161012060405180830381865af4158015610175573d6000803e3d6000fd5b505050506040513d601f19601f82011682018060405250810190610199919061196e565b80519091506001600160a01b03166101c457604051630f1bc76960e01b815260040160405180910390fd5b604051631d4cb62f60e21b815273__$76a505dbd6210c6de5172a9e6577e0d579$__90637532d8bc906101fd9087908790600401611a08565b60006040518083038186803b15801561021557600080fd5b505af4158015610229573d6000803e3d6000fd5b505060405163c9ae3f5760e01b815273__$bfda8595f03a612d1fcaa1fa61b3e97c85$__925063c9ae3f5791506102669088908590600401611af2565b602060405180830381865af4158015610283573d6000803e3d6000fd5b505050506040513d601f19601f820116820180604052508101906102a79190611b07565b5073__$76a505dbd6210c6de5172a9e6577e0d579$__63e52ed3656040518163ffffffff1660e01b815260040160006040518083038186803b1580156102ec57600080fd5b505af4158015610300573d6000803e3d6000fd5b5050505073__$1af6d17e273104ca3ca5016ca475f591a0$__634d4d56726040518060a0016040528084610100015161039a57306001600160a01b0316631f7592ea6040518163ffffffff1660e01b8152600401602060405180830381865afa158015610371573d6000803e3d6000fd5b505050506040513d601f19601f820116820180604052508101906103959190611b20565b6103fc565b306001600160a01b03166308ba026f6040518163ffffffff1660e01b8152600401602060405180830381865afa1580156103d8573d6000803e3d6000fd5b505050506040513d601f19601f820116820180604052508101906103fc9190611b20565b6001600160a01b031681526020018460c001518152602001858152602001336001600160a01b0316815260200184600001516001600160a01b03168152506040518263ffffffff1660e01b81526004016104569190611b3d565b60006040518083038186803b15801561046e57600080fd5b505af4158015610482573d6000803e3d6000fd5b5050505050506104926001600055565b505050565b60005a90506104ae6525a2a2a822a960d11b611747565b604051634a83e9cd60e11b81526004810184905260009073__$68fa9dd76f14c3fca41ae20e35b826bf8f$__90639507d39a9060240161012060405180830381865af4158015610502573d6000803e3d6000fd5b505050506040513d601f19601f82011682018060405250810190610526919061196e565b80519091506001600160a01b031661055157604051630f1bc76960e01b815260040160405180910390fd5b6040516374ecebb160e11b815273__$bfda8595f03a612d1fcaa1fa61b3e97c85$__9063e9d9d7629061058c90879085908890600401611b80565b60006040518083038186803b1580156105a457600080fd5b505af41580156105b8573d6000803e3d6000fd5b5050505073__$1af6d17e273104ca3ca5016ca475f591a0$__634d4d56726040518060a0016040528084610100015161065257306001600160a01b0316631f7592ea6040518163ffffffff1660e01b8152600401602060405180830381865afa158015610629573d6000803e3d6000fd5b505050506040513d601f19601f8201168201806040525081019061064d9190611b20565b6106b4565b306001600160a01b03166308ba026f6040518163ffffffff1660e01b8152600401602060405180830381865afa158015610690573d6000803e3d6000fd5b505050506040513d601f19601f820116820180604052508101906106b49190611b20565b6001600160a01b031681526020018460c001518152602001858152602001336001600160a01b0316815260200184600001516001600160a01b03168152506040518263ffffffff1660e01b815260040161070e9190611b3d565b60006040518083038186803b15801561072657600080fd5b505af415801561073a573d6000803e3d6000fd5b5050505050505050565b61074c6116ee565b60005a90506107636525a2a2a822a960d11b611747565b604051631d4cb62f60e21b815273__$76a505dbd6210c6de5172a9e6577e0d579$__90637532d8bc9061079c9086908690600401611a08565b60006040518083038186803b1580156107b457600080fd5b505af41580156107c8573d6000803e3d6000fd5b5050604051634a83e9cd60e11b8152600481018790526000925073__$7ddac4f6f7877bce940c0a4e1582e85ca1$__9150639507d39a9060240160e060405180830381865af415801561081f573d6000803e3d6000fd5b505050506040513d601f19601f820116820180604052508101906108439190611ba4565b60208101519091506001600160a01b031661087157604051630a24c01d60e31b815260040160405180910390fd5b604051635b86b58d60e01b815273__$b5e56ff26890d4084241f66805e39ec41d$__90635b86b58d906108aa9088908590600401611cae565b60006040518083038186803b1580156108c257600080fd5b505af41580156108d6573d6000803e3d6000fd5b5050505073__$76a505dbd6210c6de5172a9e6577e0d579$__63e52ed3656040518163ffffffff1660e01b815260040160006040518083038186803b15801561091e57600080fd5b505af4158015610932573d6000803e3d6000fd5b5050505073__$1af6d17e273104ca3ca5016ca475f591a0$__634d4d56726040518060a00160405280306001600160a01b0316631f7592ea6040518163ffffffff1660e01b8152600401602060405180830381865afa1580156103d8573d6000803e3d6000fd5b60005a90506109b06525a2a2a822a960d11b611747565b604051634a83e9cd60e11b81526004810184905260009073__$7ddac4f6f7877bce940c0a4e1582e85ca1$__90639507d39a9060240160e060405180830381865af4158015610a03573d6000803e3d6000fd5b505050506040513d601f19601f82011682018060405250810190610a279190611ba4565b60208101519091506001600160a01b0316610a5557604051630a24c01d60e31b815260040160405180910390fd5b604051631189a61f60e01b815273__$b5e56ff26890d4084241f66805e39ec41d$__90631189a61f90610a9090879085908890600401611cc3565b60006040518083038186803b158015610aa857600080fd5b505af4158015610abc573d6000803e3d6000fd5b5050505073__$1af6d17e273104ca3ca5016ca475f591a0$__634d4d56726040518060a00160405280306001600160a01b0316631f7592ea6040518163ffffffff1660e01b8152600401602060405180830381865afa158015610690573d6000803e3d6000fd5b610b2b6116ee565b8060400135600003610b5057604051637e278d5760e11b815260040160405180910390fd5b6000610b5f6020830183611ce7565b6001600160a01b031603610b865760405163801c452360e01b815260040160405180910390fd5b336000610b996040840160208501611ce7565b9050610ba86020840184611ce7565b6001600160a01b031673__$2c5e3d38607d7ea6eea9d5dc78ed57d239$__63f141859a6040518163ffffffff1660e01b8152600401602060405180830381865af4158015610bfa573d6000803e3d6000fd5b505050506040513d601f19601f82011682018060405250810190610c1e9190611b20565b6001600160a01b031603610cf0576040516339374da160e21b81526001600160a01b038216600482015273__$69c89f533e100333dfc56147eb38ab86ce$__9063e4dd368490602401602060405180830381865af4158015610c84573d6000803e3d6000fd5b505050506040513d601f19601f82011682018060405250810190610ca89190611d04565b610ceb57610cb96020840184611ce7565b6040516364f3d63f60e01b81526001600160a01b03918216600482015290821660248201526044015b60405180910390fd5b610ea1565b73__$2c5e3d38607d7ea6eea9d5dc78ed57d239$__634f52e5b6610d176020860186611ce7565b6040516001600160e01b031960e084901b1681526001600160a01b039091166004820152602401602060405180830381865af4158015610d5b573d6000803e3d6000fd5b505050506040513d601f19601f82011682018060405250810190610d7f9190611d04565b15610e6f57600073__$031d78916aae4b898c89af4123228b6f12$__632f40e734610dad6020870187611ce7565b6040516001600160e01b031960e084901b1681526001600160a01b039091166004820152602401602060405180830381865af4158015610df1573d6000803e3d6000fd5b505050506040513d601f19601f82011682018060405250810190610e159190611b07565b60028101549091506001600160a01b03838116911614610e6957610e3c6020850185611ce7565b6040516364f3d63f60e01b81526001600160a01b0391821660048201529083166024820152604401610ce2565b50610ea1565b610e7c6020840184611ce7565b60405163f31dadd760e01b81526001600160a01b039091166004820152602401610ce2565b60608301351561101f57610ebc610100840160e08501611d21565b1580610ecb5750826060013534145b610f175760405162461bcd60e51b815260206004820152601960248201527f4465706f7369742065746820616d6f756e74206572726f7221000000000000006044820152606401610ce2565b73__$ae0937d060466c56d4bdd1eafaed47a473$__63ef59a9d16040518060a00160405280856001600160a01b03168152602001866020016020810190610f5e9190611ce7565b6001600160a01b0316815260608701356020820152604001610f8660e0880160c08901611d21565b610f91576002610f94565b60035b6003811115610fa557610fa5611d3e565b8152602001610fbb610100880160e08901611d21565b15158152506040518263ffffffff1660e01b8152600401610fdc9190611d54565b602060405180830381865af4158015610ff9573d6000803e3d6000fd5b505050506040513d601f19601f8201168201806040525081019061101d9190611b20565b505b60008073__$bfda8595f03a612d1fcaa1fa61b3e97c85$__637c853ff385876040518363ffffffff1660e01b815260040161105b929190611e44565b6040805180830381865af4158015611077573d6000803e3d6000fd5b505050506040513d601f19601f8201168201806040525081019061109b9190611e62565b9150915081856040013510156110c45760405163801c452360e01b815260040160405180910390fd5b60405163a405d30760e01b815273__$bfda8595f03a612d1fcaa1fa61b3e97c85$__9063a405d307906111039088908890889088908890600401611e92565b60006040518083038186803b15801561111b57600080fd5b505af415801561112f573d6000803e3d6000fd5b50505050505050506111416001600055565b50565b61114c6116ee565b60008160600135116111955760405162461bcd60e51b81526020600482015260126024820152710756e5374616b65416d6f756e74203d3d20360741b6044820152606401610ce2565b73__$2b00c9d0cdf78dd5187c9c951fc5cff71b$__637ff877006111bc6020840184611ce7565b6040516001600160e01b031960e084901b1681526001600160a01b03909116600482015260240160006040518083038186803b1580156111fb57600080fd5b505af415801561120f573d6000803e3d6000fd5b503392506000915061122990506040840160208501611ce7565b6040516370a0823160e01b81526001600160a01b03848116600483015291909116906370a0823190602401602060405180830381865afa158015611271573d6000803e3d6000fd5b505050506040513d601f19601f820116820180604052508101906112959190611b07565b9050806000036112dc57816112b06040850160208601611ce7565b60405163f8b251f760e01b81526001600160a01b03928316600482015291166024820152604401610ce2565b82606001358110156112f957816112b06040850160208601611ce7565b6113096040840160208501611ce7565b6001600160a01b031673__$2c5e3d38607d7ea6eea9d5dc78ed57d239$__63f141859a6040518163ffffffff1660e01b8152600401602060405180830381865af415801561135b573d6000803e3d6000fd5b505050506040513d601f19601f8201168201806040525081019061137f9190611b20565b6001600160a01b0316036114745773__$69c89f533e100333dfc56147eb38ab86ce$__63e4dd36846113b76060860160408701611ce7565b6040516001600160e01b031960e084901b1681526001600160a01b039091166004820152602401602060405180830381865af41580156113fb573d6000803e3d6000fd5b505050506040513d601f19601f8201168201806040525081019061141f9190611d04565b61146f576114336040840160208501611ce7565b6114436060850160408601611ce7565b60405163fdeabc1960e01b81526001600160a01b03928316600482015291166024820152604401610ce2565b6115fe565b73__$2c5e3d38607d7ea6eea9d5dc78ed57d239$__634f52e5b661149e6040860160208701611ce7565b6040516001600160e01b031960e084901b1681526001600160a01b039091166004820152602401602060405180830381865af41580156114e2573d6000803e3d6000fd5b505050506040513d601f19601f820116820180604052508101906115069190611d04565b156115ee57600073__$031d78916aae4b898c89af4123228b6f12$__632f40e7346115376040870160208801611ce7565b6040516001600160e01b031960e084901b1681526001600160a01b039091166004820152602401602060405180830381865af415801561157b573d6000803e3d6000fd5b505050506040513d601f19601f8201168201806040525081019061159f9190611b07565b90506115b16060850160408601611ce7565b60028201546001600160a01b039081169116146115e8576115d86040850160208601611ce7565b6114436060860160408701611ce7565b506115fe565b610e7c6040840160208501611ce7565b604051633d39be3760e21b81526001600160a01b038316600482015260a0840135602482015273__$b5e56ff26890d4084241f66805e39ec41d$__9063f4e6f8dc9060440160006040518083038186803b15801561165b57600080fd5b505af415801561166f573d6000803e3d6000fd5b50506040516305c00cf160e01b815273__$b5e56ff26890d4084241f66805e39ec41d$__92506305c00cf191506116b29086908690606083013590600401611ed6565b60006040518083038186803b1580156116ca57600080fd5b505af41580156116de573d6000803e3d6000fd5b5050505050506111416001600055565b6002600054036117405760405162461bcd60e51b815260206004820152601f60248201527f5265656e7472616e637947756172643a207265656e7472616e742063616c6c006044820152606401610ce2565b6002600055565b6117513382611777565b61114157604051632d7d0e0d60e21b815233600482015260248101829052604401610ce2565b6000806117826117af565b6001600160a01b03851660009081526020829052604090209091506117a79084611811565b949350505050565b6000806040516020016117f3906020808252601e908201527f78797a2e656c66692e73746f726167652e416363657373436f6e74726f6c0000604082015260600190565b60408051601f19818403018152919052805160209091012092915050565b600081815260018301602052604081205415155b9392505050565b60008060006040848603121561184157600080fd5b83359250602084013567ffffffffffffffff8082111561186057600080fd5b818601915086601f83011261187457600080fd5b81358181111561188357600080fd5b8760208260071b850101111561189857600080fd5b6020830194508093505050509250925092565b600080604083850312156118be57600080fd5b50508035926020909101359150565b600061010082840312156118e057600080fd5b50919050565b600060c082840312156118e057600080fd5b604051610120810167ffffffffffffffff8111828210171561192a57634e487b7160e01b600052604160045260246000fd5b60405290565b6001600160a01b038116811461114157600080fd5b805161195081611930565b919050565b801515811461114157600080fd5b805161195081611955565b6000610120828403121561198157600080fd5b6119896118f8565b61199283611945565b81526119a060208401611945565b60208201526119b160408401611945565b6040820152606083015160608201526080830151608082015260a083015160a082015260c083015160c08201526119ea60e08401611963565b60e08201526101006119fd818501611963565b908201529392505050565b6020808252818101839052600090604080840186845b87811015611a75578135611a3181611930565b6001600160a01b0390811684528286013590611a4c82611930565b168386015281840135848401526060808301359084015260809283019290910190600101611a1e565b5090979650505050505050565b60018060a01b0380825116835280602083015116602084015280604083015116604084015250606081015160608301526080810151608083015260a081015160a083015260c081015160c083015260e0810151611ae360e084018215159052565b50610100908101511515910152565b82815261014081016118256020830184611a82565b600060208284031215611b1957600080fd5b5051919050565b600060208284031215611b3257600080fd5b815161182581611930565b81516001600160a01b0390811682526020808401519083015260408084015190830152606080840151821690830152608092830151169181019190915260a00190565b8381526101608101611b956020830185611a82565b82610140830152949350505050565b600060e08284031215611bb657600080fd5b60405160e0810181811067ffffffffffffffff82111715611be757634e487b7160e01b600052604160045260246000fd5b6040528251611bf581611930565b81526020830151611c0581611930565b60208201526040830151611c1881611930565b60408201526060830151611c2b81611930565b806060830152506080830151608082015260a083015160a082015260c083015160c08201528091505092915050565b60018060a01b03808251168352806020830151166020840152806040830151166040840152806060830151166060840152506080810151608083015260a081015160a083015260c081015160c08301525050565b82815261010081016118256020830184611c5a565b8381526101208101611cd86020830185611c5a565b82610100830152949350505050565b600060208284031215611cf957600080fd5b813561182581611930565b600060208284031215611d1657600080fd5b815161182581611955565b600060208284031215611d3357600080fd5b813561182581611955565b634e487b7160e01b600052602160045260246000fd5b81516001600160a01b0390811682526020808401519091169082015260408083015190820152606082015160a082019060048110611da257634e487b7160e01b600052602160045260246000fd5b8060608401525060808301511515608083015292915050565b8035611dc681611930565b6001600160a01b039081168352602082013590611de282611930565b8082166020850152505060408101356040830152606081013560608301526080810135608083015260a081013560a083015260c0810135611e2281611955565b151560c083015260e0810135611e3781611955565b80151560e0840152505050565b6001600160a01b038316815261012081016118256020830184611dbb565b60008060408385031215611e7557600080fd5b825191506020830151611e8781611955565b809150509250929050565b6101808101611ea18288611dbb565b6001600160a01b0395861661010083015293909416610120850152610140840191909152151561016090920191909152919050565b61010081018435611ee681611930565b6001600160a01b039081168352602086013590611f0282611930565b9081166020840152604086013590611f1982611930565b8082166040850152606087013560608501526080870135608085015260a087013560a085015280861660c085015250508260e083015294935050505056fea2646970667358221220937d4c9086255b339f2f21f8bda47766d303a37f3b3c7ffa114202c20fb4978e64736f6c63430008190033","linkReferences":{"contracts/process/AssetsProcess.sol":{"AssetsProcess":[{"start":3901,"length":20}]},"contracts/process/GasProcess.sol":{"GasProcess":[{"start":810,"length":20},{"start":1506,"length":20},{"start":2396,"length":20},{"start":2790,"length":20}]},"contracts/process/MintProcess.sol":{"MintProcess":[{"start":606,"length":20},{"start":1412,"length":20},{"start":4168,"length":20},{"start":4343,"length":20}]},"contracts/process/OracleProcess.sol":{"OracleProcess":[{"start":503,"length":20},{"start":718,"length":20},{"start":1942,"length":20},{"start":2304,"length":20}]},"contracts/process/RedeemProcess.sol":{"RedeemProcess":[{"start":2212,"length":20},{"start":2696,"length":20},{"start":5706,"length":20},{"start":5796,"length":20}]},"contracts/storage/CommonData.sol":{"CommonData":[{"start":3031,"length":20},{"start":3350,"length":20},{"start":4920,"length":20},{"start":5274,"length":20}]},"contracts/storage/LpPool.sol":{"LpPool":[{"start":3500,"length":20},{"start":5427,"length":20}]},"contracts/storage/Mint.sol":{"Mint":[{"start":350,"length":20},{"start":1259,"length":20}]},"contracts/storage/Redeem.sol":{"Redeem":[{"start":2056,"length":20},{"start":2541,"length":20}]},"contracts/storage/UsdPool.sol":{"UsdPool":[{"start":3182,"length":20},{"start":5043,"length":20}]},"contracts/utils/AddressUtils.sol":{"AddressUtils":[{"start":4539,"length":20}]}}},"methodIdentifiers":{"cancelMintStakeToken(uint256,bytes32)":"3b6f9144","cancelRedeemStakeToken(uint256,bytes32)":"9d437bd8","createMintStakeTokenRequest((address,address,uint256,uint256,uint256,uint256,bool,bool))":"a7cb6602","createRedeemStakeTokenRequest((address,address,address,uint256,uint256,uint256))":"a8b6d8aa","executeMintStakeToken(uint256,(address,address,int256,int256)[])":"18225089","executeRedeemStakeToken(uint256,(address,address,int256,int256)[])":"6990d245"},"id":17}