{"abi":[{"type":"function","name":"facetAddress","inputs":[{"name":"_functionSelector","type":"bytes4","internalType":"bytes4"}],"outputs":[{"name":"facetAddress_","type":"address","internalType":"address"}],"stateMutability":"view"},{"type":"function","name":"facetAddresses","inputs":[],"outputs":[{"name":"facetAddresses_","type":"address[]","internalType":"address[]"}],"stateMutability":"view"},{"type":"function","name":"facetFunctionSelectors","inputs":[{"name":"_facet","type":"address","internalType":"address"}],"outputs":[{"name":"_facetFunctionSelectors","type":"bytes4[]","internalType":"bytes4[]"}],"stateMutability":"view"},{"type":"function","name":"facets","inputs":[],"outputs":[{"name":"facets_","type":"tuple[]","internalType":"struct IDiamondLoupe.Facet[]","components":[{"name":"facetAddress","type":"address","internalType":"address"},{"name":"functionSelectors","type":"bytes4[]","internalType":"bytes4[]"}]}],"stateMutability":"view"},{"type":"function","name":"supportsInterface","inputs":[{"name":"_interfaceId","type":"bytes4","internalType":"bytes4"}],"outputs":[{"name":"","type":"bool","internalType":"bool"}],"stateMutability":"view"}],"bytecode":{"object":"0x6080604052348015600f57600080fd5b50610a498061001f6000396000f3fe608060405234801561001057600080fd5b50600436106100575760003560e01c806301ffc9a71461005c57806352ef6b2c146100bd5780637a0ed627146100d2578063adfca15e146100e7578063cdffacc614610107575b600080fd5b6100a861006a3660046107f8565b6001600160e01b03191660009081527fdab92b47c5ad1b8db72bf159fe8f1c5404b027a749c8120fa1db90a19db43250602052604090205460ff1690565b60405190151581526020015b60405180910390f35b6100c561015f565b6040516100b49190610829565b6100da6102ec565b6040516100b491906108bc565b6100fa6100f536600461093b565b6106ba565b6040516100b49190610964565b6101476101153660046107f8565b6001600160e01b03191660009081526000805160206109f483398151915260205260409020546001600160a01b031690565b6040516001600160a01b0390911681526020016100b4565b7fdab92b47c5ad1b8db72bf159fe8f1c5404b027a749c8120fa1db90a19db4324f546060906000805160206109f4833981519152908067ffffffffffffffff8111156101ad576101ad610977565b6040519080825280602002602001820160405280156101d6578160200160208202803683370190505b5092506000805b828110156102e25760008460010182815481106101fc576101fc61098d565b6000918252602080832060088304015460079092166004026101000a90910460e01b6001600160e01b0319811683529087905260408220549092506001600160a01b031690805b8581101561028e5788818151811061025d5761025d61098d565b60200260200101516001600160a01b0316836001600160a01b031603610286576001915061028e565b600101610243565b50801561029e57506102da915050565b818886815181106102b1576102b161098d565b6001600160a01b0390921660209283029190910190910152846102d3816109b9565b9550505050505b6001016101dd565b5080845250505090565b7fdab92b47c5ad1b8db72bf159fe8f1c5404b027a749c8120fa1db90a19db4324f546060906000805160206109f4833981519152908067ffffffffffffffff81111561033a5761033a610977565b60405190808252806020026020018201604052801561038057816020015b6040805180820190915260008152606060208201528152602001906001900390816103585790505b50925060008167ffffffffffffffff81111561039e5761039e610977565b6040519080825280602002602001820160405280156103c7578160200160208202803683370190505b5090506000805b838110156106525760008560010182815481106103ed576103ed61098d565b6000918252602080832060088304015460079092166004026101000a90910460e01b6001600160e01b0319811683529088905260408220549092506001600160a01b031690805b8581101561052057826001600160a01b03168a82815181106104585761045861098d565b6020026020010151600001516001600160a01b03160361051857838a82815181106104855761048561098d565b6020026020010151602001518883815181106104a3576104a361098d565b602002602001015161ffff16815181106104bf576104bf61098d565b60200260200101906001600160e01b03191690816001600160e01b031916815250508681815181106104f3576104f361098d565b602002602001018051809190610508906109d2565b61ffff1690525060019150610520565b600101610434565b508015610530575061064a915050565b818986815181106105435761054361098d565b60209081029190910101516001600160a01b0390911690528667ffffffffffffffff81111561057457610574610977565b60405190808252806020026020018201604052801561059d578160200160208202803683370190505b508986815181106105b0576105b061098d565b602002602001015160200181905250828986815181106105d2576105d261098d565b6020026020010151602001516000815181106105f0576105f061098d565b60200260200101906001600160e01b03191690816001600160e01b0319168152505060018686815181106106265761062661098d565b61ffff9092166020928302919091019091015284610643816109b9565b9550505050505b6001016103ce565b5060005b818110156106af5760008382815181106106725761067261098d565b602002602001015161ffff16905060008783815181106106945761069461098d565b60209081029190910181015101519190915250600101610656565b508085525050505090565b7fdab92b47c5ad1b8db72bf159fe8f1c5404b027a749c8120fa1db90a19db4324f546060906000805160206109f48339815191529060008167ffffffffffffffff81111561070a5761070a610977565b604051908082528060200260200182016040528015610733578160200160208202803683370190505b50935060005b828110156107ed5760008460010182815481106107585761075861098d565b6000918252602080832060088304015460079092166004026101000a90910460e01b6001600160e01b031981168352908790526040909120549091506001600160a01b039081169088168190036107e357818785815181106107bc576107bc61098d565b6001600160e01b031990921660209283029190910190910152836107df816109b9565b9450505b5050600101610739565b508352509092915050565b60006020828403121561080a57600080fd5b81356001600160e01b03198116811461082257600080fd5b9392505050565b6020808252825182820181905260009190848201906040850190845b8181101561086a5783516001600160a01b031683529284019291840191600101610845565b50909695505050505050565b60008151808452602080850194506020840160005b838110156108b15781516001600160e01b0319168752958201959082019060010161088b565b509495945050505050565b600060208083018184528085518083526040925060408601915060408160051b87010184880160005b8381101561092d57888303603f19018552815180516001600160a01b0316845287015187840187905261091a87850182610876565b95880195935050908601906001016108e5565b509098975050505050505050565b60006020828403121561094d57600080fd5b81356001600160a01b038116811461082257600080fd5b6020815260006108226020830184610876565b634e487b7160e01b600052604160045260246000fd5b634e487b7160e01b600052603260045260246000fd5b634e487b7160e01b600052601160045260246000fd5b6000600182016109cb576109cb6109a3565b5060010190565b600061ffff8083168181036109e9576109e96109a3565b600101939250505056fedab92b47c5ad1b8db72bf159fe8f1c5404b027a749c8120fa1db90a19db4324ea2646970667358221220ed2e0d2a45f52bb94cf8c4fca9f91a0ec4260282e0c0c2b44b3bb3422524bcb664736f6c63430008190033","linkReferences":{}},"methodIdentifiers":{"facetAddress(bytes4)":"cdffacc6","facetAddresses()":"52ef6b2c","facetFunctionSelectors(address)":"adfca15e","facets()":"7a0ed627","supportsInterface(bytes4)":"01ffc9a7"},"id":4}