{
  "_format": "hh-sol-artifact-1",
  "contractName": "MarketFacet",
  "sourceName": "contracts/facets/MarketFacet.sol",
  "abi": [
    {
      "inputs": [],
      "name": "getAllSymbols",
      "outputs": [
        {
          "components": [
            {
              "internalType": "bytes32",
              "name": "code",
              "type": "bytes32"
            },
            {
              "internalType": "enum Symbol.Status",
              "name": "status",
              "type": "uint8"
            },
            {
              "internalType": "address",
              "name": "stakeToken",
              "type": "address"
            },
            {
              "internalType": "address",
              "name": "indexToken",
              "type": "address"
            },
            {
              "internalType": "address",
              "name": "baseToken",
              "type": "address"
            },
            {
              "components": [
                {
                  "internalType": "uint256",
                  "name": "maxLeverage",
                  "type": "uint256"
                },
                {
                  "internalType": "uint256",
                  "name": "tickSize",
                  "type": "uint256"
                },
                {
                  "internalType": "uint256",
                  "name": "openFeeRate",
                  "type": "uint256"
                },
                {
                  "internalType": "uint256",
                  "name": "closeFeeRate",
                  "type": "uint256"
                },
                {
                  "internalType": "uint256",
                  "name": "maxLongOpenInterestCap",
                  "type": "uint256"
                },
                {
                  "internalType": "uint256",
                  "name": "maxShortOpenInterestCap",
                  "type": "uint256"
                },
                {
                  "internalType": "uint256",
                  "name": "longShortRatioLimit",
                  "type": "uint256"
                },
                {
                  "internalType": "uint256",
                  "name": "longShortOiBottomLimit",
                  "type": "uint256"
                }
              ],
              "internalType": "struct AppConfig.SymbolConfig",
              "name": "config",
              "type": "tuple"
            }
          ],
          "internalType": "struct IMarket.SymbolInfo[]",
          "name": "",
          "type": "tuple[]"
        }
      ],
      "stateMutability": "view",
      "type": "function"
    },
    {
      "inputs": [
        {
          "internalType": "bytes32",
          "name": "key",
          "type": "bytes32"
        }
      ],
      "name": "getLastUuid",
      "outputs": [
        {
          "internalType": "uint256",
          "name": "",
          "type": "uint256"
        }
      ],
      "stateMutability": "view",
      "type": "function"
    },
    {
      "inputs": [
        {
          "internalType": "bytes32",
          "name": "code",
          "type": "bytes32"
        },
        {
          "components": [
            {
              "internalType": "address",
              "name": "token",
              "type": "address"
            },
            {
              "internalType": "address",
              "name": "targetToken",
              "type": "address"
            },
            {
              "internalType": "int256",
              "name": "minPrice",
              "type": "int256"
            },
            {
              "internalType": "int256",
              "name": "maxPrice",
              "type": "int256"
            }
          ],
          "internalType": "struct OracleProcess.OracleParam[]",
          "name": "oracles",
          "type": "tuple[]"
        }
      ],
      "name": "getMarketInfo",
      "outputs": [
        {
          "components": [
            {
              "components": [
                {
                  "internalType": "bytes32",
                  "name": "code",
                  "type": "bytes32"
                },
                {
                  "internalType": "enum Symbol.Status",
                  "name": "status",
                  "type": "uint8"
                },
                {
                  "internalType": "address",
                  "name": "stakeToken",
                  "type": "address"
                },
                {
                  "internalType": "address",
                  "name": "indexToken",
                  "type": "address"
                },
                {
                  "internalType": "address",
                  "name": "baseToken",
                  "type": "address"
                },
                {
                  "internalType": "string",
                  "name": "baseTokenName",
                  "type": "string"
                }
              ],
              "internalType": "struct Symbol.Props",
              "name": "symbolInfo",
              "type": "tuple"
            },
            {
              "internalType": "uint256",
              "name": "longPositionInterest",
              "type": "uint256"
            },
            {
              "internalType": "uint256",
              "name": "longPositionEntryPrice",
              "type": "uint256"
            },
            {
              "internalType": "uint256",
              "name": "totalShortPositionInterest",
              "type": "uint256"
            },
            {
              "components": [
                {
                  "internalType": "uint256",
                  "name": "openInterest",
                  "type": "uint256"
                },
                {
                  "internalType": "uint256",
                  "name": "entryPrice",
                  "type": "uint256"
                }
              ],
              "internalType": "struct Market.MarketPosition[]",
              "name": "shortPositions",
              "type": "tuple[]"
            },
            {
              "internalType": "uint256",
              "name": "availableLiquidity",
              "type": "uint256"
            },
            {
              "components": [
                {
                  "internalType": "int256",
                  "name": "longFundingFeePerQty",
                  "type": "int256"
                },
                {
                  "internalType": "int256",
                  "name": "shortFundingFeePerQty",
                  "type": "int256"
                },
                {
                  "internalType": "int256",
                  "name": "totalLongFundingFee",
                  "type": "int256"
                },
                {
                  "internalType": "int256",
                  "name": "totalShortFundingFee",
                  "type": "int256"
                },
                {
                  "internalType": "int256",
                  "name": "longFundingFeeRate",
                  "type": "int256"
                },
                {
                  "internalType": "int256",
                  "name": "shortFundingFeeRate",
                  "type": "int256"
                },
                {
                  "internalType": "uint256",
                  "name": "lastUpdateTime",
                  "type": "uint256"
                }
              ],
              "internalType": "struct Market.FundingFee",
              "name": "fundingFee",
              "type": "tuple"
            }
          ],
          "internalType": "struct IMarket.MarketInfo",
          "name": "",
          "type": "tuple"
        }
      ],
      "stateMutability": "view",
      "type": "function"
    },
    {
      "inputs": [],
      "name": "getStakeUsdToken",
      "outputs": [
        {
          "internalType": "address",
          "name": "",
          "type": "address"
        }
      ],
      "stateMutability": "view",
      "type": "function"
    },
    {
      "inputs": [
        {
          "internalType": "bytes32",
          "name": "code",
          "type": "bytes32"
        }
      ],
      "name": "getSymbol",
      "outputs": [
        {
          "components": [
            {
              "internalType": "bytes32",
              "name": "code",
              "type": "bytes32"
            },
            {
              "internalType": "enum Symbol.Status",
              "name": "status",
              "type": "uint8"
            },
            {
              "internalType": "address",
              "name": "stakeToken",
              "type": "address"
            },
            {
              "internalType": "address",
              "name": "indexToken",
              "type": "address"
            },
            {
              "internalType": "address",
              "name": "baseToken",
              "type": "address"
            },
            {
              "components": [
                {
                  "internalType": "uint256",
                  "name": "maxLeverage",
                  "type": "uint256"
                },
                {
                  "internalType": "uint256",
                  "name": "tickSize",
                  "type": "uint256"
                },
                {
                  "internalType": "uint256",
                  "name": "openFeeRate",
                  "type": "uint256"
                },
                {
                  "internalType": "uint256",
                  "name": "closeFeeRate",
                  "type": "uint256"
                },
                {
                  "internalType": "uint256",
                  "name": "maxLongOpenInterestCap",
                  "type": "uint256"
                },
                {
                  "internalType": "uint256",
                  "name": "maxShortOpenInterestCap",
                  "type": "uint256"
                },
                {
                  "internalType": "uint256",
                  "name": "longShortRatioLimit",
                  "type": "uint256"
                },
                {
                  "internalType": "uint256",
                  "name": "longShortOiBottomLimit",
                  "type": "uint256"
                }
              ],
              "internalType": "struct AppConfig.SymbolConfig",
              "name": "config",
              "type": "tuple"
            }
          ],
          "internalType": "struct IMarket.SymbolInfo",
          "name": "params",
          "type": "tuple"
        }
      ],
      "stateMutability": "view",
      "type": "function"
    },
    {
      "inputs": [
        {
          "internalType": "address",
          "name": "token",
          "type": "address"
        }
      ],
      "name": "getTradeTokenInfo",
      "outputs": [
        {
          "components": [
            {
              "internalType": "uint256",
              "name": "tradeTokenCollateral",
              "type": "uint256"
            },
            {
              "internalType": "uint256",
              "name": "tradeTokenLiability",
              "type": "uint256"
            }
          ],
          "internalType": "struct IMarket.TradeTokenInfo",
          "name": "",
          "type": "tuple"
        }
      ],
      "stateMutability": "view",
      "type": "function"
    }
  ],
  "bytecode": "0x608060405234801561001057600080fd5b5061137f806100206000396000f3fe608060405234801561001057600080fd5b50600436106100725760003560e01c8063a7b039d911610050578063a7b039d9146100d5578063cd0743c9146100f5578063f141859a1461011657600080fd5b806351d1a5af146100775780635cfac837146100a05780637aa6aea4146100c0575b600080fd5b61008a610085366004610864565b610143565b60405161009791906109c0565b60405180910390f35b6100b36100ae366004610b24565b61020a565b6040516100979190610bec565b6100c8610221565b6040516100979190610bfb565b6100e86100e3366004610c6f565b610373565b6040516100979190610c93565b610108610103366004610b24565b610426565b604051908152602001610097565b61011e6104b6565b60405173ffffffffffffffffffffffffffffffffffffffff9091168152602001610097565b61014b6106fe565b6040517faece5ffd00000000000000000000000000000000000000000000000000000000815273__$ee489ac338146077515da2dbcbd7e1380a$__9063aece5ffd9061019f90879087908790600401610caa565b600060405180830381865af41580156101bc573d6000803e3d6000fd5b505050506040513d6000823e601f3d9081017fffffffffffffffffffffffffffffffffffffffffffffffffffffffffffffffe0168201604052610202919081019061107c565b949350505050565b6102126107ab565b61021b8261052a565b92915050565b6060600073__$2c5e3d38607d7ea6eea9d5dc78ed57d239$__637aa6aea46040518163ffffffff1660e01b8152600401600060405180830381865af415801561026e573d6000803e3d6000fd5b505050506040513d6000823e601f3d9081017fffffffffffffffffffffffffffffffffffffffffffffffffffffffffffffffe01682016040526102b49190810190611148565b90506000815167ffffffffffffffff8111156102d2576102d2610d3b565b60405190808252806020026020018201604052801561030b57816020015b6102f86107ab565b8152602001906001900390816102f05790505b50905060005b825181101561036c5761033c83828151811061032f5761032f6111d9565b602002602001015161052a565b82828151811061034e5761034e6111d9565b6020026020010181905250808061036490611208565b915050610311565b5092915050565b6040805180820182526000808252602082015290517fa7b039d900000000000000000000000000000000000000000000000000000000815273ffffffffffffffffffffffffffffffffffffffff8316600482015273__$ee489ac338146077515da2dbcbd7e1380a$__9063a7b039d9906024016040805180830381865af4158015610402573d6000803e3d6000fd5b505050506040513d601f19601f8201168201806040525081019061021b9190611267565b6040517fe55697730000000000000000000000000000000000000000000000000000000081526004810182905260009073__$1f6634ba11cc1ae886305aee292e3d3d68$__9063e556977390602401602060405180830381865af4158015610492573d6000803e3d6000fd5b505050506040513d601f19601f8201168201806040525081019061021b9190611283565b600073__$2c5e3d38607d7ea6eea9d5dc78ed57d239$__63f141859a6040518163ffffffff1660e01b8152600401602060405180830381865af4158015610501573d6000803e3d6000fd5b505050506040513d601f19601f82011682018060405250810190610525919061129c565b905090565b6105326107ab565b6040517ff03507990000000000000000000000000000000000000000000000000000000081526004810183905260009073__$c1ae4f2fd189c456c923d4bac13705c722$__9063f035079990602401602060405180830381865af415801561059e573d6000803e3d6000fd5b505050506040513d601f19601f820116820180604052508101906105c29190611283565b6001810154909150610100900473ffffffffffffffffffffffffffffffffffffffff16156106f857805482526001810154602083019060ff16600381111561060c5761060c6108e3565b9081600381111561061f5761061f6108e3565b9052506001810154610100900473ffffffffffffffffffffffffffffffffffffffff90811660408481019190915260028301548216606085015260038301549091166080840152517fe1be37bd0000000000000000000000000000000000000000000000000000000081526004810184905273__$c06d506426af55c412c71c91137196f65b$__9063e1be37bd9060240161010060405180830381865af41580156106ce573d6000803e3d6000fd5b505050506040513d601f19601f820116820180604052508101906106f291906112b9565b60a08301525b50919050565b604080516101a08101909152600060e0820181815261010083018290526101208301829052610140830182905261016083019190915260606101808301528190815260200160008152602001600081526020016000815260200160608152602001600081526020016107a66040518060e00160405280600081526020016000815260200160008152602001600081526020016000815260200160008152602001600081525090565b905290565b6040805160c08101909152600080825260208201908152602001600073ffffffffffffffffffffffffffffffffffffffff168152602001600073ffffffffffffffffffffffffffffffffffffffff168152602001600073ffffffffffffffffffffffffffffffffffffffff1681526020016107a660405180610100016040528060008152602001600081526020016000815260200160008152602001600081526020016000815260200160008152602001600081525090565b60008060006040848603121561087957600080fd5b83359250602084013567ffffffffffffffff8082111561089857600080fd5b818601915086601f8301126108ac57600080fd5b8135818111156108bb57600080fd5b8760208260071b85010111156108d057600080fd5b6020830194508093505050509250925092565b7f4e487b7100000000000000000000000000000000000000000000000000000000600052602160045260246000fd5b60048110610949577f4e487b7100000000000000000000000000000000000000000000000000000000600052602160045260246000fd5b9052565b60005b83811015610968578181015183820152602001610950565b50506000910152565b600081518084526020808501945080840160005b838110156109b5576109a287835180518252602090810151910152565b6040969096019590820190600101610985565b509495945050505050565b60208152600082516101a0602084015261028081516101c085015260208201516109ee6101e0860182610912565b50604082015173ffffffffffffffffffffffffffffffffffffffff8082166102008701528060608501511661022087015280608085015116610240870152505060a0820151915060c0610260850152815180828601526102a0610a57828288016020870161094d565b7fffffffffffffffffffffffffffffffffffffffffffffffffffffffffffffffe0601f8301168601935060208701516040870152604087015160608701526060870151608087015260808701519150828685030160a0870152610abc81850183610971565b935050505060a084015160c084015260c0840151610b1c60e0850182805182526020810151602083015260408101516040830152606081015160608301526080810151608083015260a081015160a083015260c081015160c08301525050565b509392505050565b600060208284031215610b3657600080fd5b5035919050565b805182526020810151610b536020840182610912565b50604081015173ffffffffffffffffffffffffffffffffffffffff8082166040850152806060840151166060850152806080840151166080850152505060a0810151805160a0840152602081015160c0840152604081015160e08401526060810151610100840152608081015161012084015260a081015161014084015260c081015161016084015260e0810151610180840152505050565b6101a0810161021b8284610b3d565b6020808252825182820181905260009190848201906040850190845b81811015610c3e57610c2a838551610b3d565b928401926101a09290920191600101610c17565b50909695505050505050565b73ffffffffffffffffffffffffffffffffffffffff81168114610c6c57600080fd5b50565b600060208284031215610c8157600080fd5b8135610c8c81610c4a565b9392505050565b81518152602080830151908201526040810161021b565b838152604060208083018290528282018490526000919060609081850187855b88811015610d2c578135610cdd81610c4a565b73ffffffffffffffffffffffffffffffffffffffff90811684528285013590610d0582610c4a565b16838501528186013586840152848201358584015260809283019290910190600101610cca565b50909998505050505050505050565b7f4e487b7100000000000000000000000000000000000000000000000000000000600052604160045260246000fd5b60405160c0810167ffffffffffffffff81118282101715610d8d57610d8d610d3b565b60405290565b60405160e0810167ffffffffffffffff81118282101715610d8d57610d8d610d3b565b604051601f82017fffffffffffffffffffffffffffffffffffffffffffffffffffffffffffffffe016810167ffffffffffffffff81118282101715610dfd57610dfd610d3b565b604052919050565b8051610e1081610c4a565b919050565b600082601f830112610e2657600080fd5b815167ffffffffffffffff811115610e4057610e40610d3b565b610e7160207fffffffffffffffffffffffffffffffffffffffffffffffffffffffffffffffe0601f84011601610db6565b818152846020838601011115610e8657600080fd5b61020282602083016020870161094d565b600060c08284031215610ea957600080fd5b610eb1610d6a565b905081518152602082015160048110610ec957600080fd5b6020820152610eda60408301610e05565b6040820152610eeb60608301610e05565b6060820152610efc60808301610e05565b608082015260a082015167ffffffffffffffff811115610f1b57600080fd5b610f2784828501610e15565b60a08301525092915050565b600067ffffffffffffffff821115610f4d57610f4d610d3b565b5060051b60200190565b600060408284031215610f6957600080fd5b6040516040810181811067ffffffffffffffff82111715610f8c57610f8c610d3b565b604052825181526020928301519281019290925250919050565b600082601f830112610fb757600080fd5b81516020610fcc610fc783610f33565b610db6565b82815260069290921b84018101918181019086841115610feb57600080fd5b8286015b8481101561100f576110018882610f57565b835291830191604001610fef565b509695505050505050565b600060e0828403121561102c57600080fd5b611034610d93565b9050815181526020820151602082015260408201516040820152606082015160608201526080820151608082015260a082015160a082015260c082015160c082015292915050565b60006020828403121561108e57600080fd5b815167ffffffffffffffff808211156110a657600080fd5b908301906101a082860312156110bb57600080fd5b6110c3610d93565b8251828111156110d257600080fd5b6110de87828601610e97565b82525060208301516020820152604083015160408201526060830151606082015260808301518281111561111157600080fd5b61111d87828601610fa6565b60808301525060a083015160a082015261113a8660c0850161101a565b60c082015295945050505050565b6000602080838503121561115b57600080fd5b825167ffffffffffffffff81111561117257600080fd5b8301601f8101851361118357600080fd5b8051611191610fc782610f33565b81815260059190911b820183019083810190878311156111b057600080fd5b928401925b828410156111ce578351825292840192908401906111b5565b979650505050505050565b7f4e487b7100000000000000000000000000000000000000000000000000000000600052603260045260246000fd5b60007fffffffffffffffffffffffffffffffffffffffffffffffffffffffffffffffff8203611260577f4e487b7100000000000000000000000000000000000000000000000000000000600052601160045260246000fd5b5060010190565b60006040828403121561127957600080fd5b610c8c8383610f57565b60006020828403121561129557600080fd5b5051919050565b6000602082840312156112ae57600080fd5b8151610c8c81610c4a565b60006101008083850312156112cd57600080fd5b6040519081019067ffffffffffffffff821181831017156112f0576112f0610d3b565b81604052835181526020840151602082015260408401516040820152606084015160608201526080840151608082015260a084015160a082015260c084015160c082015260e084015160e082015280925050509291505056fea26469706673582212207fd30d59f36414827fc174238366e2c31cdf94931cf3682b678302b250b5a2f164736f6c63430008120033",
  "linkReferences": {
    "contracts/process/ConfigProcess.sol": {
      "ConfigProcess": [
        {
          "length": 20,
          "start": 1715
        }
      ]
    },
    "contracts/process/MarketQueryProcess.sol": {
      "MarketQueryProcess": [
        {
          "length": 20,
          "start": 403
        },
        {
          "length": 20,
          "start": 1001
        }
      ]
    },
    "contracts/storage/CommonData.sol": {
      "CommonData": [
        {
          "length": 20,
          "start": 583
        },
        {
          "length": 20,
          "start": 1242
        }
      ]
    },
    "contracts/storage/Symbol.sol": {
      "Symbol": [
        {
          "length": 20,
          "start": 1412
        }
      ]
    },
    "contracts/storage/UuidCreator.sol": {
      "UuidCreator": [
        {
          "length": 20,
          "start": 1144
        }
      ]
    }
  },
  "deployedLinkReferences": {
    "contracts/process/ConfigProcess.sol": {
      "ConfigProcess": [
        {
          "length": 20,
          "start": 1683
        }
      ]
    },
    "contracts/process/MarketQueryProcess.sol": {
      "MarketQueryProcess": [
        {
          "length": 20,
          "start": 371
        },
        {
          "length": 20,
          "start": 969
        }
      ]
    },
    "contracts/storage/CommonData.sol": {
      "CommonData": [
        {
          "length": 20,
          "start": 551
        },
        {
          "length": 20,
          "start": 1210
        }
      ]
    },
    "contracts/storage/Symbol.sol": {
      "Symbol": [
        {
          "length": 20,
          "start": 1380
        }
      ]
    },
    "contracts/storage/UuidCreator.sol": {
      "UuidCreator": [
        {
          "length": 20,
          "start": 1112
        }
      ]
    }
  }
}