{"abi":[{"type":"function","name":"getCumulativeBorrowingFeePerToken","inputs":[{"name":"stakeToken","type":"address","internalType":"address"},{"name":"isLong","type":"bool","internalType":"bool"},{"name":"marginToken","type":"address","internalType":"address"}],"outputs":[{"name":"","type":"uint256","internalType":"uint256"}],"stateMutability":"view"},{"type":"function","name":"getFundingFeePerQty","inputs":[{"name":"symbol","type":"bytes32","internalType":"bytes32"},{"name":"isLong","type":"bool","internalType":"bool"}],"outputs":[{"name":"","type":"int256","internalType":"int256"}],"stateMutability":"view"},{"type":"function","name":"getMarketInfo","inputs":[{"name":"symbol","type":"bytes32","internalType":"bytes32"},{"name":"oracles","type":"tuple[]","internalType":"struct OracleProcess.OracleParam[]","components":[{"name":"token","type":"address","internalType":"address"},{"name":"targetToken","type":"address","internalType":"address"},{"name":"minPrice","type":"int256","internalType":"int256"},{"name":"maxPrice","type":"int256","internalType":"int256"}]}],"outputs":[{"name":"","type":"tuple","internalType":"struct IMarket.MarketInfo","components":[{"name":"symbolInfo","type":"tuple","internalType":"struct Symbol.Props","components":[{"name":"code","type":"bytes32","internalType":"bytes32"},{"name":"status","type":"Symbol.Status","internalType":"enum Symbol.Status"},{"name":"stakeToken","type":"address","internalType":"address"},{"name":"indexToken","type":"address","internalType":"address"},{"name":"baseToken","type":"address","internalType":"address"},{"name":"baseTokenName","type":"string","internalType":"string"}]},{"name":"longPositionInterest","type":"uint256","internalType":"uint256"},{"name":"longPositionEntryPrice","type":"uint256","internalType":"uint256"},{"name":"totalShortPositionInterest","type":"uint256","internalType":"uint256"},{"name":"shortPositions","type":"tuple[]","internalType":"struct Market.MarketPosition[]","components":[{"name":"openInterest","type":"uint256","internalType":"uint256"},{"name":"entryPrice","type":"uint256","internalType":"uint256"}]},{"name":"availableLiquidity","type":"uint256","internalType":"uint256"},{"name":"fundingFee","type":"tuple","internalType":"struct Market.FundingFee","components":[{"name":"longFundingFeePerQty","type":"int256","internalType":"int256"},{"name":"shortFundingFeePerQty","type":"int256","internalType":"int256"},{"name":"totalLongFundingFee","type":"int256","internalType":"int256"},{"name":"totalShortFundingFee","type":"int256","internalType":"int256"},{"name":"longFundingFeeRate","type":"int256","internalType":"int256"},{"name":"shortFundingFeeRate","type":"int256","internalType":"int256"},{"name":"lastUpdateTime","type":"uint256","internalType":"uint256"}]}]}],"stateMutability":"view"},{"type":"function","name":"getTradeTokenInfo","inputs":[{"name":"token","type":"address","internalType":"address"}],"outputs":[{"name":"","type":"tuple","internalType":"struct IMarket.TradeTokenInfo","components":[{"name":"tradeTokenCollateral","type":"uint256","internalType":"uint256"},{"name":"tradeTokenLiability","type":"uint256","internalType":"uint256"}]}],"stateMutability":"view"},{"type":"function","name":"getUpdateMarketFundingFeeRate","inputs":[{"name":"symbol","type":"bytes32","internalType":"bytes32"}],"outputs":[{"name":"onlyUpdateTime","type":"bool","internalType":"bool"},{"name":"","type":"tuple","internalType":"struct MarketQueryProcess.UpdateFundingCache","components":[{"name":"totalLongOpenInterest","type":"uint256","internalType":"uint256"},{"name":"totalShortOpenInterest","type":"uint256","internalType":"uint256"},{"name":"fundingFeeDurationInSecond","type":"uint256","internalType":"uint256"},{"name":"fundingRatePerSecond","type":"uint256","internalType":"uint256"},{"name":"totalFundingFee","type":"uint256","internalType":"uint256"},{"name":"currentLongFundingFeePerQty","type":"uint256","internalType":"uint256"},{"name":"currentShortFundingFeePerQty","type":"uint256","internalType":"uint256"},{"name":"longFundingFeePerQtyDelta","type":"int256","internalType":"int256"},{"name":"shortFundingFeePerQtyDelta","type":"int256","internalType":"int256"},{"name":"longPayShort","type":"bool","internalType":"bool"}]}],"stateMutability":"view"}],"bytecode":{"object":"0x612738610039600b82828239805160001a607314602c57634e487b7160e01b600052600060045260246000fd5b30600052607381538281f3fe73000000000000000000000000000000000000000030146080604052600436106100875760003560e01c8063a7b039d911610065578063a7b039d9146100e6578063ad9f930f14610106578063aece5ffd14610119578063e674b4c51461013957600080fd5b80638863dea51461008c57806393431218146100b25780639e20fcac146100d3575b600080fd5b61009f61009a366004611bca565b61014c565b6040519081526020015b60405180910390f35b6100c56100c0366004611bfa565b6105ac565b6040516100a9929190611c13565b61009f6100e1366004611cac565b610adb565b6100f96100f4366004611cd1565b610b70565b6040516100a99190611cee565b61009f610114366004611bfa565b610d16565b61012c610127366004611d05565b610f20565b6040516100a99190611e30565b61009f610147366004611f68565b61145a565b6040516336dd0ce360e01b8152600481018390526001600160a01b038216602482015260009073__$69c89f533e100333dfc56147eb38ab86ce$__906336dd0ce390604401606060405180830381865af41580156101ae573d6000803e3d6000fd5b505050506040513d601f19601f820116820180604052508101906101d2919061208f565b5115801561026457506040516336dd0ce360e01b8152600481018490526001600160a01b038316602482015273__$69c89f533e100333dfc56147eb38ab86ce$__906336dd0ce390604401606060405180830381865af415801561023a573d6000803e3d6000fd5b505050506040513d601f19601f8201168201806040525081019061025e919061208f565b60400151155b15610271575060006105a6565b6040516336dd0ce360e01b8152600481018490526001600160a01b038316602482015260009073__$60cdec19f17936bbc33543273078a7e6b8$__9063a520855f9073__$69c89f533e100333dfc56147eb38ab86ce$__906336dd0ce390604401606060405180830381865af41580156102ef573d6000803e3d6000fd5b505050506040513d601f19601f82011682018060405250810190610313919061208f565b602001516040516336dd0ce360e01b8152600481018890526001600160a01b038716602482015273__$69c89f533e100333dfc56147eb38ab86ce$__906336dd0ce390604401606060405180830381865af4158015610376573d6000803e3d6000fd5b505050506040513d601f19601f8201168201806040525081019061039a919061208f565b60409081015190516336dd0ce360e01b8152600481018990526001600160a01b038816602482015273__$69c89f533e100333dfc56147eb38ab86ce$__906336dd0ce390604401606060405180830381865af41580156103fe573d6000803e3d6000fd5b505050506040513d601f19601f82011682018060405250810190610422919061208f565b5161042d9190612101565b6040516001600160e01b031960e085901b16815260048101929092526024820152670de0b6b3a76400006044820152606401602060405180830381865af415801561047c573d6000803e3d6000fd5b505050506040513d601f19601f820116820180604052508101906104a09190612114565b60405163c0d0e4b960e01b81526001600160a01b038516600482015290915073__$60cdec19f17936bbc33543273078a7e6b8$__9063228d17e090839073__$601b397ac9b288e68d027c499a437c7805$__9063c0d0e4b990602401602060405180830381865af4158015610519573d6000803e3d6000fd5b505050506040513d601f19601f8201168201806040525081019061053d9190612114565b6040516001600160e01b031960e085901b16815260048101929092526024820152604401602060405180830381865af415801561057e573d6000803e3d6000fd5b505050506040513d601f19601f820116820180604052508101906105a29190612114565b9150505b92915050565b60006105b6611ab0565b6105be611ab0565b60405163f035079960e01b81526004810185905260009073__$3c6261fc29985881007184aacdacb41a63$__9063f035079990602401602060405180830381865af4158015610611573d6000803e3d6000fd5b505050506040513d601f19601f820116820180604052508101906106359190612114565b60405163f035079960e01b81526004810187905290915060009073__$c1ae4f2fd189c456c923d4bac13705c722$__9063f035079990602401602060405180830381865af415801561068b573d6000803e3d6000fd5b505050506040513d601f19601f820116820180604052508101906106af9190612114565b604051632d0c18b360e11b81526004810184905290915073__$3c6261fc29985881007184aacdacb41a63$__90635a18316690602401602060405180830381865af4158015610702573d6000803e3d6000fd5b505050506040513d601f19601f820116820180604052508101906107269190612114565b835260405163d073b61160e01b81526004810183905273__$3c6261fc29985881007184aacdacb41a63$__9063d073b61190602401602060405180830381865af4158015610778573d6000803e3d6000fd5b505050506040513d601f19601f8201168201806040525081019061079c9190612114565b602084015282511580156107b257506020830151155b806107c1575060208301518351145b156107d457506001959194509092505050565b6107dd826115ef565b604084018190526000036107f957506001959194509092505050565b602083015183511161012084015261081082611684565b6060840181905260408401518451602086015161083c9392610836929091839190611839565b9061184f565b6080840152825115610a5b57826101200151610876578251608084015161087191610867919061185b565b8460400151611867565b610886565b825160808401516108869161185b565b60a084018190526003820154604051636a24d41960e11b81526001600160a01b039091166004820152610a2d9173__$60cdec19f17936bbc33543273078a7e6b8$__9163f5873b97919073__$e3834fe8ea0b4818c33a802f8dd8530fd8$__9063d449a83290602401602060405180830381865af415801561090c573d6000803e3d6000fd5b505050506040513d601f19601f82011682018060405250810190610930919061212d565b6003860154604051631a0994f560e01b81526001600160a01b0390911660048201526001602482015273__$76a505dbd6210c6de5172a9e6577e0d579$__90631a0994f590604401602060405180830381865af4158015610995573d6000803e3d6000fd5b505050506040513d601f19601f820116820180604052508101906109b99190612114565b6040516001600160e01b031960e086901b168152600481019390935260ff90911660248301526044820152606401602060405180830381865af4158015610a04573d6000803e3d6000fd5b505050506040513d601f19601f82011682018060405250810190610a289190612114565b6118f2565b60e0840152610120830151610a4f578260e00151610a4a90612150565b610a55565b8260e001515b60e08401525b602083015115610acd57826101200151610a9257610a8d610a288460200151856080015161185b90919063ffffffff16565b610ac6565b610abd610a28610ab38560200151866080015161185b90919063ffffffff16565b8560400151611867565b610ac690612150565b6101008401525b506000959194509092505050565b60405163f035079960e01b815260048101839052600090819073__$3c6261fc29985881007184aacdacb41a63$__9063f035079990602401602060405180830381865af4158015610b30573d6000803e3d6000fd5b505050506040513d601f19601f82011682018060405250810190610b549190612114565b905082610b655760088101546105a2565b600701549392505050565b6040805180820190915260008082526020820152600073__$2c5e3d38607d7ea6eea9d5dc78ed57d239$__6386d5c4be6040518163ffffffff1660e01b8152600401602060405180830381865af4158015610bcf573d6000803e3d6000fd5b505050506040513d601f19601f82011682018060405250810190610bf39190612114565b6040805180820191829052631bb7f89d60e11b909152604481018290526001600160a01b03851660648201529091508073__$2c5e3d38607d7ea6eea9d5dc78ed57d239$__63376ff13a60848301602060405180830381865af4158015610c5e573d6000803e3d6000fd5b505050506040513d601f19601f82011682018060405250810190610c829190612114565b81526040516365b0187560e01b8152600481018490526001600160a01b038616602482015260209091019073__$2c5e3d38607d7ea6eea9d5dc78ed57d239$__906365b0187590604401602060405180830381865af4158015610ce9573d6000803e3d6000fd5b505050506040513d601f19601f82011682018060405250810190610d0d9190612114565b90529392505050565b6004810154600090158015610d2d57506007820154155b15610d3a57506000919050565b6007820154600483015460009190610d51906118f2565b610d5b919061216c565b905060008113610d6e5750600092915050565b600073__$60cdec19f17936bbc33543273078a7e6b8$__63a520855f8560040160020154610d9b85611965565b6040516001600160e01b031960e085901b16815260048101929092526024820152670de0b6b3a76400006044820152606401602060405180830381865af4158015610dea573d6000803e3d6000fd5b505050506040513d601f19601f82011682018060405250810190610e0e9190612114565b8454604051633daea25d60e01b81526001600160a01b03909116600482015290915073__$60cdec19f17936bbc33543273078a7e6b8$__9063228d17e090839073__$601b397ac9b288e68d027c499a437c7805$__90633daea25d90602401600060405180830381865af4158015610e8a573d6000803e3d6000fd5b505050506040513d6000823e601f3d908101601f19168201604052610eb29190810190612230565b5160405160e084901b6001600160e01b031916815260048101929092526024820152604401602060405180830381865af4158015610ef4573d6000803e3d6000fd5b505050506040513d601f19601f82011682018060405250810190610f189190612114565b949350505050565b610f28611b05565b60405163f035079960e01b81526004810185905260009073__$c1ae4f2fd189c456c923d4bac13705c722$__9063f035079990602401602060405180830381865af4158015610f7b573d6000803e3d6000fd5b505050506040513d601f19601f82011682018060405250810190610f9f9190612114565b60405163c2c0de8760e01b81526004810182905290915073__$c1ae4f2fd189c456c923d4bac13705c722$__9063c2c0de8790602401602060405180830381865af4158015610ff2573d6000803e3d6000fd5b505050506040513d601f19601f82011682018060405250810190611016919061230e565b61102b57611022611b05565b91506114539050565b6001810154604051630bd039cd60e21b81526101009091046001600160a01b0316600482015260009073__$031d78916aae4b898c89af4123228b6f12$__90632f40e73490602401602060405180830381865af4158015611090573d6000803e3d6000fd5b505050506040513d601f19601f820116820180604052508101906110b49190612114565b604051634cbf183160e01b815290915060009073__$4372c788db0c4b9b4094fec4620221fad6$__90634cbf1831906110f59085908a908a9060040161232b565b602060405180830381865af4158015611112573d6000803e3d6000fd5b505050506040513d601f19601f820116820180604052508101906111369190612114565b60405163f035079960e01b81526004810189905290915060009073__$3c6261fc29985881007184aacdacb41a63$__9063f035079990602401602060405180830381865af415801561118c573d6000803e3d6000fd5b505050506040513d601f19601f820116820180604052508101906111b09190612114565b600281015460405163d073b61160e01b8152600481018390529192509060009073__$3c6261fc29985881007184aacdacb41a63$__9063d073b61190602401602060405180830381865af415801561120c573d6000803e3d6000fd5b505050506040513d601f19601f820116820180604052508101906112309190612114565b604080516101a08101909152875460e0820190815260018901549293509091829190899061010084019060ff16600381111561126e5761126e611d84565b600381111561127f5761127f611d84565b815260018201546001600160a01b036101009091048116602083015260028301548116604083015260038301541660608201526004820180546080909201916112c7906123af565b80601f01602080910402602001604051908101604052809291908181526020018280546112f3906123af565b80156113405780601f1061131557610100808354040283529160200191611340565b820191906000526020600020905b81548152906001019060200180831161132357829003601f168201915b5050505050815250508152602001838152602001846002016001015481526020018281526020018473__$3c6261fc29985881007184aacdacb41a63$__638b8e695c90916040518263ffffffff1660e01b81526004016113a291815260200190565b600060405180830381865af41580156113bf573d6000803e3d6000fd5b505050506040513d6000823e601f3d908101601f191682016040526113e791908101906123e9565b8152602001858152602001846007016040518060e001604052908160008201548152602001600182015481526020016002820154815260200160038201548152602001600482015481526020016005820154815260200160068201548152505081525096505050505050505b9392505050565b600082156114ee57604051630bd039cd60e21b81526001600160a01b038516600482015260009073__$031d78916aae4b898c89af4123228b6f12$__90632f40e73490602401602060405180830381865af41580156114bd573d6000803e3d6000fd5b505050506040513d601f19601f820116820180604052508101906114e19190612114565b6012015491506114539050565b600073__$69c89f533e100333dfc56147eb38ab86ce$__6386d5c4be6040518163ffffffff1660e01b8152600401602060405180830381865af4158015611539573d6000803e3d6000fd5b505050506040513d601f19601f8201168201806040525081019061155d9190612114565b604051631d81bd9b60e21b8152600481018290526001600160a01b038516602482015290915073__$69c89f533e100333dfc56147eb38ab86ce$__90637606f66c90604401602060405180830381865af41580156115bf573d6000803e3d6000fd5b505050506040513d601f19601f820116820180604052508101906115e39190612114565b60020154915050611453565b600d810154600090810361160557506000919050565b816007016006015473__$f7ce058f5081a8aa62d2c976fd52cf5c62$__631e2ff94f6040518163ffffffff1660e01b8152600401602060405180830381865af4158015611656573d6000803e3d6000fd5b505050506040513d601f19601f8201168201806040525081019061167a9190612114565b6105a6919061249f565b600281015460405163d073b61160e01b81526004810183905260009190829073__$3c6261fc29985881007184aacdacb41a63$__9063d073b61190602401602060405180830381865af41580156116df573d6000803e3d6000fd5b505050506040513d601f19601f820116820180604052508101906117039190612114565b6040516347af28a560e11b8152600481018490526024810182905290915060009073__$60cdec19f17936bbc33543273078a7e6b8$__90638f5e514a90604401602060405180830381865af4158015611760573d6000803e3d6000fd5b505050506040513d601f19601f820116820180604052508101906117849190612114565b905060006117928385612101565b905081158061179f575080155b156117b05750600095945050505050565b61182f8273__$4b57634e6fa94ef3e6c6a2ca1726543a5d$__63b45849886040518163ffffffff1660e01b8152600401600060405180830381865af41580156117fd573d6000803e3d6000fd5b505050506040513d6000823e601f3d908101601f19168201604052611825919081019061258b565b60c00151836119b7565b9695505050505050565b60008183116118485781611453565b5090919050565b600061145382846126b3565b600061145382846126e0565b6000611453836118ec8473__$4b57634e6fa94ef3e6c6a2ca1726543a5d$__63b45849886040518163ffffffff1660e01b8152600401600060405180830381865af41580156118ba573d6000803e3d6000fd5b505050506040513d6000823e601f3d908101601f191682016040526118e2919081019061258b565b60e001519061184f565b90611aa1565b60006001600160ff1b038211156119615760405162461bcd60e51b815260206004820152602860248201527f53616665436173743a2076616c756520646f65736e27742066697420696e2061604482015267371034b73a191a9b60c11b60648201526084015b60405180910390fd5b5090565b6000808212156119615760405162461bcd60e51b815260206004820181905260248201527f53616665436173743a2076616c7565206d75737420626520706f7369746976656044820152606401611958565b60008080600019858709858702925082811083820303915050806000036119f1578382816119e7576119e76126ca565b0492505050611453565b808411611a385760405162461bcd60e51b81526020600482015260156024820152744d6174683a206d756c446976206f766572666c6f7760581b6044820152606401611958565b60008486880960026001871981018816978890046003810283188082028403028082028403028082028403028082028403028082028403029081029092039091026000889003889004909101858311909403939093029303949094049190911702949350505050565b60008183106118485781611453565b6040518061014001604052806000815260200160008152602001600081526020016000815260200160008152602001600081526020016000815260200160008152602001600081526020016000151581525090565b604080516101a08101909152600060e082018181526101008301829052610120830182905261014083018290526101608301919091526060610180830152819081526020016000815260200160008152602001600081526020016060815260200160008152602001611bad6040518060e00160405280600081526020016000815260200160008152602001600081526020016000815260200160008152602001600081525090565b905290565b6001600160a01b0381168114611bc757600080fd5b50565b60008060408385031215611bdd57600080fd5b823591506020830135611bef81611bb2565b809150509250929050565b600060208284031215611c0c57600080fd5b5035919050565b600061016082019050831515825282516020830152602083015160408301526040830151606083015260608301516080830152608083015160a083015260a083015160c083015260c083015160e083015260e0830151610100818185015280850151915050610120818185015280850151915050611c9661014084018215159052565b509392505050565b8015158114611bc757600080fd5b60008060408385031215611cbf57600080fd5b823591506020830135611bef81611c9e565b600060208284031215611ce357600080fd5b813561145381611bb2565b8151815260208083015190820152604081016105a6565b600080600060408486031215611d1a57600080fd5b83359250602084013567ffffffffffffffff80821115611d3957600080fd5b818601915086601f830112611d4d57600080fd5b813581811115611d5c57600080fd5b8760208260071b8501011115611d7157600080fd5b6020830194508093505050509250925092565b634e487b7160e01b600052602160045260246000fd5b6000815180845260005b81811015611dc057602081850181015186830182015201611da4565b506000602082860101526020601f19601f83011685010191505092915050565b60008151808452602080850194506020840160005b83811015611e2557611e1287835180518252602090810151910152565b6040969096019590820190600101611df5565b509495945050505050565b60208152600082516101a0602084015280516101c0840152602081015160048110611e6b57634e487b7160e01b600052602160045260246000fd5b6101e084015260408101516001600160a01b03166102008401526060810151611ea06102208501826001600160a01b03169052565b5060808101516001600160a01b031661024084015260a0015160c0610260840152611ecf610280840182611d9a565b90506020840151604084015260408401516060840152606084015160808401526080840151601f198483030160a0850152611f0a8282611de0565b91505060a084015160c084015260c0840151611c9660e0850182805182526020810151602083015260408101516040830152606081015160608301526080810151608083015260a081015160a083015260c081015160c08301525050565b600080600060608486031215611f7d57600080fd5b8335611f8881611bb2565b92506020840135611f9881611c9e565b91506040840135611fa881611bb2565b809150509250925092565b634e487b7160e01b600052604160045260246000fd5b604051610140810167ffffffffffffffff81118282101715611fed57611fed611fb3565b60405290565b6040805190810167ffffffffffffffff81118282101715611fed57611fed611fb3565b604051610120810167ffffffffffffffff81118282101715611fed57611fed611fb3565b604051610200810167ffffffffffffffff81118282101715611fed57611fed611fb3565b604051601f8201601f1916810167ffffffffffffffff8111828210171561208757612087611fb3565b604052919050565b6000606082840312156120a157600080fd5b6040516060810181811067ffffffffffffffff821117156120c4576120c4611fb3565b80604052508251815260208301516020820152604083015160408201528091505092915050565b634e487b7160e01b600052601160045260246000fd5b808201808211156105a6576105a66120eb565b60006020828403121561212657600080fd5b5051919050565b60006020828403121561213f57600080fd5b815160ff8116811461145357600080fd5b6000600160ff1b8201612165576121656120eb565b5060000390565b808201828112600083128015821682158216171561218c5761218c6120eb565b505092915050565b600067ffffffffffffffff8211156121ae576121ae611fb3565b5060051b60200190565b600082601f8301126121c957600080fd5b815160206121de6121d983612194565b61205e565b8083825260208201915060208460051b87010193508684111561220057600080fd5b602086015b8481101561222557805161221881611bb2565b8352918301918301612205565b509695505050505050565b60006020828403121561224257600080fd5b815167ffffffffffffffff8082111561225a57600080fd5b90830190610140828603121561226f57600080fd5b612277611fc9565b825181526020830151602082015260408301516040820152606083015160608201526080830151608082015260a083015160a082015260c083015160c082015260e083015160e082015261010080840151818301525061012080840151838111156122e157600080fd5b6122ed888287016121b8565b918301919091525095945050505050565b805161230981611c9e565b919050565b60006020828403121561232057600080fd5b815161145381611c9e565b838152604060208083018290528282018490526000919060609081850187855b888110156123a057813561235e81611bb2565b6001600160a01b039081168452828501359061237982611bb2565b1683850152818601358684015284820135858401526080928301929091019060010161234b565b50909998505050505050505050565b600181811c908216806123c357607f821691505b6020821081036123e357634e487b7160e01b600052602260045260246000fd5b50919050565b600060208083850312156123fc57600080fd5b825167ffffffffffffffff81111561241357600080fd5b8301601f8101851361242457600080fd5b80516124326121d982612194565b81815260069190911b8201830190838101908783111561245157600080fd5b928401925b82841015612494576040848903121561246f5760008081fd5b612477611ff3565b845181528585015186820152825260409093019290840190612456565b979650505050505050565b818103818111156105a6576105a66120eb565b600082601f8301126124c357600080fd5b815160206124d36121d983612194565b82815261012092830285018201928282019190878511156124f357600080fd5b8387015b8581101561257e5781818a03121561250f5760008081fd5b612517612016565b612520826122fe565b8152818601518682015260408083015190820152606080830151908201526080808301519082015260a0808301519082015260c0808301519082015260e08083015190820152610100808301519082015284529284019281016124f7565b5090979650505050505050565b60006020828403121561259d57600080fd5b815167ffffffffffffffff808211156125b557600080fd5b9083019061020082860312156125ca57600080fd5b6125d261203a565b8251828111156125e157600080fd5b6125ed878286016121b8565b82525060208301518281111561260257600080fd5b61260e878286016124b2565b60208301525060408381015190820152606080840151908201526080808401519082015260a0808401519082015260c0808401519082015260e08084015190820152610100808401519082015261012080840151908201526101408084015190820152610160808401519082015261018080840151908201526101a080840151908201526101c080840151908201526101e09283015192810192909252509392505050565b80820281158282048414176105a6576105a66120eb565b634e487b7160e01b600052601260045260246000fd5b6000826126fd57634e487b7160e01b600052601260045260246000fd5b50049056fea26469706673582212204d69c6268a58c463d1c92ab1128f0a9703e38aa43a0566b3c8c0af26c8975b8364736f6c63430008190033","linkReferences":{"contracts/process/LpPoolQueryProcess.sol":{"LpPoolQueryProcess":[{"start":4354,"length":20}]},"contracts/process/OracleProcess.sol":{"OracleProcess":[{"start":2452,"length":20}]},"contracts/storage/AppPoolConfig.sol":{"AppPoolConfig":[{"start":1304,"length":20},{"start":3721,"length":20}]},"contracts/storage/AppTradeConfig.sol":{"AppTradeConfig":[{"start":6127,"length":20},{"start":6316,"length":20}]},"contracts/storage/CommonData.sol":{"CommonData":[{"start":3009,"length":20},{"start":3166,"length":20},{"start":3304,"length":20}]},"contracts/storage/LpPool.sol":{"LpPool":[{"start":4239,"length":20},{"start":5308,"length":20}]},"contracts/storage/Market.sol":{"Market":[{"start":1552,"length":20},{"start":1793,"length":20},{"start":1911,"length":20},{"start":2863,"length":20},{"start":4491,"length":20},{"start":4619,"length":20},{"start":5027,"length":20},{"start":5854,"length":20}]},"contracts/storage/Symbol.sol":{"Symbol":[{"start":1674,"length":20},{"start":3962,"length":20},{"start":4081,"length":20}]},"contracts/storage/UsdPool.sol":{"UsdPool":[{"start":429,"length":20},{"start":569,"length":20},{"start":750,"length":20},{"start":885,"length":20},{"start":1021,"length":20},{"start":5419,"length":20},{"start":5566,"length":20}]},"contracts/utils/CalUtils.sol":{"CalUtils":[{"start":722,"length":20},{"start":1274,"length":20},{"start":2286,"length":20},{"start":3499,"length":20},{"start":3691,"length":20},{"start":5983,"length":20}]},"contracts/utils/ChainUtils.sol":{"ChainUtils":[{"start":5704,"length":20}]},"contracts/utils/TokenUtils.sol":{"TokenUtils":[{"start":2315,"length":20}]}}},"methodIdentifiers":{"getCumulativeBorrowingFeePerToken(address,bool,address)":"e674b4c5","getFundingFeePerQty(bytes32,bool)":"9e20fcac","getLongBorrowingRatePerSecond(LpPool.Props storage)":"ad9f930f","getMarketInfo(bytes32,OracleProcess.OracleParam[])":"aece5ffd","getShortBorrowingRatePerSecond(UsdPool.Props storage,address)":"8863dea5","getTradeTokenInfo(address)":"a7b039d9","getUpdateMarketFundingFeeRate(bytes32)":"93431218"},"id":62}