{
  "_format": "hh-sol-artifact-1",
  "contractName": "GasProcess",
  "sourceName": "contracts/process/GasProcess.sol",
  "abi": [
    {
      "inputs": [],
      "name": "ExecutionFeeNotEnough",
      "type": "error"
    },
    {
      "inputs": [
        {
          "internalType": "uint256",
          "name": "executionFee",
          "type": "uint256"
        },
        {
          "internalType": "uint256",
          "name": "gasLimit",
          "type": "uint256"
        }
      ],
      "name": "validateExecutionFeeLimit",
      "outputs": [],
      "stateMutability": "view",
      "type": "function"
    }
  ],
  "bytecode": "0x61089061003a600b82828239805160001a60731461002d57634e487b7160e01b600052600060045260246000fd5b30600052607381538281f3fe730000000000000000000000000000000000000000301460806040526004361061004b5760003560e01c80631f10eda4146100505780634b7bc681146100725780634d4d567214610085575b600080fd5b81801561005c57600080fd5b5061007061006b3660046105b1565b6100a5565b005b6100706100803660046105ca565b61014a565b81801561009157600080fd5b506100706100a0366004610662565b610191565b60005a6100b29083610740565b905060006100c03a83610759565b90508015610145576040517f1f10eda40000000000000000000000000000000000000000000000000000000081526004810182905273__$2c5e3d38607d7ea6eea9d5dc78ed57d239$__90631f10eda49060240160006040518083038186803b15801561012c57600080fd5b505af4158015610140573d6000803e3d6000fd5b505050505b505050565b6101543a82610759565b82101561018d576040517fd2687c6e00000000000000000000000000000000000000000000000000000000815260040160405180910390fd5b5050565b60005a82604001516101a39190610740565b905060006101b13a83610759565b905060008084602001518311156101da57602085015192506101d38380610740565b90506101ed565b8285602001516101ea9190610740565b91505b73__$8526888d218a843cc53a77a3ceb13f6b1f$__6385e2b880866000015173__$403afd1716c71ad05f9fd75974b23df554$__63606c0c946040518163ffffffff1660e01b815260040161012060405180830381865af4158015610256573d6000803e3d6000fd5b505050506040513d601f19601f8201168201806040525081019061027a9190610780565b51602089015160405160e085901b7fffffffff0000000000000000000000000000000000000000000000000000000016815273ffffffffffffffffffffffffffffffffffffffff93841660048201529290911660248301523060448301526064820152608401602060405180830381865af41580156102fd573d6000803e3d6000fd5b505050506040513d601f19601f820116820180604052508101906103219190610802565b506103308560600151846103ce565b8115610344576103448560800151836103ce565b80156103c7576040517f1f10eda40000000000000000000000000000000000000000000000000000000081526004810182905273__$2c5e3d38607d7ea6eea9d5dc78ed57d239$__90631f10eda49060240160006040518083038186803b1580156103ae57600080fd5b505af41580156103c2573d6000803e3d6000fd5b505050505b5050505050565b600073__$403afd1716c71ad05f9fd75974b23df554$__63606c0c946040518163ffffffff1660e01b815260040161012060405180830381865af415801561041a573d6000803e3d6000fd5b505050506040513d601f19601f8201168201806040525081019061043e9190610780565b516040517f2e1a7d4d0000000000000000000000000000000000000000000000000000000081526004810184905290915073ffffffffffffffffffffffffffffffffffffffff821690632e1a7d4d90602401600060405180830381600087803b1580156104aa57600080fd5b505af11580156104be573d6000803e3d6000fd5b5050604080516000808252602082019283905261014594508793508692909173ffffffffffffffffffffffffffffffffffffffff85169184916105009161082b565b60006040518083038185875af1925050503d806000811461053d576040519150601f19603f3d011682016040523d82523d6000602084013e610542565b606091505b5050905080610145576040517f08c379a000000000000000000000000000000000000000000000000000000000815260206004820152600360248201527f5354450000000000000000000000000000000000000000000000000000000000604482015260640160405180910390fd5b6000602082840312156105c357600080fd5b5035919050565b600080604083850312156105dd57600080fd5b50508035926020909101359150565b604051610120810167ffffffffffffffff81118282101715610637577f4e487b7100000000000000000000000000000000000000000000000000000000600052604160045260246000fd5b60405290565b73ffffffffffffffffffffffffffffffffffffffff8116811461065f57600080fd5b50565b600060a0828403121561067457600080fd5b60405160a0810181811067ffffffffffffffff821117156106be577f4e487b7100000000000000000000000000000000000000000000000000000000600052604160045260246000fd5b60405282356106cc8161063d565b80825250602083013560208201526040830135604082015260608301356106f28161063d565b606082015260808301356107058161063d565b60808201529392505050565b7f4e487b7100000000000000000000000000000000000000000000000000000000600052601160045260246000fd5b8181038181111561075357610753610711565b92915050565b808202811582820484141761075357610753610711565b805161077b8161063d565b919050565b6000610120828403121561079357600080fd5b61079b6105ec565b6107a483610770565b81526020830151602082015260408301516040820152606083015160608201526080830151608082015260a083015160a082015260c083015160c082015260e083015160e08201526101008084015181830152508091505092915050565b60006020828403121561081457600080fd5b8151801515811461082457600080fd5b9392505050565b6000825160005b8181101561084c5760208186018101518583015201610832565b50600092019182525091905056fea2646970667358221220bcb7c7db7ba90c5588f75f795aa4c0716ae1dde7fa47605486a72f895d39c32a64736f6c63430008120033",
  "linkReferences": {
    "contracts/process/VaultProcess.sol": {
      "VaultProcess": [
        {
          "length": 20,
          "start": 553
        }
      ]
    },
    "contracts/storage/AppConfig.sol": {
      "AppConfig": [
        {
          "length": 20,
          "start": 584
        },
        {
          "length": 20,
          "start": 1036
        }
      ]
    },
    "contracts/storage/CommonData.sol": {
      "CommonData": [
        {
          "length": 20,
          "start": 305
        },
        {
          "length": 20,
          "start": 947
        }
      ]
    }
  },
  "deployedLinkReferences": {
    "contracts/process/VaultProcess.sol": {
      "VaultProcess": [
        {
          "length": 20,
          "start": 495
        }
      ]
    },
    "contracts/storage/AppConfig.sol": {
      "AppConfig": [
        {
          "length": 20,
          "start": 526
        },
        {
          "length": 20,
          "start": 978
        }
      ]
    },
    "contracts/storage/CommonData.sol": {
      "CommonData": [
        {
          "length": 20,
          "start": 247
        },
        {
          "length": 20,
          "start": 889
        }
      ]
    }
  }
}