{
  "_format": "hh-sol-artifact-1",
  "contractName": "OrderFacet",
  "sourceName": "contracts/facets/OrderFacet.sol",
  "abi": [
    {
      "inputs": [
        {
          "internalType": "address",
          "name": "account",
          "type": "address"
        },
        {
          "internalType": "bytes32",
          "name": "role",
          "type": "bytes32"
        }
      ],
      "name": "InvalidRoleAccess",
      "type": "error"
    },
    {
      "inputs": [],
      "name": "MarginModeError",
      "type": "error"
    },
    {
      "inputs": [],
      "name": "OnlyDecreaseOrderSupported",
      "type": "error"
    },
    {
      "inputs": [
        {
          "internalType": "uint256",
          "name": "orderId",
          "type": "uint256"
        }
      ],
      "name": "OrderNotExists",
      "type": "error"
    },
    {
      "inputs": [
        {
          "components": [
            {
              "internalType": "bytes32",
              "name": "symbol",
              "type": "bytes32"
            },
            {
              "internalType": "bool",
              "name": "isCrossMargin",
              "type": "bool"
            },
            {
              "internalType": "bool",
              "name": "isNativeToken",
              "type": "bool"
            },
            {
              "internalType": "enum Order.Side",
              "name": "orderSide",
              "type": "uint8"
            },
            {
              "internalType": "enum Order.PositionSide",
              "name": "posSide",
              "type": "uint8"
            },
            {
              "internalType": "enum Order.Type",
              "name": "orderType",
              "type": "uint8"
            },
            {
              "internalType": "enum Order.StopType",
              "name": "stopType",
              "type": "uint8"
            },
            {
              "internalType": "address",
              "name": "marginToken",
              "type": "address"
            },
            {
              "internalType": "uint256",
              "name": "qty",
              "type": "uint256"
            },
            {
              "internalType": "uint256",
              "name": "orderMargin",
              "type": "uint256"
            },
            {
              "internalType": "uint256",
              "name": "leverage",
              "type": "uint256"
            },
            {
              "internalType": "uint256",
              "name": "triggerPrice",
              "type": "uint256"
            },
            {
              "internalType": "uint256",
              "name": "acceptablePrice",
              "type": "uint256"
            },
            {
              "internalType": "uint256",
              "name": "executionFee",
              "type": "uint256"
            },
            {
              "internalType": "uint256",
              "name": "placeTime",
              "type": "uint256"
            }
          ],
          "internalType": "struct IOrder.PlaceOrderParams[]",
          "name": "params",
          "type": "tuple[]"
        }
      ],
      "name": "batchCreateOrderRequest",
      "outputs": [],
      "stateMutability": "payable",
      "type": "function"
    },
    {
      "inputs": [
        {
          "internalType": "uint256",
          "name": "orderId",
          "type": "uint256"
        },
        {
          "internalType": "bytes32",
          "name": "reasonCode",
          "type": "bytes32"
        }
      ],
      "name": "cancelOrder",
      "outputs": [],
      "stateMutability": "nonpayable",
      "type": "function"
    },
    {
      "inputs": [
        {
          "components": [
            {
              "internalType": "bytes32",
              "name": "symbol",
              "type": "bytes32"
            },
            {
              "internalType": "bool",
              "name": "isCrossMargin",
              "type": "bool"
            },
            {
              "internalType": "bool",
              "name": "isNativeToken",
              "type": "bool"
            },
            {
              "internalType": "enum Order.Side",
              "name": "orderSide",
              "type": "uint8"
            },
            {
              "internalType": "enum Order.PositionSide",
              "name": "posSide",
              "type": "uint8"
            },
            {
              "internalType": "enum Order.Type",
              "name": "orderType",
              "type": "uint8"
            },
            {
              "internalType": "enum Order.StopType",
              "name": "stopType",
              "type": "uint8"
            },
            {
              "internalType": "address",
              "name": "marginToken",
              "type": "address"
            },
            {
              "internalType": "uint256",
              "name": "qty",
              "type": "uint256"
            },
            {
              "internalType": "uint256",
              "name": "orderMargin",
              "type": "uint256"
            },
            {
              "internalType": "uint256",
              "name": "leverage",
              "type": "uint256"
            },
            {
              "internalType": "uint256",
              "name": "triggerPrice",
              "type": "uint256"
            },
            {
              "internalType": "uint256",
              "name": "acceptablePrice",
              "type": "uint256"
            },
            {
              "internalType": "uint256",
              "name": "executionFee",
              "type": "uint256"
            },
            {
              "internalType": "uint256",
              "name": "placeTime",
              "type": "uint256"
            }
          ],
          "internalType": "struct IOrder.PlaceOrderParams",
          "name": "params",
          "type": "tuple"
        }
      ],
      "name": "createOrderRequest",
      "outputs": [],
      "stateMutability": "payable",
      "type": "function"
    },
    {
      "inputs": [
        {
          "internalType": "uint256",
          "name": "orderId",
          "type": "uint256"
        },
        {
          "components": [
            {
              "internalType": "address",
              "name": "token",
              "type": "address"
            },
            {
              "internalType": "address",
              "name": "targetToken",
              "type": "address"
            },
            {
              "internalType": "int256",
              "name": "minPrice",
              "type": "int256"
            },
            {
              "internalType": "int256",
              "name": "maxPrice",
              "type": "int256"
            }
          ],
          "internalType": "struct OracleProcess.OracleParam[]",
          "name": "oracles",
          "type": "tuple[]"
        }
      ],
      "name": "executeOrder",
      "outputs": [],
      "stateMutability": "nonpayable",
      "type": "function"
    },
    {
      "inputs": [
        {
          "internalType": "address",
          "name": "account",
          "type": "address"
        }
      ],
      "name": "getAccountOrders",
      "outputs": [
        {
          "components": [
            {
              "internalType": "uint256",
              "name": "orderId",
              "type": "uint256"
            },
            {
              "components": [
                {
                  "internalType": "address",
                  "name": "account",
                  "type": "address"
                },
                {
                  "internalType": "bytes32",
                  "name": "symbol",
                  "type": "bytes32"
                },
                {
                  "internalType": "enum Order.Side",
                  "name": "orderSide",
                  "type": "uint8"
                },
                {
                  "internalType": "enum Order.PositionSide",
                  "name": "posSide",
                  "type": "uint8"
                },
                {
                  "internalType": "enum Order.Type",
                  "name": "orderType",
                  "type": "uint8"
                },
                {
                  "internalType": "enum Order.StopType",
                  "name": "stopType",
                  "type": "uint8"
                },
                {
                  "internalType": "bool",
                  "name": "isCrossMargin",
                  "type": "bool"
                },
                {
                  "internalType": "bool",
                  "name": "isExecutionFeeFromTradeVault",
                  "type": "bool"
                },
                {
                  "internalType": "address",
                  "name": "marginToken",
                  "type": "address"
                },
                {
                  "internalType": "uint256",
                  "name": "qty",
                  "type": "uint256"
                },
                {
                  "internalType": "uint256",
                  "name": "leverage",
                  "type": "uint256"
                },
                {
                  "internalType": "uint256",
                  "name": "orderMargin",
                  "type": "uint256"
                },
                {
                  "internalType": "uint256",
                  "name": "triggerPrice",
                  "type": "uint256"
                },
                {
                  "internalType": "uint256",
                  "name": "acceptablePrice",
                  "type": "uint256"
                },
                {
                  "internalType": "uint256",
                  "name": "placeTime",
                  "type": "uint256"
                },
                {
                  "internalType": "uint256",
                  "name": "executionFee",
                  "type": "uint256"
                },
                {
                  "internalType": "uint256",
                  "name": "lastBlock",
                  "type": "uint256"
                }
              ],
              "internalType": "struct Order.OrderInfo",
              "name": "orderInfo",
              "type": "tuple"
            }
          ],
          "internalType": "struct IOrder.AccountOrder[]",
          "name": "result",
          "type": "tuple[]"
        }
      ],
      "stateMutability": "view",
      "type": "function"
    },
    {
      "stateMutability": "payable",
      "type": "receive"
    }
  ],
  "bytecode": "0x608060405234801561001057600080fd5b506001600055612a31806100256000396000f3fe60806040526004361061005e5760003560e01c806389e74c0a1161004357806389e74c0a1461009f57806395083527146100b2578063b68fb020146100e857600080fd5b806322dabfa51461006a5780634b05360a1461008c57600080fd5b3661006557005b600080fd5b34801561007657600080fd5b5061008a6100853660046120de565b610108565b005b61008a61009a36600461215d565b610707565b61008a6100ad366004612170565b610a2f565b3480156100be57600080fd5b506100d26100cd366004612218565b610f45565b6040516100df91906123a3565b60405180910390f35b3480156100f457600080fd5b5061008a6101033660046123fd565b6114d4565b60005a90506101367f4b45455045520000000000000000000000000000000000000000000000000000611c91565b6040517f9507d39a0000000000000000000000000000000000000000000000000000000081526004810185905260009073__$dae973d11eac6f0d86f9fbea95214348fe$__90639507d39a90602401602060405180830381865af41580156101a2573d6000803e3d6000fd5b505050506040513d601f19601f820116820180604052508101906101c6919061241f565b6040805161022081018252825473ffffffffffffffffffffffffffffffffffffffff1681526001830154602082015260028084015491939284019160ff169081111561021457610214612235565b600281111561022557610225612235565b81526020016002820160019054906101000a900460ff16600281111561024d5761024d612235565b600281111561025e5761025e612235565b81526020016002820160029054906101000a900460ff16600381111561028657610286612235565b600381111561029757610297612235565b81526020016002820160039054906101000a900460ff1660028111156102bf576102bf612235565b60028111156102d0576102d0612235565b8152600282015460ff6401000000008204811615156020840152650100000000008204161515604083015273ffffffffffffffffffffffffffffffffffffffff66010000000000009091048116606083015260038301546080830152600483015460a0830152600583015460c0830152600683015460e0830152600783015461010083015260088301546101208301526009830154610140830152600a90920154610160909101528151919250166103bc576040517f6f235413000000000000000000000000000000000000000000000000000000008152600481018690526024015b60405180910390fd5b6040517f7532d8bc00000000000000000000000000000000000000000000000000000000815273__$76a505dbd6210c6de5172a9e6577e0d579$__90637532d8bc9061040e9087908790600401612438565b60006040518083038186803b15801561042657600080fd5b505af415801561043a573d6000803e3d6000fd5b50506040517fe51f1db100000000000000000000000000000000000000000000000000000000815273__$85bbfda3b03f34ee6649d25e3b7e048595$__925063e51f1db1915061049090889085906004016124bf565b60006040518083038186803b1580156104a857600080fd5b505af41580156104bc573d6000803e3d6000fd5b5050505073__$76a505dbd6210c6de5172a9e6577e0d579$__63e52ed3656040518163ffffffff1660e01b815260040160006040518083038186803b15801561050457600080fd5b505af4158015610518573d6000803e3d6000fd5b5050505073__$1af6d17e273104ca3ca5016ca475f591a0$__634d4d56726040518060a001604052808460e001516105be573073ffffffffffffffffffffffffffffffffffffffff16631f7592ea6040518163ffffffff1660e01b8152600401602060405180830381865afa158015610595573d6000803e3d6000fd5b505050506040513d601f19601f820116820180604052508101906105b991906124df565b61062d565b3073ffffffffffffffffffffffffffffffffffffffff166397e7b7f26040518163ffffffff1660e01b8152600401602060405180830381865afa158015610609573d6000803e3d6000fd5b505050506040513d601f19601f8201168201806040525081019061062d91906124df565b73ffffffffffffffffffffffffffffffffffffffff90811682526101e08601516020808401919091526040808401899052336060808601919091528851841660809586015281517fffffffff0000000000000000000000000000000000000000000000000000000060e089901b16815286518516600482015292860151602484015290850151604483015284015182166064820152929091015116608482015260a40160006040518083038186803b1580156106e857600080fd5b505af41580156106fc573d6000803e3d6000fd5b505050505050505050565b61070f611cda565b33600161072260a0840160808501612514565b600281111561073357610733612235565b14801561074d575061074b604083016020840161254a565b155b156108f357610762606083016040840161254a565b1580610772575081610120013534145b6107fe576040517f08c379a000000000000000000000000000000000000000000000000000000000815260206004820152602260248201527f4465706f736974206e617469766520746f6b656e20616d6f756e74206572726f60448201527f722100000000000000000000000000000000000000000000000000000000000060648201526084016103b3565b73__$ae0937d060466c56d4bdd1eafaed47a473$__63ef59a9d16040518060a001604052808473ffffffffffffffffffffffffffffffffffffffff1681526020018560e00160208101906108529190612218565b73ffffffffffffffffffffffffffffffffffffffff16815261012086013560208201526040016001815260200161088f606087016040880161254a565b15158152506040518263ffffffff1660e01b81526004016108b09190612567565b602060405180830381865af41580156108cd573d6000803e3d6000fd5b505050506040513d601f19601f820116820180604052508101906108f191906124df565b505b6040517f483c45a800000000000000000000000000000000000000000000000000000000815273ffffffffffffffffffffffffffffffffffffffff8216600482015260009073__$a224e41da3178beb3af7fdcdf4ade93682$__9063483c45a890602401602060405180830381865af4158015610974573d6000803e3d6000fd5b505050506040513d601f19601f82011682018060405250810190610998919061241f565b6040517f207f6c9300000000000000000000000000000000000000000000000000000000815290915073__$85bbfda3b03f34ee6649d25e3b7e048595$__9063207f6c93906109f090849087906001906004016125d7565b60006040518083038186803b158015610a0857600080fd5b505af4158015610a1c573d6000803e3d6000fd5b505050505050610a2c6001600055565b50565b610a37611cda565b6040517f483c45a800000000000000000000000000000000000000000000000000000000815233600482018190529060009073__$a224e41da3178beb3af7fdcdf4ade93682$__9063483c45a890602401602060405180830381865af4158015610aa5573d6000803e3d6000fd5b505050506040513d601f19601f82011682018060405250810190610ac9919061241f565b905060008073__$403afd1716c71ad05f9fd75974b23df554$__63606c0c946040518163ffffffff1660e01b815260040161012060405180830381865af4158015610b18573d6000803e3d6000fd5b505050506040513d601f19601f82011682018060405250810190610b3c91906127ba565b9050600086866000818110610b5357610b5361283c565b90506101e002016020016020810190610b6c919061254a565b905060005b86811015610da9576001888883818110610b8d57610b8d61283c565b90506101e002016080016020810190610ba69190612514565b6002811115610bb757610bb7612235565b03610bee576040517f0af64c0b00000000000000000000000000000000000000000000000000000000815260040160405180910390fd5b878782818110610c0057610c0061283c565b90506101e002016020016020810190610c19919061254a565b151582151514610c55576040517f2a61948700000000000000000000000000000000000000000000000000000000815260040160405180910390fd5b73__$1af6d17e273104ca3ca5016ca475f591a0$__634b7bc681898984818110610c8157610c8161283c565b90506101e002016101a0013585608001516040518363ffffffff1660e01b8152600401610cb8929190918252602082015260400190565b60006040518083038186803b158015610cd057600080fd5b505af4158015610ce4573d6000803e3d6000fd5b5050505073__$85bbfda3b03f34ee6649d25e3b7e048595$__63207f6c93868a8a85818110610d1557610d1561283c565b90506101e0020160006040518463ffffffff1660e01b8152600401610d3c939291906125d7565b60006040518083038186803b158015610d5457600080fd5b505af4158015610d68573d6000803e3d6000fd5b50505050878782818110610d7e57610d7e61283c565b90506101e002016101a0013584610d95919061289a565b935080610da1816128ad565b915050610b71565b50823414610e39576040517f08c379a000000000000000000000000000000000000000000000000000000000815260206004820152602b60248201527f426174636820706c616365206f72646572207769746820657865637574696f6e60448201527f20666565206572726f722100000000000000000000000000000000000000000060648201526084016103b3565b6040805160a081018252855473ffffffffffffffffffffffffffffffffffffffff9081168252845116602082015290810184905273__$ae0937d060466c56d4bdd1eafaed47a473$__9063ef59a9d1906060810184610e99576001610e9c565b60005b6003811115610ead57610ead612235565b815260016020909101526040517fffffffff0000000000000000000000000000000000000000000000000000000060e084901b168152610ef09190600401612567565b602060405180830381865af4158015610f0d573d6000803e3d6000fd5b505050506040513d601f19601f82011682018060405250810190610f3191906124df565b505050505050610f416001600055565b5050565b6040517f2f40e73400000000000000000000000000000000000000000000000000000000815273ffffffffffffffffffffffffffffffffffffffff8216600482015260609060009073__$a224e41da3178beb3af7fdcdf4ade93682$__90632f40e73490602401602060405180830381865af4158015610fc9573d6000803e3d6000fd5b505050506040513d601f19601f82011682018060405250810190610fed919061241f565b6040517f7f80ceb10000000000000000000000000000000000000000000000000000000081526004810182905290915073__$a224e41da3178beb3af7fdcdf4ade93682$__90637f80ceb190602401602060405180830381865af4158015611059573d6000803e3d6000fd5b505050506040513d601f19601f8201168201806040525081019061107d91906128e5565b156114ce576040517ff075410d0000000000000000000000000000000000000000000000000000000081526004810182905260009073__$a224e41da3178beb3af7fdcdf4ade93682$__9063f075410d90602401600060405180830381865af41580156110ee573d6000803e3d6000fd5b505050506040513d6000823e601f3d9081017fffffffffffffffffffffffffffffffffffffffffffffffffffffffffffffffe01682016040526111349190810190612902565b9050805167ffffffffffffffff81111561115057611150612712565b60405190808252806020026020018201604052801561118957816020015b611176612026565b81526020019060019003908161116e5790505b509250600073__$dae973d11eac6f0d86f9fbea95214348fe$__6386d5c4be6040518163ffffffff1660e01b8152600401602060405180830381865af41580156111d7573d6000803e3d6000fd5b505050506040513d601f19601f820116820180604052508101906111fb919061241f565b905060005b82518110156114ca5782818151811061121b5761121b61283c565b60200260200101518582815181106112355761123561283c565b602002602001015160000181815250508173__$dae973d11eac6f0d86f9fbea95214348fe$__63c000c8ee90918584815181106112745761127461283c565b60200260200101516040518363ffffffff1660e01b81526004016112a2929190918252602082015260400190565b602060405180830381865af41580156112bf573d6000803e3d6000fd5b505050506040513d601f19601f820116820180604052508101906112e3919061241f565b6040805161022081018252825473ffffffffffffffffffffffffffffffffffffffff1681526001830154602082015260028084015491939284019160ff169081111561133157611331612235565b600281111561134257611342612235565b81526020016002820160019054906101000a900460ff16600281111561136a5761136a612235565b600281111561137b5761137b612235565b81526020016002820160029054906101000a900460ff1660038111156113a3576113a3612235565b60038111156113b4576113b4612235565b81526020016002820160039054906101000a900460ff1660028111156113dc576113dc612235565b60028111156113ed576113ed612235565b8152600282015460ff6401000000008204811615156020840152650100000000008204161515604083015273ffffffffffffffffffffffffffffffffffffffff660100000000000090910416606082015260038201546080820152600482015460a0820152600582015460c0820152600682015460e0820152600782015461010082015260088201546101208201526009820154610140820152600a909101546101609091015285518690839081106114a8576114a861283c565b60200260200101516020018190525080806114c2906128ad565b915050611200565b5050505b50919050565b60005a6040517f9507d39a0000000000000000000000000000000000000000000000000000000081526004810185905290915060009073__$dae973d11eac6f0d86f9fbea95214348fe$__90639507d39a90602401602060405180830381865af4158015611546573d6000803e3d6000fd5b505050506040513d601f19601f8201168201806040525081019061156a919061241f565b6040805161022081018252825473ffffffffffffffffffffffffffffffffffffffff1681526001830154602082015260028084015491939284019160ff16908111156115b8576115b8612235565b60028111156115c9576115c9612235565b81526020016002820160019054906101000a900460ff1660028111156115f1576115f1612235565b600281111561160257611602612235565b81526020016002820160029054906101000a900460ff16600381111561162a5761162a612235565b600381111561163b5761163b612235565b81526020016002820160039054906101000a900460ff16600281111561166357611663612235565b600281111561167457611674612235565b8152600282015460ff6401000000008204811615156020840152650100000000008204161515604083015273ffffffffffffffffffffffffffffffffffffffff66010000000000009091048116606083015260038301546080830152600483015460a0830152600583015460c0830152600683015460e0830152600783015461010083015260088301546101208301526009830154610140830152600a909201546101609091015281519192501661175b576040517f6f235413000000000000000000000000000000000000000000000000000000008152600481018590526024016103b3565b60006117867f4b45455045520000000000000000000000000000000000000000000000000000611d4d565b9050801580156117ad5750815173ffffffffffffffffffffffffffffffffffffffff163314155b156117e7576040517f6f235413000000000000000000000000000000000000000000000000000000008152600481018690526024016103b3565b6040517fd7ffe5cf00000000000000000000000000000000000000000000000000000000815273__$565ffadca00a7be65c5aa9c02d7c9d80a4$__9063d7ffe5cf9061183b908890869089906004016129a8565b60006040518083038186803b15801561185357600080fd5b505af4158015611867573d6000803e3d6000fd5b505050508015611a5a5773__$1af6d17e273104ca3ca5016ca475f591a0$__634d4d56726040518060a001604052808560e00151611913573073ffffffffffffffffffffffffffffffffffffffff16631f7592ea6040518163ffffffff1660e01b8152600401602060405180830381865afa1580156118ea573d6000803e3d6000fd5b505050506040513d601f19601f8201168201806040525081019061190e91906124df565b611982565b3073ffffffffffffffffffffffffffffffffffffffff166397e7b7f26040518163ffffffff1660e01b8152600401602060405180830381865afa15801561195e573d6000803e3d6000fd5b505050506040513d601f19601f8201168201806040525081019061198291906124df565b73ffffffffffffffffffffffffffffffffffffffff90811682526101e087015160208084019190915260408084018a9052336060808601919091528951841660809586015281517fffffffff0000000000000000000000000000000000000000000000000000000060e089901b16815286518516600482015292860151602484015290850151604483015284015182166064820152929091015116608482015260a40160006040518083038186803b158015611a3d57600080fd5b505af4158015611a51573d6000803e3d6000fd5b50505050611c8a565b73__$8526888d218a843cc53a77a3ceb13f6b1f$__6385e2b8808360e00151611af1573073ffffffffffffffffffffffffffffffffffffffff16631f7592ea6040518163ffffffff1660e01b8152600401602060405180830381865afa158015611ac8573d6000803e3d6000fd5b505050506040513d601f19601f82011682018060405250810190611aec91906124df565b611b60565b3073ffffffffffffffffffffffffffffffffffffffff166397e7b7f26040518163ffffffff1660e01b8152600401602060405180830381865afa158015611b3c573d6000803e3d6000fd5b505050506040513d601f19601f82011682018060405250810190611b6091906124df565b73__$403afd1716c71ad05f9fd75974b23df554$__63606c0c946040518163ffffffff1660e01b815260040161012060405180830381865af4158015611baa573d6000803e3d6000fd5b505050506040513d601f19601f82011682018060405250810190611bce91906127ba565b516101e086015160405160e085901b7fffffffff0000000000000000000000000000000000000000000000000000000016815273ffffffffffffffffffffffffffffffffffffffff93841660048201529290911660248301523060448301526064820152608401602060405180830381865af4158015611c52573d6000803e3d6000fd5b505050506040513d601f19601f82011682018060405250810190611c7691906128e5565b50611c8a8260000151836101e00151611d5f565b5050505050565b611c9b3382611e62565b610a2c576040517fb5f43834000000000000000000000000000000000000000000000000000000008152336004820152602481018290526044016103b3565b600260005403611d46576040517f08c379a000000000000000000000000000000000000000000000000000000000815260206004820152601f60248201527f5265656e7472616e637947756172643a207265656e7472616e742063616c6c0060448201526064016103b3565b6002600055565b6000611d593383611e62565b92915050565b600073__$403afd1716c71ad05f9fd75974b23df554$__63606c0c946040518163ffffffff1660e01b815260040161012060405180830381865af4158015611dab573d6000803e3d6000fd5b505050506040513d601f19601f82011682018060405250810190611dcf91906127ba565b516040517f2e1a7d4d0000000000000000000000000000000000000000000000000000000081526004810184905290915073ffffffffffffffffffffffffffffffffffffffff821690632e1a7d4d90602401600060405180830381600087803b158015611e3b57600080fd5b505af1158015611e4f573d6000803e3d6000fd5b50505050611e5d8383611ea7565b505050565b600080611e6d611f8b565b73ffffffffffffffffffffffffffffffffffffffff85166000908152602082905260409020909150611e9f908461200b565b949350505050565b6040805160008082526020820190925273ffffffffffffffffffffffffffffffffffffffff8416908390604051611ede91906129cc565b60006040518083038185875af1925050503d8060008114611f1b576040519150601f19603f3d011682016040523d82523d6000602084013e611f20565b606091505b5050905080611e5d576040517f08c379a000000000000000000000000000000000000000000000000000000000815260206004820152600360248201527f535445000000000000000000000000000000000000000000000000000000000060448201526064016103b3565b600080604051602001611fcf906020808252601e908201527f78797a2e656c66692e73746f726167652e416363657373436f6e74726f6c0000604082015260600190565b604080517fffffffffffffffffffffffffffffffffffffffffffffffffffffffffffffffe0818403018152919052805160209091012092915050565b600081815260018301602052604081205415155b9392505050565b6040518060400160405280600081526020016120d9604080516102208101825260008082526020820181905290918201908152602001600081526020016000815260200160008152602001600015158152602001600015158152602001600073ffffffffffffffffffffffffffffffffffffffff16815260200160008152602001600081526020016000815260200160008152602001600081526020016000815260200160008152602001600081525090565b905290565b6000806000604084860312156120f357600080fd5b83359250602084013567ffffffffffffffff8082111561211257600080fd5b818601915086601f83011261212657600080fd5b81358181111561213557600080fd5b8760208260071b850101111561214a57600080fd5b6020830194508093505050509250925092565b60006101e082840312156114ce57600080fd5b6000806020838503121561218357600080fd5b823567ffffffffffffffff8082111561219b57600080fd5b818501915085601f8301126121af57600080fd5b8135818111156121be57600080fd5b8660206101e0830285010111156121d457600080fd5b60209290920196919550909350505050565b73ffffffffffffffffffffffffffffffffffffffff81168114610a2c57600080fd5b8035612213816121e6565b919050565b60006020828403121561222a57600080fd5b813561201f816121e6565b7f4e487b7100000000000000000000000000000000000000000000000000000000600052602160045260246000fd5b6003811061227457612274612235565b9052565b60048110610a2c57610a2c612235565b61227481612278565b805173ffffffffffffffffffffffffffffffffffffffff1682526020810151602083015260408101516122c76040840182612264565b5060608101516122da6060840182612264565b5060808101516122ed6080840182612288565b5060a081015161230060a0840182612264565b5060c081015161231460c084018215159052565b5060e081015161232860e084018215159052565b506101008181015173ffffffffffffffffffffffffffffffffffffffff169083015261012080820151908301526101408082015190830152610160808201519083015261018080820151908301526101a080820151908301526101c080820151908301526101e0808201519083015261020090810151910152565b6020808252825182820181905260009190848201906040850190845b818110156123f1578351805184528501516123dc86850182612291565b509284019261024092909201916001016123bf565b50909695505050505050565b6000806040838503121561241057600080fd5b50508035926020909101359150565b60006020828403121561243157600080fd5b5051919050565b6020808252818101839052600090604080840186845b878110156124b2578135612461816121e6565b73ffffffffffffffffffffffffffffffffffffffff90811684528286013590612489826121e6565b16838601528184013584840152606080830135908401526080928301929091019060010161244e565b5090979650505050505050565b828152610240810161201f6020830184612291565b8051612213816121e6565b6000602082840312156124f157600080fd5b815161201f816121e6565b60038110610a2c57600080fd5b8035612213816124fc565b60006020828403121561252657600080fd5b813561201f816124fc565b8015158114610a2c57600080fd5b803561221381612531565b60006020828403121561255c57600080fd5b813561201f81612531565b600060a08201905073ffffffffffffffffffffffffffffffffffffffff808451168352806020850151166020840152506040830151604083015260608301516125af81612278565b8060608401525060808301511515608083015292915050565b80356004811061221357600080fd5b600061022082019050848252833560208301526125f66020850161253f565b80151560408401525061260b6040850161253f565b80151560608401525061262060608501612509565b61262d6080840182612264565b5061263a60808501612509565b61264760a0840182612264565b5061265460a085016125c8565b61266160c0840182612288565b5061266e60c08501612509565b61267b60e0840182612264565b5061268860e08501612208565b6101006126ac8185018373ffffffffffffffffffffffffffffffffffffffff169052565b61012091508086013582850152506101408186013581850152610160915080860135828501525061018081860135818501526101a091508086013582850152506101c08186013581850152808601356101e08501525050611e9f61020083018415159052565b7f4e487b7100000000000000000000000000000000000000000000000000000000600052604160045260246000fd5b604051610120810167ffffffffffffffff8111828210171561276557612765612712565b60405290565b604051601f82017fffffffffffffffffffffffffffffffffffffffffffffffffffffffffffffffe016810167ffffffffffffffff811182821017156127b2576127b2612712565b604052919050565b600061012082840312156127cd57600080fd5b6127d5612741565b6127de836124d4565b81526020830151602082015260408301516040820152606083015160608201526080830151608082015260a083015160a082015260c083015160c082015260e083015160e08201526101008084015181830152508091505092915050565b7f4e487b7100000000000000000000000000000000000000000000000000000000600052603260045260246000fd5b7f4e487b7100000000000000000000000000000000000000000000000000000000600052601160045260246000fd5b80820180821115611d5957611d5961286b565b60007fffffffffffffffffffffffffffffffffffffffffffffffffffffffffffffffff82036128de576128de61286b565b5060010190565b6000602082840312156128f757600080fd5b815161201f81612531565b6000602080838503121561291557600080fd5b825167ffffffffffffffff8082111561292d57600080fd5b818501915085601f83011261294157600080fd5b81518181111561295357612953612712565b8060051b915061296484830161276b565b818152918301840191848101908884111561297e57600080fd5b938501935b8385101561299c57845182529385019390850190612983565b98975050505050505050565b83815261026081016129bd6020830185612291565b82610240830152949350505050565b6000825160005b818110156129ed57602081860181015185830152016129d3565b50600092019182525091905056fea2646970667358221220bfab283195b423b4bdb84ca8d1111b7dc52aef231384ddf0726b2b79c2c8d34264736f6c63430008120033",
  "linkReferences": {
    "contracts/process/AssetsProcess.sol": {
      "AssetsProcess": [
        {
          "length": 20,
          "start": 2085
        },
        {
          "length": 20,
          "start": 3732
        }
      ]
    },
    "contracts/process/CancelOrderProcess.sol": {
      "CancelOrderProcess": [
        {
          "length": 20,
          "start": 6196
        }
      ]
    },
    "contracts/process/GasProcess.sol": {
      "GasProcess": [
        {
          "length": 20,
          "start": 1347
        },
        {
          "length": 20,
          "start": 3196
        },
        {
          "length": 20,
          "start": 6296
        }
      ]
    },
    "contracts/process/OracleProcess.sol": {
      "OracleProcess": [
        {
          "length": 20,
          "start": 1033
        },
        {
          "length": 20,
          "start": 1255
        }
      ]
    },
    "contracts/process/OrderProcess.sol": {
      "OrderProcess": [
        {
          "length": 20,
          "start": 1161
        },
        {
          "length": 20,
          "start": 2536
        },
        {
          "length": 20,
          "start": 3343
        }
      ]
    },
    "contracts/process/VaultProcess.sol": {
      "VaultProcess": [
        {
          "length": 20,
          "start": 6785
        }
      ]
    },
    "contracts/storage/Account.sol": {
      "Account": [
        {
          "length": 20,
          "start": 2399
        },
        {
          "length": 20,
          "start": 2704
        },
        {
          "length": 20,
          "start": 4020
        },
        {
          "length": 20,
          "start": 4164
        },
        {
          "length": 20,
          "start": 4313
        }
      ]
    },
    "contracts/storage/AppConfig.sol": {
      "AppConfig": [
        {
          "length": 20,
          "start": 2805
        },
        {
          "length": 20,
          "start": 7047
        },
        {
          "length": 20,
          "start": 7560
        }
      ]
    },
    "contracts/storage/Order.sol": {
      "Order": [
        {
          "length": 20,
          "start": 397
        },
        {
          "length": 20,
          "start": 4533
        },
        {
          "length": 20,
          "start": 4717
        },
        {
          "length": 20,
          "start": 5425
        }
      ]
    }
  },
  "deployedLinkReferences": {
    "contracts/process/AssetsProcess.sol": {
      "AssetsProcess": [
        {
          "length": 20,
          "start": 2048
        },
        {
          "length": 20,
          "start": 3695
        }
      ]
    },
    "contracts/process/CancelOrderProcess.sol": {
      "CancelOrderProcess": [
        {
          "length": 20,
          "start": 6159
        }
      ]
    },
    "contracts/process/GasProcess.sol": {
      "GasProcess": [
        {
          "length": 20,
          "start": 1310
        },
        {
          "length": 20,
          "start": 3159
        },
        {
          "length": 20,
          "start": 6259
        }
      ]
    },
    "contracts/process/OracleProcess.sol": {
      "OracleProcess": [
        {
          "length": 20,
          "start": 996
        },
        {
          "length": 20,
          "start": 1218
        }
      ]
    },
    "contracts/process/OrderProcess.sol": {
      "OrderProcess": [
        {
          "length": 20,
          "start": 1124
        },
        {
          "length": 20,
          "start": 2499
        },
        {
          "length": 20,
          "start": 3306
        }
      ]
    },
    "contracts/process/VaultProcess.sol": {
      "VaultProcess": [
        {
          "length": 20,
          "start": 6748
        }
      ]
    },
    "contracts/storage/Account.sol": {
      "Account": [
        {
          "length": 20,
          "start": 2362
        },
        {
          "length": 20,
          "start": 2667
        },
        {
          "length": 20,
          "start": 3983
        },
        {
          "length": 20,
          "start": 4127
        },
        {
          "length": 20,
          "start": 4276
        }
      ]
    },
    "contracts/storage/AppConfig.sol": {
      "AppConfig": [
        {
          "length": 20,
          "start": 2768
        },
        {
          "length": 20,
          "start": 7010
        },
        {
          "length": 20,
          "start": 7523
        }
      ]
    },
    "contracts/storage/Order.sol": {
      "Order": [
        {
          "length": 20,
          "start": 360
        },
        {
          "length": 20,
          "start": 4496
        },
        {
          "length": 20,
          "start": 4680
        },
        {
          "length": 20,
          "start": 5388
        }
      ]
    }
  }
}