{
  "_format": "hh-sol-artifact-1",
  "contractName": "FaucetFacet",
  "sourceName": "contracts/facets/FaucetFacet.sol",
  "abi": [
    {
      "inputs": [
        {
          "internalType": "address",
          "name": "account",
          "type": "address"
        },
        {
          "internalType": "bytes32",
          "name": "role",
          "type": "bytes32"
        }
      ],
      "name": "InvalidRoleAccess",
      "type": "error"
    },
    {
      "inputs": [
        {
          "components": [
            {
              "internalType": "address",
              "name": "account",
              "type": "address"
            },
            {
              "internalType": "address[]",
              "name": "mockTokens",
              "type": "address[]"
            },
            {
              "internalType": "uint256[]",
              "name": "mintAmounts",
              "type": "uint256[]"
            },
            {
              "internalType": "uint256",
              "name": "ethAmount",
              "type": "uint256"
            }
          ],
          "internalType": "struct IFaucet.RequestTokensParam",
          "name": "param",
          "type": "tuple"
        }
      ],
      "name": "requestTokens",
      "outputs": [],
      "stateMutability": "payable",
      "type": "function"
    }
  ],
  "bytecode": "0x608060405234801561001057600080fd5b50610515806100206000396000f3fe60806040526004361061001e5760003560e01c8063ff88370414610023575b600080fd5b610036610031366004610371565b610038565b005b6100617f4b45455045520000000000000000000000000000000000000000000000000000610241565b60005b61007160208301836103ac565b90508110156101905761008760208301836103ac565b828181106100975761009761041b565b90506020020160208101906100ac919061044a565b73ffffffffffffffffffffffffffffffffffffffff166340c10f196100d4602085018561044a565b6100e160408601866103ac565b858181106100f1576100f161041b565b6040517fffffffff0000000000000000000000000000000000000000000000000000000060e087901b16815273ffffffffffffffffffffffffffffffffffffffff90941660048501526020029190910135602483015250604401600060405180830381600087803b15801561016557600080fd5b505af1158015610179573d6000803e3d6000fd5b50505050808061018890610480565b915050610064565b5073__$8526888d218a843cc53a77a3ceb13f6b1f$__637c4368c16101b8602084018461044a565b6040517fffffffff0000000000000000000000000000000000000000000000000000000060e084901b16815273ffffffffffffffffffffffffffffffffffffffff90911660048201526060840135602482015260440160006040518083038186803b15801561022657600080fd5b505af415801561023a573d6000803e3d6000fd5b5050505050565b61024b3382610291565b61028e576040517fb5f438340000000000000000000000000000000000000000000000000000000081523360048201526024810182905260440160405180910390fd5b50565b60008061029c6102d6565b73ffffffffffffffffffffffffffffffffffffffff851660009081526020829052604090209091506102ce9084610356565b949350505050565b60008060405160200161031a906020808252601e908201527f78797a2e656c66692e73746f726167652e416363657373436f6e74726f6c0000604082015260600190565b604080517fffffffffffffffffffffffffffffffffffffffffffffffffffffffffffffffe0818403018152919052805160209091012092915050565b600081815260018301602052604081205415155b9392505050565b60006020828403121561038357600080fd5b813567ffffffffffffffff81111561039a57600080fd5b82016080818503121561036a57600080fd5b60008083357fffffffffffffffffffffffffffffffffffffffffffffffffffffffffffffffe18436030181126103e157600080fd5b83018035915067ffffffffffffffff8211156103fc57600080fd5b6020019150600581901b360382131561041457600080fd5b9250929050565b7f4e487b7100000000000000000000000000000000000000000000000000000000600052603260045260246000fd5b60006020828403121561045c57600080fd5b813573ffffffffffffffffffffffffffffffffffffffff8116811461036a57600080fd5b60007fffffffffffffffffffffffffffffffffffffffffffffffffffffffffffffffff82036104d8577f4e487b7100000000000000000000000000000000000000000000000000000000600052601160045260246000fd5b506001019056fea2646970667358221220017122bb5bb2e48840f30009c7c5aa3e95d9928dce39ace37376b727447a2bfe64736f6c63430008120033",
  "linkReferences": {
    "contracts/process/VaultProcess.sol": {
      "VaultProcess": [
        {
          "length": 20,
          "start": 435
        }
      ]
    }
  },
  "deployedLinkReferences": {
    "contracts/process/VaultProcess.sol": {
      "VaultProcess": [
        {
          "length": 20,
          "start": 403
        }
      ]
    }
  }
}