{"abi":[{"type":"function","name":"getAllPools","inputs":[{"name":"oracles","type":"tuple[]","internalType":"struct OracleProcess.OracleParam[]","components":[{"name":"token","type":"address","internalType":"address"},{"name":"targetToken","type":"address","internalType":"address"},{"name":"minPrice","type":"int256","internalType":"int256"},{"name":"maxPrice","type":"int256","internalType":"int256"}]}],"outputs":[{"name":"","type":"tuple[]","internalType":"struct IPool.PoolInfo[]","components":[{"name":"stakeToken","type":"address","internalType":"address"},{"name":"stakeTokenName","type":"string","internalType":"string"},{"name":"baseToken","type":"address","internalType":"address"},{"name":"symbol","type":"bytes32","internalType":"bytes32"},{"name":"baseTokenBalance","type":"tuple","internalType":"struct IPool.MintTokenBalance","components":[{"name":"amount","type":"uint256","internalType":"uint256"},{"name":"liability","type":"uint256","internalType":"uint256"},{"name":"holdAmount","type":"uint256","internalType":"uint256"},{"name":"unsettledAmount","type":"int256","internalType":"int256"},{"name":"lossAmount","type":"uint256","internalType":"uint256"},{"name":"collateralTokens","type":"address[]","internalType":"address[]"},{"name":"collateralAmounts","type":"uint256[]","internalType":"uint256[]"}]},{"name":"stableTokens","type":"address[]","internalType":"address[]"},{"name":"stableTokenBalances","type":"tuple[]","internalType":"struct IPool.MintTokenBalance[]","components":[{"name":"amount","type":"uint256","internalType":"uint256"},{"name":"liability","type":"uint256","internalType":"uint256"},{"name":"holdAmount","type":"uint256","internalType":"uint256"},{"name":"unsettledAmount","type":"int256","internalType":"int256"},{"name":"lossAmount","type":"uint256","internalType":"uint256"},{"name":"collateralTokens","type":"address[]","internalType":"address[]"},{"name":"collateralAmounts","type":"uint256[]","internalType":"uint256[]"}]},{"name":"poolValue","type":"uint256","internalType":"uint256"},{"name":"availableLiquidity","type":"uint256","internalType":"uint256"},{"name":"poolPnl","type":"int256","internalType":"int256"},{"name":"totalSupply","type":"uint256","internalType":"uint256"},{"name":"borrowingFee","type":"tuple","internalType":"struct LpPool.BorrowingFee","components":[{"name":"totalBorrowingFee","type":"uint256","internalType":"uint256"},{"name":"totalRealizedBorrowingFee","type":"uint256","internalType":"uint256"},{"name":"cumulativeBorrowingFeePerToken","type":"uint256","internalType":"uint256"},{"name":"lastUpdateTime","type":"uint256","internalType":"uint256"}]},{"name":"apr","type":"uint256","internalType":"uint256"},{"name":"totalClaimedRewards","type":"uint256","internalType":"uint256"}]}],"stateMutability":"view"},{"type":"function","name":"getPool","inputs":[{"name":"stakeToken","type":"address","internalType":"address"}],"outputs":[{"name":"","type":"tuple","internalType":"struct IPool.PoolInfo","components":[{"name":"stakeToken","type":"address","internalType":"address"},{"name":"stakeTokenName","type":"string","internalType":"string"},{"name":"baseToken","type":"address","internalType":"address"},{"name":"symbol","type":"bytes32","internalType":"bytes32"},{"name":"baseTokenBalance","type":"tuple","internalType":"struct IPool.MintTokenBalance","components":[{"name":"amount","type":"uint256","internalType":"uint256"},{"name":"liability","type":"uint256","internalType":"uint256"},{"name":"holdAmount","type":"uint256","internalType":"uint256"},{"name":"unsettledAmount","type":"int256","internalType":"int256"},{"name":"lossAmount","type":"uint256","internalType":"uint256"},{"name":"collateralTokens","type":"address[]","internalType":"address[]"},{"name":"collateralAmounts","type":"uint256[]","internalType":"uint256[]"}]},{"name":"stableTokens","type":"address[]","internalType":"address[]"},{"name":"stableTokenBalances","type":"tuple[]","internalType":"struct IPool.MintTokenBalance[]","components":[{"name":"amount","type":"uint256","internalType":"uint256"},{"name":"liability","type":"uint256","internalType":"uint256"},{"name":"holdAmount","type":"uint256","internalType":"uint256"},{"name":"unsettledAmount","type":"int256","internalType":"int256"},{"name":"lossAmount","type":"uint256","internalType":"uint256"},{"name":"collateralTokens","type":"address[]","internalType":"address[]"},{"name":"collateralAmounts","type":"uint256[]","internalType":"uint256[]"}]},{"name":"poolValue","type":"uint256","internalType":"uint256"},{"name":"availableLiquidity","type":"uint256","internalType":"uint256"},{"name":"poolPnl","type":"int256","internalType":"int256"},{"name":"totalSupply","type":"uint256","internalType":"uint256"},{"name":"borrowingFee","type":"tuple","internalType":"struct LpPool.BorrowingFee","components":[{"name":"totalBorrowingFee","type":"uint256","internalType":"uint256"},{"name":"totalRealizedBorrowingFee","type":"uint256","internalType":"uint256"},{"name":"cumulativeBorrowingFeePerToken","type":"uint256","internalType":"uint256"},{"name":"lastUpdateTime","type":"uint256","internalType":"uint256"}]},{"name":"apr","type":"uint256","internalType":"uint256"},{"name":"totalClaimedRewards","type":"uint256","internalType":"uint256"}]}],"stateMutability":"view"},{"type":"function","name":"getPoolWithOracle","inputs":[{"name":"stakeToken","type":"address","internalType":"address"},{"name":"oracles","type":"tuple[]","internalType":"struct OracleProcess.OracleParam[]","components":[{"name":"token","type":"address","internalType":"address"},{"name":"targetToken","type":"address","internalType":"address"},{"name":"minPrice","type":"int256","internalType":"int256"},{"name":"maxPrice","type":"int256","internalType":"int256"}]}],"outputs":[{"name":"","type":"tuple","internalType":"struct IPool.PoolInfo","components":[{"name":"stakeToken","type":"address","internalType":"address"},{"name":"stakeTokenName","type":"string","internalType":"string"},{"name":"baseToken","type":"address","internalType":"address"},{"name":"symbol","type":"bytes32","internalType":"bytes32"},{"name":"baseTokenBalance","type":"tuple","internalType":"struct IPool.MintTokenBalance","components":[{"name":"amount","type":"uint256","internalType":"uint256"},{"name":"liability","type":"uint256","internalType":"uint256"},{"name":"holdAmount","type":"uint256","internalType":"uint256"},{"name":"unsettledAmount","type":"int256","internalType":"int256"},{"name":"lossAmount","type":"uint256","internalType":"uint256"},{"name":"collateralTokens","type":"address[]","internalType":"address[]"},{"name":"collateralAmounts","type":"uint256[]","internalType":"uint256[]"}]},{"name":"stableTokens","type":"address[]","internalType":"address[]"},{"name":"stableTokenBalances","type":"tuple[]","internalType":"struct IPool.MintTokenBalance[]","components":[{"name":"amount","type":"uint256","internalType":"uint256"},{"name":"liability","type":"uint256","internalType":"uint256"},{"name":"holdAmount","type":"uint256","internalType":"uint256"},{"name":"unsettledAmount","type":"int256","internalType":"int256"},{"name":"lossAmount","type":"uint256","internalType":"uint256"},{"name":"collateralTokens","type":"address[]","internalType":"address[]"},{"name":"collateralAmounts","type":"uint256[]","internalType":"uint256[]"}]},{"name":"poolValue","type":"uint256","internalType":"uint256"},{"name":"availableLiquidity","type":"uint256","internalType":"uint256"},{"name":"poolPnl","type":"int256","internalType":"int256"},{"name":"totalSupply","type":"uint256","internalType":"uint256"},{"name":"borrowingFee","type":"tuple","internalType":"struct LpPool.BorrowingFee","components":[{"name":"totalBorrowingFee","type":"uint256","internalType":"uint256"},{"name":"totalRealizedBorrowingFee","type":"uint256","internalType":"uint256"},{"name":"cumulativeBorrowingFeePerToken","type":"uint256","internalType":"uint256"},{"name":"lastUpdateTime","type":"uint256","internalType":"uint256"}]},{"name":"apr","type":"uint256","internalType":"uint256"},{"name":"totalClaimedRewards","type":"uint256","internalType":"uint256"}]}],"stateMutability":"view"},{"type":"function","name":"getUsdPool","inputs":[],"outputs":[{"name":"","type":"tuple","internalType":"struct IPool.UsdPoolInfo","components":[{"name":"stableTokens","type":"address[]","internalType":"address[]"},{"name":"stableTokenBalances","type":"tuple[]","internalType":"struct UsdPool.TokenBalance[]","components":[{"name":"amount","type":"uint256","internalType":"uint256"},{"name":"holdAmount","type":"uint256","internalType":"uint256"},{"name":"unsettledAmount","type":"uint256","internalType":"uint256"}]},{"name":"stableTokenMaxWithdraws","type":"uint256[]","internalType":"uint256[]"},{"name":"poolValue","type":"uint256","internalType":"uint256"},{"name":"totalSupply","type":"uint256","internalType":"uint256"},{"name":"tokensAvailableLiquidity","type":"uint256[]","internalType":"uint256[]"},{"name":"borrowingFees","type":"tuple[]","internalType":"struct UsdPool.BorrowingFee[]","components":[{"name":"totalBorrowingFee","type":"uint256","internalType":"uint256"},{"name":"totalRealizedBorrowingFee","type":"uint256","internalType":"uint256"},{"name":"cumulativeBorrowingFeePerToken","type":"uint256","internalType":"uint256"},{"name":"lastUpdateTime","type":"uint256","internalType":"uint256"}]},{"name":"apr","type":"uint256","internalType":"uint256"},{"name":"totalClaimedRewards","type":"uint256","internalType":"uint256"}]}],"stateMutability":"view"},{"type":"function","name":"getUsdPoolWithOracle","inputs":[{"name":"oracles","type":"tuple[]","internalType":"struct OracleProcess.OracleParam[]","components":[{"name":"token","type":"address","internalType":"address"},{"name":"targetToken","type":"address","internalType":"address"},{"name":"minPrice","type":"int256","internalType":"int256"},{"name":"maxPrice","type":"int256","internalType":"int256"}]}],"outputs":[{"name":"","type":"tuple","internalType":"struct IPool.UsdPoolInfo","components":[{"name":"stableTokens","type":"address[]","internalType":"address[]"},{"name":"stableTokenBalances","type":"tuple[]","internalType":"struct UsdPool.TokenBalance[]","components":[{"name":"amount","type":"uint256","internalType":"uint256"},{"name":"holdAmount","type":"uint256","internalType":"uint256"},{"name":"unsettledAmount","type":"uint256","internalType":"uint256"}]},{"name":"stableTokenMaxWithdraws","type":"uint256[]","internalType":"uint256[]"},{"name":"poolValue","type":"uint256","internalType":"uint256"},{"name":"totalSupply","type":"uint256","internalType":"uint256"},{"name":"tokensAvailableLiquidity","type":"uint256[]","internalType":"uint256[]"},{"name":"borrowingFees","type":"tuple[]","internalType":"struct UsdPool.BorrowingFee[]","components":[{"name":"totalBorrowingFee","type":"uint256","internalType":"uint256"},{"name":"totalRealizedBorrowingFee","type":"uint256","internalType":"uint256"},{"name":"cumulativeBorrowingFeePerToken","type":"uint256","internalType":"uint256"},{"name":"lastUpdateTime","type":"uint256","internalType":"uint256"}]},{"name":"apr","type":"uint256","internalType":"uint256"},{"name":"totalClaimedRewards","type":"uint256","internalType":"uint256"}]}],"stateMutability":"view"}],"bytecode":{"object":"0x6080604052348015600f57600080fd5b5060016000556113ab806100246000396000f3fe608060405234801561001057600080fd5b50600436106100575760003560e01c80631559a2431461005c5780633e4fb7c21461008557806375d037d0146100a55780639e9e78f4146100ad578063bbe4f6db146100cd575b600080fd5b61006f61006a366004610507565b6100e0565b60405161007c9190610661565b60405180910390f35b610098610093366004610507565b61016d565b60405161007c919061095b565b61006f6101ee565b6100c06100bb3660046109d7565b61026c565b60405161007c9190610a2b565b6100c06100db366004610a3e565b6102fc565b6100e8610385565b6040516351a2d1d960e11b815273__$4372c788db0c4b9b4094fec4620221fad6$__9063a345a3b2906101219086908690600401610ac4565b600060405180830381865af415801561013e573d6000803e3d6000fd5b505050506040513d6000823e601f3d908101601f191682016040526101669190810190610e0c565b9392505050565b60405163c77b227f60e01b815260609073__$4372c788db0c4b9b4094fec4620221fad6$__9063c77b227f906101a99086908690600401610ac4565b600060405180830381865af41580156101c6573d6000803e3d6000fd5b505050506040513d6000823e601f3d908101601f1916820160405261016691908101906111f1565b6101f6610385565b73__$4372c788db0c4b9b4094fec4620221fad6$__6375d037d06040518163ffffffff1660e01b8152600401600060405180830381865af415801561023f573d6000803e3d6000fd5b505050506040513d6000823e601f3d908101601f191682016040526102679190810190610e0c565b905090565b6102746103d1565b604051630c39392160e31b815273__$4372c788db0c4b9b4094fec4620221fad6$__906361c9c908906102af908790879087906004016112a1565b600060405180830381865af41580156102cc573d6000803e3d6000fd5b505050506040513d6000823e601f3d908101601f191682016040526102f491908101906112c6565b949350505050565b6103046103d1565b604051630c39392160e31b815260609073__$4372c788db0c4b9b4094fec4620221fad6$__906361c9c9089061034090869085906004016112fa565b600060405180830381865af415801561035d573d6000803e3d6000fd5b505050506040513d6000823e601f3d908101601f1916820160405261016691908101906112c6565b6040518061012001604052806060815260200160608152602001606081526020016000815260200160008152602001606081526020016060815260200160008152602001600081525090565b604051806101c0016040528060006001600160a01b031681526020016060815260200160006001600160a01b031681526020016000801916815260200161044e6040518060e00160405280600081526020016000815260200160008152602001600081526020016000815260200160608152602001606081525090565b81526020016060815260200160608152602001600081526020016000815260200160008152602001600081526020016104a86040518060800160405280600081526020016000815260200160008152602001600081525090565b815260200160008152602001600081525090565b60008083601f8401126104ce57600080fd5b5081356001600160401b038111156104e557600080fd5b6020830191508360208260071b850101111561050057600080fd5b9250929050565b6000806020838503121561051a57600080fd5b82356001600160401b0381111561053057600080fd5b61053c858286016104bc565b90969095509350505050565b60008151808452602080850194506020840160005b838110156105825781516001600160a01b03168752958201959082019060010161055d565b509495945050505050565b60008151808452602080850194506020840160005b8381101561058257815180518852838101518489015260409081015190880152606090960195908201906001016105a2565b60008151808452602080850194506020840160005b83811015610582578151875295820195908201906001016105e9565b60008151808452602080850194506020840160005b838110156105825761064e878351805182526020810151602083015260408101516040830152606081015160608301525050565b608096909601959082019060010161061a565b6020815260008251610120806020850152610680610140850183610548565b91506020850151601f198086850301604087015261069e848361058d565b935060408701519150808685030160608701526106bb84836105d4565b935060608701516080870152608087015160a087015260a08701519150808685030160c08701526106ec84836105d4565b935060c08701519150808685030160e08701525061070a8382610605565b60e087015161010087810191909152909601519190940152509192915050565b60005b8381101561074557818101518382015260200161072d565b50506000910152565b6000815180845261076681602086016020860161072a565b601f01601f19169290920160200192915050565b8051825260208101516020830152604081015160408301526060810151606083015260808101516080830152600060a082015160e060a08501526107c160e0850182610548565b905060c083015184820360c08601526107da82826105d4565b95945050505050565b60008282518085526020808601955060208260051b8401016020860160005b8481101561083057601f1986840301895261081e83835161077a565b98840198925090830190600101610802565b5090979650505050505050565b80516001600160a01b03168252600061022060208301518160208601526108668286018261074e565b915050604083015161088360408601826001600160a01b03169052565b5060608301516060850152608083015184820360808601526108a5828261077a565b91505060a083015184820360a08601526108bf8282610548565b91505060c083015184820360c08601526108d982826107e3565b60e0858101519087015261010080860151908701526101208086015190870152610140808601519087015261016080860151805182890152602081015161018089015260408101516101a089015260608101516101c0890152919350915050506101808301516101e08501526101a08301516102008501528091505092915050565b600060208083016020845280855180835260408601915060408160051b87010192506020870160005b828110156109b257603f198886030184526109a085835161083d565b94509285019290850190600101610984565b5092979650505050505050565b6001600160a01b03811681146109d457600080fd5b50565b6000806000604084860312156109ec57600080fd5b83356109f7816109bf565b925060208401356001600160401b03811115610a1257600080fd5b610a1e868287016104bc565b9497909650939450505050565b602081526000610166602083018461083d565b600060208284031215610a5057600080fd5b8135610166816109bf565b8183526000602080850194508260005b85811015610582578135610a7e816109bf565b6001600160a01b0390811688528284013590610a99826109bf565b1687840152604082810135908801526060808301359088015260809687019690910190600101610a6b565b6020815260006102f4602083018486610a5b565b634e487b7160e01b600052604160045260246000fd5b604051606081016001600160401b0381118282101715610b1057610b10610ad8565b60405290565b60405161012081016001600160401b0381118282101715610b1057610b10610ad8565b60405160e081016001600160401b0381118282101715610b1057610b10610ad8565b6040516101c081016001600160401b0381118282101715610b1057610b10610ad8565b604051601f8201601f191681016001600160401b0381118282101715610ba657610ba6610ad8565b604052919050565b60006001600160401b03821115610bc757610bc7610ad8565b5060051b60200190565b8051610bdc816109bf565b919050565b600082601f830112610bf257600080fd5b81516020610c07610c0283610bae565b610b7e565b8083825260208201915060208460051b870101935086841115610c2957600080fd5b602086015b84811015610c4e578051610c41816109bf565b8352918301918301610c2e565b509695505050505050565b600082601f830112610c6a57600080fd5b81516020610c7a610c0283610bae565b82815260609283028501820192828201919087851115610c9957600080fd5b8387015b858110156108305781818a031215610cb55760008081fd5b610cbd610aee565b815181528582015186820152604080830151908201528452928401928101610c9d565b600082601f830112610cf157600080fd5b81516020610d01610c0283610bae565b8083825260208201915060208460051b870101935086841115610d2357600080fd5b602086015b84811015610c4e5780518352918301918301610d28565b600060808284031215610d5157600080fd5b604051608081018181106001600160401b0382111715610d7357610d73610ad8565b8060405250809150825181526020830151602082015260408301516040820152606083015160608201525092915050565b600082601f830112610db557600080fd5b81516020610dc5610c0283610bae565b8083825260208201915060208460071b870101935086841115610de757600080fd5b602086015b84811015610c4e57610dfe8882610d3f565b835291830191608001610dec565b600060208284031215610e1e57600080fd5b81516001600160401b0380821115610e3557600080fd5b908301906101208286031215610e4a57600080fd5b610e52610b16565b825182811115610e6157600080fd5b610e6d87828601610be1565b825250602083015182811115610e8257600080fd5b610e8e87828601610c59565b602083015250604083015182811115610ea657600080fd5b610eb287828601610ce0565b604083015250606083015160608201526080830151608082015260a083015182811115610ede57600080fd5b610eea87828601610ce0565b60a08301525060c083015182811115610f0257600080fd5b610f0e87828601610da4565b60c08301525060e083810151908201526101009283015192810192909252509392505050565b600082601f830112610f4557600080fd5b81516001600160401b03811115610f5e57610f5e610ad8565b610f71601f8201601f1916602001610b7e565b818152846020838601011115610f8657600080fd5b6102f482602083016020870161072a565b600060e08284031215610fa957600080fd5b610fb1610b39565b9050815181526020820151602082015260408201516040820152606082015160608201526080820151608082015260a08201516001600160401b0380821115610ff957600080fd5b61100585838601610be1565b60a084015260c084015191508082111561101e57600080fd5b5061102b84828501610ce0565b60c08301525092915050565b600082601f83011261104857600080fd5b81516020611058610c0283610bae565b82815260059290921b8401810191818101908684111561107757600080fd5b8286015b84811015610c4e5780516001600160401b0381111561109a5760008081fd5b6110a88986838b0101610f97565b84525091830191830161107b565b600061022082840312156110c957600080fd5b6110d1610b5b565b90506110dc82610bd1565b815260208201516001600160401b03808211156110f857600080fd5b61110485838601610f34565b602084015261111560408501610bd1565b604084015260608401516060840152608084015191508082111561113857600080fd5b61114485838601610f97565b608084015260a084015191508082111561115d57600080fd5b61116985838601610be1565b60a084015260c084015191508082111561118257600080fd5b5061118f84828501611037565b60c08301525060e082810151908201526101008083015190820152610120808301519082015261014080830151908201526101606111cf84828501610d3f565b908201526101e0820151610180820152610200909101516101a0820152919050565b6000602080838503121561120457600080fd5b82516001600160401b038082111561121b57600080fd5b818501915085601f83011261122f57600080fd5b815161123d610c0282610bae565b81815260059190911b8301840190848101908883111561125c57600080fd5b8585015b83811015611294578051858111156112785760008081fd5b6112868b89838a01016110b6565b845250918601918601611260565b5098975050505050505050565b6001600160a01b03841681526040602082018190526000906107da9083018486610a5b565b6000602082840312156112d857600080fd5b81516001600160401b038111156112ee57600080fd5b6102f4848285016110b6565b6001600160a01b038381168252604060208084018290528451848301819052600093606092909183870190888301875b82811015611365578151805187168552858101518716868601528881015189860152870151878501526080909301929084019060010161132a565b50919a995050505050505050505056fea26469706673582212202be18d80978daf578fbd2761186ba1ebdc5ef1d9b94a2fa6b7aa66127564cd7464736f6c63430008190033","linkReferences":{"contracts/process/LpPoolQueryProcess.sol":{"LpPoolQueryProcess":[{"start":283,"length":20},{"start":419,"length":20},{"start":540,"length":20},{"start":679,"length":20},{"start":826,"length":20}]}}},"methodIdentifiers":{"getAllPools((address,address,int256,int256)[])":"3e4fb7c2","getPool(address)":"bbe4f6db","getPoolWithOracle(address,(address,address,int256,int256)[])":"9e9e78f4","getUsdPool()":"75d037d0","getUsdPoolWithOracle((address,address,int256,int256)[])":"1559a243"},"id":12}