{
  "_format": "hh-sol-artifact-1",
  "contractName": "OracleProcess",
  "sourceName": "contracts/process/OracleProcess.sol",
  "abi": [
    {
      "inputs": [],
      "name": "PriceIsZero",
      "type": "error"
    },
    {
      "inputs": [
        {
          "components": [
            {
              "internalType": "address",
              "name": "token",
              "type": "address"
            },
            {
              "internalType": "address",
              "name": "targetToken",
              "type": "address"
            },
            {
              "internalType": "int256",
              "name": "minPrice",
              "type": "int256"
            },
            {
              "internalType": "int256",
              "name": "maxPrice",
              "type": "int256"
            }
          ],
          "internalType": "struct OracleProcess.OracleParam[]",
          "name": "params",
          "type": "tuple[]"
        },
        {
          "internalType": "address",
          "name": "token",
          "type": "address"
        },
        {
          "internalType": "address",
          "name": "targetToken",
          "type": "address"
        },
        {
          "internalType": "bool",
          "name": "isMin",
          "type": "bool"
        }
      ],
      "name": "getIntOraclePrices",
      "outputs": [
        {
          "internalType": "int256",
          "name": "",
          "type": "int256"
        }
      ],
      "stateMutability": "view",
      "type": "function"
    },
    {
      "inputs": [
        {
          "components": [
            {
              "internalType": "address",
              "name": "token",
              "type": "address"
            },
            {
              "internalType": "address",
              "name": "targetToken",
              "type": "address"
            },
            {
              "internalType": "int256",
              "name": "minPrice",
              "type": "int256"
            },
            {
              "internalType": "int256",
              "name": "maxPrice",
              "type": "int256"
            }
          ],
          "internalType": "struct OracleProcess.OracleParam[]",
          "name": "params",
          "type": "tuple[]"
        },
        {
          "internalType": "address",
          "name": "token",
          "type": "address"
        },
        {
          "internalType": "bool",
          "name": "isMin",
          "type": "bool"
        }
      ],
      "name": "getIntOraclePrices",
      "outputs": [
        {
          "internalType": "int256",
          "name": "",
          "type": "int256"
        }
      ],
      "stateMutability": "view",
      "type": "function"
    },
    {
      "inputs": [
        {
          "internalType": "address",
          "name": "token",
          "type": "address"
        },
        {
          "internalType": "bool",
          "name": "min",
          "type": "bool"
        }
      ],
      "name": "getLatestUsdPrice",
      "outputs": [
        {
          "internalType": "int256",
          "name": "",
          "type": "int256"
        }
      ],
      "stateMutability": "view",
      "type": "function"
    },
    {
      "inputs": [
        {
          "internalType": "address",
          "name": "token",
          "type": "address"
        },
        {
          "internalType": "address",
          "name": "targetToken",
          "type": "address"
        },
        {
          "internalType": "bool",
          "name": "min",
          "type": "bool"
        }
      ],
      "name": "getLatestUsdPrice",
      "outputs": [
        {
          "internalType": "int256",
          "name": "",
          "type": "int256"
        }
      ],
      "stateMutability": "view",
      "type": "function"
    },
    {
      "inputs": [
        {
          "internalType": "address",
          "name": "token",
          "type": "address"
        }
      ],
      "name": "getLatestUsdPrice",
      "outputs": [
        {
          "components": [
            {
              "internalType": "int256",
              "name": "min",
              "type": "int256"
            },
            {
              "internalType": "int256",
              "name": "max",
              "type": "int256"
            }
          ],
          "internalType": "struct OraclePrice.Data",
          "name": "",
          "type": "tuple"
        }
      ],
      "stateMutability": "view",
      "type": "function"
    },
    {
      "inputs": [
        {
          "internalType": "address",
          "name": "token",
          "type": "address"
        },
        {
          "internalType": "address",
          "name": "targetToken",
          "type": "address"
        },
        {
          "internalType": "bool",
          "name": "min",
          "type": "bool"
        }
      ],
      "name": "getLatestUsdUintPrice",
      "outputs": [
        {
          "internalType": "uint256",
          "name": "",
          "type": "uint256"
        }
      ],
      "stateMutability": "view",
      "type": "function"
    },
    {
      "inputs": [
        {
          "internalType": "address",
          "name": "token",
          "type": "address"
        },
        {
          "internalType": "bool",
          "name": "min",
          "type": "bool"
        }
      ],
      "name": "getLatestUsdUintPrice",
      "outputs": [
        {
          "internalType": "uint256",
          "name": "",
          "type": "uint256"
        }
      ],
      "stateMutability": "view",
      "type": "function"
    },
    {
      "inputs": [
        {
          "internalType": "address",
          "name": "token",
          "type": "address"
        }
      ],
      "name": "getLatestUsdUintPrice",
      "outputs": [
        {
          "internalType": "uint256",
          "name": "min",
          "type": "uint256"
        },
        {
          "internalType": "uint256",
          "name": "max",
          "type": "uint256"
        }
      ],
      "stateMutability": "view",
      "type": "function"
    },
    {
      "inputs": [
        {
          "components": [
            {
              "internalType": "address",
              "name": "token",
              "type": "address"
            },
            {
              "internalType": "address",
              "name": "targetToken",
              "type": "address"
            },
            {
              "internalType": "int256",
              "name": "minPrice",
              "type": "int256"
            },
            {
              "internalType": "int256",
              "name": "maxPrice",
              "type": "int256"
            }
          ],
          "internalType": "struct OracleProcess.OracleParam[]",
          "name": "params",
          "type": "tuple[]"
        },
        {
          "internalType": "address",
          "name": "token",
          "type": "address"
        },
        {
          "internalType": "address",
          "name": "targetToken",
          "type": "address"
        },
        {
          "internalType": "bool",
          "name": "isMin",
          "type": "bool"
        }
      ],
      "name": "getOraclePrices",
      "outputs": [
        {
          "internalType": "uint256",
          "name": "",
          "type": "uint256"
        }
      ],
      "stateMutability": "view",
      "type": "function"
    },
    {
      "inputs": [
        {
          "components": [
            {
              "internalType": "address",
              "name": "token",
              "type": "address"
            },
            {
              "internalType": "address",
              "name": "targetToken",
              "type": "address"
            },
            {
              "internalType": "int256",
              "name": "minPrice",
              "type": "int256"
            },
            {
              "internalType": "int256",
              "name": "maxPrice",
              "type": "int256"
            }
          ],
          "internalType": "struct OracleProcess.OracleParam[]",
          "name": "params",
          "type": "tuple[]"
        },
        {
          "internalType": "address",
          "name": "token",
          "type": "address"
        },
        {
          "internalType": "bool",
          "name": "isMin",
          "type": "bool"
        }
      ],
      "name": "getOraclePrices",
      "outputs": [
        {
          "internalType": "uint256",
          "name": "",
          "type": "uint256"
        }
      ],
      "stateMutability": "view",
      "type": "function"
    }
  ],
  "bytecode": "0x6111db61003a600b82828239805160001a60731461002d57634e487b7160e01b600052600060045260246000fd5b30600052607381538281f3fe73000000000000000000000000000000000000000030146080604052600436106100de5760003560e01c80637532d8bc1161008b578063c30bc48511610065578063c30bc485146101b2578063e52ed365146101d2578063f85cce2d146101e757600080fd5b80637532d8bc1461015557806395b1e48814610177578063bc5f656d1461018a57600080fd5b80634006b071116100bc5780634006b0711461011c5780636c0a96391461012f5780636c44b9291461014257600080fd5b80631300fc54146100e3578063180e24bb146101095780631a0994f514610109575b600080fd5b6100f66100f1366004610cea565b6101fa565b6040519081526020015b60405180910390f35b6100f6610117366004610d2d565b610219565b6100f661012a366004610cea565b610243565b6100f661013d366004610ecd565b6103cf565b6100f6610150366004610f3c565b6104a4565b81801561016157600080fd5b50610175610170366004610f83565b61056d565b005b6100f6610185366004610ecd565b610831565b61019d610198366004610ff8565b610918565b60408051928352602083019190915201610100565b6101c56101c0366004610ff8565b610939565b6040516101009190611013565b8180156101de57600080fd5b50610175610956565b6100f66101f5366004610f3c565b610a3c565b600061020f61020a858585610243565b610ac2565b90505b9392505050565b60008061022584610b36565b905082610236578060200151610239565b80515b9150505b92915050565b60008073__$b2ab08d09602e6282c869d9bedce62ec3d$__6386d5c4be6040518163ffffffff1660e01b8152600401602060405180830381865af415801561028f573d6000803e3d6000fd5b505050506040513d601f19601f820116820180604052508101906102b3919061102a565b6040517f3ba36b250000000000000000000000000000000000000000000000000000000081526004810182905273ffffffffffffffffffffffffffffffffffffffff80881660248301528616604482015290915060009073__$b2ab08d09602e6282c869d9bedce62ec3d$__90633ba36b25906064016040805180830381865af4158015610345573d6000803e3d6000fd5b505050506040513d601f19601f820116820180604052508101906103699190611043565b8051909150158061037c57506020810151155b156103b3576040517f907adecd00000000000000000000000000000000000000000000000000000000815260040160405180910390fd5b836103c25780602001516103c5565b80515b9695505050505050565b6000805b855181101561048d578473ffffffffffffffffffffffffffffffffffffffff1686828151811061040557610405611092565b60200260200101516000015173ffffffffffffffffffffffffffffffffffffffff160361047b57826104545785818151811061044357610443611092565b602002602001015160600151610473565b85818151811061046657610466611092565b6020026020010151604001515b91505061049c565b80610485816110c1565b9150506103d3565b506104998484846101fa565b90505b949350505050565b6000805b8451811015610562578373ffffffffffffffffffffffffffffffffffffffff168582815181106104da576104da611092565b60200260200101516000015173ffffffffffffffffffffffffffffffffffffffff160361055057826105295784818151811061051857610518611092565b602002602001015160600151610548565b84818151811061053b5761053b611092565b6020026020010151604001515b915050610212565b8061055a816110c1565b9150506104a8565b5061020f8383610219565b600073__$b2ab08d09602e6282c869d9bedce62ec3d$__6386d5c4be6040518163ffffffff1660e01b8152600401602060405180830381865af41580156105b8573d6000803e3d6000fd5b505050506040513d601f19601f820116820180604052508101906105dc919061102a565b905060005b8281101561082b5760008484838181106105fd576105fd611092565b90506080020160200160208101906106159190610ff8565b73ffffffffffffffffffffffffffffffffffffffff16036107115773__$b2ab08d09602e6282c869d9bedce62ec3d$__633b3388af8386868581811061065d5761065d611092565b6106739260206080909202019081019150610ff8565b604051806040016040528089898881811061069057610690611092565b9050608002016040013581526020018989888181106106b1576106b1611092565b905060800201606001358152506040518463ffffffff1660e01b81526004016106dc93929190611120565b60006040518083038186803b1580156106f457600080fd5b505af4158015610708573d6000803e3d6000fd5b50505050610819565b73__$b2ab08d09602e6282c869d9bedce62ec3d$__63b13b1ab58386868581811061073e5761073e611092565b6107549260206080909202019081019150610ff8565b87878681811061076657610766611092565b905060800201602001602081019061077e9190610ff8565b60405180604001604052808a8a8981811061079b5761079b611092565b9050608002016040013581526020018a8a898181106107bc576107bc611092565b905060800201606001358152506040518563ffffffff1660e01b81526004016107e8949392919061115a565b60006040518083038186803b15801561080057600080fd5b505af4158015610814573d6000803e3d6000fd5b505050505b80610823816110c1565b9150506105e1565b50505050565b6000805b855181101561090c578473ffffffffffffffffffffffffffffffffffffffff1686828151811061086757610867611092565b60200260200101516000015173ffffffffffffffffffffffffffffffffffffffff161480156108de57508373ffffffffffffffffffffffffffffffffffffffff168682815181106108ba576108ba611092565b60200260200101516020015173ffffffffffffffffffffffffffffffffffffffff16145b156108fa57826104545785818151811061044357610443611092565b80610904816110c1565b915050610835565b50610499848484610243565b600080600061092684610b36565b8051602090910151909590945092505050565b604080518082019091526000808252602082015261023d82610b36565b73__$b2ab08d09602e6282c869d9bedce62ec3d$__6386d5c4be6040518163ffffffff1660e01b8152600401602060405180830381865af415801561099f573d6000803e3d6000fd5b505050506040513d601f19601f820116820180604052508101906109c3919061102a565b6040517fa2ea1e34000000000000000000000000000000000000000000000000000000008152600481019190915273__$b2ab08d09602e6282c869d9bedce62ec3d$__9063a2ea1e349060240160006040518083038186803b158015610a2857600080fd5b505af415801561082b573d6000803e3d6000fd5b6000805b8451811015610562578373ffffffffffffffffffffffffffffffffffffffff16858281518110610a7257610a72611092565b60200260200101516000015173ffffffffffffffffffffffffffffffffffffffff1603610ab057826105295784818151811061051857610518611092565b80610aba816110c1565b915050610a40565b600080821215610b32576040517f08c379a000000000000000000000000000000000000000000000000000000000815260206004820181905260248201527f53616665436173743a2076616c7565206d75737420626520706f736974697665604482015260640160405180910390fd5b5090565b6040805180820190915260008082526020820152600073__$b2ab08d09602e6282c869d9bedce62ec3d$__6386d5c4be6040518163ffffffff1660e01b8152600401602060405180830381865af4158015610b95573d6000803e3d6000fd5b505050506040513d601f19601f82011682018060405250810190610bb9919061102a565b6040517f055e9a070000000000000000000000000000000000000000000000000000000081526004810182905273ffffffffffffffffffffffffffffffffffffffff8516602482015290915060009073__$b2ab08d09602e6282c869d9bedce62ec3d$__9063055e9a07906044016040805180830381865af4158015610c43573d6000803e3d6000fd5b505050506040513d601f19601f82011682018060405250810190610c679190611043565b80519091501580610c7a57506020810151155b15610212576040517f907adecd00000000000000000000000000000000000000000000000000000000815260040160405180910390fd5b803573ffffffffffffffffffffffffffffffffffffffff81168114610cd557600080fd5b919050565b80358015158114610cd557600080fd5b600080600060608486031215610cff57600080fd5b610d0884610cb1565b9250610d1660208501610cb1565b9150610d2460408501610cda565b90509250925092565b60008060408385031215610d4057600080fd5b610d4983610cb1565b9150610d5760208401610cda565b90509250929050565b7f4e487b7100000000000000000000000000000000000000000000000000000000600052604160045260246000fd5b6040516080810167ffffffffffffffff81118282101715610db257610db2610d60565b60405290565b604051601f82017fffffffffffffffffffffffffffffffffffffffffffffffffffffffffffffffe016810167ffffffffffffffff81118282101715610dff57610dff610d60565b604052919050565b600082601f830112610e1857600080fd5b8135602067ffffffffffffffff821115610e3457610e34610d60565b610e42818360051b01610db8565b82815260079290921b84018101918181019086841115610e6157600080fd5b8286015b84811015610ec25760808189031215610e7e5760008081fd5b610e86610d8f565b610e8f82610cb1565b8152610e9c858301610cb1565b818601526040828101359082015260608083013590820152835291830191608001610e65565b509695505050505050565b60008060008060808587031215610ee357600080fd5b843567ffffffffffffffff811115610efa57600080fd5b610f0687828801610e07565b945050610f1560208601610cb1565b9250610f2360408601610cb1565b9150610f3160608601610cda565b905092959194509250565b600080600060608486031215610f5157600080fd5b833567ffffffffffffffff811115610f6857600080fd5b610f7486828701610e07565b935050610d1660208501610cb1565b60008060208385031215610f9657600080fd5b823567ffffffffffffffff80821115610fae57600080fd5b818501915085601f830112610fc257600080fd5b813581811115610fd157600080fd5b8660208260071b8501011115610fe657600080fd5b60209290920196919550909350505050565b60006020828403121561100a57600080fd5b61021282610cb1565b81518152602080830151908201526040810161023d565b60006020828403121561103c57600080fd5b5051919050565b60006040828403121561105557600080fd5b6040516040810181811067ffffffffffffffff8211171561107857611078610d60565b604052825181526020928301519281019290925250919050565b7f4e487b7100000000000000000000000000000000000000000000000000000000600052603260045260246000fd5b60007fffffffffffffffffffffffffffffffffffffffffffffffffffffffffffffffff8203611119577f4e487b7100000000000000000000000000000000000000000000000000000000600052601160045260246000fd5b5060010190565b83815273ffffffffffffffffffffffffffffffffffffffff831660208201526080810161049c604083018480518252602090810151910152565b84815273ffffffffffffffffffffffffffffffffffffffff84811660208301528316604082015260a0810161119c606083018480518252602090810151910152565b9594505050505056fea2646970667358221220f48ec5b2302adb8cf0dd460c90c7b2645d301c228efc7c0e8dad0b86d86cba3564736f6c63430008120033",
  "linkReferences": {
    "contracts/storage/OraclePrice.sol": {
      "OraclePrice": [
        {
          "length": 20,
          "start": 642
        },
        {
          "length": 20,
          "start": 838
        },
        {
          "length": 20,
          "start": 1451
        },
        {
          "length": 20,
          "start": 1644
        },
        {
          "length": 20,
          "start": 1869
        },
        {
          "length": 20,
          "start": 2450
        },
        {
          "length": 20,
          "start": 2605
        },
        {
          "length": 20,
          "start": 2952
        },
        {
          "length": 20,
          "start": 3140
        }
      ]
    }
  },
  "deployedLinkReferences": {
    "contracts/storage/OraclePrice.sol": {
      "OraclePrice": [
        {
          "length": 20,
          "start": 584
        },
        {
          "length": 20,
          "start": 780
        },
        {
          "length": 20,
          "start": 1393
        },
        {
          "length": 20,
          "start": 1586
        },
        {
          "length": 20,
          "start": 1811
        },
        {
          "length": 20,
          "start": 2392
        },
        {
          "length": 20,
          "start": 2547
        },
        {
          "length": 20,
          "start": 2894
        },
        {
          "length": 20,
          "start": 3082
        }
      ]
    }
  }
}