{
  "_format": "hh-sol-artifact-1",
  "contractName": "MarketQueryProcess",
  "sourceName": "contracts/process/MarketQueryProcess.sol",
  "abi": [
    {
      "inputs": [
        {
          "internalType": "address",
          "name": "stakeToken",
          "type": "address"
        },
        {
          "internalType": "bool",
          "name": "isLong",
          "type": "bool"
        },
        {
          "internalType": "address",
          "name": "marginToken",
          "type": "address"
        }
      ],
      "name": "getCumulativeBorrowingFeePerToken",
      "outputs": [
        {
          "internalType": "uint256",
          "name": "",
          "type": "uint256"
        }
      ],
      "stateMutability": "view",
      "type": "function"
    },
    {
      "inputs": [
        {
          "internalType": "bytes32",
          "name": "symbol",
          "type": "bytes32"
        },
        {
          "internalType": "bool",
          "name": "isLong",
          "type": "bool"
        }
      ],
      "name": "getFundingFeePerQty",
      "outputs": [
        {
          "internalType": "int256",
          "name": "",
          "type": "int256"
        }
      ],
      "stateMutability": "view",
      "type": "function"
    },
    {
      "inputs": [
        {
          "internalType": "bytes32",
          "name": "symbol",
          "type": "bytes32"
        },
        {
          "components": [
            {
              "internalType": "address",
              "name": "token",
              "type": "address"
            },
            {
              "internalType": "address",
              "name": "targetToken",
              "type": "address"
            },
            {
              "internalType": "int256",
              "name": "minPrice",
              "type": "int256"
            },
            {
              "internalType": "int256",
              "name": "maxPrice",
              "type": "int256"
            }
          ],
          "internalType": "struct OracleProcess.OracleParam[]",
          "name": "oracles",
          "type": "tuple[]"
        }
      ],
      "name": "getMarketInfo",
      "outputs": [
        {
          "components": [
            {
              "components": [
                {
                  "internalType": "bytes32",
                  "name": "code",
                  "type": "bytes32"
                },
                {
                  "internalType": "enum Symbol.Status",
                  "name": "status",
                  "type": "Symbol.Status"
                },
                {
                  "internalType": "address",
                  "name": "stakeToken",
                  "type": "address"
                },
                {
                  "internalType": "address",
                  "name": "indexToken",
                  "type": "address"
                },
                {
                  "internalType": "address",
                  "name": "baseToken",
                  "type": "address"
                },
                {
                  "internalType": "string",
                  "name": "baseTokenName",
                  "type": "string"
                }
              ],
              "internalType": "struct Symbol.Props",
              "name": "symbolInfo",
              "type": "tuple"
            },
            {
              "internalType": "uint256",
              "name": "longPositionInterest",
              "type": "uint256"
            },
            {
              "internalType": "uint256",
              "name": "longPositionEntryPrice",
              "type": "uint256"
            },
            {
              "internalType": "uint256",
              "name": "totalShortPositionInterest",
              "type": "uint256"
            },
            {
              "components": [
                {
                  "internalType": "uint256",
                  "name": "openInterest",
                  "type": "uint256"
                },
                {
                  "internalType": "uint256",
                  "name": "entryPrice",
                  "type": "uint256"
                }
              ],
              "internalType": "struct Market.MarketPosition[]",
              "name": "shortPositions",
              "type": "tuple[]"
            },
            {
              "internalType": "uint256",
              "name": "availableLiquidity",
              "type": "uint256"
            },
            {
              "components": [
                {
                  "internalType": "int256",
                  "name": "longFundingFeePerQty",
                  "type": "int256"
                },
                {
                  "internalType": "int256",
                  "name": "shortFundingFeePerQty",
                  "type": "int256"
                },
                {
                  "internalType": "int256",
                  "name": "totalLongFundingFee",
                  "type": "int256"
                },
                {
                  "internalType": "int256",
                  "name": "totalShortFundingFee",
                  "type": "int256"
                },
                {
                  "internalType": "int256",
                  "name": "longFundingFeeRate",
                  "type": "int256"
                },
                {
                  "internalType": "int256",
                  "name": "shortFundingFeeRate",
                  "type": "int256"
                },
                {
                  "internalType": "uint256",
                  "name": "lastUpdateTime",
                  "type": "uint256"
                }
              ],
              "internalType": "struct Market.FundingFee",
              "name": "fundingFee",
              "type": "tuple"
            }
          ],
          "internalType": "struct IMarket.MarketInfo",
          "name": "",
          "type": "tuple"
        }
      ],
      "stateMutability": "view",
      "type": "function"
    },
    {
      "inputs": [
        {
          "internalType": "address",
          "name": "token",
          "type": "address"
        }
      ],
      "name": "getTradeTokenInfo",
      "outputs": [
        {
          "components": [
            {
              "internalType": "uint256",
              "name": "tradeTokenCollateral",
              "type": "uint256"
            },
            {
              "internalType": "uint256",
              "name": "tradeTokenLiability",
              "type": "uint256"
            }
          ],
          "internalType": "struct IMarket.TradeTokenInfo",
          "name": "",
          "type": "tuple"
        }
      ],
      "stateMutability": "view",
      "type": "function"
    },
    {
      "inputs": [
        {
          "internalType": "bytes32",
          "name": "symbol",
          "type": "bytes32"
        }
      ],
      "name": "getUpdateMarketFundingFeeRate",
      "outputs": [
        {
          "internalType": "bool",
          "name": "onlyUpdateTime",
          "type": "bool"
        },
        {
          "components": [
            {
              "internalType": "uint256",
              "name": "totalLongOpenInterest",
              "type": "uint256"
            },
            {
              "internalType": "uint256",
              "name": "totalShortOpenInterest",
              "type": "uint256"
            },
            {
              "internalType": "uint256",
              "name": "fundingFeeDurationInSecond",
              "type": "uint256"
            },
            {
              "internalType": "uint256",
              "name": "fundingRatePerSecond",
              "type": "uint256"
            },
            {
              "internalType": "uint256",
              "name": "totalFundingFee",
              "type": "uint256"
            },
            {
              "internalType": "uint256",
              "name": "currentLongFundingFeePerQty",
              "type": "uint256"
            },
            {
              "internalType": "uint256",
              "name": "currentShortFundingFeePerQty",
              "type": "uint256"
            },
            {
              "internalType": "int256",
              "name": "longFundingFeePerQtyDelta",
              "type": "int256"
            },
            {
              "internalType": "int256",
              "name": "shortFundingFeePerQtyDelta",
              "type": "int256"
            },
            {
              "internalType": "bool",
              "name": "longPayShort",
              "type": "bool"
            }
          ],
          "internalType": "struct MarketQueryProcess.UpdateFundingCache",
          "name": "",
          "type": "tuple"
        }
      ],
      "stateMutability": "view",
      "type": "function"
    }
  ],
  "bytecode": "0x612dc361003a600b82828239805160001a60731461002d57634e487b7160e01b600052600060045260246000fd5b30600052607381538281f3fe73000000000000000000000000000000000000000030146080604052600436106100875760003560e01c8063a7b039d911610065578063a7b039d9146100e6578063ad9f930f14610106578063aece5ffd14610119578063e674b4c51461013957600080fd5b80638863dea51461008c57806393431218146100b25780639e20fcac146100d3575b600080fd5b61009f61009a366004612101565b61014c565b6040519081526020015b60405180910390f35b6100c56100c0366004612131565b6106c0565b6040516100a992919061214a565b61009f6100e13660046121e3565b610d57565b6100f96100f4366004612208565b610e05565b6040516100a99190612225565b61009f610114366004612131565b610ff7565b61012c61012736600461223c565b611275565b6040516100a9919061239d565b61009f610147366004612533565b61187d565b6040517f36dd0ce30000000000000000000000000000000000000000000000000000000081526004810183905273ffffffffffffffffffffffffffffffffffffffff8216602482015260009073__$69c89f533e100333dfc56147eb38ab86ce$__906336dd0ce390604401606060405180830381865af41580156101d4573d6000803e3d6000fd5b505050506040513d601f19601f820116820180604052508101906101f89190612691565b511580156102b057506040517f36dd0ce30000000000000000000000000000000000000000000000000000000081526004810184905273ffffffffffffffffffffffffffffffffffffffff8316602482015273__$69c89f533e100333dfc56147eb38ab86ce$__906336dd0ce390604401606060405180830381865af4158015610286573d6000803e3d6000fd5b505050506040513d601f19601f820116820180604052508101906102aa9190612691565b60400151155b156102bd575060006106ba565b6040517f36dd0ce30000000000000000000000000000000000000000000000000000000081526004810184905273ffffffffffffffffffffffffffffffffffffffff8316602482015260009073__$60cdec19f17936bbc33543273078a7e6b8$__9063a520855f9073__$69c89f533e100333dfc56147eb38ab86ce$__906336dd0ce390604401606060405180830381865af4158015610361573d6000803e3d6000fd5b505050506040513d601f19601f820116820180604052508101906103859190612691565b602001516040517f36dd0ce30000000000000000000000000000000000000000000000000000000081526004810188905273ffffffffffffffffffffffffffffffffffffffff8716602482015273__$69c89f533e100333dfc56147eb38ab86ce$__906336dd0ce390604401606060405180830381865af415801561040e573d6000803e3d6000fd5b505050506040513d601f19601f820116820180604052508101906104329190612691565b60409081015190517f36dd0ce30000000000000000000000000000000000000000000000000000000081526004810189905273ffffffffffffffffffffffffffffffffffffffff8816602482015273__$69c89f533e100333dfc56147eb38ab86ce$__906336dd0ce390604401606060405180830381865af41580156104bc573d6000803e3d6000fd5b505050506040513d601f19601f820116820180604052508101906104e09190612691565b516104eb919061271c565b6040517fffffffff0000000000000000000000000000000000000000000000000000000060e085901b16815260048101929092526024820152670de0b6b3a76400006044820152606401602060405180830381865af4158015610552573d6000803e3d6000fd5b505050506040513d601f19601f82011682018060405250810190610576919061272f565b6040517fc0d0e4b900000000000000000000000000000000000000000000000000000000815273ffffffffffffffffffffffffffffffffffffffff8516600482015290915073__$60cdec19f17936bbc33543273078a7e6b8$__9063228d17e090839073__$601b397ac9b288e68d027c499a437c7805$__9063c0d0e4b990602401602060405180830381865af4158015610615573d6000803e3d6000fd5b505050506040513d601f19601f82011682018060405250810190610639919061272f565b6040517fffffffff0000000000000000000000000000000000000000000000000000000060e085901b16815260048101929092526024820152604401602060405180830381865af4158015610692573d6000803e3d6000fd5b505050506040513d601f19601f820116820180604052508101906106b6919061272f565b9150505b92915050565b600061071a6040518061014001604052806000815260200160008152602001600081526020016000815260200160008152602001600081526020016000815260200160008152602001600081526020016000151581525090565b6107726040518061014001604052806000815260200160008152602001600081526020016000815260200160008152602001600081526020016000815260200160008152602001600081526020016000151581525090565b6040517ff03507990000000000000000000000000000000000000000000000000000000081526004810185905260009073__$3c6261fc29985881007184aacdacb41a63$__9063f035079990602401602060405180830381865af41580156107de573d6000803e3d6000fd5b505050506040513d601f19601f82011682018060405250810190610802919061272f565b6040517ff03507990000000000000000000000000000000000000000000000000000000081526004810187905290915060009073__$c1ae4f2fd189c456c923d4bac13705c722$__9063f035079990602401602060405180830381865af4158015610871573d6000803e3d6000fd5b505050506040513d601f19601f82011682018060405250810190610895919061272f565b6040517f5a1831660000000000000000000000000000000000000000000000000000000081526004810184905290915073__$3c6261fc29985881007184aacdacb41a63$__90635a18316690602401602060405180830381865af4158015610901573d6000803e3d6000fd5b505050506040513d601f19601f82011682018060405250810190610925919061272f565b83526040517fd073b6110000000000000000000000000000000000000000000000000000000081526004810183905273__$3c6261fc29985881007184aacdacb41a63$__9063d073b61190602401602060405180830381865af4158015610990573d6000803e3d6000fd5b505050506040513d601f19601f820116820180604052508101906109b4919061272f565b602084015282511580156109ca57506020830151155b806109d9575060208301518351145b156109ec57506001959194509092505050565b6109f582611a5e565b60408401819052600003610a1157506001959194509092505050565b6020830151835111610120840152610a2882611af3565b60608401819052604084015184516020860151610a549392610a4e929091839190611cf8565b90611d0e565b6080840152825115610cd757826101200151610a8e5782516080840151610a8991610a7f9190611d1a565b8460400151611d26565b610a9e565b82516080840151610a9e91611d1a565b60a0840181905260038201546040517fd449a83200000000000000000000000000000000000000000000000000000000815273ffffffffffffffffffffffffffffffffffffffff9091166004820152610ca99173__$60cdec19f17936bbc33543273078a7e6b8$__9163f5873b97919073__$e3834fe8ea0b4818c33a802f8dd8530fd8$__9063d449a83290602401602060405180830381865af4158015610b4a573d6000803e3d6000fd5b505050506040513d601f19601f82011682018060405250810190610b6e9190612748565b60038601546040517f1a0994f500000000000000000000000000000000000000000000000000000000815273ffffffffffffffffffffffffffffffffffffffff90911660048201526001602482015273__$76a505dbd6210c6de5172a9e6577e0d579$__90631a0994f590604401602060405180830381865af4158015610bf9573d6000803e3d6000fd5b505050506040513d601f19601f82011682018060405250810190610c1d919061272f565b6040517fffffffff0000000000000000000000000000000000000000000000000000000060e086901b168152600481019390935260ff90911660248301526044820152606401602060405180830381865af4158015610c80573d6000803e3d6000fd5b505050506040513d601f19601f82011682018060405250810190610ca4919061272f565b611dcf565b60e0840152610120830151610ccb578260e00151610cc69061276b565b610cd1565b8260e001515b60e08401525b602083015115610d4957826101200151610d0e57610d09610ca484602001518560800151611d1a90919063ffffffff16565b610d42565b610d39610ca4610d2f85602001518660800151611d1a90919063ffffffff16565b8560400151611d26565b610d429061276b565b6101008401525b506000959194509092505050565b6040517ff035079900000000000000000000000000000000000000000000000000000000815260048101839052600090819073__$3c6261fc29985881007184aacdacb41a63$__9063f035079990602401602060405180830381865af4158015610dc5573d6000803e3d6000fd5b505050506040513d601f19601f82011682018060405250810190610de9919061272f565b905082610dfa5760088101546106b6565b600701549392505050565b6040805180820190915260008082526020820152600073__$2c5e3d38607d7ea6eea9d5dc78ed57d239$__6386d5c4be6040518163ffffffff1660e01b8152600401602060405180830381865af4158015610e64573d6000803e3d6000fd5b505050506040513d601f19601f82011682018060405250810190610e88919061272f565b60408051808201918290527f376ff13a000000000000000000000000000000000000000000000000000000009091526044810182905273ffffffffffffffffffffffffffffffffffffffff851660648201529091508073__$2c5e3d38607d7ea6eea9d5dc78ed57d239$__63376ff13a60848301602060405180830381865af4158015610f19573d6000803e3d6000fd5b505050506040513d601f19601f82011682018060405250810190610f3d919061272f565b81526040517f65b018750000000000000000000000000000000000000000000000000000000081526004810184905273ffffffffffffffffffffffffffffffffffffffff8616602482015260209091019073__$2c5e3d38607d7ea6eea9d5dc78ed57d239$__906365b0187590604401602060405180830381865af4158015610fca573d6000803e3d6000fd5b505050506040513d601f19601f82011682018060405250810190610fee919061272f565b90529392505050565b600481015460009015801561100e57506007820154155b1561101b57506000919050565b600782015460048301546000919061103290611dcf565b61103c91906127a3565b90506000811361104f5750600092915050565b600073__$60cdec19f17936bbc33543273078a7e6b8$__63a520855f856004016002015461107c85611e8a565b6040517fffffffff0000000000000000000000000000000000000000000000000000000060e085901b16815260048101929092526024820152670de0b6b3a76400006044820152606401602060405180830381865af41580156110e3573d6000803e3d6000fd5b505050506040513d601f19601f82011682018060405250810190611107919061272f565b84546040517f3daea25d00000000000000000000000000000000000000000000000000000000815273ffffffffffffffffffffffffffffffffffffffff909116600482015290915073__$60cdec19f17936bbc33543273078a7e6b8$__9063228d17e090839073__$601b397ac9b288e68d027c499a437c7805$__90633daea25d90602401600060405180830381865af41580156111a9573d6000803e3d6000fd5b505050506040513d6000823e601f3d9081017fffffffffffffffffffffffffffffffffffffffffffffffffffffffffffffffe01682016040526111ef9190810190612863565b5160405160e084901b7fffffffff0000000000000000000000000000000000000000000000000000000016815260048101929092526024820152604401602060405180830381865af4158015611249573d6000803e3d6000fd5b505050506040513d601f19601f8201168201806040525081019061126d919061272f565b949350505050565b61127d61202f565b6040517ff03507990000000000000000000000000000000000000000000000000000000081526004810185905260009073__$c1ae4f2fd189c456c923d4bac13705c722$__9063f035079990602401602060405180830381865af41580156112e9573d6000803e3d6000fd5b505050506040513d601f19601f8201168201806040525081019061130d919061272f565b6040517fc2c0de870000000000000000000000000000000000000000000000000000000081526004810182905290915073__$c1ae4f2fd189c456c923d4bac13705c722$__9063c2c0de8790602401602060405180830381865af4158015611379573d6000803e3d6000fd5b505050506040513d601f19601f8201168201806040525081019061139d9190612941565b6113b2576113a961202f565b91506118769050565b60018101546040517f2f40e73400000000000000000000000000000000000000000000000000000000815261010090910473ffffffffffffffffffffffffffffffffffffffff16600482015260009073__$031d78916aae4b898c89af4123228b6f12$__90632f40e73490602401602060405180830381865af415801561143d573d6000803e3d6000fd5b505050506040513d601f19601f82011682018060405250810190611461919061272f565b6040517f4cbf183100000000000000000000000000000000000000000000000000000000815290915060009073__$4372c788db0c4b9b4094fec4620221fad6$__90634cbf1831906114bb9085908a908a9060040161295e565b602060405180830381865af41580156114d8573d6000803e3d6000fd5b505050506040513d601f19601f820116820180604052508101906114fc919061272f565b6040517ff03507990000000000000000000000000000000000000000000000000000000081526004810189905290915060009073__$3c6261fc29985881007184aacdacb41a63$__9063f035079990602401602060405180830381865af415801561156b573d6000803e3d6000fd5b505050506040513d601f19601f8201168201806040525081019061158f919061272f565b60028101546040517fd073b611000000000000000000000000000000000000000000000000000000008152600481018390529192509060009073__$3c6261fc29985881007184aacdacb41a63$__9063d073b61190602401602060405180830381865af4158015611604573d6000803e3d6000fd5b505050506040513d601f19601f82011682018060405250810190611628919061272f565b604080516101a08101909152875460e0820190815260018901549293509091829190899061010084019060ff166003811115611666576116666122bb565b6003811115611677576116776122bb565b8152600182015473ffffffffffffffffffffffffffffffffffffffff6101009091048116602083015260028301548116604083015260038301541660608201526004820180546080909201916116cc906129ef565b80601f01602080910402602001604051908101604052809291908181526020018280546116f8906129ef565b80156117455780601f1061171a57610100808354040283529160200191611745565b820191906000526020600020905b81548152906001019060200180831161172857829003601f168201915b5050505050815250508152602001838152602001846002016001015481526020018281526020018473__$3c6261fc29985881007184aacdacb41a63$__638b8e695c90916040518263ffffffff1660e01b81526004016117a791815260200190565b600060405180830381865af41580156117c4573d6000803e3d6000fd5b505050506040513d6000823e601f3d9081017fffffffffffffffffffffffffffffffffffffffffffffffffffffffffffffffe016820160405261180a9190810190612a42565b8152602001858152602001846007016040518060e001604052908160008201548152602001600182015481526020016002820154815260200160038201548152602001600482015481526020016005820154815260200160068201548152505081525096505050505050505b9392505050565b60008215611937576040517f2f40e73400000000000000000000000000000000000000000000000000000000815273ffffffffffffffffffffffffffffffffffffffff8516600482015260009073__$031d78916aae4b898c89af4123228b6f12$__90632f40e73490602401602060405180830381865af4158015611906573d6000803e3d6000fd5b505050506040513d601f19601f8201168201806040525081019061192a919061272f565b6012015491506118769050565b600073__$69c89f533e100333dfc56147eb38ab86ce$__6386d5c4be6040518163ffffffff1660e01b8152600401602060405180830381865af4158015611982573d6000803e3d6000fd5b505050506040513d601f19601f820116820180604052508101906119a6919061272f565b6040517f7606f66c0000000000000000000000000000000000000000000000000000000081526004810182905273ffffffffffffffffffffffffffffffffffffffff8516602482015290915073__$69c89f533e100333dfc56147eb38ab86ce$__90637606f66c90604401602060405180830381865af4158015611a2e573d6000803e3d6000fd5b505050506040513d601f19601f82011682018060405250810190611a52919061272f565b60020154915050611876565b600d8101546000908103611a7457506000919050565b816007016006015473__$f7ce058f5081a8aa62d2c976fd52cf5c62$__631e2ff94f6040518163ffffffff1660e01b8152600401602060405180830381865af4158015611ac5573d6000803e3d6000fd5b505050506040513d601f19601f82011682018060405250810190611ae9919061272f565b6106ba9190612af8565b60028101546040517fd073b6110000000000000000000000000000000000000000000000000000000081526004810183905260009190829073__$3c6261fc29985881007184aacdacb41a63$__9063d073b61190602401602060405180830381865af4158015611b67573d6000803e3d6000fd5b505050506040513d601f19601f82011682018060405250810190611b8b919061272f565b6040517f8f5e514a000000000000000000000000000000000000000000000000000000008152600481018490526024810182905290915060009073__$60cdec19f17936bbc33543273078a7e6b8$__90638f5e514a90604401602060405180830381865af4158015611c01573d6000803e3d6000fd5b505050506040513d601f19601f82011682018060405250810190611c25919061272f565b90506000611c33838561271c565b9050811580611c40575080155b15611c515750600095945050505050565b611cee8273__$4b57634e6fa94ef3e6c6a2ca1726543a5d$__63b45849886040518163ffffffff1660e01b8152600401600060405180830381865af4158015611c9e573d6000803e3d6000fd5b505050506040513d6000823e601f3d9081017fffffffffffffffffffffffffffffffffffffffffffffffffffffffffffffffe0168201604052611ce49190810190612be4565b60c0015183611ef6565b9695505050505050565b6000818311611d075781611876565b5090919050565b60006118768284612d0c565b60006118768284612d52565b600061187683611dc98473__$4b57634e6fa94ef3e6c6a2ca1726543a5d$__63b45849886040518163ffffffff1660e01b8152600401600060405180830381865af4158015611d79573d6000803e3d6000fd5b505050506040513d6000823e601f3d9081017fffffffffffffffffffffffffffffffffffffffffffffffffffffffffffffffe0168201604052611dbf9190810190612be4565b60e0015190611d0e565b90612020565b60007f7fffffffffffffffffffffffffffffffffffffffffffffffffffffffffffffff821115611e86576040517f08c379a000000000000000000000000000000000000000000000000000000000815260206004820152602860248201527f53616665436173743a2076616c756520646f65736e27742066697420696e206160448201527f6e20696e7432353600000000000000000000000000000000000000000000000060648201526084015b60405180910390fd5b5090565b600080821215611e86576040517f08c379a000000000000000000000000000000000000000000000000000000000815260206004820181905260248201527f53616665436173743a2076616c7565206d75737420626520706f7369746976656044820152606401611e7d565b600080807fffffffffffffffffffffffffffffffffffffffffffffffffffffffffffffffff85870985870292508281108382030391505080600003611f4e57838281611f4457611f44612d23565b0492505050611876565b808411611fb7576040517f08c379a000000000000000000000000000000000000000000000000000000000815260206004820152601560248201527f4d6174683a206d756c446976206f766572666c6f7700000000000000000000006044820152606401611e7d565b60008486880960026001871981018816978890046003810283188082028403028082028403028082028403028082028403028082028403029081029092039091026000889003889004909101858311909403939093029303949094049190911702949350505050565b6000818310611d075781611876565b604080516101a08101909152600060e0820181815261010083018290526101208301829052610140830182905261016083019190915260606101808301528190815260200160008152602001600081526020016000815260200160608152602001600081526020016120d76040518060e00160405280600081526020016000815260200160008152602001600081526020016000815260200160008152602001600081525090565b905290565b73ffffffffffffffffffffffffffffffffffffffff811681146120fe57600080fd5b50565b6000806040838503121561211457600080fd5b823591506020830135612126816120dc565b809150509250929050565b60006020828403121561214357600080fd5b5035919050565b600061016082019050831515825282516020830152602083015160408301526040830151606083015260608301516080830152608083015160a083015260a083015160c083015260c083015160e083015260e08301516101008181850152808501519150506101208181850152808501519150506121cd61014084018215159052565b509392505050565b80151581146120fe57600080fd5b600080604083850312156121f657600080fd5b823591506020830135612126816121d5565b60006020828403121561221a57600080fd5b8135611876816120dc565b8151815260208083015190820152604081016106ba565b60008060006040848603121561225157600080fd5b83359250602084013567ffffffffffffffff8082111561227057600080fd5b818601915086601f83011261228457600080fd5b81358181111561229357600080fd5b8760208260071b85010111156122a857600080fd5b6020830194508093505050509250925092565b7f4e487b7100000000000000000000000000000000000000000000000000000000600052602160045260246000fd5b6000815180845260005b81811015612310576020818501810151868301820152016122f4565b5060006020828601015260207fffffffffffffffffffffffffffffffffffffffffffffffffffffffffffffffe0601f83011685010191505092915050565b600081518084526020808501945080840160005b838110156123925761237f87835180518252602090810151910152565b6040969096019590820190600101612362565b509495945050505050565b60208152600082516101a0602084015280516101c08401526020810151600481106123f1577f4e487b7100000000000000000000000000000000000000000000000000000000600052602160045260246000fd5b6101e0840152604081015173ffffffffffffffffffffffffffffffffffffffff16610200840152606081015161244061022085018273ffffffffffffffffffffffffffffffffffffffff169052565b50608081015173ffffffffffffffffffffffffffffffffffffffff1661024084015260a0015160c061026084015261247c6102808401826122ea565b905060208401516040840152604084015160608401526060840151608084015260808401517fffffffffffffffffffffffffffffffffffffffffffffffffffffffffffffffe08483030160a08501526124d5828261234e565b91505060a084015160c084015260c08401516121cd60e0850182805182526020810151602083015260408101516040830152606081015160608301526080810151608083015260a081015160a083015260c081015160c08301525050565b60008060006060848603121561254857600080fd5b8335612553816120dc565b92506020840135612563816121d5565b91506040840135612573816120dc565b809150509250925092565b7f4e487b7100000000000000000000000000000000000000000000000000000000600052604160045260246000fd5b604051610140810167ffffffffffffffff811182821017156125d1576125d161257e565b60405290565b6040805190810167ffffffffffffffff811182821017156125d1576125d161257e565b604051610120810167ffffffffffffffff811182821017156125d1576125d161257e565b604051610200810167ffffffffffffffff811182821017156125d1576125d161257e565b604051601f82017fffffffffffffffffffffffffffffffffffffffffffffffffffffffffffffffe016810167ffffffffffffffff811182821017156126895761268961257e565b604052919050565b6000606082840312156126a357600080fd5b6040516060810181811067ffffffffffffffff821117156126c6576126c661257e565b80604052508251815260208301516020820152604083015160408201528091505092915050565b7f4e487b7100000000000000000000000000000000000000000000000000000000600052601160045260246000fd5b808201808211156106ba576106ba6126ed565b60006020828403121561274157600080fd5b5051919050565b60006020828403121561275a57600080fd5b815160ff8116811461187657600080fd5b60007f8000000000000000000000000000000000000000000000000000000000000000820361279c5761279c6126ed565b5060000390565b80820182811260008312801582168215821617156127c3576127c36126ed565b505092915050565b600067ffffffffffffffff8211156127e5576127e561257e565b5060051b60200190565b600082601f83011261280057600080fd5b81516020612815612810836127cb565b612642565b82815260059290921b8401810191818101908684111561283457600080fd5b8286015b8481101561285857805161284b816120dc565b8352918301918301612838565b509695505050505050565b60006020828403121561287557600080fd5b815167ffffffffffffffff8082111561288d57600080fd5b9083019061014082860312156128a257600080fd5b6128aa6125ad565b825181526020830151602082015260408301516040820152606083015160608201526080830151608082015260a083015160a082015260c083015160c082015260e083015160e0820152610100808401518183015250610120808401518381111561291457600080fd5b612920888287016127ef565b918301919091525095945050505050565b805161293c816121d5565b919050565b60006020828403121561295357600080fd5b8151611876816121d5565b838152604060208083018290528282018490526000919060609081850187855b888110156129e0578135612991816120dc565b73ffffffffffffffffffffffffffffffffffffffff908116845282850135906129b9826120dc565b1683850152818601358684015284820135858401526080928301929091019060010161297e565b50909998505050505050505050565b600181811c90821680612a0357607f821691505b602082108103612a3c577f4e487b7100000000000000000000000000000000000000000000000000000000600052602260045260246000fd5b50919050565b60006020808385031215612a5557600080fd5b825167ffffffffffffffff811115612a6c57600080fd5b8301601f81018513612a7d57600080fd5b8051612a8b612810826127cb565b81815260069190911b82018301908381019087831115612aaa57600080fd5b928401925b82841015612aed5760408489031215612ac85760008081fd5b612ad06125d7565b845181528585015186820152825260409093019290840190612aaf565b979650505050505050565b818103818111156106ba576106ba6126ed565b600082601f830112612b1c57600080fd5b81516020612b2c612810836127cb565b8281526101209283028501820192828201919087851115612b4c57600080fd5b8387015b85811015612bd75781818a031215612b685760008081fd5b612b706125fa565b612b7982612931565b8152818601518682015260408083015190820152606080830151908201526080808301519082015260a0808301519082015260c0808301519082015260e0808301519082015261010080830151908201528452928401928101612b50565b5090979650505050505050565b600060208284031215612bf657600080fd5b815167ffffffffffffffff80821115612c0e57600080fd5b908301906102008286031215612c2357600080fd5b612c2b61261e565b825182811115612c3a57600080fd5b612c46878286016127ef565b825250602083015182811115612c5b57600080fd5b612c6787828601612b0b565b60208301525060408381015190820152606080840151908201526080808401519082015260a0808401519082015260c0808401519082015260e08084015190820152610100808401519082015261012080840151908201526101408084015190820152610160808401519082015261018080840151908201526101a080840151908201526101c080840151908201526101e09283015192810192909252509392505050565b80820281158282048414176106ba576106ba6126ed565b7f4e487b7100000000000000000000000000000000000000000000000000000000600052601260045260246000fd5b600082612d88577f4e487b7100000000000000000000000000000000000000000000000000000000600052601260045260246000fd5b50049056fea26469706673582212207bdf164875c11b4c9e8143eb73a115247efd8bb49992e8d20883fe60dd9a181464736f6c63430008120033",
  "linkReferences": {
    "contracts/process/LpPoolQueryProcess.sol": {
      "LpPoolQueryProcess": [
        {
          "length": 20,
          "start": 5321
        }
      ]
    },
    "contracts/process/OracleProcess.sol": {
      "OracleProcess": [
        {
          "length": 20,
          "start": 3065
        }
      ]
    },
    "contracts/storage/AppPoolConfig.sol": {
      "AppPoolConfig": [
        {
          "length": 20,
          "start": 1557
        },
        {
          "length": 20,
          "start": 4521
        }
      ]
    },
    "contracts/storage/AppTradeConfig.sol": {
      "AppTradeConfig": [
        {
          "length": 20,
          "start": 7313
        },
        {
          "length": 20,
          "start": 7532
        }
      ]
    },
    "contracts/storage/CommonData.sol": {
      "CommonData": [
        {
          "length": 20,
          "start": 3671
        },
        {
          "length": 20,
          "start": 3866
        },
        {
          "length": 20,
          "start": 4042
        }
      ]
    },
    "contracts/storage/LpPool.sol": {
      "LpPool": [
        {
          "length": 20,
          "start": 5181
        },
        {
          "length": 20,
          "start": 6406
        }
      ]
    },
    "contracts/storage/Market.sol": {
      "Market": [
        {
          "length": 20,
          "start": 2014
        },
        {
          "length": 20,
          "start": 2305
        },
        {
          "length": 20,
          "start": 2448
        },
        {
          "length": 20,
          "start": 3525
        },
        {
          "length": 20,
          "start": 5483
        },
        {
          "length": 20,
          "start": 5636
        },
        {
          "length": 20,
          "start": 6057
        },
        {
          "length": 20,
          "start": 7015
        }
      ]
    },
    "contracts/storage/Symbol.sol": {
      "Symbol": [
        {
          "length": 20,
          "start": 2161
        },
        {
          "length": 20,
          "start": 4841
        },
        {
          "length": 20,
          "start": 4985
        }
      ]
    },
    "contracts/storage/UsdPool.sol": {
      "UsdPool": [
        {
          "length": 20,
          "start": 468
        },
        {
          "length": 20,
          "start": 646
        },
        {
          "length": 20,
          "start": 865
        },
        {
          "length": 20,
          "start": 1038
        },
        {
          "length": 20,
          "start": 1212
        },
        {
          "length": 20,
          "start": 6517
        },
        {
          "length": 20,
          "start": 6702
        }
      ]
    },
    "contracts/utils/CalUtils.sol": {
      "CalUtils": [
        {
          "length": 20,
          "start": 837
        },
        {
          "length": 20,
          "start": 1527
        },
        {
          "length": 20,
          "start": 2861
        },
        {
          "length": 20,
          "start": 4237
        },
        {
          "length": 20,
          "start": 4491
        },
        {
          "length": 20,
          "start": 7169
        }
      ]
    },
    "contracts/utils/ChainUtils.sol": {
      "ChainUtils": [
        {
          "length": 20,
          "start": 6840
        }
      ]
    },
    "contracts/utils/TokenUtils.sol": {
      "TokenUtils": [
        {
          "length": 20,
          "start": 2890
        }
      ]
    }
  },
  "deployedLinkReferences": {
    "contracts/process/LpPoolQueryProcess.sol": {
      "LpPoolQueryProcess": [
        {
          "length": 20,
          "start": 5263
        }
      ]
    },
    "contracts/process/OracleProcess.sol": {
      "OracleProcess": [
        {
          "length": 20,
          "start": 3007
        }
      ]
    },
    "contracts/storage/AppPoolConfig.sol": {
      "AppPoolConfig": [
        {
          "length": 20,
          "start": 1499
        },
        {
          "length": 20,
          "start": 4463
        }
      ]
    },
    "contracts/storage/AppTradeConfig.sol": {
      "AppTradeConfig": [
        {
          "length": 20,
          "start": 7255
        },
        {
          "length": 20,
          "start": 7474
        }
      ]
    },
    "contracts/storage/CommonData.sol": {
      "CommonData": [
        {
          "length": 20,
          "start": 3613
        },
        {
          "length": 20,
          "start": 3808
        },
        {
          "length": 20,
          "start": 3984
        }
      ]
    },
    "contracts/storage/LpPool.sol": {
      "LpPool": [
        {
          "length": 20,
          "start": 5123
        },
        {
          "length": 20,
          "start": 6348
        }
      ]
    },
    "contracts/storage/Market.sol": {
      "Market": [
        {
          "length": 20,
          "start": 1956
        },
        {
          "length": 20,
          "start": 2247
        },
        {
          "length": 20,
          "start": 2390
        },
        {
          "length": 20,
          "start": 3467
        },
        {
          "length": 20,
          "start": 5425
        },
        {
          "length": 20,
          "start": 5578
        },
        {
          "length": 20,
          "start": 5999
        },
        {
          "length": 20,
          "start": 6957
        }
      ]
    },
    "contracts/storage/Symbol.sol": {
      "Symbol": [
        {
          "length": 20,
          "start": 2103
        },
        {
          "length": 20,
          "start": 4783
        },
        {
          "length": 20,
          "start": 4927
        }
      ]
    },
    "contracts/storage/UsdPool.sol": {
      "UsdPool": [
        {
          "length": 20,
          "start": 410
        },
        {
          "length": 20,
          "start": 588
        },
        {
          "length": 20,
          "start": 807
        },
        {
          "length": 20,
          "start": 980
        },
        {
          "length": 20,
          "start": 1154
        },
        {
          "length": 20,
          "start": 6459
        },
        {
          "length": 20,
          "start": 6644
        }
      ]
    },
    "contracts/utils/CalUtils.sol": {
      "CalUtils": [
        {
          "length": 20,
          "start": 779
        },
        {
          "length": 20,
          "start": 1469
        },
        {
          "length": 20,
          "start": 2803
        },
        {
          "length": 20,
          "start": 4179
        },
        {
          "length": 20,
          "start": 4433
        },
        {
          "length": 20,
          "start": 7111
        }
      ]
    },
    "contracts/utils/ChainUtils.sol": {
      "ChainUtils": [
        {
          "length": 20,
          "start": 6782
        }
      ]
    },
    "contracts/utils/TokenUtils.sol": {
      "TokenUtils": [
        {
          "length": 20,
          "start": 2832
        }
      ]
    }
  }
}