{
  "_format": "hh-sol-artifact-1",
  "contractName": "AppVaultConfig",
  "sourceName": "contracts/storage/AppVaultConfig.sol",
  "abi": [
    {
      "inputs": [],
      "name": "LP_VAULT",
      "outputs": [
        {
          "internalType": "bytes32",
          "name": "",
          "type": "bytes32"
        }
      ],
      "stateMutability": "view",
      "type": "function"
    },
    {
      "inputs": [],
      "name": "PORTFOLIO_VAULT",
      "outputs": [
        {
          "internalType": "bytes32",
          "name": "",
          "type": "bytes32"
        }
      ],
      "stateMutability": "view",
      "type": "function"
    },
    {
      "inputs": [],
      "name": "TRADE_VAULT",
      "outputs": [
        {
          "internalType": "bytes32",
          "name": "",
          "type": "bytes32"
        }
      ],
      "stateMutability": "view",
      "type": "function"
    },
    {
      "inputs": [],
      "name": "getLpVault",
      "outputs": [
        {
          "internalType": "address",
          "name": "",
          "type": "address"
        }
      ],
      "stateMutability": "view",
      "type": "function"
    },
    {
      "inputs": [],
      "name": "getPortfolioVault",
      "outputs": [
        {
          "internalType": "address",
          "name": "",
          "type": "address"
        }
      ],
      "stateMutability": "view",
      "type": "function"
    },
    {
      "inputs": [],
      "name": "getTradeVault",
      "outputs": [
        {
          "internalType": "address",
          "name": "",
          "type": "address"
        }
      ],
      "stateMutability": "view",
      "type": "function"
    }
  ],
  "bytecode": "0x61067961003a600b82828239805160001a60731461002d57634e487b7160e01b600052600060045260246000fd5b30600052607381538281f3fe730000000000000000000000000000000000000000301460806040526004361061007c5760003560e01c8063cf2e708b1161005a578063cf2e708b146100d1578063da57c7f8146100d9578063f413e81a146100e157600080fd5b8063131d5c8a1461008157806390ec6707146100b3578063b271efef146100c9575b600080fd5b6100896100e9565b60405173ffffffffffffffffffffffffffffffffffffffff90911681526020015b60405180910390f35b6100bb6102c3565b6040519081526020016100aa565b6100bb61031d565b6100bb61035e565b61008961039f565b6100896104c6565b60008073__$1b86ea9efa04d6f44bb6dbbf79511d7094$__6386d5c4be6040518163ffffffff1660e01b8152600401602060405180830381865af4158015610135573d6000803e3d6000fd5b505050506040513d601f19601f8201168201806040525081019061015991906105ed565b90508073__$1b86ea9efa04d6f44bb6dbbf79511d7094$__6356c8caa990916040516020016101b9906020808252600c908201527f5641554c545f434f4e4649470000000000000000000000000000000000000000604082015260600190565b60405160208183030381529060405280519060200120604051602001610210906020808252600b908201527f54524144455f5641554c54000000000000000000000000000000000000000000604082015260600190565b60405160208183030381529060405280519060200120604051602001610240929190918252602082015260400190565b604051602081830303815290604052805190602001206040518363ffffffff1660e01b815260040161027c929190918252602082015260400190565b602060405180830381865af4158015610299573d6000803e3d6000fd5b505050506040513d601f19601f820116820180604052508101906102bd9190610606565b91505090565b604051602001610304906020808252600b908201527f54524144455f5641554c54000000000000000000000000000000000000000000604082015260600190565b6040516020818303038152906040528051906020012081565b6040516020016103049060208082526008908201527f4c505f5641554c54000000000000000000000000000000000000000000000000604082015260600190565b604051602001610304906020808252600f908201527f504f5254464f4c494f5f5641554c540000000000000000000000000000000000604082015260600190565b60008073__$1b86ea9efa04d6f44bb6dbbf79511d7094$__6386d5c4be6040518163ffffffff1660e01b8152600401602060405180830381865af41580156103eb573d6000803e3d6000fd5b505050506040513d601f19601f8201168201806040525081019061040f91906105ed565b90508073__$1b86ea9efa04d6f44bb6dbbf79511d7094$__6356c8caa9909160405160200161046f906020808252600c908201527f5641554c545f434f4e4649470000000000000000000000000000000000000000604082015260600190565b604051602081830303815290604052805190602001206040516020016102109060208082526008908201527f4c505f5641554c54000000000000000000000000000000000000000000000000604082015260600190565b60008073__$1b86ea9efa04d6f44bb6dbbf79511d7094$__6386d5c4be6040518163ffffffff1660e01b8152600401602060405180830381865af4158015610512573d6000803e3d6000fd5b505050506040513d601f19601f8201168201806040525081019061053691906105ed565b90508073__$1b86ea9efa04d6f44bb6dbbf79511d7094$__6356c8caa99091604051602001610596906020808252600c908201527f5641554c545f434f4e4649470000000000000000000000000000000000000000604082015260600190565b60405160208183030381529060405280519060200120604051602001610210906020808252600f908201527f504f5254464f4c494f5f5641554c540000000000000000000000000000000000604082015260600190565b6000602082840312156105ff57600080fd5b5051919050565b60006020828403121561061857600080fd5b815173ffffffffffffffffffffffffffffffffffffffff8116811461063c57600080fd5b939250505056fea2646970667358221220611cee97fc13209adef6e387d3a7a35ffee43295a2915ec78d7f281998d5925a64736f6c63430008120033",
  "linkReferences": {
    "contracts/storage/AppStorage.sol": {
      "AppStorage": [
        {
          "length": 20,
          "start": 296
        },
        {
          "length": 20,
          "start": 408
        },
        {
          "length": 20,
          "start": 990
        },
        {
          "length": 20,
          "start": 1102
        },
        {
          "length": 20,
          "start": 1285
        },
        {
          "length": 20,
          "start": 1397
        }
      ]
    }
  },
  "deployedLinkReferences": {
    "contracts/storage/AppStorage.sol": {
      "AppStorage": [
        {
          "length": 20,
          "start": 238
        },
        {
          "length": 20,
          "start": 350
        },
        {
          "length": 20,
          "start": 932
        },
        {
          "length": 20,
          "start": 1044
        },
        {
          "length": 20,
          "start": 1227
        },
        {
          "length": 20,
          "start": 1339
        }
      ]
    }
  }
}