{
  "_format": "hh-sol-artifact-1",
  "contractName": "LiabilityClean",
  "sourceName": "contracts/storage/LiabilityClean.sol",
  "abi": [
    {
      "anonymous": false,
      "inputs": [
        {
          "indexed": false,
          "internalType": "uint256",
          "name": "id",
          "type": "uint256"
        },
        {
          "components": [
            {
              "internalType": "address",
              "name": "account",
              "type": "address"
            },
            {
              "internalType": "uint256",
              "name": "createTime",
              "type": "uint256"
            },
            {
              "internalType": "address[]",
              "name": "liabilityTokens",
              "type": "address[]"
            },
            {
              "internalType": "uint256[]",
              "name": "liabilities",
              "type": "uint256[]"
            },
            {
              "internalType": "address[]",
              "name": "collaterals",
              "type": "address[]"
            },
            {
              "internalType": "uint256[]",
              "name": "collateralsAmount",
              "type": "uint256[]"
            }
          ],
          "indexed": false,
          "internalType": "struct LiabilityClean.LiabilityCleanInfo",
          "name": "info",
          "type": "tuple"
        }
      ],
      "name": "LiabilityCleanEvent",
      "type": "event"
    },
    {
      "inputs": [],
      "name": "getAllCleanInfo",
      "outputs": [
        {
          "components": [
            {
              "internalType": "address",
              "name": "account",
              "type": "address"
            },
            {
              "internalType": "uint256",
              "name": "createTime",
              "type": "uint256"
            },
            {
              "internalType": "address[]",
              "name": "liabilityTokens",
              "type": "address[]"
            },
            {
              "internalType": "uint256[]",
              "name": "liabilities",
              "type": "uint256[]"
            },
            {
              "internalType": "address[]",
              "name": "collaterals",
              "type": "address[]"
            },
            {
              "internalType": "uint256[]",
              "name": "collateralsAmount",
              "type": "uint256[]"
            }
          ],
          "internalType": "struct LiabilityClean.LiabilityCleanInfo[]",
          "name": "",
          "type": "tuple[]"
        }
      ],
      "stateMutability": "view",
      "type": "function"
    },
    {
      "inputs": [
        {
          "internalType": "uint256",
          "name": "id",
          "type": "uint256"
        }
      ],
      "name": "getCleanInfo",
      "outputs": [
        {
          "components": [
            {
              "internalType": "address",
              "name": "account",
              "type": "address"
            },
            {
              "internalType": "uint256",
              "name": "createTime",
              "type": "uint256"
            },
            {
              "internalType": "address[]",
              "name": "liabilityTokens",
              "type": "address[]"
            },
            {
              "internalType": "uint256[]",
              "name": "liabilities",
              "type": "uint256[]"
            },
            {
              "internalType": "address[]",
              "name": "collaterals",
              "type": "address[]"
            },
            {
              "internalType": "uint256[]",
              "name": "collateralsAmount",
              "type": "uint256[]"
            }
          ],
          "internalType": "struct LiabilityClean.LiabilityCleanInfo",
          "name": "",
          "type": "tuple"
        }
      ],
      "stateMutability": "view",
      "type": "function"
    }
  ],
  "bytecode": "0x61129261003a600b82828239805160001a60731461002d57634e487b7160e01b600052600060045260246000fd5b30600052607381538281f3fe73000000000000000000000000000000000000000030146080604052600436106100875760003560e01c80638a6bc5ea116100655780638a6bc5ea146100e7578063b45cb6b214610109578063f45625071461011e578063fc3d7d991461013e57600080fd5b8063113d49081461008c578063310a0e41146100bf57806386d5c4be146100df575b600080fd5b81801561009857600080fd5b506100ac6100a7366004610ba9565b61015e565b6040519081526020015b60405180910390f35b6100d26100cd366004610ba9565b610189565b6040516100b69190610cd8565b6100ac6103ba565b8180156100f357600080fd5b50610107610102366004610eac565b61043a565b005b610111610524565b6040516100b69190610fac565b81801561012a57600080fd5b5061010761013936600461102c565b61080b565b81801561014a57600080fd5b50610107610159366004610ba9565b610848565b6000806101696103ba565b905061017581846108db565b506000928352600201602052506040902090565b6101d86040518060c00160405280600073ffffffffffffffffffffffffffffffffffffffff16815260200160008152602001606081526020016060815260200160608152602001606081525090565b60006101e26103ba565b600084815260028083016020908152604092839020835160c081018552815473ffffffffffffffffffffffffffffffffffffffff1681526001820154818401529281018054855181850281018501875281815296975093959194860193919290919083018282801561028a57602002820191906000526020600020905b815473ffffffffffffffffffffffffffffffffffffffff16815260019091019060200180831161025f575b50505050508152602001600382018054806020026020016040519081016040528092919081815260200182805480156102e257602002820191906000526020600020905b8154815260200190600101908083116102ce575b505050505081526020016004820180548060200260200160405190810160405280929190818152602001828054801561035157602002820191906000526020600020905b815473ffffffffffffffffffffffffffffffffffffffff168152600190910190602001808311610326575b50505050508152602001600582018054806020026020016040519081016040528092919081815260200182805480156103a957602002820191906000526020600020905b815481526020019060010190808311610395575b505050505081525050915050919050565b6000806040516020016103fe906020808252601f908201527f78797a2e656c66692e73746f726167652e4c696162696c697479436c65616e00604082015260600190565b604080517fffffffffffffffffffffffffffffffffffffffffffffffffffffffffffffffe0818403018152919052805160209091012092915050565b60006104446103ba565b905061045081846108db565b50600083815260028281016020908152604092839020855181547fffffffffffffffffffffffff00000000000000000000000000000000000000001673ffffffffffffffffffffffffffffffffffffffff9091161781558582015160018201559285015180518694936104c893908501920190610aae565b50606082015180516104e4916003840191602090910190610b38565b5060808201518051610500916004840191602090910190610aae565b5060a0820151805161051c916005840191602090910190610b38565b505050505050565b606060006105306103ba565b9050600061053d826108f0565b90506000815167ffffffffffffffff81111561055b5761055b610ceb565b6040519080825280602002602001820160405280156105db57816020015b6105c86040518060c00160405280600073ffffffffffffffffffffffffffffffffffffffff16815260200160008152602001606081526020016060815260200160608152602001606081525090565b8152602001906001900390816105795790505b50905060005b8251811015610803578360020160008483815181106106025761060261104e565b6020908102919091018101518252818101929092526040908101600020815160c081018352815473ffffffffffffffffffffffffffffffffffffffff1681526001820154818501526002820180548451818702810187018652818152929593948601938301828280156106ab57602002820191906000526020600020905b815473ffffffffffffffffffffffffffffffffffffffff168152600190910190602001808311610680575b505050505081526020016003820180548060200260200160405190810160405280929190818152602001828054801561070357602002820191906000526020600020905b8154815260200190600101908083116106ef575b505050505081526020016004820180548060200260200160405190810160405280929190818152602001828054801561077257602002820191906000526020600020905b815473ffffffffffffffffffffffffffffffffffffffff168152600190910190602001808311610747575b50505050508152602001600582018054806020026020016040519081016040528092919081815260200182805480156107ca57602002820191906000526020600020905b8154815260200190600101908083116107b6575b5050505050815250508282815181106107e5576107e561104e565b602002602001018190525080806107fb906110ac565b9150506105e1565b509392505050565b7fa4a7288441eb2f92f5024e814924f8c53e12c3f5981bd9d2a2146dd24f72a605828260405161083c929190611164565b60405180910390a15050565b60006108526103ba565b905061085e8183610904565b50600082815260028083016020526040822080547fffffffffffffffffffffffff00000000000000000000000000000000000000001681556001810183905591906108ab90830182610b73565b6108b9600383016000610b73565b6108c7600483016000610b73565b6108d5600583016000610b73565b50505050565b60006108e78383610910565b90505b92915050565b606060006108fd8361095f565b9392505050565b60006108e783836109bb565b6000818152600183016020526040812054610957575081546001818101845560008481526020808220909301849055845484825282860190935260409020919091556108ea565b5060006108ea565b6060816000018054806020026020016040519081016040528092919081815260200182805480156109af57602002820191906000526020600020905b81548152602001906001019080831161099b575b50505050509050919050565b60008181526001830160205260408120548015610aa45760006109df60018361121a565b85549091506000906109f39060019061121a565b9050818114610a58576000866000018281548110610a1357610a1361104e565b9060005260206000200154905080876000018481548110610a3657610a3661104e565b6000918252602080832090910192909255918252600188019052604090208390555b8554869080610a6957610a6961122d565b6001900381819060005260206000200160009055905585600101600086815260200190815260200160002060009055600193505050506108ea565b60009150506108ea565b828054828255906000526020600020908101928215610b28579160200282015b82811115610b2857825182547fffffffffffffffffffffffff00000000000000000000000000000000000000001673ffffffffffffffffffffffffffffffffffffffff909116178255602090920191600190910190610ace565b50610b34929150610b94565b5090565b828054828255906000526020600020908101928215610b28579160200282015b82811115610b28578251825591602001919060010190610b58565b5080546000825590600052602060002090810190610b919190610b94565b50565b5b80821115610b345760008155600101610b95565b600060208284031215610bbb57600080fd5b5035919050565b600081518084526020808501945080840160005b83811015610c0857815173ffffffffffffffffffffffffffffffffffffffff1687529582019590820190600101610bd6565b509495945050505050565b600081518084526020808501945080840160005b83811015610c0857815187529582019590820190600101610c27565b73ffffffffffffffffffffffffffffffffffffffff8151168252602081015160208301526000604082015160c06040850152610c8260c0850182610bc2565b905060608301518482036060860152610c9b8282610c13565b91505060808301518482036080860152610cb58282610bc2565b91505060a083015184820360a0860152610ccf8282610c13565b95945050505050565b6020815260006108e76020830184610c43565b7f4e487b7100000000000000000000000000000000000000000000000000000000600052604160045260246000fd5b60405160c0810167ffffffffffffffff81118282101715610d3d57610d3d610ceb565b60405290565b604051601f82017fffffffffffffffffffffffffffffffffffffffffffffffffffffffffffffffe016810167ffffffffffffffff81118282101715610d8a57610d8a610ceb565b604052919050565b803573ffffffffffffffffffffffffffffffffffffffff81168114610db657600080fd5b919050565b600067ffffffffffffffff821115610dd557610dd5610ceb565b5060051b60200190565b600082601f830112610df057600080fd5b81356020610e05610e0083610dbb565b610d43565b82815260059290921b84018101918181019086841115610e2457600080fd5b8286015b84811015610e4657610e3981610d92565b8352918301918301610e28565b509695505050505050565b600082601f830112610e6257600080fd5b81356020610e72610e0083610dbb565b82815260059290921b84018101918181019086841115610e9157600080fd5b8286015b84811015610e465780358352918301918301610e95565b60008060408385031215610ebf57600080fd5b82359150602083013567ffffffffffffffff80821115610ede57600080fd5b9084019060c08287031215610ef257600080fd5b610efa610d1a565b610f0383610d92565b815260208301356020820152604083013582811115610f2157600080fd5b610f2d88828601610ddf565b604083015250606083013582811115610f4557600080fd5b610f5188828601610e51565b606083015250608083013582811115610f6957600080fd5b610f7588828601610ddf565b60808301525060a083013582811115610f8d57600080fd5b610f9988828601610e51565b60a0830152508093505050509250929050565b6000602080830181845280855180835260408601915060408160051b870101925083870160005b8281101561101f577fffffffffffffffffffffffffffffffffffffffffffffffffffffffffffffffc088860301845261100d858351610c43565b94509285019290850190600101610fd3565b5092979650505050505050565b6000806040838503121561103f57600080fd5b50508035926020909101359150565b7f4e487b7100000000000000000000000000000000000000000000000000000000600052603260045260246000fd5b7f4e487b7100000000000000000000000000000000000000000000000000000000600052601160045260246000fd5b60007fffffffffffffffffffffffffffffffffffffffffffffffffffffffffffffffff82036110dd576110dd61107d565b5060010190565b6000815480845260208085019450836000528060002060005b83811015610c0857815473ffffffffffffffffffffffffffffffffffffffff16875295820195600191820191016110fd565b6000815480845260208085019450836000528060002060005b83811015610c0857815487529582019560019182019101611148565b8281526040602082015273ffffffffffffffffffffffffffffffffffffffff82541660408201526001820154606082015260c0608082015260006111af6101008301600285016110e4565b7fffffffffffffffffffffffffffffffffffffffffffffffffffffffffffffffc0808483030160a08501526111e7826003870161112f565b9150808483030160c085015261120082600487016110e4565b9150808483030160e085015250610ccf816005860161112f565b818103818111156108ea576108ea61107d565b7f4e487b7100000000000000000000000000000000000000000000000000000000600052603160045260246000fdfea2646970667358221220d586fe4435082aa7614c9cb6e323cc6ccd91480a003f6a5e167706f19dd6688264736f6c63430008120033",
  "linkReferences": {},
  "deployedLinkReferences": {}
}