{
  "_format": "hh-sol-artifact-1",
  "contractName": "LpPoolQueryProcess",
  "sourceName": "contracts/process/LpPoolQueryProcess.sol",
  "abi": [
    {
      "inputs": [
        {
          "components": [
            {
              "internalType": "address",
              "name": "token",
              "type": "address"
            },
            {
              "internalType": "address",
              "name": "targetToken",
              "type": "address"
            },
            {
              "internalType": "int256",
              "name": "minPrice",
              "type": "int256"
            },
            {
              "internalType": "int256",
              "name": "maxPrice",
              "type": "int256"
            }
          ],
          "internalType": "struct OracleProcess.OracleParam[]",
          "name": "oracles",
          "type": "tuple[]"
        }
      ],
      "name": "getAllPools",
      "outputs": [
        {
          "components": [
            {
              "internalType": "address",
              "name": "stakeToken",
              "type": "address"
            },
            {
              "internalType": "string",
              "name": "stakeTokenName",
              "type": "string"
            },
            {
              "internalType": "address",
              "name": "baseToken",
              "type": "address"
            },
            {
              "internalType": "bytes32",
              "name": "symbol",
              "type": "bytes32"
            },
            {
              "components": [
                {
                  "internalType": "uint256",
                  "name": "amount",
                  "type": "uint256"
                },
                {
                  "internalType": "uint256",
                  "name": "liability",
                  "type": "uint256"
                },
                {
                  "internalType": "uint256",
                  "name": "holdAmount",
                  "type": "uint256"
                },
                {
                  "internalType": "int256",
                  "name": "unsettledAmount",
                  "type": "int256"
                },
                {
                  "internalType": "uint256",
                  "name": "lossAmount",
                  "type": "uint256"
                },
                {
                  "internalType": "address[]",
                  "name": "collateralTokens",
                  "type": "address[]"
                },
                {
                  "internalType": "uint256[]",
                  "name": "collateralAmounts",
                  "type": "uint256[]"
                }
              ],
              "internalType": "struct IPool.MintTokenBalance",
              "name": "baseTokenBalance",
              "type": "tuple"
            },
            {
              "internalType": "address[]",
              "name": "stableTokens",
              "type": "address[]"
            },
            {
              "components": [
                {
                  "internalType": "uint256",
                  "name": "amount",
                  "type": "uint256"
                },
                {
                  "internalType": "uint256",
                  "name": "liability",
                  "type": "uint256"
                },
                {
                  "internalType": "uint256",
                  "name": "holdAmount",
                  "type": "uint256"
                },
                {
                  "internalType": "int256",
                  "name": "unsettledAmount",
                  "type": "int256"
                },
                {
                  "internalType": "uint256",
                  "name": "lossAmount",
                  "type": "uint256"
                },
                {
                  "internalType": "address[]",
                  "name": "collateralTokens",
                  "type": "address[]"
                },
                {
                  "internalType": "uint256[]",
                  "name": "collateralAmounts",
                  "type": "uint256[]"
                }
              ],
              "internalType": "struct IPool.MintTokenBalance[]",
              "name": "stableTokenBalances",
              "type": "tuple[]"
            },
            {
              "internalType": "uint256",
              "name": "poolValue",
              "type": "uint256"
            },
            {
              "internalType": "uint256",
              "name": "availableLiquidity",
              "type": "uint256"
            },
            {
              "internalType": "int256",
              "name": "poolPnl",
              "type": "int256"
            },
            {
              "internalType": "uint256",
              "name": "totalSupply",
              "type": "uint256"
            },
            {
              "components": [
                {
                  "internalType": "uint256",
                  "name": "totalBorrowingFee",
                  "type": "uint256"
                },
                {
                  "internalType": "uint256",
                  "name": "totalRealizedBorrowingFee",
                  "type": "uint256"
                },
                {
                  "internalType": "uint256",
                  "name": "cumulativeBorrowingFeePerToken",
                  "type": "uint256"
                },
                {
                  "internalType": "uint256",
                  "name": "lastUpdateTime",
                  "type": "uint256"
                }
              ],
              "internalType": "struct LpPool.BorrowingFee",
              "name": "borrowingFee",
              "type": "tuple"
            },
            {
              "internalType": "uint256",
              "name": "apr",
              "type": "uint256"
            },
            {
              "internalType": "uint256",
              "name": "totalClaimedRewards",
              "type": "uint256"
            }
          ],
          "internalType": "struct IPool.PoolInfo[]",
          "name": "",
          "type": "tuple[]"
        }
      ],
      "stateMutability": "view",
      "type": "function"
    },
    {
      "inputs": [
        {
          "internalType": "bytes32",
          "name": "symbol",
          "type": "bytes32"
        },
        {
          "components": [
            {
              "internalType": "address",
              "name": "token",
              "type": "address"
            },
            {
              "internalType": "address",
              "name": "targetToken",
              "type": "address"
            },
            {
              "internalType": "int256",
              "name": "minPrice",
              "type": "int256"
            },
            {
              "internalType": "int256",
              "name": "maxPrice",
              "type": "int256"
            }
          ],
          "internalType": "struct OracleProcess.OracleParam[]",
          "name": "oracles",
          "type": "tuple[]"
        },
        {
          "internalType": "bool",
          "name": "isLong",
          "type": "bool"
        },
        {
          "internalType": "address",
          "name": "marginToken",
          "type": "address"
        },
        {
          "internalType": "bool",
          "name": "pnlToken",
          "type": "bool"
        }
      ],
      "name": "getMarketUnPnl",
      "outputs": [
        {
          "internalType": "int256",
          "name": "",
          "type": "int256"
        }
      ],
      "stateMutability": "view",
      "type": "function"
    },
    {
      "inputs": [
        {
          "internalType": "address",
          "name": "stakeToken",
          "type": "address"
        },
        {
          "components": [
            {
              "internalType": "address",
              "name": "token",
              "type": "address"
            },
            {
              "internalType": "address",
              "name": "targetToken",
              "type": "address"
            },
            {
              "internalType": "int256",
              "name": "minPrice",
              "type": "int256"
            },
            {
              "internalType": "int256",
              "name": "maxPrice",
              "type": "int256"
            }
          ],
          "internalType": "struct OracleProcess.OracleParam[]",
          "name": "oracles",
          "type": "tuple[]"
        }
      ],
      "name": "getPool",
      "outputs": [
        {
          "components": [
            {
              "internalType": "address",
              "name": "stakeToken",
              "type": "address"
            },
            {
              "internalType": "string",
              "name": "stakeTokenName",
              "type": "string"
            },
            {
              "internalType": "address",
              "name": "baseToken",
              "type": "address"
            },
            {
              "internalType": "bytes32",
              "name": "symbol",
              "type": "bytes32"
            },
            {
              "components": [
                {
                  "internalType": "uint256",
                  "name": "amount",
                  "type": "uint256"
                },
                {
                  "internalType": "uint256",
                  "name": "liability",
                  "type": "uint256"
                },
                {
                  "internalType": "uint256",
                  "name": "holdAmount",
                  "type": "uint256"
                },
                {
                  "internalType": "int256",
                  "name": "unsettledAmount",
                  "type": "int256"
                },
                {
                  "internalType": "uint256",
                  "name": "lossAmount",
                  "type": "uint256"
                },
                {
                  "internalType": "address[]",
                  "name": "collateralTokens",
                  "type": "address[]"
                },
                {
                  "internalType": "uint256[]",
                  "name": "collateralAmounts",
                  "type": "uint256[]"
                }
              ],
              "internalType": "struct IPool.MintTokenBalance",
              "name": "baseTokenBalance",
              "type": "tuple"
            },
            {
              "internalType": "address[]",
              "name": "stableTokens",
              "type": "address[]"
            },
            {
              "components": [
                {
                  "internalType": "uint256",
                  "name": "amount",
                  "type": "uint256"
                },
                {
                  "internalType": "uint256",
                  "name": "liability",
                  "type": "uint256"
                },
                {
                  "internalType": "uint256",
                  "name": "holdAmount",
                  "type": "uint256"
                },
                {
                  "internalType": "int256",
                  "name": "unsettledAmount",
                  "type": "int256"
                },
                {
                  "internalType": "uint256",
                  "name": "lossAmount",
                  "type": "uint256"
                },
                {
                  "internalType": "address[]",
                  "name": "collateralTokens",
                  "type": "address[]"
                },
                {
                  "internalType": "uint256[]",
                  "name": "collateralAmounts",
                  "type": "uint256[]"
                }
              ],
              "internalType": "struct IPool.MintTokenBalance[]",
              "name": "stableTokenBalances",
              "type": "tuple[]"
            },
            {
              "internalType": "uint256",
              "name": "poolValue",
              "type": "uint256"
            },
            {
              "internalType": "uint256",
              "name": "availableLiquidity",
              "type": "uint256"
            },
            {
              "internalType": "int256",
              "name": "poolPnl",
              "type": "int256"
            },
            {
              "internalType": "uint256",
              "name": "totalSupply",
              "type": "uint256"
            },
            {
              "components": [
                {
                  "internalType": "uint256",
                  "name": "totalBorrowingFee",
                  "type": "uint256"
                },
                {
                  "internalType": "uint256",
                  "name": "totalRealizedBorrowingFee",
                  "type": "uint256"
                },
                {
                  "internalType": "uint256",
                  "name": "cumulativeBorrowingFeePerToken",
                  "type": "uint256"
                },
                {
                  "internalType": "uint256",
                  "name": "lastUpdateTime",
                  "type": "uint256"
                }
              ],
              "internalType": "struct LpPool.BorrowingFee",
              "name": "borrowingFee",
              "type": "tuple"
            },
            {
              "internalType": "uint256",
              "name": "apr",
              "type": "uint256"
            },
            {
              "internalType": "uint256",
              "name": "totalClaimedRewards",
              "type": "uint256"
            }
          ],
          "internalType": "struct IPool.PoolInfo",
          "name": "",
          "type": "tuple"
        }
      ],
      "stateMutability": "view",
      "type": "function"
    },
    {
      "inputs": [],
      "name": "getUsdPool",
      "outputs": [
        {
          "components": [
            {
              "internalType": "address[]",
              "name": "stableTokens",
              "type": "address[]"
            },
            {
              "components": [
                {
                  "internalType": "uint256",
                  "name": "amount",
                  "type": "uint256"
                },
                {
                  "internalType": "uint256",
                  "name": "holdAmount",
                  "type": "uint256"
                },
                {
                  "internalType": "uint256",
                  "name": "unsettledAmount",
                  "type": "uint256"
                }
              ],
              "internalType": "struct UsdPool.TokenBalance[]",
              "name": "stableTokenBalances",
              "type": "tuple[]"
            },
            {
              "internalType": "uint256[]",
              "name": "stableTokenMaxWithdraws",
              "type": "uint256[]"
            },
            {
              "internalType": "uint256",
              "name": "poolValue",
              "type": "uint256"
            },
            {
              "internalType": "uint256",
              "name": "totalSupply",
              "type": "uint256"
            },
            {
              "internalType": "uint256[]",
              "name": "tokensAvailableLiquidity",
              "type": "uint256[]"
            },
            {
              "components": [
                {
                  "internalType": "uint256",
                  "name": "totalBorrowingFee",
                  "type": "uint256"
                },
                {
                  "internalType": "uint256",
                  "name": "totalRealizedBorrowingFee",
                  "type": "uint256"
                },
                {
                  "internalType": "uint256",
                  "name": "cumulativeBorrowingFeePerToken",
                  "type": "uint256"
                },
                {
                  "internalType": "uint256",
                  "name": "lastUpdateTime",
                  "type": "uint256"
                }
              ],
              "internalType": "struct UsdPool.BorrowingFee[]",
              "name": "borrowingFees",
              "type": "tuple[]"
            },
            {
              "internalType": "uint256",
              "name": "apr",
              "type": "uint256"
            },
            {
              "internalType": "uint256",
              "name": "totalClaimedRewards",
              "type": "uint256"
            }
          ],
          "internalType": "struct IPool.UsdPoolInfo",
          "name": "",
          "type": "tuple"
        }
      ],
      "stateMutability": "view",
      "type": "function"
    },
    {
      "inputs": [
        {
          "components": [
            {
              "internalType": "address",
              "name": "token",
              "type": "address"
            },
            {
              "internalType": "address",
              "name": "targetToken",
              "type": "address"
            },
            {
              "internalType": "int256",
              "name": "minPrice",
              "type": "int256"
            },
            {
              "internalType": "int256",
              "name": "maxPrice",
              "type": "int256"
            }
          ],
          "internalType": "struct OracleProcess.OracleParam[]",
          "name": "oracles",
          "type": "tuple[]"
        }
      ],
      "name": "getUsdPoolWithOracle",
      "outputs": [
        {
          "components": [
            {
              "internalType": "address[]",
              "name": "stableTokens",
              "type": "address[]"
            },
            {
              "components": [
                {
                  "internalType": "uint256",
                  "name": "amount",
                  "type": "uint256"
                },
                {
                  "internalType": "uint256",
                  "name": "holdAmount",
                  "type": "uint256"
                },
                {
                  "internalType": "uint256",
                  "name": "unsettledAmount",
                  "type": "uint256"
                }
              ],
              "internalType": "struct UsdPool.TokenBalance[]",
              "name": "stableTokenBalances",
              "type": "tuple[]"
            },
            {
              "internalType": "uint256[]",
              "name": "stableTokenMaxWithdraws",
              "type": "uint256[]"
            },
            {
              "internalType": "uint256",
              "name": "poolValue",
              "type": "uint256"
            },
            {
              "internalType": "uint256",
              "name": "totalSupply",
              "type": "uint256"
            },
            {
              "internalType": "uint256[]",
              "name": "tokensAvailableLiquidity",
              "type": "uint256[]"
            },
            {
              "components": [
                {
                  "internalType": "uint256",
                  "name": "totalBorrowingFee",
                  "type": "uint256"
                },
                {
                  "internalType": "uint256",
                  "name": "totalRealizedBorrowingFee",
                  "type": "uint256"
                },
                {
                  "internalType": "uint256",
                  "name": "cumulativeBorrowingFeePerToken",
                  "type": "uint256"
                },
                {
                  "internalType": "uint256",
                  "name": "lastUpdateTime",
                  "type": "uint256"
                }
              ],
              "internalType": "struct UsdPool.BorrowingFee[]",
              "name": "borrowingFees",
              "type": "tuple[]"
            },
            {
              "internalType": "uint256",
              "name": "apr",
              "type": "uint256"
            },
            {
              "internalType": "uint256",
              "name": "totalClaimedRewards",
              "type": "uint256"
            }
          ],
          "internalType": "struct IPool.UsdPoolInfo",
          "name": "",
          "type": "tuple"
        }
      ],
      "stateMutability": "view",
      "type": "function"
    }
  ],
  "bytecode": "0x61439461003a600b82828239805160001a60731461002d57634e487b7160e01b600052600060045260246000fd5b30600052607381538281f3fe730000000000000000000000000000000000000000301460806040526004361061010a5760003560e01c80636c423e7e116100a1578063a345a3b211610070578063a345a3b214610215578063c77b227f14610228578063ce6e72db14610248578063f93446b11461025b57600080fd5b80636c423e7e146101c757806375d037d0146101da578063846cd1ae146101ef578063856b69ea1461020257600080fd5b80634cbf1831116100dd5780634cbf18311461016e5780635e9466661461018157806361c9c90814610194578063629a5892146101b457600080fd5b8063087edcb01461010f5780630f5cb1a814610135578063216de24a146101485780632d08a78c1461015b575b600080fd5b61012261011d3660046133af565b61026e565b6040519081526020015b60405180910390f35b610122610143366004613584565b610283565b6101226101563660046133af565b6102b6565b610122610169366004613584565b6102c4565b61012261017c366004613584565b610908565b61012261018f3660046133af565b611066565b6101a76101a23660046135cb565b611074565b60405161012c91906138d4565b6101226101c23660046133af565b6114a2565b6101226101d5366004613584565b6114d0565b6101e26114dd565b60405161012c9190613988565b6101226101fd366004613a6f565b611b33565b610122610210366004613aad565b611d25565b6101e2610223366004613b2e565b612306565b61023b610236366004613b2e565b6129c1565b60405161012c9190613ba3565b610122610256366004613584565b612b68565b6101226102693660046133af565b612ed4565b6000606061027c8382610908565b9392505050565b6000806102908484612b68565b905060008113156102a9576102a481612ee2565b6102ac565b60005b9150505b92915050565b6000606061027c8382610283565b600482015460009081901515806102df575060078401546000125b1561054b576003840154600285015460009161031691869060019073ffffffffffffffffffffffffffffffffffffffff1681611d25565b60028601546040517ff85cce2d00000000000000000000000000000000000000000000000000000000815291925060009173__$76a505dbd6210c6de5172a9e6577e0d579$__9163f85cce2d9161038d91899173ffffffffffffffffffffffffffffffffffffffff90911690600190600401613c23565b602060405180830381865af41580156103aa573d6000803e3d6000fd5b505050506040513d601f19601f820116820180604052508101906103ce9190613ccd565b905073__$60cdec19f17936bbc33543273078a7e6b8$__6375608c3d8388600401600301546104038a60040160000154612f57565b61040d9190613d15565b6104179190613d15565b60028901546040517fd449a83200000000000000000000000000000000000000000000000000000000815273ffffffffffffffffffffffffffffffffffffffff909116600482015273__$e3834fe8ea0b4818c33a802f8dd8530fd8$__9063d449a83290602401602060405180830381865af415801561049b573d6000803e3d6000fd5b505050506040513d601f19601f820116820180604052508101906104bf9190613d3d565b6040517fffffffff0000000000000000000000000000000000000000000000000000000060e085901b168152600481019290925260ff16602482015260448101849052606401602060405180830381865af4158015610522573d6000803e3d6000fd5b505050506040513d601f19601f820116820180604052508101906105469190613ccd565b925050505b6040517f9c3927a40000000000000000000000000000000000000000000000000000000081526004810185905260009073__$031d78916aae4b898c89af4123228b6f12$__90639c3927a490602401600060405180830381865af41580156105b7573d6000803e3d6000fd5b505050506040513d6000823e601f3d9081017fffffffffffffffffffffffffffffffffffffffffffffffffffffffffffffffe01682016040526105fd9190810190613dc4565b8051909150156109005760005b81518110156108fe57600086600e01600084848151811061062d5761062d613df9565b602002602001015173ffffffffffffffffffffffffffffffffffffffff1673ffffffffffffffffffffffffffffffffffffffff1681526020019081526020016000209050600081600001541180610688575060008160030154135b156108eb5760006106bb88600301548860008787815181106106ac576106ac613df9565b60200260200101516001611d25565b90506108e773__$60cdec19f17936bbc33543273078a7e6b8$__6375608c3d836106e88660040154612f57565b600387015487546106f890612f57565b6107029190613d15565b61070c9190613e28565b6107169190613d15565b73__$e3834fe8ea0b4818c33a802f8dd8530fd8$__63d449a83289898151811061074257610742613df9565b60200260200101516040518263ffffffff1660e01b8152600401610782919073ffffffffffffffffffffffffffffffffffffffff91909116815260200190565b602060405180830381865af415801561079f573d6000803e3d6000fd5b505050506040513d601f19601f820116820180604052508101906107c39190613d3d565b73__$76a505dbd6210c6de5172a9e6577e0d579$__63f85cce2d8d8b8b815181106107f0576107f0613df9565b602002602001015160016040518463ffffffff1660e01b815260040161081893929190613c23565b602060405180830381865af4158015610835573d6000803e3d6000fd5b505050506040513d601f19601f820116820180604052508101906108599190613ccd565b6040517fffffffff0000000000000000000000000000000000000000000000000000000060e086901b168152600481019390935260ff90911660248301526044820152606401602060405180830381865af41580156108bc573d6000803e3d6000fd5b505050506040513d601f19601f820116820180604052508101906108e09190613ccd565b8690613009565b9450505b50806108f681613e4f565b91505061060a565b505b509392505050565b60078201546004830154600091829161092090612f57565b61092a9190613d15565b9050600081121561093f5760009150506102b0565b6040517f9c3927a40000000000000000000000000000000000000000000000000000000081526004810185905260009073__$031d78916aae4b898c89af4123228b6f12$__90639c3927a490602401600060405180830381865af41580156109ab573d6000803e3d6000fd5b505050506040513d6000823e601f3d9081017fffffffffffffffffffffffffffffffffffffffffffffffffffffffffffffffe01682016040526109f19190810190613dc4565b805190915015610efd5760028501546040517fd449a83200000000000000000000000000000000000000000000000000000000815273ffffffffffffffffffffffffffffffffffffffff909116600482015260009073__$e3834fe8ea0b4818c33a802f8dd8530fd8$__9063d449a83290602401602060405180830381865af4158015610a82573d6000803e3d6000fd5b505050506040513d601f19601f82011682018060405250810190610aa69190613d3d565b60028701546040517ff85cce2d00000000000000000000000000000000000000000000000000000000815291925060009173__$76a505dbd6210c6de5172a9e6577e0d579$__9163f85cce2d91610b1d918a9173ffffffffffffffffffffffffffffffffffffffff90911690600190600401613c23565b602060405180830381865af4158015610b3a573d6000803e3d6000fd5b505050506040513d601f19601f82011682018060405250810190610b5e9190613ccd565b905060005b8351811015610ef957600088600e016000868481518110610b8657610b86613df9565b602002602001015173ffffffffffffffffffffffffffffffffffffffff1673ffffffffffffffffffffffffffffffffffffffff168152602001908152602001600020905060008160040154118015610c025750610be68160040154612f57565b60038201548254610bf690612f57565b610c009190613d15565b125b15610ee657600073__$60cdec19f17936bbc33543273078a7e6b8$__6375608c3d8360030154610c358560000154612f57565b610c428660040154612f57565b610c4c9190613e28565b610c569190613e28565b73__$e3834fe8ea0b4818c33a802f8dd8530fd8$__63d449a8328a8881518110610c8257610c82613df9565b60200260200101516040518263ffffffff1660e01b8152600401610cc2919073ffffffffffffffffffffffffffffffffffffffff91909116815260200190565b602060405180830381865af4158015610cdf573d6000803e3d6000fd5b505050506040513d601f19601f82011682018060405250810190610d039190613d3d565b73__$76a505dbd6210c6de5172a9e6577e0d579$__63f85cce2d8e8c8a81518110610d3057610d30613df9565b602002602001015160016040518463ffffffff1660e01b8152600401610d5893929190613c23565b602060405180830381865af4158015610d75573d6000803e3d6000fd5b505050506040513d601f19601f82011682018060405250810190610d999190613ccd565b6040517fffffffff0000000000000000000000000000000000000000000000000000000060e086901b168152600481019390935260ff90911660248301526044820152606401602060405180830381865af4158015610dfc573d6000803e3d6000fd5b505050506040513d601f19601f82011682018060405250810190610e209190613ccd565b6040517f0d65ea290000000000000000000000000000000000000000000000000000000081526004810182905260ff871660248201526044810186905290915060009073__$60cdec19f17936bbc33543273078a7e6b8$__90630d65ea2990606401602060405180830381865af4158015610e9f573d6000803e3d6000fd5b505050506040513d601f19601f82011682018060405250810190610ec39190613ccd565b905080881315610ede57610ed78189613e28565b9750610ee3565b600097505b50505b5080610ef181613e4f565b915050610b63565b5050505b600073__$60cdec19f17936bbc33543273078a7e6b8$__63aca95d5484610f9e8973__$031d78916aae4b898c89af4123228b6f12$__63e61fccc590916040518263ffffffff1660e01b8152600401610f5891815260200190565b602060405180830381865af4158015610f75573d6000803e3d6000fd5b505050506040513d601f19601f82011682018060405250810190610f999190613ccd565b612f57565b6040517fffffffff0000000000000000000000000000000000000000000000000000000060e085901b16815260048101929092526024820152604401602060405180830381865af4158015610ff7573d6000803e3d6000fd5b505050506040513d601f19601f8201168201806040525081019061101b9190613ccd565b905061102d8660040160020154612f57565b811361103a57600061105c565b61105c61104d8760040160020154612f57565b6110579083613e28565b612ee2565b9695505050505050565b6000606061027c83826102c4565b61107c6132aa565b6040517f2f40e73400000000000000000000000000000000000000000000000000000000815273ffffffffffffffffffffffffffffffffffffffff8416600482015260009073__$031d78916aae4b898c89af4123228b6f12$__90632f40e73490602401602060405180830381865af41580156110fd573d6000803e3d6000fd5b505050506040513d601f19601f820116820180604052508101906111219190613ccd565b905061112b6132aa565b6040517fe8f36a560000000000000000000000000000000000000000000000000000000081526004810183905273__$031d78916aae4b898c89af4123228b6f12$__9063e8f36a5690602401602060405180830381865af4158015611194573d6000803e3d6000fd5b505050506040513d601f19601f820116820180604052508101906111b89190613e87565b6111c55791506102b09050565b6040517f9c3927a40000000000000000000000000000000000000000000000000000000081526004810183905260009073__$031d78916aae4b898c89af4123228b6f12$__90639c3927a490602401600060405180830381865af4158015611231573d6000803e3d6000fd5b505050506040513d6000823e601f3d9081017fffffffffffffffffffffffffffffffffffffffffffffffffffffffffffffffe01682016040526112779190810190613dc4565b905060008673ffffffffffffffffffffffffffffffffffffffff166318160ddd6040518163ffffffff1660e01b8152600401602060405180830381865afa1580156112c6573d6000803e3d6000fd5b505050506040513d601f19601f820116820180604052508101906112ea9190613ccd565b9050604051806101c001604052808873ffffffffffffffffffffffffffffffffffffffff16815260200185600101805461132390613ea4565b80601f016020809104026020016040519081016040528092919081815260200182805461134f90613ea4565b801561139c5780601f106113715761010080835404028352916020019161139c565b820191906000526020600020905b81548152906001019060200180831161137f57829003601f168201915b5050509183525050600286015473ffffffffffffffffffffffffffffffffffffffff166020820152600386015460408201526060016113dd60048701613015565b81526020018381526020016113f58487600e01613159565b8152602001600088511161140a576000611414565b61141486896114d0565b81526020016000885111611429576000611433565b6114338689610908565b81526020016000815260200182815260200185601001604051806080016040529081600082015481526020016001820154815260200160028201548152602001600382015481525050815260200185601401548152602001856015015481525092508294505050505092915050565b6000806114ae83611066565b905060008113156114c7576114c281612ee2565b61027c565b60009392505050565b60008061029084846102c4565b61152c6040518061012001604052806060815260200160608152602001606081526020016000815260200160008152602001606081526020016060815260200160008152602001600081525090565b600073__$69c89f533e100333dfc56147eb38ab86ce$__6386d5c4be6040518163ffffffff1660e01b8152600401602060405180830381865af4158015611577573d6000803e3d6000fd5b505050506040513d601f19601f8201168201806040525081019061159b9190613ccd565b6040517fd421c80a0000000000000000000000000000000000000000000000000000000081526004810182905290915073__$69c89f533e100333dfc56147eb38ab86ce$__9063d421c80a90602401600060405180830381865af4158015611607573d6000803e3d6000fd5b505050506040513d6000823e601f3d9081017fffffffffffffffffffffffffffffffffffffffffffffffffffffffffffffffe016820160405261164d9190810190613dc4565b516000036116a4576102b06040518061012001604052806060815260200160608152602001606081526020016000815260200160008152602001606081526020016060815260200160008152602001600081525090565b600073__$2c5e3d38607d7ea6eea9d5dc78ed57d239$__63f141859a6040518163ffffffff1660e01b8152600401602060405180830381865af41580156116ef573d6000803e3d6000fd5b505050506040513d601f19601f820116820180604052508101906117139190613ef7565b905060008173ffffffffffffffffffffffffffffffffffffffff166318160ddd6040518163ffffffff1660e01b8152600401602060405180830381865afa158015611762573d6000803e3d6000fd5b505050506040513d601f19601f820116820180604052508101906117869190613ccd565b6040517fd421c80a0000000000000000000000000000000000000000000000000000000081526004810185905290915060009073__$69c89f533e100333dfc56147eb38ab86ce$__9063d421c80a90602401600060405180830381865af41580156117f5573d6000803e3d6000fd5b505050506040513d6000823e601f3d9081017fffffffffffffffffffffffffffffffffffffffffffffffffffffffffffffffe016820160405261183b9190810190613dc4565b90506000815167ffffffffffffffff811115611859576118596133c8565b604051908082528060200260200182016040528015611882578160200160208202803683370190505b50905060005b82518110156118e3576118b4868483815181106118a7576118a7613df9565b6020026020010151611b33565b8282815181106118c6576118c6613df9565b6020908102919091010152806118db81613e4f565b915050611888565b50604080516101208101825283815290517f399b21a000000000000000000000000000000000000000000000000000000000815260048101879052602082019073__$69c89f533e100333dfc56147eb38ab86ce$__9063399b21a090602401600060405180830381865af415801561195f573d6000803e3d6000fd5b505050506040513d6000823e601f3d9081017fffffffffffffffffffffffffffffffffffffffffffffffffffffffffffffffe01682016040526119a59190810190613f70565b81526040517fdeaa0a370000000000000000000000000000000000000000000000000000000081526004810188905260209091019073__$69c89f533e100333dfc56147eb38ab86ce$__9063deaa0a3790602401600060405180830381865af4158015611a16573d6000803e3d6000fd5b505050506040513d6000823e601f3d9081017fffffffffffffffffffffffffffffffffffffffffffffffffffffffffffffffe0168201604052611a5c9190810190614065565b8152602001600081526020018481526020018281526020018673__$69c89f533e100333dfc56147eb38ab86ce$__63ffabfaeb90916040518263ffffffff1660e01b8152600401611aaf91815260200190565b600060405180830381865af4158015611acc573d6000803e3d6000fd5b505050506040513d6000823e601f3d9081017fffffffffffffffffffffffffffffffffffffffffffffffffffffffffffffffe0168201604052611b12919081019061409a565b81526020018660040154815260200186600501548152509550505050505090565b6040517f36dd0ce30000000000000000000000000000000000000000000000000000000081526004810183905273ffffffffffffffffffffffffffffffffffffffff82166024820152600090819073__$69c89f533e100333dfc56147eb38ab86ce$__906336dd0ce390604401606060405180830381865af4158015611bbd573d6000803e3d6000fd5b505050506040513d601f19601f82011682018060405250810190611be19190614164565b9050600081604001518260000151611bf99190614180565b9050600073__$60cdec19f17936bbc33543273078a7e6b8$__63ee7fc5a38373__$69c89f533e100333dfc56147eb38ab86ce$__630b4fff736040518163ffffffff1660e01b8152600401602060405180830381865af4158015611c61573d6000803e3d6000fd5b505050506040513d601f19601f82011682018060405250810190611c859190613ccd565b6040517fffffffff0000000000000000000000000000000000000000000000000000000060e085901b16815260048101929092526024820152604401602060405180830381865af4158015611cde573d6000803e3d6000fd5b505050506040513d601f19601f82011682018060405250810190611d029190613ccd565b905082602001518111611d1657600061105c565b602083015161105c9082614193565b6040517ff035079900000000000000000000000000000000000000000000000000000000815260048101869052600090819073__$3c6261fc29985881007184aacdacb41a63$__9063f035079990602401602060405180830381865af4158015611d93573d6000803e3d6000fd5b505050506040513d601f19601f82011682018060405250810190611db79190613ccd565b6040517ff03507990000000000000000000000000000000000000000000000000000000081526004810189905290915060009073__$c1ae4f2fd189c456c923d4bac13705c722$__9063f035079990602401602060405180830381865af4158015611e26573d6000803e3d6000fd5b505050506040513d601f19601f82011682018060405250810190611e4a9190613ccd565b6040805160c08101909152815481526001820154909190602083019060ff166003811115611e7a57611e7a6141a6565b6003811115611e8b57611e8b6141a6565b8152600182015473ffffffffffffffffffffffffffffffffffffffff610100909104811660208301526002830154811660408301526003830154166060820152600482018054608090920191611ee090613ea4565b80601f0160208091040260200160405190810160405280929190818152602001828054611f0c90613ea4565b8015611f595780601f10611f2e57610100808354040283529160200191611f59565b820191906000526020600020905b815481529060010190602001808311611f3c57829003601f168201915b5050505050815250509050600086611f975773ffffffffffffffffffffffffffffffffffffffff861660009081526006840160205260409020611f9c565b826002015b8054909150600003611fb457600093505050506122fd565b60608201516040517ff85cce2d00000000000000000000000000000000000000000000000000000000815260009173__$76a505dbd6210c6de5172a9e6577e0d579$__9163f85cce2d91612010918d9190600190600401613c23565b602060405180830381865af415801561202d573d6000803e3d6000fd5b505050506040513d601f19601f820116820180604052508101906120519190613ccd565b905061205c81612ee2565b8260010154036120735760009450505050506122fd565b87156122d15760006120bc61208b8460010154612f57565b6120b66120a561209e8760010154612f57565b8690613286565b86546120b090612f57565b90613292565b9061329e565b905086156122bc576040517ff85cce2d00000000000000000000000000000000000000000000000000000000815260009073__$76a505dbd6210c6de5172a9e6577e0d579$__9063f85cce2d9061211b908e908d908690600401613c23565b602060405180830381865af4158015612138573d6000803e3d6000fd5b505050506040513d601f19601f8201168201806040525081019061215c9190613ccd565b6040517fd449a83200000000000000000000000000000000000000000000000000000000815273ffffffffffffffffffffffffffffffffffffffff8b16600482015290915073__$60cdec19f17936bbc33543273078a7e6b8$__90630d65ea2990849073__$e3834fe8ea0b4818c33a802f8dd8530fd8$__9063d449a83290602401602060405180830381865af41580156121fb573d6000803e3d6000fd5b505050506040513d601f19601f8201168201806040525081019061221f9190613d3d565b6040517fffffffff0000000000000000000000000000000000000000000000000000000060e085901b168152600481019290925260ff16602482015260448101849052606401602060405180830381865af4158015612282573d6000803e3d6000fd5b505050506040513d601f19601f820116820180604052508101906122a69190613ccd565b6122af906141d5565b96505050505050506122fd565b6122c5816141d5565b955050505050506122fd565b60006120bc6122e38460010154612f57565b6120b66120a5856122f78860010154612f57565b90613286565b95945050505050565b6123556040518061012001604052806060815260200160608152602001606081526020016000815260200160008152602001606081526020016060815260200160008152602001600081525090565b600073__$69c89f533e100333dfc56147eb38ab86ce$__6386d5c4be6040518163ffffffff1660e01b8152600401602060405180830381865af41580156123a0573d6000803e3d6000fd5b505050506040513d601f19601f820116820180604052508101906123c49190613ccd565b6040517fd421c80a0000000000000000000000000000000000000000000000000000000081526004810182905290915073__$69c89f533e100333dfc56147eb38ab86ce$__9063d421c80a90602401600060405180830381865af4158015612430573d6000803e3d6000fd5b505050506040513d6000823e601f3d9081017fffffffffffffffffffffffffffffffffffffffffffffffffffffffffffffffe01682016040526124769190810190613dc4565b516000036124d6576124cd6040518061012001604052806060815260200160608152602001606081526020016000815260200160008152602001606081526020016060815260200160008152602001600081525090565b91506102b09050565b600073__$2c5e3d38607d7ea6eea9d5dc78ed57d239$__63f141859a6040518163ffffffff1660e01b8152600401602060405180830381865af4158015612521573d6000803e3d6000fd5b505050506040513d601f19601f820116820180604052508101906125459190613ef7565b905060008173ffffffffffffffffffffffffffffffffffffffff166318160ddd6040518163ffffffff1660e01b8152600401602060405180830381865afa158015612594573d6000803e3d6000fd5b505050506040513d601f19601f820116820180604052508101906125b89190613ccd565b6040517fd421c80a0000000000000000000000000000000000000000000000000000000081526004810185905290915060009073__$69c89f533e100333dfc56147eb38ab86ce$__9063d421c80a90602401600060405180830381865af4158015612627573d6000803e3d6000fd5b505050506040513d6000823e601f3d9081017fffffffffffffffffffffffffffffffffffffffffffffffffffffffffffffffe016820160405261266d9190810190613dc4565b90506000815167ffffffffffffffff81111561268b5761268b6133c8565b6040519080825280602002602001820160405280156126b4578160200160208202803683370190505b50905060005b8251811015612708576126d9868483815181106118a7576118a7613df9565b8282815181106126eb576126eb613df9565b60209081029190910101528061270081613e4f565b9150506126ba565b50604080516101208101825283815290517f399b21a000000000000000000000000000000000000000000000000000000000815260048101879052602082019073__$69c89f533e100333dfc56147eb38ab86ce$__9063399b21a090602401600060405180830381865af4158015612784573d6000803e3d6000fd5b505050506040513d6000823e601f3d9081017fffffffffffffffffffffffffffffffffffffffffffffffffffffffffffffffe01682016040526127ca9190810190613f70565b81526040517fdeaa0a370000000000000000000000000000000000000000000000000000000081526004810188905260209091019073__$69c89f533e100333dfc56147eb38ab86ce$__9063deaa0a3790602401600060405180830381865af415801561283b573d6000803e3d6000fd5b505050506040513d6000823e601f3d9081017fffffffffffffffffffffffffffffffffffffffffffffffffffffffffffffffe01682016040526128819190810190614065565b8152602001886128925760006128ee565b6128ee878b8b808060200260200160405190810160405280939291908181526020016000905b828210156128e4576128d56080830286013681900381019061420d565b815260200190600101906128b8565b5050505050610283565b81526020018481526020018281526020018673__$69c89f533e100333dfc56147eb38ab86ce$__63ffabfaeb90916040518263ffffffff1660e01b815260040161293a91815260200190565b600060405180830381865af4158015612957573d6000803e3d6000fd5b505050506040513d6000823e601f3d9081017fffffffffffffffffffffffffffffffffffffffffffffffffffffffffffffffe016820160405261299d919081019061409a565b81526020018660040154815260200186600501548152509550505050505092915050565b6060600073__$2c5e3d38607d7ea6eea9d5dc78ed57d239$__632dbc16506040518163ffffffff1660e01b8152600401600060405180830381865af4158015612a0e573d6000803e3d6000fd5b505050506040513d6000823e601f3d9081017fffffffffffffffffffffffffffffffffffffffffffffffffffffffffffffffe0168201604052612a549190810190613dc4565b90506000815167ffffffffffffffff811115612a7257612a726133c8565b604051908082528060200260200182016040528015612aab57816020015b612a986132aa565b815260200190600190039081612a905790505b50905060005b8251811015612b5f57612b2f838281518110612acf57612acf613df9565b60200260200101518787808060200260200160405190810160405280939291908181526020016000905b82821015612b2557612b166080830286013681900381019061420d565b81526020019060010190612af9565b5050505050611074565b828281518110612b4157612b41613df9565b60200260200101819052508080612b5790613e4f565b915050612ab1565b50949350505050565b6040517fd421c80a000000000000000000000000000000000000000000000000000000008152600481018390526000908190819073__$69c89f533e100333dfc56147eb38ab86ce$__9063d421c80a90602401600060405180830381865af4158015612bd8573d6000803e3d6000fd5b505050506040513d6000823e601f3d9081017fffffffffffffffffffffffffffffffffffffffffffffffffffffffffffffffe0168201604052612c1e9190810190613dc4565b8051909150156109005760005b81518110156108fe576000866002016000848481518110612c4e57612c4e613df9565b602002602001015173ffffffffffffffffffffffffffffffffffffffff1673ffffffffffffffffffffffffffffffffffffffff1681526020019081526020016000209050600081600001541180612ca9575060008160020154115b15612ec157612ebe73__$60cdec19f17936bbc33543273078a7e6b8$__6375608c3d612cd88460020154612f57565b8454612ce390612f57565b612ced9190613d15565b73__$e3834fe8ea0b4818c33a802f8dd8530fd8$__63d449a832888881518110612d1957612d19613df9565b60200260200101516040518263ffffffff1660e01b8152600401612d59919073ffffffffffffffffffffffffffffffffffffffff91909116815260200190565b602060405180830381865af4158015612d76573d6000803e3d6000fd5b505050506040513d601f19601f82011682018060405250810190612d9a9190613d3d565b73__$76a505dbd6210c6de5172a9e6577e0d579$__63f85cce2d8c8a8a81518110612dc757612dc7613df9565b602002602001015160016040518463ffffffff1660e01b8152600401612def93929190613c23565b602060405180830381865af4158015612e0c573d6000803e3d6000fd5b505050506040513d601f19601f82011682018060405250810190612e309190613ccd565b6040517fffffffff0000000000000000000000000000000000000000000000000000000060e086901b168152600481019390935260ff90911660248301526044820152606401602060405180830381865af4158015612e93573d6000803e3d6000fd5b505050506040513d601f19601f82011682018060405250810190612eb79190613ccd565b8590613009565b93505b5080612ecc81613e4f565b915050612c2b565b6000606061027c8382612b68565b600080821215612f53576040517f08c379a000000000000000000000000000000000000000000000000000000000815260206004820181905260248201527f53616665436173743a2076616c7565206d75737420626520706f73697469766560448201526064015b60405180910390fd5b5090565b60007f7fffffffffffffffffffffffffffffffffffffffffffffffffffffffffffffff821115612f53576040517f08c379a000000000000000000000000000000000000000000000000000000000815260206004820152602860248201527f53616665436173743a2076616c756520646f65736e27742066697420696e206160448201527f6e20696e743235360000000000000000000000000000000000000000000000006064820152608401612f4a565b600061027c8284613d15565b6130556040518060e00160405280600081526020016000815260200160008152602001600081526020016000815260200160608152602001606081525090565b6040517fd33d4aa1000000000000000000000000000000000000000000000000000000008152600583016004820152600090819073__$031d78916aae4b898c89af4123228b6f12$__9063d33d4aa190602401600060405180830381865af41580156130c5573d6000803e3d6000fd5b505050506040513d6000823e601f3d9081017fffffffffffffffffffffffffffffffffffffffffffffffffffffffffffffffe016820160405261310b9190810190614229565b6040805160e081018252875481526001880154602082015260028801549181019190915260038701546060820152600490960154608087015260a086019190915260c0850152509192915050565b60606000835167ffffffffffffffff811115613177576131776133c8565b6040519080825280602002602001820160405280156131e857816020015b6131d56040518060e00160405280600081526020016000815260200160008152602001600081526020016000815260200160608152602001606081525090565b8152602001906001900390816131955790505b50905060005b84518110156109005761325684600087848151811061320f5761320f613df9565b602002602001015173ffffffffffffffffffffffffffffffffffffffff1673ffffffffffffffffffffffffffffffffffffffff168152602001908152602001600020613015565b82828151811061326857613268613df9565b6020026020010181905250808061327e90613e4f565b9150506131ee565b600061027c8284613e28565b600061027c8284614283565b600061027c82846142cf565b604051806101c00160405280600073ffffffffffffffffffffffffffffffffffffffff16815260200160608152602001600073ffffffffffffffffffffffffffffffffffffffff168152602001600080191681526020016133416040518060e00160405280600081526020016000815260200160008152602001600081526020016000815260200160608152602001606081525090565b815260200160608152602001606081526020016000815260200160008152602001600081526020016000815260200161339b6040518060800160405280600081526020016000815260200160008152602001600081525090565b815260200160008152602001600081525090565b6000602082840312156133c157600080fd5b5035919050565b7f4e487b7100000000000000000000000000000000000000000000000000000000600052604160045260246000fd5b6040516080810167ffffffffffffffff8111828210171561341a5761341a6133c8565b60405290565b604051601f82017fffffffffffffffffffffffffffffffffffffffffffffffffffffffffffffffe016810167ffffffffffffffff81118282101715613467576134676133c8565b604052919050565b600067ffffffffffffffff821115613489576134896133c8565b5060051b60200190565b73ffffffffffffffffffffffffffffffffffffffff811681146134b557600080fd5b50565b6000608082840312156134ca57600080fd5b6134d26133f7565b905081356134df81613493565b815260208201356134ef81613493565b80602083015250604082013560408201526060820135606082015292915050565b600082601f83011261352157600080fd5b813560206135366135318361346f565b613420565b82815260079290921b8401810191818101908684111561355557600080fd5b8286015b848110156135795761356b88826134b8565b835291830191608001613559565b509695505050505050565b6000806040838503121561359757600080fd5b82359150602083013567ffffffffffffffff8111156135b557600080fd5b6135c185828601613510565b9150509250929050565b600080604083850312156135de57600080fd5b82356135e981613493565b9150602083013567ffffffffffffffff8111156135b557600080fd5b6000815180845260005b8181101561362b5760208185018101518683018201520161360f565b5060006020828601015260207fffffffffffffffffffffffffffffffffffffffffffffffffffffffffffffffe0601f83011685010191505092915050565b600081518084526020808501945080840160005b838110156136af57815173ffffffffffffffffffffffffffffffffffffffff168752958201959082019060010161367d565b509495945050505050565b600081518084526020808501945080840160005b838110156136af578151875295820195908201906001016136ce565b8051825260208101516020830152604081015160408301526060810151606083015260808101516080830152600060a082015160e060a085015261373160e0850182613669565b905060c083015184820360c08601526122fd82826136ba565b6000815180845260208085019450848260051b860182860160005b8581101561378f57838303895261377d8383516136ea565b98850198925090840190600101613765565b5090979650505050505050565b805173ffffffffffffffffffffffffffffffffffffffff168252600061022060208301518160208601526137d282860182613605565b91505060408301516137fc604086018273ffffffffffffffffffffffffffffffffffffffff169052565b50606083015160608501526080830151848203608086015261381e82826136ea565b91505060a083015184820360a08601526138388282613669565b91505060c083015184820360c0860152613852828261374a565b60e0858101519087015261010080860151908701526101208086015190870152610140808601519087015261016080860151805182890152602081015161018089015260408101516101a089015260608101516101c0890152919350915050506101808301516101e08501526101a08301516102008501528091505092915050565b60208152600061027c602083018461379c565b600081518084526020808501945080840160005b838110156136af57815180518852838101518489015260409081015190880152606090960195908201906001016138fb565b600081518084526020808501945080840160005b838110156136af57613975878351805182526020810151602083015260408101516040830152606081015160608301525050565b6080969096019590820190600101613941565b60208152600082516101208060208501526139a7610140850183613669565b915060208501517fffffffffffffffffffffffffffffffffffffffffffffffffffffffffffffffe0808685030160408701526139e384836138e7565b93506040870151915080868503016060870152613a0084836136ba565b935060608701516080870152608087015160a087015260a08701519150808685030160c0870152613a3184836136ba565b935060c08701519150808685030160e087015250613a4f838261392d565b60e087015161010087810191909152909601519190940152509192915050565b60008060408385031215613a8257600080fd5b823591506020830135613a9481613493565b809150509250929050565b80151581146134b557600080fd5b600080600080600060a08688031215613ac557600080fd5b85359450602086013567ffffffffffffffff811115613ae357600080fd5b613aef88828901613510565b9450506040860135613b0081613a9f565b92506060860135613b1081613493565b91506080860135613b2081613a9f565b809150509295509295909350565b60008060208385031215613b4157600080fd5b823567ffffffffffffffff80821115613b5957600080fd5b818501915085601f830112613b6d57600080fd5b813581811115613b7c57600080fd5b8660208260071b8501011115613b9157600080fd5b60209290920196919550909350505050565b6000602080830181845280855180835260408601915060408160051b870101925083870160005b82811015613c16577fffffffffffffffffffffffffffffffffffffffffffffffffffffffffffffffc0888603018452613c0485835161379c565b94509285019290850190600101613bca565b5092979650505050505050565b6060808252845182820181905260009190608090818501906020808a01865b83811015613c92578151805173ffffffffffffffffffffffffffffffffffffffff908116875284820151168487015260408082015190870152870151878601529385019390820190600101613c42565b5050829550613cb88188018a73ffffffffffffffffffffffffffffffffffffffff169052565b50505050831515604084015250949350505050565b600060208284031215613cdf57600080fd5b5051919050565b7f4e487b7100000000000000000000000000000000000000000000000000000000600052601160045260246000fd5b8082018281126000831280158216821582161715613d3557613d35613ce6565b505092915050565b600060208284031215613d4f57600080fd5b815160ff8116811461027c57600080fd5b600082601f830112613d7157600080fd5b81516020613d816135318361346f565b82815260059290921b84018101918181019086841115613da057600080fd5b8286015b84811015613579578051613db781613493565b8352918301918301613da4565b600060208284031215613dd657600080fd5b815167ffffffffffffffff811115613ded57600080fd5b6102ac84828501613d60565b7f4e487b7100000000000000000000000000000000000000000000000000000000600052603260045260246000fd5b8181036000831280158383131683831282161715613e4857613e48613ce6565b5092915050565b60007fffffffffffffffffffffffffffffffffffffffffffffffffffffffffffffffff8203613e8057613e80613ce6565b5060010190565b600060208284031215613e9957600080fd5b815161027c81613a9f565b600181811c90821680613eb857607f821691505b602082108103613ef1577f4e487b7100000000000000000000000000000000000000000000000000000000600052602260045260246000fd5b50919050565b600060208284031215613f0957600080fd5b815161027c81613493565b600060608284031215613f2657600080fd5b6040516060810181811067ffffffffffffffff82111715613f4957613f496133c8565b80604052508091508251815260208301516020820152604083015160408201525092915050565b60006020808385031215613f8357600080fd5b825167ffffffffffffffff811115613f9a57600080fd5b8301601f81018513613fab57600080fd5b8051613fb96135318261346f565b81815260609182028301840191848201919088841115613fd857600080fd5b938501935b83851015613ffe57613fef8986613f14565b83529384019391850191613fdd565b50979650505050505050565b600082601f83011261401b57600080fd5b8151602061402b6135318361346f565b82815260059290921b8401810191818101908684111561404a57600080fd5b8286015b84811015613579578051835291830191830161404e565b60006020828403121561407757600080fd5b815167ffffffffffffffff81111561408e57600080fd5b6102ac8482850161400a565b600060208083850312156140ad57600080fd5b825167ffffffffffffffff8111156140c457600080fd5b8301601f810185136140d557600080fd5b80516140e36135318261346f565b81815260079190911b8201830190838101908783111561410257600080fd5b928401925b8284101561415957608084890312156141205760008081fd5b6141286133f7565b8451815285850151868201526040808601519082015260608086015190820152825260809093019290840190614107565b979650505050505050565b60006060828403121561417657600080fd5b61027c8383613f14565b808201808211156102b0576102b0613ce6565b818103818111156102b0576102b0613ce6565b7f4e487b7100000000000000000000000000000000000000000000000000000000600052602160045260246000fd5b60007f8000000000000000000000000000000000000000000000000000000000000000820361420657614206613ce6565b5060000390565b60006080828403121561421f57600080fd5b61027c83836134b8565b6000806040838503121561423c57600080fd5b825167ffffffffffffffff8082111561425457600080fd5b61426086838701613d60565b9350602085015191508082111561427657600080fd5b506135c18582860161400a565b808202600082127f8000000000000000000000000000000000000000000000000000000000000000841416156142bb576142bb613ce6565b81810583148215176102b0576102b0613ce6565b600082614305577f4e487b7100000000000000000000000000000000000000000000000000000000600052601260045260246000fd5b7fffffffffffffffffffffffffffffffffffffffffffffffffffffffffffffffff83147f80000000000000000000000000000000000000000000000000000000000000008314161561435957614359613ce6565b50059056fea26469706673582212209e25439305efd1edbec418267c5d94b3ae18d97f404c6ad8501878d78006d1f264736f6c63430008120033",
  "linkReferences": {
    "contracts/process/OracleProcess.sol": {
      "OracleProcess": [
        {
          "length": 20,
          "start": 899
        },
        {
          "length": 20,
          "start": 2047
        },
        {
          "length": 20,
          "start": 2835
        },
        {
          "length": 20,
          "start": 3391
        },
        {
          "length": 20,
          "start": 8222
        },
        {
          "length": 20,
          "start": 8489
        },
        {
          "length": 20,
          "start": 11734
        }
      ]
    },
    "contracts/storage/CommonData.sol": {
      "CommonData": [
        {
          "length": 20,
          "start": 5858
        },
        {
          "length": 20,
          "start": 9492
        },
        {
          "length": 20,
          "start": 10753
        }
      ]
    },
    "contracts/storage/LpPool.sol": {
      "LpPool": [
        {
          "length": 20,
          "start": 1463
        },
        {
          "length": 20,
          "start": 2475
        },
        {
          "length": 20,
          "start": 3930
        },
        {
          "length": 20,
          "start": 4349
        },
        {
          "length": 20,
          "start": 4500
        },
        {
          "length": 20,
          "start": 4657
        },
        {
          "length": 20,
          "start": 12485
        }
      ]
    },
    "contracts/storage/Market.sol": {
      "Market": [
        {
          "length": 20,
          "start": 7571
        }
      ]
    },
    "contracts/storage/Symbol.sol": {
      "Symbol": [
        {
          "length": 20,
          "start": 7718
        }
      ]
    },
    "contracts/storage/UsdPool.sol": {
      "UsdPool": [
        {
          "length": 20,
          "start": 5482
        },
        {
          "length": 20,
          "start": 5639
        },
        {
          "length": 20,
          "start": 6133
        },
        {
          "length": 20,
          "start": 6495
        },
        {
          "length": 20,
          "start": 6678
        },
        {
          "length": 20,
          "start": 6833
        },
        {
          "length": 20,
          "start": 7101
        },
        {
          "length": 20,
          "start": 7252
        },
        {
          "length": 20,
          "start": 9107
        },
        {
          "length": 20,
          "start": 9264
        },
        {
          "length": 20,
          "start": 9767
        },
        {
          "length": 20,
          "start": 10116
        },
        {
          "length": 20,
          "start": 10299
        },
        {
          "length": 20,
          "start": 10556
        },
        {
          "length": 20,
          "start": 11224
        }
      ]
    },
    "contracts/utils/CalUtils.sol": {
      "CalUtils": [
        {
          "length": 20,
          "start": 1036
        },
        {
          "length": 20,
          "start": 1788
        },
        {
          "length": 20,
          "start": 3141
        },
        {
          "length": 20,
          "start": 3743
        },
        {
          "length": 20,
          "start": 3899
        },
        {
          "length": 20,
          "start": 7225
        },
        {
          "length": 20,
          "start": 8669
        },
        {
          "length": 20,
          "start": 11501
        }
      ]
    },
    "contracts/utils/TokenUtils.sol": {
      "TokenUtils": [
        {
          "length": 20,
          "start": 1179
        },
        {
          "length": 20,
          "start": 1874
        },
        {
          "length": 20,
          "start": 2690
        },
        {
          "length": 20,
          "start": 3218
        },
        {
          "length": 20,
          "start": 8699
        },
        {
          "length": 20,
          "start": 11561
        }
      ]
    }
  },
  "deployedLinkReferences": {
    "contracts/process/OracleProcess.sol": {
      "OracleProcess": [
        {
          "length": 20,
          "start": 841
        },
        {
          "length": 20,
          "start": 1989
        },
        {
          "length": 20,
          "start": 2777
        },
        {
          "length": 20,
          "start": 3333
        },
        {
          "length": 20,
          "start": 8164
        },
        {
          "length": 20,
          "start": 8431
        },
        {
          "length": 20,
          "start": 11676
        }
      ]
    },
    "contracts/storage/CommonData.sol": {
      "CommonData": [
        {
          "length": 20,
          "start": 5800
        },
        {
          "length": 20,
          "start": 9434
        },
        {
          "length": 20,
          "start": 10695
        }
      ]
    },
    "contracts/storage/LpPool.sol": {
      "LpPool": [
        {
          "length": 20,
          "start": 1405
        },
        {
          "length": 20,
          "start": 2417
        },
        {
          "length": 20,
          "start": 3872
        },
        {
          "length": 20,
          "start": 4291
        },
        {
          "length": 20,
          "start": 4442
        },
        {
          "length": 20,
          "start": 4599
        },
        {
          "length": 20,
          "start": 12427
        }
      ]
    },
    "contracts/storage/Market.sol": {
      "Market": [
        {
          "length": 20,
          "start": 7513
        }
      ]
    },
    "contracts/storage/Symbol.sol": {
      "Symbol": [
        {
          "length": 20,
          "start": 7660
        }
      ]
    },
    "contracts/storage/UsdPool.sol": {
      "UsdPool": [
        {
          "length": 20,
          "start": 5424
        },
        {
          "length": 20,
          "start": 5581
        },
        {
          "length": 20,
          "start": 6075
        },
        {
          "length": 20,
          "start": 6437
        },
        {
          "length": 20,
          "start": 6620
        },
        {
          "length": 20,
          "start": 6775
        },
        {
          "length": 20,
          "start": 7043
        },
        {
          "length": 20,
          "start": 7194
        },
        {
          "length": 20,
          "start": 9049
        },
        {
          "length": 20,
          "start": 9206
        },
        {
          "length": 20,
          "start": 9709
        },
        {
          "length": 20,
          "start": 10058
        },
        {
          "length": 20,
          "start": 10241
        },
        {
          "length": 20,
          "start": 10498
        },
        {
          "length": 20,
          "start": 11166
        }
      ]
    },
    "contracts/utils/CalUtils.sol": {
      "CalUtils": [
        {
          "length": 20,
          "start": 978
        },
        {
          "length": 20,
          "start": 1730
        },
        {
          "length": 20,
          "start": 3083
        },
        {
          "length": 20,
          "start": 3685
        },
        {
          "length": 20,
          "start": 3841
        },
        {
          "length": 20,
          "start": 7167
        },
        {
          "length": 20,
          "start": 8611
        },
        {
          "length": 20,
          "start": 11443
        }
      ]
    },
    "contracts/utils/TokenUtils.sol": {
      "TokenUtils": [
        {
          "length": 20,
          "start": 1121
        },
        {
          "length": 20,
          "start": 1816
        },
        {
          "length": 20,
          "start": 2632
        },
        {
          "length": 20,
          "start": 3160
        },
        {
          "length": 20,
          "start": 8641
        },
        {
          "length": 20,
          "start": 11503
        }
      ]
    }
  }
}