{"abi":[{"type":"receive","stateMutability":"payable"},{"type":"function","name":"batchCreateOrderRequest","inputs":[{"name":"params","type":"tuple[]","internalType":"struct IOrder.PlaceOrderParams[]","components":[{"name":"symbol","type":"bytes32","internalType":"bytes32"},{"name":"isCrossMargin","type":"bool","internalType":"bool"},{"name":"isNativeToken","type":"bool","internalType":"bool"},{"name":"orderSide","type":"uint8","internalType":"enum Order.Side"},{"name":"posSide","type":"uint8","internalType":"enum Order.PositionSide"},{"name":"orderType","type":"uint8","internalType":"enum Order.Type"},{"name":"stopType","type":"uint8","internalType":"enum Order.StopType"},{"name":"marginToken","type":"address","internalType":"address"},{"name":"qty","type":"uint256","internalType":"uint256"},{"name":"orderMargin","type":"uint256","internalType":"uint256"},{"name":"leverage","type":"uint256","internalType":"uint256"},{"name":"triggerPrice","type":"uint256","internalType":"uint256"},{"name":"acceptablePrice","type":"uint256","internalType":"uint256"},{"name":"executionFee","type":"uint256","internalType":"uint256"},{"name":"placeTime","type":"uint256","internalType":"uint256"}]}],"outputs":[],"stateMutability":"payable"},{"type":"function","name":"cancelOrder","inputs":[{"name":"orderId","type":"uint256","internalType":"uint256"},{"name":"reasonCode","type":"bytes32","internalType":"bytes32"}],"outputs":[],"stateMutability":"nonpayable"},{"type":"function","name":"createOrderRequest","inputs":[{"name":"params","type":"tuple","internalType":"struct IOrder.PlaceOrderParams","components":[{"name":"symbol","type":"bytes32","internalType":"bytes32"},{"name":"isCrossMargin","type":"bool","internalType":"bool"},{"name":"isNativeToken","type":"bool","internalType":"bool"},{"name":"orderSide","type":"uint8","internalType":"enum Order.Side"},{"name":"posSide","type":"uint8","internalType":"enum Order.PositionSide"},{"name":"orderType","type":"uint8","internalType":"enum Order.Type"},{"name":"stopType","type":"uint8","internalType":"enum Order.StopType"},{"name":"marginToken","type":"address","internalType":"address"},{"name":"qty","type":"uint256","internalType":"uint256"},{"name":"orderMargin","type":"uint256","internalType":"uint256"},{"name":"leverage","type":"uint256","internalType":"uint256"},{"name":"triggerPrice","type":"uint256","internalType":"uint256"},{"name":"acceptablePrice","type":"uint256","internalType":"uint256"},{"name":"executionFee","type":"uint256","internalType":"uint256"},{"name":"placeTime","type":"uint256","internalType":"uint256"}]}],"outputs":[],"stateMutability":"payable"},{"type":"function","name":"executeOrder","inputs":[{"name":"orderId","type":"uint256","internalType":"uint256"},{"name":"oracles","type":"tuple[]","internalType":"struct OracleProcess.OracleParam[]","components":[{"name":"token","type":"address","internalType":"address"},{"name":"targetToken","type":"address","internalType":"address"},{"name":"minPrice","type":"int256","internalType":"int256"},{"name":"maxPrice","type":"int256","internalType":"int256"}]}],"outputs":[],"stateMutability":"nonpayable"},{"type":"function","name":"getAccountOrders","inputs":[{"name":"account","type":"address","internalType":"address"}],"outputs":[{"name":"result","type":"tuple[]","internalType":"struct IOrder.AccountOrder[]","components":[{"name":"orderId","type":"uint256","internalType":"uint256"},{"name":"orderInfo","type":"tuple","internalType":"struct Order.OrderInfo","components":[{"name":"account","type":"address","internalType":"address"},{"name":"symbol","type":"bytes32","internalType":"bytes32"},{"name":"orderSide","type":"uint8","internalType":"enum Order.Side"},{"name":"posSide","type":"uint8","internalType":"enum Order.PositionSide"},{"name":"orderType","type":"uint8","internalType":"enum Order.Type"},{"name":"stopType","type":"uint8","internalType":"enum Order.StopType"},{"name":"isCrossMargin","type":"bool","internalType":"bool"},{"name":"isExecutionFeeFromTradeVault","type":"bool","internalType":"bool"},{"name":"marginToken","type":"address","internalType":"address"},{"name":"qty","type":"uint256","internalType":"uint256"},{"name":"leverage","type":"uint256","internalType":"uint256"},{"name":"orderMargin","type":"uint256","internalType":"uint256"},{"name":"triggerPrice","type":"uint256","internalType":"uint256"},{"name":"acceptablePrice","type":"uint256","internalType":"uint256"},{"name":"placeTime","type":"uint256","internalType":"uint256"},{"name":"executionFee","type":"uint256","internalType":"uint256"},{"name":"lastBlock","type":"uint256","internalType":"uint256"}]}]}],"stateMutability":"view"},{"type":"error","name":"InvalidRoleAccess","inputs":[{"name":"account","type":"address","internalType":"address"},{"name":"role","type":"bytes32","internalType":"bytes32"}]},{"type":"error","name":"MarginModeError","inputs":[]},{"type":"error","name":"OnlyDecreaseOrderSupported","inputs":[]},{"type":"error","name":"OrderNotExists","inputs":[{"name":"orderId","type":"uint256","internalType":"uint256"}]}],"bytecode":{"object":"0x6080604052348015600f57600080fd5b50600160005561246d806100246000396000f3fe60806040526004361061004e5760003560e01c806322dabfa51461005a5780634b05360a1461007c57806389e74c0a1461008f57806395083527146100a2578063b68fb020146100d857600080fd5b3661005557005b600080fd5b34801561006657600080fd5b5061007a610075366004611be9565b6100f8565b005b61007a61008a366004611c68565b6105fd565b61007a61009d366004611c7b565b610897565b3480156100ae57600080fd5b506100c26100bd366004611d16565b610d07565b6040516100cf9190611e6e565b60405180910390f35b3480156100e457600080fd5b5061007a6100f3366004611ec8565b6111f7565b60005a905061010f6525a2a2a822a960d11b61186e565b604051634a83e9cd60e11b81526004810185905260009073__$dae973d11eac6f0d86f9fbea95214348fe$__90639507d39a90602401602060405180830381865af4158015610162573d6000803e3d6000fd5b505050506040513d601f19601f820116820180604052508101906101869190611eea565b604080516102208101825282546001600160a01b031681526001830154602082015260028084015491939284019160ff16908111156101c7576101c7611d33565b60028111156101d8576101d8611d33565b81526020016002820160019054906101000a900460ff16600281111561020057610200611d33565b600281111561021157610211611d33565b81526020016002820160029054906101000a900460ff16600381111561023957610239611d33565b600381111561024a5761024a611d33565b81526020016002820160039054906101000a900460ff16600281111561027257610272611d33565b600281111561028357610283611d33565b8152600282015460ff640100000000820481161515602084015265010000000000820416151560408301526001600160a01b03600160301b9091048116606083015260038301546080830152600483015460a0830152600583015460c0830152600683015460e0830152600783015461010083015260088301546101208301526009830154610140830152600a909201546101609091015281519192501661034657604051636f23541360e01b8152600481018690526024015b60405180910390fd5b604051631d4cb62f60e21b815273__$76a505dbd6210c6de5172a9e6577e0d579$__90637532d8bc9061037f9087908790600401611f03565b60006040518083038186803b15801561039757600080fd5b505af41580156103ab573d6000803e3d6000fd5b505060405163e51f1db160e01b815273__$85bbfda3b03f34ee6649d25e3b7e048595$__925063e51f1db191506103e89088908590600401611f7d565b60006040518083038186803b15801561040057600080fd5b505af4158015610414573d6000803e3d6000fd5b5050505073__$76a505dbd6210c6de5172a9e6577e0d579$__63e52ed3656040518163ffffffff1660e01b815260040160006040518083038186803b15801561045c57600080fd5b505af4158015610470573d6000803e3d6000fd5b5050505073__$1af6d17e273104ca3ca5016ca475f591a0$__634d4d56726040518060a001604052808460e0015161050957306001600160a01b0316631f7592ea6040518163ffffffff1660e01b8152600401602060405180830381865afa1580156104e0573d6000803e3d6000fd5b505050506040513d601f19601f820116820180604052508101906105049190611f9d565b61056b565b306001600160a01b03166397e7b7f26040518163ffffffff1660e01b8152600401602060405180830381865afa158015610547573d6000803e3d6000fd5b505050506040513d601f19601f8201168201806040525081019061056b9190611f9d565b6001600160a01b03168152602001846101e001518152602001858152602001336001600160a01b0316815260200184600001516001600160a01b03168152506040518263ffffffff1660e01b81526004016105c69190611fba565b60006040518083038186803b1580156105de57600080fd5b505af41580156105f2573d6000803e3d6000fd5b505050505050505050565b61060561189e565b33600161061860a0840160808501612015565b600281111561062957610629611d33565b1480156106435750610641604083016020840161204b565b155b1561079a57610658606083016040840161204b565b1580610668575081610120013534145b6106bf5760405162461bcd60e51b815260206004820152602260248201527f4465706f736974206e617469766520746f6b656e20616d6f756e74206572726f604482015261722160f01b606482015260840161033d565b73__$ae0937d060466c56d4bdd1eafaed47a473$__63ef59a9d16040518060a00160405280846001600160a01b031681526020018560e00160208101906107069190611d16565b6001600160a01b03168152610120860135602082015260400160018152602001610736606087016040880161204b565b15158152506040518263ffffffff1660e01b81526004016107579190612068565b602060405180830381865af4158015610774573d6000803e3d6000fd5b505050506040513d601f19601f820116820180604052508101906107989190611f9d565b505b60405163090788b560e31b81526001600160a01b038216600482015260009073__$a224e41da3178beb3af7fdcdf4ade93682$__9063483c45a890602401602060405180830381865af41580156107f5573d6000803e3d6000fd5b505050506040513d601f19601f820116820180604052508101906108199190611eea565b60405163207f6c9360e01b815290915073__$85bbfda3b03f34ee6649d25e3b7e048595$__9063207f6c939061085890849087906001906004016120c9565b60006040518083038186803b15801561087057600080fd5b505af4158015610884573d6000803e3d6000fd5b5050505050506108946001600055565b50565b61089f61189e565b60405163090788b560e31b815233600482018190529060009073__$a224e41da3178beb3af7fdcdf4ade93682$__9063483c45a890602401602060405180830381865af41580156108f4573d6000803e3d6000fd5b505050506040513d601f19601f820116820180604052508101906109189190611eea565b905060008073__$403afd1716c71ad05f9fd75974b23df554$__63606c0c946040518163ffffffff1660e01b815260040161012060405180830381865af4158015610967573d6000803e3d6000fd5b505050506040513d601f19601f8201168201806040525081019061098b9190612268565b90506000868660008181106109a2576109a26122ea565b90506101e0020160200160208101906109bb919061204b565b905060005b86811015610bbc5760018888838181106109dc576109dc6122ea565b90506101e0020160800160208101906109f59190612015565b6002811115610a0657610a06611d33565b03610a2457604051630af64c0b60e01b815260040160405180910390fd5b878782818110610a3657610a366122ea565b90506101e002016020016020810190610a4f919061204b565b151582151514610a7257604051632a61948760e01b815260040160405180910390fd5b73__$1af6d17e273104ca3ca5016ca475f591a0$__634b7bc681898984818110610a9e57610a9e6122ea565b90506101e002016101a0013585608001516040518363ffffffff1660e01b8152600401610ad5929190918252602082015260400190565b60006040518083038186803b158015610aed57600080fd5b505af4158015610b01573d6000803e3d6000fd5b5050505073__$85bbfda3b03f34ee6649d25e3b7e048595$__63207f6c93868a8a85818110610b3257610b326122ea565b90506101e0020160006040518463ffffffff1660e01b8152600401610b59939291906120c9565b60006040518083038186803b158015610b7157600080fd5b505af4158015610b85573d6000803e3d6000fd5b50505050878782818110610b9b57610b9b6122ea565b90506101e002016101a0013584610bb29190612300565b93506001016109c0565b50823414610c205760405162461bcd60e51b815260206004820152602b60248201527f426174636820706c616365206f72646572207769746820657865637574696f6e60448201526a20666565206572726f722160a81b606482015260840161033d565b6040805160a08101825285546001600160a01b039081168252845116602082015290810184905273__$ae0937d060466c56d4bdd1eafaed47a473$__9063ef59a9d1906060810184610c73576001610c76565b60005b6003811115610c8757610c87611d33565b815260016020909101526040516001600160e01b031960e084901b168152610cb29190600401612068565b602060405180830381865af4158015610ccf573d6000803e3d6000fd5b505050506040513d601f19601f82011682018060405250810190610cf39190611f9d565b505050505050610d036001600055565b5050565b604051630bd039cd60e21b81526001600160a01b038216600482015260609060009073__$a224e41da3178beb3af7fdcdf4ade93682$__90632f40e73490602401602060405180830381865af4158015610d65573d6000803e3d6000fd5b505050506040513d601f19601f82011682018060405250810190610d899190611eea565b604051637f80ceb160e01b81526004810182905290915073__$a224e41da3178beb3af7fdcdf4ade93682$__90637f80ceb190602401602060405180830381865af4158015610ddc573d6000803e3d6000fd5b505050506040513d601f19601f82011682018060405250810190610e009190612321565b156111f15760405163f075410d60e01b81526004810182905260009073__$a224e41da3178beb3af7fdcdf4ade93682$__9063f075410d90602401600060405180830381865af4158015610e58573d6000803e3d6000fd5b505050506040513d6000823e601f3d908101601f19168201604052610e80919081019061233e565b9050805167ffffffffffffffff811115610e9c57610e9c6121f7565b604051908082528060200260200182016040528015610ed557816020015b610ec2611b3e565b815260200190600190039081610eba5790505b509250600073__$dae973d11eac6f0d86f9fbea95214348fe$__6386d5c4be6040518163ffffffff1660e01b8152600401602060405180830381865af4158015610f23573d6000803e3d6000fd5b505050506040513d601f19601f82011682018060405250810190610f479190611eea565b905060005b82518110156111ed57828181518110610f6757610f676122ea565b6020026020010151858281518110610f8157610f816122ea565b602002602001015160000181815250508173__$dae973d11eac6f0d86f9fbea95214348fe$__63c000c8ee9091858481518110610fc057610fc06122ea565b60200260200101516040518363ffffffff1660e01b8152600401610fee929190918252602082015260400190565b602060405180830381865af415801561100b573d6000803e3d6000fd5b505050506040513d601f19601f8201168201806040525081019061102f9190611eea565b604080516102208101825282546001600160a01b031681526001830154602082015260028084015491939284019160ff169081111561107057611070611d33565b600281111561108157611081611d33565b81526020016002820160019054906101000a900460ff1660028111156110a9576110a9611d33565b60028111156110ba576110ba611d33565b81526020016002820160029054906101000a900460ff1660038111156110e2576110e2611d33565b60038111156110f3576110f3611d33565b81526020016002820160039054906101000a900460ff16600281111561111b5761111b611d33565b600281111561112c5761112c611d33565b8152600282015460ff640100000000820481161515602084015265010000000000820416151560408301526001600160a01b03600160301b90910416606082015260038201546080820152600482015460a0820152600582015460c0820152600682015460e0820152600782015461010082015260088201546101208201526009820154610140820152600a909101546101609091015285518690839081106111d7576111d76122ea565b6020908102919091018101510152600101610f4c565b5050505b50919050565b60005a604051634a83e9cd60e11b81526004810185905290915060009073__$dae973d11eac6f0d86f9fbea95214348fe$__90639507d39a90602401602060405180830381865af4158015611250573d6000803e3d6000fd5b505050506040513d601f19601f820116820180604052508101906112749190611eea565b604080516102208101825282546001600160a01b031681526001830154602082015260028084015491939284019160ff16908111156112b5576112b5611d33565b60028111156112c6576112c6611d33565b81526020016002820160019054906101000a900460ff1660028111156112ee576112ee611d33565b60028111156112ff576112ff611d33565b81526020016002820160029054906101000a900460ff16600381111561132757611327611d33565b600381111561133857611338611d33565b81526020016002820160039054906101000a900460ff16600281111561136057611360611d33565b600281111561137157611371611d33565b8152600282015460ff640100000000820481161515602084015265010000000000820416151560408301526001600160a01b03600160301b9091048116606083015260038301546080830152600483015460a0830152600583015460c0830152600683015460e0830152600783015461010083015260088301546101208301526009830154610140830152600a909201546101609091015281519192501661142f57604051636f23541360e01b81526004810185905260240161033d565b60006114436525a2a2a822a960d11b6118f7565b90508015801561145d575081516001600160a01b03163314155b1561147e57604051636f23541360e01b81526004810186905260240161033d565b60405163d7ffe5cf60e01b815273__$565ffadca00a7be65c5aa9c02d7c9d80a4$__9063d7ffe5cf906114b9908890869089906004016123e4565b60006040518083038186803b1580156114d157600080fd5b505af41580156114e5573d6000803e3d6000fd5b5050505080156116765773__$1af6d17e273104ca3ca5016ca475f591a0$__634d4d56726040518060a001604052808560e0015161158457306001600160a01b0316631f7592ea6040518163ffffffff1660e01b8152600401602060405180830381865afa15801561155b573d6000803e3d6000fd5b505050506040513d601f19601f8201168201806040525081019061157f9190611f9d565b6115e6565b306001600160a01b03166397e7b7f26040518163ffffffff1660e01b8152600401602060405180830381865afa1580156115c2573d6000803e3d6000fd5b505050506040513d601f19601f820116820180604052508101906115e69190611f9d565b6001600160a01b03168152602001856101e001518152602001868152602001336001600160a01b0316815260200185600001516001600160a01b03168152506040518263ffffffff1660e01b81526004016116419190611fba565b60006040518083038186803b15801561165957600080fd5b505af415801561166d573d6000803e3d6000fd5b50505050611867565b73__$8526888d218a843cc53a77a3ceb13f6b1f$__6385e2b8808360e0015161170057306001600160a01b0316631f7592ea6040518163ffffffff1660e01b8152600401602060405180830381865afa1580156116d7573d6000803e3d6000fd5b505050506040513d601f19601f820116820180604052508101906116fb9190611f9d565b611762565b306001600160a01b03166397e7b7f26040518163ffffffff1660e01b8152600401602060405180830381865afa15801561173e573d6000803e3d6000fd5b505050506040513d601f19601f820116820180604052508101906117629190611f9d565b73__$403afd1716c71ad05f9fd75974b23df554$__63606c0c946040518163ffffffff1660e01b815260040161012060405180830381865af41580156117ac573d6000803e3d6000fd5b505050506040513d601f19601f820116820180604052508101906117d09190612268565b516101e086015160405160e085901b6001600160e01b03191681526001600160a01b0393841660048201529290911660248301523060448301526064820152608401602060405180830381865af415801561182f573d6000803e3d6000fd5b505050506040513d601f19601f820116820180604052508101906118539190612321565b506118678260000151836101e00151611909565b5050505050565b61187833826119e6565b61089457604051632d7d0e0d60e21b81523360048201526024810182905260440161033d565b6002600054036118f05760405162461bcd60e51b815260206004820152601f60248201527f5265656e7472616e637947756172643a207265656e7472616e742063616c6c00604482015260640161033d565b6002600055565b600061190333836119e6565b92915050565b600073__$403afd1716c71ad05f9fd75974b23df554$__63606c0c946040518163ffffffff1660e01b815260040161012060405180830381865af4158015611955573d6000803e3d6000fd5b505050506040513d601f19601f820116820180604052508101906119799190612268565b51604051632e1a7d4d60e01b8152600481018490529091506001600160a01b03821690632e1a7d4d90602401600060405180830381600087803b1580156119bf57600080fd5b505af11580156119d3573d6000803e3d6000fd5b505050506119e18383611a1e565b505050565b6000806119f1611ac1565b6001600160a01b0385166000908152602082905260409020909150611a169084611b23565b949350505050565b604080516000808252602082019092526001600160a01b038416908390604051611a489190612408565b60006040518083038185875af1925050503d8060008114611a85576040519150601f19603f3d011682016040523d82523d6000602084013e611a8a565b606091505b50509050806119e15760405162461bcd60e51b815260206004820152600360248201526253544560e81b604482015260640161033d565b600080604051602001611b05906020808252601e908201527f78797a2e656c66692e73746f726167652e416363657373436f6e74726f6c0000604082015260600190565b60408051601f19818403018152919052805160209091012092915050565b600081815260018301602052604081205415155b9392505050565b604051806040016040528060008152602001611be460408051610220810182526000808252602082018190529091820190815260200160008152602001600081526020016000815260200160001515815260200160001515815260200160006001600160a01b0316815260200160008152602001600081526020016000815260200160008152602001600081526020016000815260200160008152602001600081525090565b905290565b600080600060408486031215611bfe57600080fd5b83359250602084013567ffffffffffffffff80821115611c1d57600080fd5b818601915086601f830112611c3157600080fd5b813581811115611c4057600080fd5b8760208260071b8501011115611c5557600080fd5b6020830194508093505050509250925092565b60006101e082840312156111f157600080fd5b60008060208385031215611c8e57600080fd5b823567ffffffffffffffff80821115611ca657600080fd5b818501915085601f830112611cba57600080fd5b813581811115611cc957600080fd5b8660206101e083028501011115611cdf57600080fd5b60209290920196919550909350505050565b6001600160a01b038116811461089457600080fd5b8035611d1181611cf1565b919050565b600060208284031215611d2857600080fd5b8135611b3781611cf1565b634e487b7160e01b600052602160045260246000fd5b60038110611d5957611d59611d33565b9052565b6004811061089457610894611d33565b611d5981611d5d565b80516001600160a01b03168252602081015160208301526040810151611d9f6040840182611d49565b506060810151611db26060840182611d49565b506080810151611dc56080840182611d6d565b5060a0810151611dd860a0840182611d49565b5060c0810151611dec60c084018215159052565b5060e0810151611e0060e084018215159052565b50610100818101516001600160a01b03169083015261012080820151908301526101408082015190830152610160808201519083015261018080820151908301526101a080820151908301526101c080820151908301526101e0808201519083015261020090810151910152565b6020808252825182820181905260009190848201906040850190845b81811015611ebc57835180518452850151611ea786850182611d76565b50928401926102409290920191600101611e8a565b50909695505050505050565b60008060408385031215611edb57600080fd5b50508035926020909101359150565b600060208284031215611efc57600080fd5b5051919050565b6020808252818101839052600090604080840186845b87811015611f70578135611f2c81611cf1565b6001600160a01b0390811684528286013590611f4782611cf1565b168386015281840135848401526060808301359084015260809283019290910190600101611f19565b5090979650505050505050565b8281526102408101611b376020830184611d76565b8051611d1181611cf1565b600060208284031215611faf57600080fd5b8151611b3781611cf1565b81516001600160a01b0390811682526020808401519083015260408084015190830152606080840151821690830152608092830151169181019190915260a00190565b6003811061089457600080fd5b8035611d1181611ffd565b60006020828403121561202757600080fd5b8135611b3781611ffd565b801515811461089457600080fd5b8035611d1181612032565b60006020828403121561205d57600080fd5b8135611b3781612032565b81516001600160a01b0390811682526020808401519091169082015260408083015190820152606082015160a08201906120a181611d5d565b8060608401525060808301511515608083015292915050565b803560048110611d1157600080fd5b600061022082019050848252833560208301526120e860208501612040565b8015156040840152506120fd60408501612040565b8015156060840152506121126060850161200a565b61211f6080840182611d49565b5061212c6080850161200a565b61213960a0840182611d49565b5061214660a085016120ba565b61215360c0840182611d6d565b5061216060c0850161200a565b61216d60e0840182611d49565b5061217a60e08501611d06565b610100612191818501836001600160a01b03169052565b61012091508086013582850152506101408186013581850152610160915080860135828501525061018081860135818501526101a091508086013582850152506101c08186013581850152808601356101e08501525050611a1661020083018415159052565b634e487b7160e01b600052604160045260246000fd5b604051610120810167ffffffffffffffff81118282101715612231576122316121f7565b60405290565b604051601f8201601f1916810167ffffffffffffffff81118282101715612260576122606121f7565b604052919050565b6000610120828403121561227b57600080fd5b61228361220d565b61228c83611f92565b81526020830151602082015260408301516040820152606083015160608201526080830151608082015260a083015160a082015260c083015160c082015260e083015160e08201526101008084015181830152508091505092915050565b634e487b7160e01b600052603260045260246000fd5b8082018082111561190357634e487b7160e01b600052601160045260246000fd5b60006020828403121561233357600080fd5b8151611b3781612032565b6000602080838503121561235157600080fd5b825167ffffffffffffffff8082111561236957600080fd5b818501915085601f83011261237d57600080fd5b81518181111561238f5761238f6121f7565b8060051b91506123a0848301612237565b81815291830184019184810190888411156123ba57600080fd5b938501935b838510156123d8578451825293850193908501906123bf565b98975050505050505050565b83815261026081016123f96020830185611d76565b82610240830152949350505050565b6000825160005b81811015612429576020818601810151858301520161240f565b50600092019182525091905056fea264697066735822122006b8eec03072401a354537a2014c7fe54761559620d1d35838bf40d5b329b0b464736f6c63430008190033","linkReferences":{"contracts/process/AssetsProcess.sol":{"AssetsProcess":[{"start":1765,"length":20},{"start":3181,"length":20}]},"contracts/process/CancelOrderProcess.sol":{"CancelOrderProcess":[{"start":5297,"length":20}]},"contracts/process/GasProcess.sol":{"GasProcess":[{"start":1178,"length":20},{"start":2712,"length":20},{"start":5397,"length":20}]},"contracts/process/OracleProcess.sol":{"OracleProcess":[{"start":889,"length":20},{"start":1086,"length":20}]},"contracts/process/OrderProcess.sol":{"OrderProcess":[{"start":992,"length":20},{"start":2127,"length":20},{"start":2859,"length":20}]},"contracts/process/VaultProcess.sol":{"VaultProcess":[{"start":5788,"length":20}]},"contracts/storage/Account.sol":{"Account":[{"start":2015,"length":20},{"start":2270,"length":20},{"start":3407,"length":20},{"start":3526,"length":20},{"start":3650,"length":20}]},"contracts/storage/AppConfig.sol":{"AppConfig":[{"start":2371,"length":20},{"start":6024,"length":20},{"start":6449,"length":20}]},"contracts/storage/Order.sol":{"Order":[{"start":332,"length":20},{"start":3840,"length":20},{"start":4024,"length":20},{"start":4666,"length":20}]}}},"methodIdentifiers":{"batchCreateOrderRequest((bytes32,bool,bool,uint8,uint8,uint8,uint8,address,uint256,uint256,uint256,uint256,uint256,uint256,uint256)[])":"89e74c0a","cancelOrder(uint256,bytes32)":"b68fb020","createOrderRequest((bytes32,bool,bool,uint8,uint8,uint8,uint8,address,uint256,uint256,uint256,uint256,uint256,uint256,uint256))":"4b05360a","executeOrder(uint256,(address,address,int256,int256)[])":"22dabfa5","getAccountOrders(address)":"95083527"},"id":11}