{"abi":[{"type":"function","name":"cancelClaimRewards","inputs":[{"name":"requestId","type":"uint256","internalType":"uint256"},{"name":"reasonCode","type":"bytes32","internalType":"bytes32"}],"outputs":[],"stateMutability":"nonpayable"},{"type":"function","name":"createClaimRewards","inputs":[{"name":"claimUsdToken","type":"address","internalType":"address"},{"name":"executionFee","type":"uint256","internalType":"uint256"}],"outputs":[],"stateMutability":"payable"},{"type":"function","name":"distributeFeeRewards","inputs":[{"name":"interval","type":"uint256","internalType":"uint256"},{"name":"oracles","type":"tuple[]","internalType":"struct OracleProcess.OracleParam[]","components":[{"name":"token","type":"address","internalType":"address"},{"name":"targetToken","type":"address","internalType":"address"},{"name":"minPrice","type":"int256","internalType":"int256"},{"name":"maxPrice","type":"int256","internalType":"int256"}]}],"outputs":[],"stateMutability":"nonpayable"},{"type":"function","name":"executeClaimRewards","inputs":[{"name":"requestId","type":"uint256","internalType":"uint256"},{"name":"oracles","type":"tuple[]","internalType":"struct OracleProcess.OracleParam[]","components":[{"name":"token","type":"address","internalType":"address"},{"name":"targetToken","type":"address","internalType":"address"},{"name":"minPrice","type":"int256","internalType":"int256"},{"name":"maxPrice","type":"int256","internalType":"int256"}]}],"outputs":[],"stateMutability":"nonpayable"},{"type":"function","name":"getAccountFeeRewards","inputs":[{"name":"account","type":"address","internalType":"address"}],"outputs":[{"name":"","type":"tuple","internalType":"struct IFee.AccountFeeRewards","components":[{"name":"account","type":"address","internalType":"address"},{"name":"stakeTokens","type":"address[]","internalType":"address[]"},{"name":"tokens","type":"address[]","internalType":"address[]"},{"name":"rewards","type":"uint256[]","internalType":"uint256[]"}]}],"stateMutability":"view"},{"type":"function","name":"getAccountUsdFeeReward","inputs":[{"name":"account","type":"address","internalType":"address"}],"outputs":[{"name":"","type":"tuple","internalType":"struct IFee.AccountUsdFeeReward","components":[{"name":"account","type":"address","internalType":"address"},{"name":"stakeToken","type":"address","internalType":"address"},{"name":"reward","type":"uint256","internalType":"uint256"}]}],"stateMutability":"view"},{"type":"function","name":"getAccountsFeeRewards","inputs":[{"name":"accounts","type":"address[]","internalType":"address[]"}],"outputs":[{"name":"","type":"tuple[]","internalType":"struct IFee.AccountFeeRewards[]","components":[{"name":"account","type":"address","internalType":"address"},{"name":"stakeTokens","type":"address[]","internalType":"address[]"},{"name":"tokens","type":"address[]","internalType":"address[]"},{"name":"rewards","type":"uint256[]","internalType":"uint256[]"}]}],"stateMutability":"view"},{"type":"function","name":"getCumulativeRewardsPerStakeToken","inputs":[{"name":"stakeToken","type":"address","internalType":"address"}],"outputs":[{"name":"","type":"uint256","internalType":"uint256"}],"stateMutability":"view"},{"type":"function","name":"getDaoTokenFee","inputs":[{"name":"stakeToken","type":"address","internalType":"address"},{"name":"token","type":"address","internalType":"address"}],"outputs":[{"name":"","type":"uint256","internalType":"uint256"}],"stateMutability":"view"},{"type":"function","name":"getMarketTokenFee","inputs":[{"name":"symbol","type":"bytes32","internalType":"bytes32"},{"name":"token","type":"address","internalType":"address"}],"outputs":[{"name":"","type":"uint256","internalType":"uint256"}],"stateMutability":"view"},{"type":"function","name":"getPoolTokenFee","inputs":[{"name":"stakeToken","type":"address","internalType":"address"},{"name":"token","type":"address","internalType":"address"}],"outputs":[{"name":"","type":"uint256","internalType":"uint256"}],"stateMutability":"view"},{"type":"function","name":"getStakingTokenFee","inputs":[{"name":"stakeToken","type":"address","internalType":"address"},{"name":"token","type":"address","internalType":"address"}],"outputs":[{"name":"","type":"uint256","internalType":"uint256"}],"stateMutability":"view"},{"type":"error","name":"ClaimRewardsRequestNotExists","inputs":[]},{"type":"error","name":"InvalidRoleAccess","inputs":[{"name":"account","type":"address","internalType":"address"},{"name":"role","type":"bytes32","internalType":"bytes32"}]}],"bytecode":{"object":"0x6080604052348015600f57600080fd5b506116818061001f6000396000f3fe6080604052600436106100a75760003560e01c8063943144b711610064578063943144b71461019b578063ada56365146101ae578063b9ee8073146101db578063bc8f47c5146101fb578063e9e6741f1461021b578063ed3bb1471461023b57600080fd5b806351ebcaad146100ac57806355be18cb146100df5780635b9e52be146100ff5780635c99abaa1461012c5780637ad18303146101595780639084692c14610179575b600080fd5b3480156100b857600080fd5b506100cc6100c7366004610f20565b61025b565b6040519081526020015b60405180910390f35b3480156100eb57600080fd5b506100cc6100fa366004610f20565b6102ec565b34801561010b57600080fd5b5061011f61011a366004610f59565b610337565b6040516100d691906110a1565b34801561013857600080fd5b5061014c610147366004611105565b6104a1565b6040516100d69190611150565b34801561016557600080fd5b506100cc610174366004611105565b610536565b34801561018557600080fd5b5061019961019436600461115e565b6105b5565b005b6101996101a93660046111dd565b6108b4565b3480156101ba57600080fd5b506101ce6101c9366004611105565b610930565b6040516100d69190611209565b3480156101e757600080fd5b506100cc6101f6366004610f20565b6109e4565b34801561020757600080fd5b506100cc61021636600461121c565b610a2f565b34801561022757600080fd5b5061019961023636600461115e565b610a79565b34801561024757600080fd5b50610199610256366004611241565b610c22565b60405163194a973560e21b81526001600160a01b0380841660048301528216602482015260009073__$eaa0fd6d176dd52c80a742532ca70916cb$__9063652a5cd4906044015b602060405180830381865af41580156102bf573d6000803e3d6000fd5b505050506040513d601f19601f820116820180604052508101906102e39190611263565b90505b92915050565b6040516355be18cb60e01b81526001600160a01b0380841660048301528216602482015260009073__$eaa0fd6d176dd52c80a742532ca70916cb$__906355be18cb906044016102a2565b606060008267ffffffffffffffff8111156103545761035461127c565b6040519080825280602002602001820160405280156103b957816020015b6103a6604051806080016040528060006001600160a01b031681526020016060815260200160608152602001606081525090565b8152602001906001900390816103725790505b50905060005b838110156104995773__$eaa0fd6d176dd52c80a742532ca70916cb$__63ada563658686848181106103f3576103f3611292565b90506020020160208101906104089190611105565b6040516001600160e01b031960e084901b1681526001600160a01b039091166004820152602401600060405180830381865af415801561044c573d6000803e3d6000fd5b505050506040513d6000823e601f3d908101601f191682016040526104749190810190611393565b82828151811061048657610486611292565b60209081029190910101526001016103bf565b509392505050565b60408051606081018252600080825260208201819052818301529051632e4cd5d560e11b81526001600160a01b038316600482015273__$eaa0fd6d176dd52c80a742532ca70916cb$__90635c99abaa90602401606060405180830381865af4158015610512573d6000803e3d6000fd5b505050506040513d601f19601f820116820180604052508101906102e6919061151f565b604051637ad1830360e01b81526001600160a01b038216600482015260009073__$eaa0fd6d176dd52c80a742532ca70916cb$__90637ad1830390602401602060405180830381865af4158015610591573d6000803e3d6000fd5b505050506040513d601f19601f820116820180604052508101906102e69190611263565b60005a90506105cc6525a2a2a822a960d11b610e27565b604051634a83e9cd60e11b81526004810185905260009073__$095819442e458250d76ad84988a16a5b96$__90639507d39a90602401606060405180830381865af415801561061f573d6000803e3d6000fd5b505050506040513d601f19601f82011682018060405250810190610643919061151f565b80519091506001600160a01b031661066e57604051630749e2d560e11b815260040160405180910390fd5b604051631d4cb62f60e21b815273__$76a505dbd6210c6de5172a9e6577e0d579$__90637532d8bc906106a7908790879060040161153b565b60006040518083038186803b1580156106bf57600080fd5b505af41580156106d3573d6000803e3d6000fd5b5050604051633802c05360e01b815273__$715b722fdebdeacbda8f3f3d9490405573$__9250633802c053915061071090889085906004016115b5565b60006040518083038186803b15801561072857600080fd5b505af415801561073c573d6000803e3d6000fd5b5050505073__$76a505dbd6210c6de5172a9e6577e0d579$__63e52ed3656040518163ffffffff1660e01b815260040160006040518083038186803b15801561078457600080fd5b505af4158015610798573d6000803e3d6000fd5b5050505073__$1af6d17e273104ca3ca5016ca475f591a0$__634d4d56726040518060a00160405280306001600160a01b0316631f7592ea6040518163ffffffff1660e01b8152600401602060405180830381865afa1580156107ff573d6000803e3d6000fd5b505050506040513d601f19601f8201168201806040525081019061082391906115c9565b6001600160a01b0316815260200184604001518152602001858152602001336001600160a01b0316815260200184600001516001600160a01b03168152506040518263ffffffff1660e01b815260040161087d91906115e6565b60006040518083038186803b15801561089557600080fd5b505af41580156108a9573d6000803e3d6000fd5b505050505050505050565b6040516369479be960e01b81523360048201526001600160a01b03831660248201526044810182905273__$715b722fdebdeacbda8f3f3d9490405573$__906369479be99060640160006040518083038186803b15801561091457600080fd5b505af4158015610928573d6000803e3d6000fd5b505050505050565b610964604051806080016040528060006001600160a01b031681526020016060815260200160608152602001606081525090565b60405163ada5636560e01b81526001600160a01b038316600482015273__$eaa0fd6d176dd52c80a742532ca70916cb$__9063ada5636590602401600060405180830381865af41580156109bc573d6000803e3d6000fd5b505050506040513d6000823e601f3d908101601f191682016040526102e69190810190611393565b60405163b9ee807360e01b81526001600160a01b0380841660048301528216602482015260009073__$eaa0fd6d176dd52c80a742532ca70916cb$__9063b9ee8073906044016102a2565b60405163840ad0f160e01b8152600481018390526001600160a01b038216602482015260009073__$eaa0fd6d176dd52c80a742532ca70916cb$__9063840ad0f1906044016102a2565b60005a9050610a906525a2a2a822a960d11b610e27565b604051631d4cb62f60e21b815273__$76a505dbd6210c6de5172a9e6577e0d579$__90637532d8bc90610ac9908690869060040161153b565b60006040518083038186803b158015610ae157600080fd5b505af4158015610af5573d6000803e3d6000fd5b505060405163971b55b160e01b81526004810187905273__$277b694ed2611d6e10f27fb08fc050fd84$__925063971b55b1915060240160006040518083038186803b158015610b4457600080fd5b505af4158015610b58573d6000803e3d6000fd5b5050505073__$76a505dbd6210c6de5172a9e6577e0d579$__63e52ed3656040518163ffffffff1660e01b815260040160006040518083038186803b158015610ba057600080fd5b505af4158015610bb4573d6000803e3d6000fd5b50506040516307c43b6960e21b81526004810184905273__$1af6d17e273104ca3ca5016ca475f591a0$__9250631f10eda491506024015b60006040518083038186803b158015610c0457600080fd5b505af4158015610c18573d6000803e3d6000fd5b5050505050505050565b60005a9050610c396525a2a2a822a960d11b610e27565b604051634a83e9cd60e11b81526004810184905260009073__$095819442e458250d76ad84988a16a5b96$__90639507d39a90602401606060405180830381865af4158015610c8c573d6000803e3d6000fd5b505050506040513d601f19601f82011682018060405250810190610cb0919061151f565b80519091506001600160a01b0316610cdb57604051630749e2d560e11b815260040160405180910390fd5b60405163291cf96960e21b815273__$715b722fdebdeacbda8f3f3d9490405573$__9063a473e5a490610d1690879085908890600401611629565b60006040518083038186803b158015610d2e57600080fd5b505af4158015610d42573d6000803e3d6000fd5b5050505073__$1af6d17e273104ca3ca5016ca475f591a0$__634d4d56726040518060a00160405280306001600160a01b0316631f7592ea6040518163ffffffff1660e01b8152600401602060405180830381865afa158015610da9573d6000803e3d6000fd5b505050506040513d601f19601f82011682018060405250810190610dcd91906115c9565b6001600160a01b0316815260200184604001518152602001858152602001336001600160a01b0316815260200184600001516001600160a01b03168152506040518263ffffffff1660e01b8152600401610bec91906115e6565b610e313382610e5e565b610e5b57604051632d7d0e0d60e21b81523360048201526024810182905260440160405180910390fd5b50565b600080610e69610ea9565b6001600160a01b0385166000908152602082905260409020909150610ea19084600081815260018301602052604081205415156102e3565b949350505050565b600080604051602001610eed906020808252601e908201527f78797a2e656c66692e73746f726167652e416363657373436f6e74726f6c0000604082015260600190565b60408051601f19818403018152919052805160209091012092915050565b6001600160a01b0381168114610e5b57600080fd5b60008060408385031215610f3357600080fd5b8235610f3e81610f0b565b91506020830135610f4e81610f0b565b809150509250929050565b60008060208385031215610f6c57600080fd5b823567ffffffffffffffff80821115610f8457600080fd5b818501915085601f830112610f9857600080fd5b813581811115610fa757600080fd5b8660208260051b8501011115610fbc57600080fd5b60209290920196919550909350505050565b60008151808452602080850194506020840160005b838110156110085781516001600160a01b031687529582019590820190600101610fe3565b509495945050505050565b60018060a01b038151168252600060208083015160808286015261103a6080860182610fce565b9050604084015185820360408701526110538282610fce565b606086810151888303918901919091528051808352908501935060009250908401905b808310156110965783518252928401926001929092019190840190611076565b509695505050505050565b600060208083016020845280855180835260408601915060408160051b87010192506020870160005b828110156110f857603f198886030184526110e6858351611013565b945092850192908501906001016110ca565b5092979650505050505050565b60006020828403121561111757600080fd5b813561112281610f0b565b9392505050565b80516001600160a01b03908116835260208083015190911690830152604090810151910152565b606081016102e68284611129565b60008060006040848603121561117357600080fd5b83359250602084013567ffffffffffffffff8082111561119257600080fd5b818601915086601f8301126111a657600080fd5b8135818111156111b557600080fd5b8760208260071b85010111156111ca57600080fd5b6020830194508093505050509250925092565b600080604083850312156111f057600080fd5b82356111fb81610f0b565b946020939093013593505050565b6020815260006102e36020830184611013565b6000806040838503121561122f57600080fd5b823591506020830135610f4e81610f0b565b6000806040838503121561125457600080fd5b50508035926020909101359150565b60006020828403121561127557600080fd5b5051919050565b634e487b7160e01b600052604160045260246000fd5b634e487b7160e01b600052603260045260246000fd5b6040516080810167ffffffffffffffff811182821017156112cb576112cb61127c565b60405290565b604051601f8201601f1916810167ffffffffffffffff811182821017156112fa576112fa61127c565b604052919050565b600067ffffffffffffffff82111561131c5761131c61127c565b5060051b60200190565b600082601f83011261133757600080fd5b8151602061134c61134783611302565b6112d1565b8083825260208201915060208460051b87010193508684111561136e57600080fd5b602086015b8481101561109657805161138681610f0b565b8352918301918301611373565b600060208083850312156113a657600080fd5b825167ffffffffffffffff808211156113be57600080fd5b90840190608082870312156113d257600080fd5b6113da6112a8565b82516113e581610f0b565b815282840151828111156113f857600080fd5b61140488828601611326565b858301525060408301518281111561141b57600080fd5b61142788828601611326565b60408301525060608301518281111561143f57600080fd5b80840193505086601f84011261145457600080fd5b8251915061146461134783611302565b82815260059290921b8301840191848101908884111561148357600080fd5b938501935b838510156114a157845182529385019390850190611488565b6060830152509695505050505050565b6000606082840312156114c357600080fd5b6040516060810181811067ffffffffffffffff821117156114e6576114e661127c565b806040525080915082516114f981610f0b565b8152602083015161150981610f0b565b6020820152604092830151920191909152919050565b60006060828403121561153157600080fd5b6102e383836114b1565b6020808252818101839052600090604080840186845b878110156115a857813561156481610f0b565b6001600160a01b039081168452828601359061157f82610f0b565b168386015281840135848401526060808301359084015260809283019290910190600101611551565b5090979650505050505050565b828152608081016111226020830184611129565b6000602082840312156115db57600080fd5b815161112281610f0b565b81516001600160a01b0390811682526020808401519083015260408084015190830152606080840151821690830152608092830151169181019190915260a00190565b83815260a0810161163d6020830185611129565b82608083015294935050505056fea2646970667358221220cd1e18a2b6831ce0ea5cc733683e157a2dc522f92599d3967dc135fb5be733cb64736f6c63430008190033","linkReferences":{"contracts/process/ClaimRewardsProcess.sol":{"ClaimRewardsProcess":[{"start":1795,"length":20},{"start":2302,"length":20},{"start":3337,"length":20}]},"contracts/process/FeeQueryProcess.sol":{"FeeQueryProcess":[{"start":675,"length":20},{"start":820,"length":20},{"start":1000,"length":20},{"start":1271,"length":20},{"start":1398,"length":20},{"start":2465,"length":20},{"start":2604,"length":20},{"start":2678,"length":20}]},"contracts/process/FeeRewardsProcess.sol":{"FeeRewardsProcess":[{"start":2860,"length":20}]},"contracts/process/GasProcess.sol":{"GasProcess":[{"start":1981,"length":20},{"start":3051,"length":20},{"start":3431,"length":20}]},"contracts/process/OracleProcess.sol":{"OracleProcess":[{"start":1692,"length":20},{"start":1889,"length":20},{"start":2750,"length":20},{"start":2941,"length":20}]},"contracts/storage/ClaimRewards.sol":{"ClaimRewards":[{"start":1540,"length":20},{"start":3185,"length":20}]}}},"methodIdentifiers":{"cancelClaimRewards(uint256,bytes32)":"ed3bb147","createClaimRewards(address,uint256)":"943144b7","distributeFeeRewards(uint256,(address,address,int256,int256)[])":"e9e6741f","executeClaimRewards(uint256,(address,address,int256,int256)[])":"9084692c","getAccountFeeRewards(address)":"ada56365","getAccountUsdFeeReward(address)":"5c99abaa","getAccountsFeeRewards(address[])":"5b9e52be","getCumulativeRewardsPerStakeToken(address)":"7ad18303","getDaoTokenFee(address,address)":"b9ee8073","getMarketTokenFee(bytes32,address)":"bc8f47c5","getPoolTokenFee(address,address)":"51ebcaad","getStakingTokenFee(address,address)":"55be18cb"},"id":6}