{
  "_format": "hh-sol-artifact-1",
  "contractName": "Vault",
  "sourceName": "contracts/vault/Vault.sol",
  "abi": [
    {
      "inputs": [
        {
          "internalType": "address",
          "name": "admin",
          "type": "address"
        }
      ],
      "stateMutability": "nonpayable",
      "type": "constructor"
    },
    {
      "inputs": [
        {
          "internalType": "address",
          "name": "self",
          "type": "address"
        }
      ],
      "name": "AddressSelfNotSupported",
      "type": "error"
    },
    {
      "anonymous": false,
      "inputs": [
        {
          "indexed": true,
          "internalType": "bytes32",
          "name": "role",
          "type": "bytes32"
        },
        {
          "indexed": true,
          "internalType": "bytes32",
          "name": "previousAdminRole",
          "type": "bytes32"
        },
        {
          "indexed": true,
          "internalType": "bytes32",
          "name": "newAdminRole",
          "type": "bytes32"
        }
      ],
      "name": "RoleAdminChanged",
      "type": "event"
    },
    {
      "anonymous": false,
      "inputs": [
        {
          "indexed": true,
          "internalType": "bytes32",
          "name": "role",
          "type": "bytes32"
        },
        {
          "indexed": true,
          "internalType": "address",
          "name": "account",
          "type": "address"
        },
        {
          "indexed": true,
          "internalType": "address",
          "name": "sender",
          "type": "address"
        }
      ],
      "name": "RoleGranted",
      "type": "event"
    },
    {
      "anonymous": false,
      "inputs": [
        {
          "indexed": true,
          "internalType": "bytes32",
          "name": "role",
          "type": "bytes32"
        },
        {
          "indexed": true,
          "internalType": "address",
          "name": "account",
          "type": "address"
        },
        {
          "indexed": true,
          "internalType": "address",
          "name": "sender",
          "type": "address"
        }
      ],
      "name": "RoleRevoked",
      "type": "event"
    },
    {
      "inputs": [],
      "name": "ADMIN_ROLE",
      "outputs": [
        {
          "internalType": "bytes32",
          "name": "",
          "type": "bytes32"
        }
      ],
      "stateMutability": "view",
      "type": "function"
    },
    {
      "inputs": [],
      "name": "DEFAULT_ADMIN_ROLE",
      "outputs": [
        {
          "internalType": "bytes32",
          "name": "",
          "type": "bytes32"
        }
      ],
      "stateMutability": "view",
      "type": "function"
    },
    {
      "inputs": [
        {
          "internalType": "bytes32",
          "name": "role",
          "type": "bytes32"
        }
      ],
      "name": "getRoleAdmin",
      "outputs": [
        {
          "internalType": "bytes32",
          "name": "",
          "type": "bytes32"
        }
      ],
      "stateMutability": "view",
      "type": "function"
    },
    {
      "inputs": [
        {
          "internalType": "address",
          "name": "newAdmin",
          "type": "address"
        }
      ],
      "name": "grantAdmin",
      "outputs": [],
      "stateMutability": "nonpayable",
      "type": "function"
    },
    {
      "inputs": [
        {
          "internalType": "bytes32",
          "name": "role",
          "type": "bytes32"
        },
        {
          "internalType": "address",
          "name": "account",
          "type": "address"
        }
      ],
      "name": "grantRole",
      "outputs": [],
      "stateMutability": "nonpayable",
      "type": "function"
    },
    {
      "inputs": [
        {
          "internalType": "bytes32",
          "name": "role",
          "type": "bytes32"
        },
        {
          "internalType": "address",
          "name": "account",
          "type": "address"
        }
      ],
      "name": "hasRole",
      "outputs": [
        {
          "internalType": "bool",
          "name": "",
          "type": "bool"
        }
      ],
      "stateMutability": "view",
      "type": "function"
    },
    {
      "inputs": [
        {
          "internalType": "bytes32",
          "name": "role",
          "type": "bytes32"
        },
        {
          "internalType": "address",
          "name": "account",
          "type": "address"
        }
      ],
      "name": "renounceRole",
      "outputs": [],
      "stateMutability": "nonpayable",
      "type": "function"
    },
    {
      "inputs": [
        {
          "internalType": "address",
          "name": "admin",
          "type": "address"
        }
      ],
      "name": "revokeAdmin",
      "outputs": [],
      "stateMutability": "nonpayable",
      "type": "function"
    },
    {
      "inputs": [
        {
          "internalType": "bytes32",
          "name": "role",
          "type": "bytes32"
        },
        {
          "internalType": "address",
          "name": "account",
          "type": "address"
        }
      ],
      "name": "revokeRole",
      "outputs": [],
      "stateMutability": "nonpayable",
      "type": "function"
    },
    {
      "inputs": [
        {
          "internalType": "bytes4",
          "name": "interfaceId",
          "type": "bytes4"
        }
      ],
      "name": "supportsInterface",
      "outputs": [
        {
          "internalType": "bool",
          "name": "",
          "type": "bool"
        }
      ],
      "stateMutability": "view",
      "type": "function"
    },
    {
      "inputs": [
        {
          "internalType": "address",
          "name": "token",
          "type": "address"
        },
        {
          "internalType": "address",
          "name": "receiver",
          "type": "address"
        },
        {
          "internalType": "uint256",
          "name": "amount",
          "type": "uint256"
        }
      ],
      "name": "transferOut",
      "outputs": [],
      "stateMutability": "nonpayable",
      "type": "function"
    }
  ],
  "bytecode": "0x608060405234801561001057600080fd5b50604051610ebe380380610ebe83398101604081905261002f916100fe565b6100597fa49807205ce4d355092ef5a8a18f56e8913cf4a201fbe287825b095693c217758261005f565b5061012e565b6000828152602081815260408083206001600160a01b038516845290915290205460ff166100fa576000828152602081815260408083206001600160a01b03851684529091529020805460ff191660011790556100b93390565b6001600160a01b0316816001600160a01b0316837f2f8788117e7eff1d82e926ec794901d17c78024a50270940304540a733656f0d60405160405180910390a45b5050565b60006020828403121561011057600080fd5b81516001600160a01b038116811461012757600080fd5b9392505050565b610d818061013d6000396000f3fe608060405234801561001057600080fd5b50600436106100c95760003560e01c806335bb3e161161008157806391d148541161005b57806391d14854146101af578063a217fddf146101f3578063d547741f146101fb57600080fd5b806335bb3e161461016257806336568abe1461017557806375b238fc1461018857600080fd5b8063248a9ca3116100b2578063248a9ca31461010b5780632d3456701461013c5780632f2ff15d1461014f57600080fd5b806301ffc9a7146100ce578063078d3b79146100f6575b600080fd5b6100e16100dc366004610a62565b61020e565b60405190151581526020015b60405180910390f35b610109610104366004610acd565b6102a7565b005b61012e610119366004610b09565b60009081526020819052604090206001015490565b6040519081526020016100ed565b61010961014a366004610b22565b6103e3565b61010961015d366004610b3d565b61043b565b610109610170366004610b22565b610465565b610109610183366004610b3d565b6104b9565b61012e7fa49807205ce4d355092ef5a8a18f56e8913cf4a201fbe287825b095693c2177581565b6100e16101bd366004610b3d565b60009182526020828152604080842073ffffffffffffffffffffffffffffffffffffffff93909316845291905290205460ff1690565b61012e600081565b610109610209366004610b3d565b610568565b60007fffffffff0000000000000000000000000000000000000000000000000000000082167f7965db0b0000000000000000000000000000000000000000000000000000000014806102a157507f01ffc9a7000000000000000000000000000000000000000000000000000000007fffffffff000000000000000000000000000000000000000000000000000000008316145b92915050565b7fa49807205ce4d355092ef5a8a18f56e8913cf4a201fbe287825b095693c217756102d18161058d565b3073ffffffffffffffffffffffffffffffffffffffff84160361033d576040517f8d6a597100000000000000000000000000000000000000000000000000000000815273ffffffffffffffffffffffffffffffffffffffff841660048201526024015b60405180910390fd5b6040517fbeabacc800000000000000000000000000000000000000000000000000000000815273ffffffffffffffffffffffffffffffffffffffff8086166004830152841660248201526044810183905273__$f9176b3899280ba309817d8ae5ba2e8b32$__9063beabacc89060640160006040518083038186803b1580156103c557600080fd5b505af41580156103d9573d6000803e3d6000fd5b5050505050505050565b7fa49807205ce4d355092ef5a8a18f56e8913cf4a201fbe287825b095693c2177561040d8161058d565b6104377fa49807205ce4d355092ef5a8a18f56e8913cf4a201fbe287825b095693c217758361059a565b5050565b6000828152602081905260409020600101546104568161058d565b6104608383610651565b505050565b7fa49807205ce4d355092ef5a8a18f56e8913cf4a201fbe287825b095693c2177561048f8161058d565b6104377fa49807205ce4d355092ef5a8a18f56e8913cf4a201fbe287825b095693c2177583610651565b73ffffffffffffffffffffffffffffffffffffffff8116331461055e576040517f08c379a000000000000000000000000000000000000000000000000000000000815260206004820152602f60248201527f416363657373436f6e74726f6c3a2063616e206f6e6c792072656e6f756e636560448201527f20726f6c657320666f722073656c6600000000000000000000000000000000006064820152608401610334565b610437828261059a565b6000828152602081905260409020600101546105838161058d565b610460838361059a565b6105978133610741565b50565b60008281526020818152604080832073ffffffffffffffffffffffffffffffffffffffff8516845290915290205460ff16156104375760008281526020818152604080832073ffffffffffffffffffffffffffffffffffffffff8516808552925280832080547fffffffffffffffffffffffffffffffffffffffffffffffffffffffffffffff0016905551339285917ff6391f5c32d9c69d2a47ea670b442974b53935d1edc7fd64eb21e047a839171b9190a45050565b60008281526020818152604080832073ffffffffffffffffffffffffffffffffffffffff8516845290915290205460ff166104375760008281526020818152604080832073ffffffffffffffffffffffffffffffffffffffff85168452909152902080547fffffffffffffffffffffffffffffffffffffffffffffffffffffffffffffff001660011790556106e33390565b73ffffffffffffffffffffffffffffffffffffffff168173ffffffffffffffffffffffffffffffffffffffff16837f2f8788117e7eff1d82e926ec794901d17c78024a50270940304540a733656f0d60405160405180910390a45050565b60008281526020818152604080832073ffffffffffffffffffffffffffffffffffffffff8516845290915290205460ff166104375761077f816107f9565b61078a836020610818565b60405160200161079b929190610b8d565b604080517fffffffffffffffffffffffffffffffffffffffffffffffffffffffffffffffe0818403018152908290527f08c379a000000000000000000000000000000000000000000000000000000000825261033491600401610c0e565b60606102a173ffffffffffffffffffffffffffffffffffffffff831660145b60606000610827836002610c8e565b610832906002610ca5565b67ffffffffffffffff81111561084a5761084a610cb8565b6040519080825280601f01601f191660200182016040528015610874576020820181803683370190505b5090507f3000000000000000000000000000000000000000000000000000000000000000816000815181106108ab576108ab610ce7565b60200101907effffffffffffffffffffffffffffffffffffffffffffffffffffffffffffff1916908160001a9053507f78000000000000000000000000000000000000000000000000000000000000008160018151811061090e5761090e610ce7565b60200101907effffffffffffffffffffffffffffffffffffffffffffffffffffffffffffff1916908160001a905350600061094a846002610c8e565b610955906001610ca5565b90505b60018111156109f2577f303132333435363738396162636465660000000000000000000000000000000085600f166010811061099657610996610ce7565b1a60f81b8282815181106109ac576109ac610ce7565b60200101907effffffffffffffffffffffffffffffffffffffffffffffffffffffffffffff1916908160001a90535060049490941c936109eb81610d16565b9050610958565b508315610a5b576040517f08c379a000000000000000000000000000000000000000000000000000000000815260206004820181905260248201527f537472696e67733a20686578206c656e67746820696e73756666696369656e746044820152606401610334565b9392505050565b600060208284031215610a7457600080fd5b81357fffffffff0000000000000000000000000000000000000000000000000000000081168114610a5b57600080fd5b803573ffffffffffffffffffffffffffffffffffffffff81168114610ac857600080fd5b919050565b600080600060608486031215610ae257600080fd5b610aeb84610aa4565b9250610af960208501610aa4565b9150604084013590509250925092565b600060208284031215610b1b57600080fd5b5035919050565b600060208284031215610b3457600080fd5b610a5b82610aa4565b60008060408385031215610b5057600080fd5b82359150610b6060208401610aa4565b90509250929050565b60005b83811015610b84578181015183820152602001610b6c565b50506000910152565b7f416363657373436f6e74726f6c3a206163636f756e7420000000000000000000815260008351610bc5816017850160208801610b69565b7f206973206d697373696e6720726f6c65200000000000000000000000000000006017918401918201528351610c02816028840160208801610b69565b01602801949350505050565b6020815260008251806020840152610c2d816040850160208701610b69565b601f017fffffffffffffffffffffffffffffffffffffffffffffffffffffffffffffffe0169190910160400192915050565b7f4e487b7100000000000000000000000000000000000000000000000000000000600052601160045260246000fd5b80820281158282048414176102a1576102a1610c5f565b808201808211156102a1576102a1610c5f565b7f4e487b7100000000000000000000000000000000000000000000000000000000600052604160045260246000fd5b7f4e487b7100000000000000000000000000000000000000000000000000000000600052603260045260246000fd5b600081610d2557610d25610c5f565b507fffffffffffffffffffffffffffffffffffffffffffffffffffffffffffffffff019056fea264697066735822122006e9adb49e5f749f976904edbd985a01d11aa6dded47d0e0b2d62e77075b1c8264736f6c63430008120033",
  "linkReferences": {
    "contracts/utils/TransferUtils.sol": {
      "TransferUtils": [
        {
          "length": 20,
          "start": 1229
        }
      ]
    }
  },
  "deployedLinkReferences": {
    "contracts/utils/TransferUtils.sol": {
      "TransferUtils": [
        {
          "length": 20,
          "start": 912
        }
      ]
    }
  }
}