{
  "_format": "hh-sol-artifact-1",
  "contractName": "Mint",
  "sourceName": "contracts/storage/Mint.sol",
  "abi": [
    {
      "inputs": [
        {
          "internalType": "uint256",
          "name": "requestId",
          "type": "uint256"
        }
      ],
      "name": "get",
      "outputs": [
        {
          "components": [
            {
              "internalType": "address",
              "name": "account",
              "type": "address"
            },
            {
              "internalType": "address",
              "name": "stakeToken",
              "type": "address"
            },
            {
              "internalType": "address",
              "name": "requestToken",
              "type": "address"
            },
            {
              "internalType": "uint256",
              "name": "requestTokenAmount",
              "type": "uint256"
            },
            {
              "internalType": "uint256",
              "name": "walletRequestTokenAmount",
              "type": "uint256"
            },
            {
              "internalType": "uint256",
              "name": "minStakeAmount",
              "type": "uint256"
            },
            {
              "internalType": "uint256",
              "name": "executionFee",
              "type": "uint256"
            },
            {
              "internalType": "bool",
              "name": "isCollateral",
              "type": "bool"
            },
            {
              "internalType": "bool",
              "name": "isExecutionFeeFromLpVault",
              "type": "bool"
            }
          ],
          "internalType": "struct Mint.Request",
          "name": "",
          "type": "tuple"
        }
      ],
      "stateMutability": "view",
      "type": "function"
    }
  ],
  "bytecode": "0x6103cd61003a600b82828239805160001a60731461002d57634e487b7160e01b600052600060045260246000fd5b30600052607381538281f3fe73000000000000000000000000000000000000000030146080604052600436106100565760003560e01c80634cc822151461005b578063780900dc1461007d57806386d5c4be146100a35780639507d39a146100ab575b600080fd5b81801561006757600080fd5b5061007b6100763660046102f5565b6100cb565b005b61009061008b3660046102f5565b610167565b6040519081526020015b60405180910390f35b610090610183565b6100be6100b93660046102f5565b610203565b60405161009a919061030e565b60006100d5610183565b6000928352602052506040812080547fffffffffffffffffffffffff00000000000000000000000000000000000000009081168255600182018054821690556002820180549091169055600381018290556004810182905560058101829055600681019190915560070180547fffffffffffffffffffffffffffffffffffffffffffffffffffffffffffff0000169055565b600080610172610183565b600093845260205250506040902090565b6000806040516020016101c79060208082526015908201527f78797a2e656c66692e73746f726167652e4d696e740000000000000000000000604082015260600190565b604080517fffffffffffffffffffffffffffffffffffffffffffffffffffffffffffffffe0818403018152919052805160209091012092915050565b6040805161012081018252600080825260208201819052918101829052606081018290526080810182905260a0810182905260c0810182905260e08101829052610100810182905290610254610183565b60009384526020908152604093849020845161012081018652815473ffffffffffffffffffffffffffffffffffffffff908116825260018301548116938201939093526002820154909216948201949094526003840154606082015260048401546080820152600584015460a0820152600684015460c082015260079093015460ff808216151560e086015261010091829004161515908401525090919050565b60006020828403121561030757600080fd5b5035919050565b815173ffffffffffffffffffffffffffffffffffffffff90811682526020808401518216908301526040808401519182169083015261012082019050606083015160608301526080830151608083015260a083015160a083015260c083015160c083015260e083015161038560e084018215159052565b5061010092830151151591909201529056fea26469706673582212200056ce17aa9fd2a0d8a7040ebbedd21f97553275ca0582bcf94ce24fde5471c964736f6c63430008120033",
  "linkReferences": {},
  "deployedLinkReferences": {}
}