{"abi":[{"type":"function","name":"autoReducePositions","inputs":[{"name":"positionKeys","type":"bytes32[]","internalType":"bytes32[]"}],"outputs":[],"stateMutability":"nonpayable"},{"type":"function","name":"cancelUpdateLeverageRequest","inputs":[{"name":"requestId","type":"uint256","internalType":"uint256"},{"name":"reasonCode","type":"bytes32","internalType":"bytes32"}],"outputs":[],"stateMutability":"nonpayable"},{"type":"function","name":"cancelUpdatePositionMarginRequest","inputs":[{"name":"requestId","type":"uint256","internalType":"uint256"},{"name":"reasonCode","type":"bytes32","internalType":"bytes32"}],"outputs":[],"stateMutability":"nonpayable"},{"type":"function","name":"createUpdateLeverageRequest","inputs":[{"name":"params","type":"tuple","internalType":"struct IPosition.UpdateLeverageParams","components":[{"name":"symbol","type":"bytes32","internalType":"bytes32"},{"name":"isLong","type":"bool","internalType":"bool"},{"name":"isNativeToken","type":"bool","internalType":"bool"},{"name":"isCrossMargin","type":"bool","internalType":"bool"},{"name":"leverage","type":"uint256","internalType":"uint256"},{"name":"marginToken","type":"address","internalType":"address"},{"name":"addMarginAmount","type":"uint256","internalType":"uint256"},{"name":"executionFee","type":"uint256","internalType":"uint256"}]}],"outputs":[],"stateMutability":"payable"},{"type":"function","name":"createUpdatePositionMarginRequest","inputs":[{"name":"params","type":"tuple","internalType":"struct IPosition.UpdatePositionMarginParams","components":[{"name":"positionKey","type":"bytes32","internalType":"bytes32"},{"name":"isAdd","type":"bool","internalType":"bool"},{"name":"isNativeToken","type":"bool","internalType":"bool"},{"name":"marginToken","type":"address","internalType":"address"},{"name":"updateMarginAmount","type":"uint256","internalType":"uint256"},{"name":"executionFee","type":"uint256","internalType":"uint256"}]}],"outputs":[],"stateMutability":"payable"},{"type":"function","name":"executeUpdateLeverageRequest","inputs":[{"name":"requestId","type":"uint256","internalType":"uint256"},{"name":"oracles","type":"tuple[]","internalType":"struct OracleProcess.OracleParam[]","components":[{"name":"token","type":"address","internalType":"address"},{"name":"targetToken","type":"address","internalType":"address"},{"name":"minPrice","type":"int256","internalType":"int256"},{"name":"maxPrice","type":"int256","internalType":"int256"}]}],"outputs":[],"stateMutability":"nonpayable"},{"type":"function","name":"executeUpdatePositionMarginRequest","inputs":[{"name":"requestId","type":"uint256","internalType":"uint256"},{"name":"oracles","type":"tuple[]","internalType":"struct OracleProcess.OracleParam[]","components":[{"name":"token","type":"address","internalType":"address"},{"name":"targetToken","type":"address","internalType":"address"},{"name":"minPrice","type":"int256","internalType":"int256"},{"name":"maxPrice","type":"int256","internalType":"int256"}]}],"outputs":[],"stateMutability":"nonpayable"},{"type":"function","name":"getAllPositions","inputs":[{"name":"account","type":"address","internalType":"address"}],"outputs":[{"name":"","type":"tuple[]","internalType":"struct IPosition.PositionInfo[]","components":[{"name":"position","type":"tuple","internalType":"struct Position.Props","components":[{"name":"key","type":"bytes32","internalType":"bytes32"},{"name":"symbol","type":"bytes32","internalType":"bytes32"},{"name":"isLong","type":"bool","internalType":"bool"},{"name":"isCrossMargin","type":"bool","internalType":"bool"},{"name":"account","type":"address","internalType":"address"},{"name":"marginToken","type":"address","internalType":"address"},{"name":"indexToken","type":"address","internalType":"address"},{"name":"qty","type":"uint256","internalType":"uint256"},{"name":"entryPrice","type":"uint256","internalType":"uint256"},{"name":"leverage","type":"uint256","internalType":"uint256"},{"name":"initialMargin","type":"uint256","internalType":"uint256"},{"name":"initialMarginInUsd","type":"uint256","internalType":"uint256"},{"name":"initialMarginInUsdFromBalance","type":"uint256","internalType":"uint256"},{"name":"holdPoolAmount","type":"uint256","internalType":"uint256"},{"name":"positionFee","type":"tuple","internalType":"struct Position.PositionFee","components":[{"name":"closeFeeInUsd","type":"uint256","internalType":"uint256"},{"name":"openBorrowingFeePerToken","type":"uint256","internalType":"uint256"},{"name":"realizedBorrowingFee","type":"uint256","internalType":"uint256"},{"name":"realizedBorrowingFeeInUsd","type":"uint256","internalType":"uint256"},{"name":"openFundingFeePerQty","type":"int256","internalType":"int256"},{"name":"realizedFundingFee","type":"int256","internalType":"int256"},{"name":"realizedFundingFeeInUsd","type":"int256","internalType":"int256"}]},{"name":"realizedPnl","type":"int256","internalType":"int256"},{"name":"lastUpdateTime","type":"uint256","internalType":"uint256"}]},{"name":"liquidationPrice","type":"uint256","internalType":"uint256"},{"name":"currentTimestamp","type":"uint256","internalType":"uint256"}]}],"stateMutability":"view"},{"type":"function","name":"getSinglePosition","inputs":[{"name":"account","type":"address","internalType":"address"},{"name":"symbol","type":"bytes32","internalType":"bytes32"},{"name":"marginToken","type":"address","internalType":"address"},{"name":"isCrossMargin","type":"bool","internalType":"bool"}],"outputs":[{"name":"","type":"tuple","internalType":"struct Position.Props","components":[{"name":"key","type":"bytes32","internalType":"bytes32"},{"name":"symbol","type":"bytes32","internalType":"bytes32"},{"name":"isLong","type":"bool","internalType":"bool"},{"name":"isCrossMargin","type":"bool","internalType":"bool"},{"name":"account","type":"address","internalType":"address"},{"name":"marginToken","type":"address","internalType":"address"},{"name":"indexToken","type":"address","internalType":"address"},{"name":"qty","type":"uint256","internalType":"uint256"},{"name":"entryPrice","type":"uint256","internalType":"uint256"},{"name":"leverage","type":"uint256","internalType":"uint256"},{"name":"initialMargin","type":"uint256","internalType":"uint256"},{"name":"initialMarginInUsd","type":"uint256","internalType":"uint256"},{"name":"initialMarginInUsdFromBalance","type":"uint256","internalType":"uint256"},{"name":"holdPoolAmount","type":"uint256","internalType":"uint256"},{"name":"positionFee","type":"tuple","internalType":"struct Position.PositionFee","components":[{"name":"closeFeeInUsd","type":"uint256","internalType":"uint256"},{"name":"openBorrowingFeePerToken","type":"uint256","internalType":"uint256"},{"name":"realizedBorrowingFee","type":"uint256","internalType":"uint256"},{"name":"realizedBorrowingFeeInUsd","type":"uint256","internalType":"uint256"},{"name":"openFundingFeePerQty","type":"int256","internalType":"int256"},{"name":"realizedFundingFee","type":"int256","internalType":"int256"},{"name":"realizedFundingFeeInUsd","type":"int256","internalType":"int256"}]},{"name":"realizedPnl","type":"int256","internalType":"int256"},{"name":"lastUpdateTime","type":"uint256","internalType":"uint256"}]}],"stateMutability":"pure"},{"type":"error","name":"AmountZeroNotAllowed","inputs":[]},{"type":"error","name":"InvalidRoleAccess","inputs":[{"name":"account","type":"address","internalType":"address"},{"name":"role","type":"bytes32","internalType":"bytes32"}]},{"type":"error","name":"LeverageInvalid","inputs":[{"name":"symbol","type":"bytes32","internalType":"bytes32"},{"name":"leverage","type":"uint256","internalType":"uint256"}]},{"type":"error","name":"OnlyIsolateSupported","inputs":[]},{"type":"error","name":"PositionNotExists","inputs":[]},{"type":"error","name":"SymbolNotExists","inputs":[]},{"type":"error","name":"SymbolStatusInvalid","inputs":[{"name":"symbol","type":"bytes32","internalType":"bytes32"}]},{"type":"error","name":"UpdateLeverageRequestNotExists","inputs":[]},{"type":"error","name":"UpdatePositionMarginRequestNotExists","inputs":[]}],"bytecode":{"object":"0x6080604052348015600f57600080fd5b506001600055613436806100246000396000f3fe6080604052600436106100865760003560e01c806374315647116100595780637431564714610123578063cb5c8d8114610136578063e606789b14610156578063fb11e96914610176578063fe1b7245146101a357600080fd5b806309fb7aac1461008b578063311be5f4146100ad57806341065c62146100cd57806359086dc914610103575b600080fd5b34801561009757600080fd5b506100ab6100a63660046127e0565b6101b6565b005b3480156100b957600080fd5b506100ab6100c8366004612855565b610578565b3480156100d957600080fd5b506100ed6100e8366004612912565b6108e8565b6040516100fa9190612aa3565b60405180910390f35b34801561010f57600080fd5b506100ab61011e366004612ab2565b610ac7565b6100ab610131366004612ad4565b610d3e565b34801561014257600080fd5b506100ab610151366004612855565b6112c4565b34801561016257600080fd5b506100ab610171366004612ab2565b6115fe565b34801561018257600080fd5b50610196610191366004612aed565b611874565b6040516100fa9190612b0a565b6100ab6101b1366004612b6f565b611cf0565b60005a90506101cd6525a2a2a822a960d11b612134565b604051631026392960e11b81527f8116fe254c434350c8a963d750885fee6b2213d5416ba4444044ed0bb91a725d600482015260009073__$1f6634ba11cc1ae886305aee292e3d3d68$__9063204c725290602401602060405180830381865af415801561023f573d6000803e3d6000fd5b505050506040513d601f19601f820116820180604052508101906102639190612b81565b905060005b8381101561050d57600073__$37e953c735ca981103e3546928ae79276f$__63f035079987878581811061029e5761029e612b9a565b905060200201356040518263ffffffff1660e01b81526004016102c391815260200190565b602060405180830381865af41580156102e0573d6000803e3d6000fd5b505050506040513d601f19601f820116820180604052508101906103049190612b81565b60405163a51dafc760e01b81526004810182905290915073__$37e953c735ca981103e3546928ae79276f$__9063a51dafc79060240160006040518083038186803b15801561035257600080fd5b505af4158015610366573d6000803e3d6000fd5b50506040805160e08101825286815260018501546020820152600081830152600285015460ff610100820481161515606084015260038701546001600160a01b039081166080850152600588015460a08501526004808901549551631a0994f560e01b81529590911690850152161515602483015273__$8a6942328533ff1a7954ae37c47aac250b$__9350635b9a574e9250849160c082019073__$76a505dbd6210c6de5172a9e6577e0d579$__90631a0994f590604401602060405180830381865af415801561043c573d6000803e3d6000fd5b505050506040513d601f19601f820116820180604052508101906104609190612b81565b9052604080516001600160e01b031960e086901b168152600481019390935281516024840152602082015160448401528101511515606483015260608101511515608483015260808101516001600160a01b031660a483015260a081015160c483015260c0015160e48201526101040160006040518083038186803b1580156104e857600080fd5b505af41580156104fc573d6000803e3d6000fd5b505060019093019250610268915050565b506040516307c43b6960e21b81526004810183905273__$1af6d17e273104ca3ca5016ca475f591a0$__90631f10eda4906024015b60006040518083038186803b15801561055a57600080fd5b505af415801561056e573d6000803e3d6000fd5b5050505050505050565b60005a905061058f6525a2a2a822a960d11b612134565b604051634a83e9cd60e11b81526004810185905260009073__$7cb1c1955038c1ee89159641ca86f25b85$__90639507d39a9060240161010060405180830381865af41580156105e3573d6000803e3d6000fd5b505050506040513d601f19601f820116820180604052508101906106079190612c7f565b80519091506001600160a01b03166106325760405163fd0b752360e01b815260040160405180910390fd5b604051631d4cb62f60e21b815273__$76a505dbd6210c6de5172a9e6577e0d579$__90637532d8bc9061066b9087908790600401612d10565b60006040518083038186803b15801561068357600080fd5b505af4158015610697573d6000803e3d6000fd5b505060405163ca7b4ab960e01b815273__$1f57ed0a0c01c58a7f0bc8f5acff836f64$__925063ca7b4ab991506106d49088908590600401612de8565b60006040518083038186803b1580156106ec57600080fd5b505af4158015610700573d6000803e3d6000fd5b5050505073__$76a505dbd6210c6de5172a9e6577e0d579$__63e52ed3656040518163ffffffff1660e01b815260040160006040518083038186803b15801561074857600080fd5b505af415801561075c573d6000803e3d6000fd5b5050505073__$1af6d17e273104ca3ca5016ca475f591a0$__634d4d56726040518060a001604052808460c001516107f557306001600160a01b0316631f7592ea6040518163ffffffff1660e01b8152600401602060405180830381865afa1580156107cc573d6000803e3d6000fd5b505050506040513d601f19601f820116820180604052508101906107f09190612dfd565b610857565b306001600160a01b03166397e7b7f26040518163ffffffff1660e01b8152600401602060405180830381865afa158015610833573d6000803e3d6000fd5b505050506040513d601f19601f820116820180604052508101906108579190612dfd565b6001600160a01b0316815260200184608001518152602001858152602001336001600160a01b0316815260200184600001516001600160a01b03168152506040518263ffffffff1660e01b81526004016108b19190612e1a565b60006040518083038186803b1580156108c957600080fd5b505af41580156108dd573d6000803e3d6000fd5b505050505050505050565b6108f06126e6565b60405163359c683b60e11b81526001600160a01b0380871660048301526024820186905284166044820152821515606482015273__$37e953c735ca981103e3546928ae79276f$__90636b38d07690608401602060405180830381865af415801561095f573d6000803e3d6000fd5b505050506040513d601f19601f820116820180604052508101906109839190612b81565b6040805161022081018252825481526001830154602080830191909152600284015460ff80821615158486015261010080830490911615156060808601919091526001600160a01b036201000090930483166080808701919091526003880154841660a080880191909152600489015490941660c080880191909152600589015460e08089019190915260068a015494880194909452600789015461012088015260088901546101408801526009890154610160880152600a890154610180880152600b8901546101a088015287519384018852600c8901548452600d89015495840195909552600e88015496830196909652600f870154908201526010860154948101949094526011850154908401526012840154908301526101c081019190915260138201546101e08201526014909101546102008201529050949350505050565b60005a9050610ade6525a2a2a822a960d11b612134565b604051634a83e9cd60e11b81526004810184905260009073__$535111eaeba9e619ebd6ca98edd99626b9$__90639507d39a9060240161014060405180830381865af4158015610b32573d6000803e3d6000fd5b505050506040513d601f19601f82011682018060405250810190610b569190612e5d565b80519091506001600160a01b0316610b815760405163093d047f60e21b815260040160405180910390fd5b60405163621467b360e11b815273__$1f57ed0a0c01c58a7f0bc8f5acff836f64$__9063c428cf6690610bbc90879085908890600401612f9d565b60006040518083038186803b158015610bd457600080fd5b505af4158015610be8573d6000803e3d6000fd5b5050505073__$1af6d17e273104ca3ca5016ca475f591a0$__634d4d56726040518060a001604052808460600151610c8157306001600160a01b0316631f7592ea6040518163ffffffff1660e01b8152600401602060405180830381865afa158015610c58573d6000803e3d6000fd5b505050506040513d601f19601f82011682018060405250810190610c7c9190612dfd565b610ce3565b306001600160a01b03166397e7b7f26040518163ffffffff1660e01b8152600401602060405180830381865afa158015610cbf573d6000803e3d6000fd5b505050506040513d601f19601f82011682018060405250810190610ce39190612dfd565b6001600160a01b031681526020018461010001518152602001858152602001336001600160a01b0316815260200184600001516001600160a01b03168152506040518263ffffffff1660e01b81526004016105429190612e1a565b60405163e1be37bd60e01b81528135600482015260009073__$c06d506426af55c412c71c91137196f65b$__9063e1be37bd9060240161010060405180830381865af4158015610d92573d6000803e3d6000fd5b505050506040513d601f19601f82011682018060405250810190610db69190612fc1565b60405163f035079960e01b81528335600482015290915060009073__$c1ae4f2fd189c456c923d4bac13705c722$__9063f035079990602401602060405180830381865af4158015610e0c573d6000803e3d6000fd5b505050506040513d601f19601f82011682018060405250810190610e309190612b81565b6040805160c08101909152815481526001820154909190602083019060ff166003811115610e6057610e60613030565b6003811115610e7157610e71613030565b815260018201546001600160a01b03610100909104811660208301526002830154811660408301526003830154166060820152600482018054608090920191610eb990613046565b80601f0160208091040260200160405190810160405280929190818152602001828054610ee590613046565b8015610f325780601f10610f0757610100808354040283529160200191610f32565b820191906000526020600020905b815481529060010190602001808311610f1557829003601f168201915b5050509190925250919250610f45915050565b600081602001516003811115610f5d57610f5d613030565b14610f83576040516303035c6f60e61b8152833560048201526024015b60405180910390fd5b815160808401351180610fa65750610f9f620186a06001613090565b8360800135105b15610fd157604051635c93c83760e01b81528335600482015260808401356024820152604401610f7a565b604051630bd039cd60e21b815233600482018190529060009073__$a224e41da3178beb3af7fdcdf4ade93682$__90632f40e73490602401602060405180830381865af4158015611026573d6000803e3d6000fd5b505050506040513d601f19601f8201168201806040525081019061104a9190612b81565b905060008560c0013511801561106d575061106b60808601606087016130a7565b155b1561123c5761108260608601604087016130a7565b158061109157508460c0013534145b6110d95760405162461bcd60e51b81526020600482015260196024820152784465706f7369742065746820616d6f756e74206572726f722160381b6044820152606401610f7a565b73__$ae0937d060466c56d4bdd1eafaed47a473$__63ef59a9d16040518060a00160405280856001600160a01b0316815260200188604001602081019061112091906130a7565b6111395761113460c08a0160a08b01612aed565b6111a9565b73__$403afd1716c71ad05f9fd75974b23df554$__63606c0c946040518163ffffffff1660e01b815260040161012060405180830381865af4158015611183573d6000803e3d6000fd5b505050506040513d601f19601f820116820180604052508101906111a791906130c4565b515b6001600160a01b0316815260c08901356020820152604001600181526020016111d860608a0160408b016130a7565b15158152506040518263ffffffff1660e01b81526004016111f99190613146565b602060405180830381865af4158015611216573d6000803e3d6000fd5b505050506040513d601f19601f8201168201806040525081019061123a9190612dfd565b505b6000806112498388612167565b604051637f4c94bd60e01b8152919350915073__$1f57ed0a0c01c58a7f0bc8f5acff836f64$__90637f4c94bd9061128b9087908b90879087906004016131ad565b60006040518083038186803b1580156112a357600080fd5b505af41580156112b7573d6000803e3d6000fd5b5050505050505050505050565b60005a90506112db6525a2a2a822a960d11b612134565b604051634a83e9cd60e11b81526004810185905260009073__$535111eaeba9e619ebd6ca98edd99626b9$__90639507d39a9060240161014060405180830381865af415801561132f573d6000803e3d6000fd5b505050506040513d601f19601f820116820180604052508101906113539190612e5d565b80519091506001600160a01b031661137e5760405163093d047f60e21b815260040160405180910390fd5b604051631d4cb62f60e21b815273__$76a505dbd6210c6de5172a9e6577e0d579$__90637532d8bc906113b79087908790600401612d10565b60006040518083038186803b1580156113cf57600080fd5b505af41580156113e3573d6000803e3d6000fd5b5050604051633fb2d04d60e21b815273__$1f57ed0a0c01c58a7f0bc8f5acff836f64$__925063fecb413491506114209088908590600401613265565b60006040518083038186803b15801561143857600080fd5b505af415801561144c573d6000803e3d6000fd5b5050505073__$76a505dbd6210c6de5172a9e6577e0d579$__63e52ed3656040518163ffffffff1660e01b815260040160006040518083038186803b15801561149457600080fd5b505af41580156114a8573d6000803e3d6000fd5b5050505073__$1af6d17e273104ca3ca5016ca475f591a0$__634d4d56726040518060a00160405280846060015161154157306001600160a01b0316631f7592ea6040518163ffffffff1660e01b8152600401602060405180830381865afa158015611518573d6000803e3d6000fd5b505050506040513d601f19601f8201168201806040525081019061153c9190612dfd565b6115a3565b306001600160a01b03166397e7b7f26040518163ffffffff1660e01b8152600401602060405180830381865afa15801561157f573d6000803e3d6000fd5b505050506040513d601f19601f820116820180604052508101906115a39190612dfd565b6001600160a01b031681526020018461010001518152602001858152602001336001600160a01b0316815260200184600001516001600160a01b03168152506040518263ffffffff1660e01b81526004016108b19190612e1a565b60005a90506116156525a2a2a822a960d11b612134565b604051634a83e9cd60e11b81526004810184905260009073__$7cb1c1955038c1ee89159641ca86f25b85$__90639507d39a9060240161010060405180830381865af4158015611669573d6000803e3d6000fd5b505050506040513d601f19601f8201168201806040525081019061168d9190612c7f565b80519091506001600160a01b03166116b85760405163fd0b752360e01b815260040160405180910390fd5b60405163b34f305f60e01b815273__$1f57ed0a0c01c58a7f0bc8f5acff836f64$__9063b34f305f906116f39087908590889060040161327a565b60006040518083038186803b15801561170b57600080fd5b505af415801561171f573d6000803e3d6000fd5b5050505073__$1af6d17e273104ca3ca5016ca475f591a0$__634d4d56726040518060a001604052808460c001516117b857306001600160a01b0316631f7592ea6040518163ffffffff1660e01b8152600401602060405180830381865afa15801561178f573d6000803e3d6000fd5b505050506040513d601f19601f820116820180604052508101906117b39190612dfd565b61181a565b306001600160a01b03166397e7b7f26040518163ffffffff1660e01b8152600401602060405180830381865afa1580156117f6573d6000803e3d6000fd5b505050506040513d601f19601f8201168201806040525081019061181a9190612dfd565b6001600160a01b0316815260200184608001518152602001858152602001336001600160a01b0316815260200184600001516001600160a01b03168152506040518263ffffffff1660e01b81526004016105429190612e1a565b604051630bd039cd60e21b81526001600160a01b038216600482015260609060009073__$a224e41da3178beb3af7fdcdf4ade93682$__90632f40e73490602401602060405180830381865af41580156118d2573d6000803e3d6000fd5b505050506040513d601f19601f820116820180604052508101906118f69190612b81565b604051637f80ceb160e01b81526004810182905290915073__$a224e41da3178beb3af7fdcdf4ade93682$__90637f80ceb190602401602060405180830381865af4158015611949573d6000803e3d6000fd5b505050506040513d601f19601f8201168201806040525081019061196d919061329e565b61197a5750606092915050565b6040516335cd115160e01b81526004810182905260009073__$a224e41da3178beb3af7fdcdf4ade93682$__906335cd115190602401600060405180830381865af41580156119cd573d6000803e3d6000fd5b505050506040513d6000823e601f3d908101601f191682016040526119f591908101906132bb565b90506000815167ffffffffffffffff811115611a1357611a13612bb0565b604051908082528060200260200182016040528015611a4c57816020015b611a396127cd565b815260200190600190039081611a315790505b50905060005b8251811015611ce757600073__$37e953c735ca981103e3546928ae79276f$__63f0350799858481518110611a8957611a89612b9a565b60200260200101516040518263ffffffff1660e01b8152600401611aaf91815260200190565b602060405180830381865af4158015611acc573d6000803e3d6000fd5b505050506040513d601f19601f82011682018060405250810190611af09190612b81565b6040805161022081018252825481526001830154602080830191909152600284015460ff80821615158486015261010080830490911615156060808601919091526001600160a01b036201000090930483166080808701919091526003880154841660a080880191909152600489015490941660c080880191909152600589015460e08089019190915260068a015494880194909452600789015461012088015260088901546101408801526009890154610160880152600a890154610180880152600b8901546101a088015287519384018852600c8901548452600d89015495840195909552600e88015496830196909652600f870154908201526010860154948101949094526011850154908401526012840154908301526101c081019190915260138201546101e08201526014820154610200820152845191925090849084908110611c4157611c41612b9a565b60200260200101516000018190525073__$f7ce058f5081a8aa62d2c976fd52cf5c62$__631e2ff94f6040518163ffffffff1660e01b8152600401602060405180830381865af4158015611c99573d6000803e3d6000fd5b505050506040513d601f19601f82011682018060405250810190611cbd9190612b81565b838381518110611ccf57611ccf612b9a565b60209081029190910101516040015250600101611a52565b50949350505050565b8060800135600003611d1557604051630b4fc37360e11b815260040160405180910390fd5b604051630bd039cd60e21b815233600482018190529060009073__$a224e41da3178beb3af7fdcdf4ade93682$__90632f40e73490602401602060405180830381865af4158015611d6a573d6000803e3d6000fd5b505050506040513d601f19601f82011682018060405250810190611d8e9190612b81565b60405163cb7ccd9360e01b8152600481018290528435602482015290915073__$a224e41da3178beb3af7fdcdf4ade93682$__9063cb7ccd9390604401602060405180830381865af4158015611de8573d6000803e3d6000fd5b505050506040513d601f19601f82011682018060405250810190611e0c919061329e565b611e2957604051634a32858f60e01b815260040160405180910390fd5b60405163f035079960e01b81528335600482015260009073__$37e953c735ca981103e3546928ae79276f$__9063f035079990602401602060405180830381865af4158015611e7c573d6000803e3d6000fd5b505050506040513d601f19601f82011682018060405250810190611ea09190612b81565b6002810154909150610100900460ff1615611ece57604051633046114760e01b815260040160405180910390fd5b611ede60408501602086016130a7565b156120ad57611ef360608501604086016130a7565b1580611f025750836080013534145b611f4a5760405162461bcd60e51b81526020600482015260196024820152784465706f7369742065746820616d6f756e74206572726f722160381b6044820152606401610f7a565b73__$ae0937d060466c56d4bdd1eafaed47a473$__63ef59a9d16040518060a00160405280866001600160a01b03168152602001876040016020810190611f9191906130a7565b611faa57611fa56080890160608a01612aed565b61201a565b73__$403afd1716c71ad05f9fd75974b23df554$__63606c0c946040518163ffffffff1660e01b815260040161012060405180830381865af4158015611ff4573d6000803e3d6000fd5b505050506040513d601f19601f8201168201806040525081019061201891906130c4565b515b6001600160a01b0316815260808801356020820152604001600181526020016120496060890160408a016130a7565b15158152506040518263ffffffff1660e01b815260040161206a9190613146565b602060405180830381865af4158015612087573d6000803e3d6000fd5b505050506040513d601f19601f820116820180604052508101906120ab9190612dfd565b505b6000806120ba84876123d7565b60405163af5c2a6b60e01b8152919350915073__$1f57ed0a0c01c58a7f0bc8f5acff836f64$__9063af5c2a6b906120fc9088908a9087908790600401613361565b60006040518083038186803b15801561211457600080fd5b505af4158015612128573d6000803e3d6000fd5b50505050505050505050565b61213e338261262f565b61216457604051632d7d0e0d60e21b815233600482015260248101829052604401610f7a565b50565b600080600073__$403afd1716c71ad05f9fd75974b23df554$__63606c0c946040518163ffffffff1660e01b815260040161012060405180830381865af41580156121b6573d6000803e3d6000fd5b505050506040513d601f19601f820116820180604052508101906121da91906130c4565b60c0810151604051634b7bc68160e01b815260e08701356004820152602481019190915290915073__$1af6d17e273104ca3ca5016ca475f591a0$__90634b7bc6819060440160006040518083038186803b15801561223857600080fd5b505af415801561224c573d6000803e3d6000fd5b506122619250505060608501604086016130a7565b801561227557508360e001358460c0013510155b801561228e575061228c60808501606086016130a7565b155b156122b1576122a560e085013560c08601356133ed565b600192509250506123d0565b8360e0013534146123165760405162461bcd60e51b815260206004820152602960248201527f757064617465206c65766572616765207769746820657865637574696f6e20666044820152686565206572726f722160b81b6064820152608401610f7a565b6040805160a08101825286546001600160a01b039081168252835116602082015260e0860135818301526000606082015260016080820152905163ef59a9d160e01b815273__$ae0937d060466c56d4bdd1eafaed47a473$__9163ef59a9d1916123839190600401613146565b602060405180830381865af41580156123a0573d6000803e3d6000fd5b505050506040513d601f19601f820116820180604052508101906123c49190612dfd565b5050505060c081013560005b9250929050565b600080600073__$403afd1716c71ad05f9fd75974b23df554$__63606c0c946040518163ffffffff1660e01b815260040161012060405180830381865af4158015612426573d6000803e3d6000fd5b505050506040513d601f19601f8201168201806040525081019061244a91906130c4565b60a081810151604051634b7bc68160e01b8152918701356004830152602482015290915073__$1af6d17e273104ca3ca5016ca475f591a0$__90634b7bc6819060440160006040518083038186803b1580156124a557600080fd5b505af41580156124b9573d6000803e3d6000fd5b506124ce9250505060608501604086016130a7565b80156124e557506124e560408501602086016130a7565b80156124f957508360a00135846080013510155b15612510576122a560a085013560808601356133ed565b8360a0013534146125735760405162461bcd60e51b815260206004820152602760248201527f757064617465206d617267696e207769746820657865637574696f6e20666565604482015266206572726f722160c81b6064820152608401610f7a565b6040805160a0808201835287546001600160a01b0390811683528451166020830152860135818301526000606082015260016080820152905163ef59a9d160e01b815273__$ae0937d060466c56d4bdd1eafaed47a473$__9163ef59a9d1916125df9190600401613146565b602060405180830381865af41580156125fc573d6000803e3d6000fd5b505050506040513d601f19601f820116820180604052508101906126209190612dfd565b50505050608001359160009150565b60008061263a612669565b6001600160a01b038516600090815260208290526040902090915061265f90846126cb565b9150505b92915050565b6000806040516020016126ad906020808252601e908201527f78797a2e656c66692e73746f726167652e416363657373436f6e74726f6c0000604082015260600190565b60408051601f19818403018152919052805160209091012092915050565b600081815260018301602052604081205415155b9392505050565b604051806102200160405280600080191681526020016000801916815260200160001515815260200160001515815260200160006001600160a01b0316815260200160006001600160a01b0316815260200160006001600160a01b03168152602001600081526020016000815260200160008152602001600081526020016000815260200160008152602001600081526020016127b96040518060e00160405280600081526020016000815260200160008152602001600081526020016000815260200160008152602001600081525090565b815260200160008152602001600081525090565b60405180606001604052806127b96126e6565b600080602083850312156127f357600080fd5b823567ffffffffffffffff8082111561280b57600080fd5b818501915085601f83011261281f57600080fd5b81358181111561282e57600080fd5b8660208260051b850101111561284357600080fd5b60209290920196919550909350505050565b60008060006040848603121561286a57600080fd5b83359250602084013567ffffffffffffffff8082111561288957600080fd5b818601915086601f83011261289d57600080fd5b8135818111156128ac57600080fd5b8760208260071b85010111156128c157600080fd5b6020830194508093505050509250925092565b6001600160a01b038116811461216457600080fd5b80356128f4816128d4565b919050565b801515811461216457600080fd5b80356128f4816128f9565b6000806000806080858703121561292857600080fd5b8435612933816128d4565b935060208501359250604085013561294a816128d4565b9150606085013561295a816128f9565b939692955090935050565b80518252602081015160208301526040810151612986604084018215159052565b50606081015161299a606084018215159052565b5060808101516129b560808401826001600160a01b03169052565b5060a08101516129d060a08401826001600160a01b03169052565b5060c08101516129eb60c08401826001600160a01b03169052565b5060e08181015190830152610100808201519083015261012080820151908301526101408082015190830152610160808201519083015261018080820151908301526101a080820151908301526101c08082015180518285015260208101516101e085015260408101516102008501526060810151610220850152608081015161024085015260a081015161026085015260c081015161028085015250506101e08101516102a083015261020001516102c090910152565b6102e081016126638284612965565b60008060408385031215612ac557600080fd5b50508035926020909101359150565b60006101008284031215612ae757600080fd5b50919050565b600060208284031215612aff57600080fd5b81356126df816128d4565b602080825282518282018190526000919060409081850190868401855b82811015612b62578151612b3c858251612965565b808701516102e08601528501516103008501526103209093019290850190600101612b27565b5091979650505050505050565b600060c08284031215612ae757600080fd5b600060208284031215612b9357600080fd5b5051919050565b634e487b7160e01b600052603260045260246000fd5b634e487b7160e01b600052604160045260246000fd5b604051610100810167ffffffffffffffff81118282101715612bea57612bea612bb0565b60405290565b604051610140810167ffffffffffffffff81118282101715612bea57612bea612bb0565b604051610120810167ffffffffffffffff81118282101715612bea57612bea612bb0565b604051601f8201601f1916810167ffffffffffffffff81118282101715612c6157612c61612bb0565b604052919050565b80516128f4816128d4565b80516128f4816128f9565b60006101008284031215612c9257600080fd5b612c9a612bc6565b8251612ca5816128d4565b8152602083810151908201526040830151612cbf816128d4565b806040830152506060830151606082015260808301516080820152612ce660a08401612c74565b60a0820152612cf760c08401612c74565b60c082015260e083015160e08201528091505092915050565b6020808252818101839052600090604080840186845b87811015612d7d578135612d39816128d4565b6001600160a01b0390811684528286013590612d54826128d4565b168386015281840135848401526060808301359084015260809283019290910190600101612d26565b5090979650505050505050565b60018060a01b038082511683526020820151602084015280604083015116604084015250606081015160608301526080810151608083015260a0810151151560a083015260c0810151151560c083015260e081015160e08301525050565b82815261012081016126df6020830184612d8a565b600060208284031215612e0f57600080fd5b81516126df816128d4565b81516001600160a01b0390811682526020808401519083015260408084015190830152606080840151821690830152608092830151169181019190915260a00190565b60006101408284031215612e7057600080fd5b612e78612bf0565b612e8183612c69565b815260208301516020820152612e9960408401612c74565b6040820152612eaa60608401612c74565b6060820152612ebb60808401612c74565b608082015260a083015160a0820152612ed660c08401612c69565b60c082015260e083810151908201526101008084015190820152610120928301519281019290925250919050565b80516001600160a01b03168252602081015160208301526040810151612f2e604084018215159052565b506060810151612f42606084018215159052565b506080810151612f56608084018215159052565b5060a081015160a083015260c0810151612f7b60c08401826001600160a01b03169052565b5060e08181015190830152610100808201519083015261012090810151910152565b8381526101808101612fb26020830185612f04565b82610160830152949350505050565b60006101008284031215612fd457600080fd5b612fdc612bc6565b825181526020830151602082015260408301516040820152606083015160608201526080830151608082015260a083015160a082015260c083015160c082015260e083015160e08201528091505092915050565b634e487b7160e01b600052602160045260246000fd5b600181811c9082168061305a57607f821691505b602082108103612ae757634e487b7160e01b600052602260045260246000fd5b634e487b7160e01b600052601160045260246000fd5b80820281158282048414176126635761266361307a565b6000602082840312156130b957600080fd5b81356126df816128f9565b600061012082840312156130d757600080fd5b6130df612c14565b6130e883612c69565b81526020830151602082015260408301516040820152606083015160608201526080830151608082015260a083015160a082015260c083015160c082015260e083015160e08201526101008084015181830152508091505092915050565b81516001600160a01b0390811682526020808401519091169082015260408083015190820152606082015160a08201906004811061319457634e487b7160e01b600052602160045260246000fd5b8060608401525060808301511515608083015292915050565b6001600160a01b038516815283356020808301919091526101608201908501356131d6816128f9565b80151560408401525060408501356131ed816128f9565b80151560608401525061320260608601612907565b801515608084015250608085013560a083015261322160a086016128e9565b6001600160a01b03811660c08401525060c085013560e083015260e08501356101008301528361012083015261325c61014083018415159052565b95945050505050565b82815261016081016126df6020830184612f04565b838152610140810161328f6020830185612d8a565b82610120830152949350505050565b6000602082840312156132b057600080fd5b81516126df816128f9565b600060208083850312156132ce57600080fd5b825167ffffffffffffffff808211156132e657600080fd5b818501915085601f8301126132fa57600080fd5b81518181111561330c5761330c612bb0565b8060051b915061331d848301612c38565b818152918301840191848101908884111561333757600080fd5b938501935b838510156133555784518252938501939085019061333c565b98975050505050505050565b6001600160a01b03858116825284356020808401919091526101208301919086013561338c816128f9565b80151560408501525060408601356133a3816128f9565b80151560608501525060608601356133ba816128d4565b81811660808501525050608085013560a083015260a085013560c08301528360e083015261325c61010083018415159052565b818103818111156126635761266361307a56fea2646970667358221220c1cca7272b743bb7567b139df530e8a1ef937676202f159673479d606ab3b6ed64736f6c63430008190033","linkReferences":{"contracts/process/AssetsProcess.sol":{"AssetsProcess":[{"start":4351,"length":20},{"start":8048,"length":20},{"start":9088,"length":20},{"start":9692,"length":20}]},"contracts/process/ConfigProcess.sol":{"ConfigProcess":[{"start":3451,"length":20}]},"contracts/process/DecreasePositionProcess.sol":{"DecreasePositionProcess":[{"start":1025,"length":20}]},"contracts/process/GasProcess.sol":{"GasProcess":[{"start":1352,"length":20},{"start":1926,"length":20},{"start":3090,"length":20},{"start":5330,"length":20},{"start":5961,"length":20},{"start":8743,"length":20},{"start":9364,"length":20}]},"contracts/process/OracleProcess.sol":{"OracleProcess":[{"start":1062,"length":20},{"start":1637,"length":20},{"start":1834,"length":20},{"start":5041,"length":20},{"start":5238,"length":20}]},"contracts/process/PositionMarginProcess.sol":{"PositionMarginProcess":[{"start":1740,"length":20},{"start":2996,"length":20},{"start":4737,"length":20},{"start":5144,"length":20},{"start":5867,"length":20},{"start":8434,"length":20}]},"contracts/storage/Account.sol":{"Account":[{"start":4112,"length":20},{"start":6332,"length":20},{"start":6451,"length":20},{"start":6583,"length":20},{"start":7508,"length":20},{"start":7634,"length":20}]},"contracts/storage/AppConfig.sol":{"AppConfig":[{"start":4447,"length":20},{"start":8144,"length":20},{"start":8594,"length":20},{"start":9218,"length":20}]},"contracts/storage/Position.sol":{"Position":[{"start":664,"length":20},{"start":833,"length":20},{"start":2377,"length":20},{"start":6787,"length":20},{"start":7782,"length":20}]},"contracts/storage/Symbol.sol":{"Symbol":[{"start":3574,"length":20}]},"contracts/storage/UpdateLeverage.sol":{"UpdateLeverage":[{"start":2843,"length":20},{"start":4888,"length":20}]},"contracts/storage/UpdatePositionMargin.sol":{"UpdatePositionMargin":[{"start":1484,"length":20},{"start":5714,"length":20}]},"contracts/storage/UuidCreator.sol":{"UuidCreator":[{"start":553,"length":20}]},"contracts/utils/ChainUtils.sol":{"ChainUtils":[{"start":7286,"length":20}]}}},"methodIdentifiers":{"autoReducePositions(bytes32[])":"09fb7aac","cancelUpdateLeverageRequest(uint256,bytes32)":"59086dc9","cancelUpdatePositionMarginRequest(uint256,bytes32)":"e606789b","createUpdateLeverageRequest((bytes32,bool,bool,bool,uint256,address,uint256,uint256))":"74315647","createUpdatePositionMarginRequest((bytes32,bool,bool,address,uint256,uint256))":"fe1b7245","executeUpdateLeverageRequest(uint256,(address,address,int256,int256)[])":"cb5c8d81","executeUpdatePositionMarginRequest(uint256,(address,address,int256,int256)[])":"311be5f4","getAllPositions(address)":"fb11e969","getSinglePosition(address,bytes32,address,bool)":"41065c62"},"id":13}