{
  "_format": "hh-sol-artifact-1",
  "contractName": "StakeFacet",
  "sourceName": "contracts/facets/StakeFacet.sol",
  "abi": [
    {
      "inputs": [
        {
          "internalType": "address",
          "name": "account",
          "type": "address"
        },
        {
          "internalType": "bytes32",
          "name": "role",
          "type": "bytes32"
        }
      ],
      "name": "InvalidRoleAccess",
      "type": "error"
    },
    {
      "inputs": [],
      "name": "MintRequestNotExists",
      "type": "error"
    },
    {
      "inputs": [
        {
          "internalType": "address",
          "name": "stakeToken",
          "type": "address"
        },
        {
          "internalType": "address",
          "name": "mintToken",
          "type": "address"
        }
      ],
      "name": "MintTokenInvalid",
      "type": "error"
    },
    {
      "inputs": [],
      "name": "MintWithAmountZero",
      "type": "error"
    },
    {
      "inputs": [],
      "name": "MintWithParamError",
      "type": "error"
    },
    {
      "inputs": [],
      "name": "RedeemRequestNotExists",
      "type": "error"
    },
    {
      "inputs": [
        {
          "internalType": "address",
          "name": "stakeToken",
          "type": "address"
        },
        {
          "internalType": "address",
          "name": "mintToken",
          "type": "address"
        }
      ],
      "name": "RedeemTokenInvalid",
      "type": "error"
    },
    {
      "inputs": [
        {
          "internalType": "address",
          "name": "account",
          "type": "address"
        },
        {
          "internalType": "address",
          "name": "stakeToken",
          "type": "address"
        }
      ],
      "name": "RedeemWithAmountNotEnough",
      "type": "error"
    },
    {
      "inputs": [
        {
          "internalType": "address",
          "name": "stakeToken",
          "type": "address"
        }
      ],
      "name": "StakeTokenInvalid",
      "type": "error"
    },
    {
      "inputs": [
        {
          "internalType": "uint256",
          "name": "requestId",
          "type": "uint256"
        },
        {
          "internalType": "bytes32",
          "name": "reasonCode",
          "type": "bytes32"
        }
      ],
      "name": "cancelMintStakeToken",
      "outputs": [],
      "stateMutability": "nonpayable",
      "type": "function"
    },
    {
      "inputs": [
        {
          "internalType": "uint256",
          "name": "requestId",
          "type": "uint256"
        },
        {
          "internalType": "bytes32",
          "name": "reasonCode",
          "type": "bytes32"
        }
      ],
      "name": "cancelRedeemStakeToken",
      "outputs": [],
      "stateMutability": "nonpayable",
      "type": "function"
    },
    {
      "inputs": [
        {
          "components": [
            {
              "internalType": "address",
              "name": "stakeToken",
              "type": "address"
            },
            {
              "internalType": "address",
              "name": "requestToken",
              "type": "address"
            },
            {
              "internalType": "uint256",
              "name": "requestTokenAmount",
              "type": "uint256"
            },
            {
              "internalType": "uint256",
              "name": "walletRequestTokenAmount",
              "type": "uint256"
            },
            {
              "internalType": "uint256",
              "name": "minStakeAmount",
              "type": "uint256"
            },
            {
              "internalType": "uint256",
              "name": "executionFee",
              "type": "uint256"
            },
            {
              "internalType": "bool",
              "name": "isCollateral",
              "type": "bool"
            },
            {
              "internalType": "bool",
              "name": "isNativeToken",
              "type": "bool"
            }
          ],
          "internalType": "struct IStake.MintStakeTokenParams",
          "name": "params",
          "type": "tuple"
        }
      ],
      "name": "createMintStakeTokenRequest",
      "outputs": [],
      "stateMutability": "payable",
      "type": "function"
    },
    {
      "inputs": [
        {
          "components": [
            {
              "internalType": "address",
              "name": "receiver",
              "type": "address"
            },
            {
              "internalType": "address",
              "name": "stakeToken",
              "type": "address"
            },
            {
              "internalType": "address",
              "name": "redeemToken",
              "type": "address"
            },
            {
              "internalType": "uint256",
              "name": "unStakeAmount",
              "type": "uint256"
            },
            {
              "internalType": "uint256",
              "name": "minRedeemAmount",
              "type": "uint256"
            },
            {
              "internalType": "uint256",
              "name": "executionFee",
              "type": "uint256"
            }
          ],
          "internalType": "struct IStake.RedeemStakeTokenParams",
          "name": "params",
          "type": "tuple"
        }
      ],
      "name": "createRedeemStakeTokenRequest",
      "outputs": [],
      "stateMutability": "payable",
      "type": "function"
    },
    {
      "inputs": [
        {
          "internalType": "uint256",
          "name": "requestId",
          "type": "uint256"
        },
        {
          "components": [
            {
              "internalType": "address",
              "name": "token",
              "type": "address"
            },
            {
              "internalType": "address",
              "name": "targetToken",
              "type": "address"
            },
            {
              "internalType": "int256",
              "name": "minPrice",
              "type": "int256"
            },
            {
              "internalType": "int256",
              "name": "maxPrice",
              "type": "int256"
            }
          ],
          "internalType": "struct OracleProcess.OracleParam[]",
          "name": "oracles",
          "type": "tuple[]"
        }
      ],
      "name": "executeMintStakeToken",
      "outputs": [],
      "stateMutability": "nonpayable",
      "type": "function"
    },
    {
      "inputs": [
        {
          "internalType": "uint256",
          "name": "requestId",
          "type": "uint256"
        },
        {
          "components": [
            {
              "internalType": "address",
              "name": "token",
              "type": "address"
            },
            {
              "internalType": "address",
              "name": "targetToken",
              "type": "address"
            },
            {
              "internalType": "int256",
              "name": "minPrice",
              "type": "int256"
            },
            {
              "internalType": "int256",
              "name": "maxPrice",
              "type": "int256"
            }
          ],
          "internalType": "struct OracleProcess.OracleParam[]",
          "name": "oracles",
          "type": "tuple[]"
        }
      ],
      "name": "executeRedeemStakeToken",
      "outputs": [],
      "stateMutability": "nonpayable",
      "type": "function"
    }
  ],
  "bytecode": "0x608060405234801561001057600080fd5b5060016000556126f8806100256000396000f3fe6080604052600436106100655760003560e01c80639d437bd8116100435780639d437bd8146100cc578063a7cb6602146100ec578063a8b6d8aa146100ff57600080fd5b8063182250891461006a5780633b6f91441461008c5780636990d245146100ac575b600080fd5b34801561007657600080fd5b5061008a610085366004611ea5565b610112565b005b34801561009857600080fd5b5061008a6100a7366004611f24565b610591565b3480156100b857600080fd5b5061008a6100c7366004611ea5565b61090f565b3480156100d857600080fd5b5061008a6100e7366004611f24565b610bf9565b61008a6100fa366004611f46565b610dff565b61008a61010d366004611f5f565b6115ce565b61011a611d09565b60005a90506101487f4b45455045520000000000000000000000000000000000000000000000000000611d7c565b6040517f9507d39a0000000000000000000000000000000000000000000000000000000081526004810185905260009073__$68fa9dd76f14c3fca41ae20e35b826bf8f$__90639507d39a9060240161012060405180830381865af41580156101b5573d6000803e3d6000fd5b505050506040513d601f19601f820116820180604052508101906101d9919061200d565b805190915073ffffffffffffffffffffffffffffffffffffffff1661022a576040517f0f1bc76900000000000000000000000000000000000000000000000000000000815260040160405180910390fd5b6040517f7532d8bc00000000000000000000000000000000000000000000000000000000815273__$76a505dbd6210c6de5172a9e6577e0d579$__90637532d8bc9061027c90879087906004016120a7565b60006040518083038186803b15801561029457600080fd5b505af41580156102a8573d6000803e3d6000fd5b50506040517fc9ae3f5700000000000000000000000000000000000000000000000000000000815273__$bfda8595f03a612d1fcaa1fa61b3e97c85$__925063c9ae3f5791506102fe90889085906004016121ac565b602060405180830381865af415801561031b573d6000803e3d6000fd5b505050506040513d601f19601f8201168201806040525081019061033f91906121c1565b5073__$76a505dbd6210c6de5172a9e6577e0d579$__63e52ed3656040518163ffffffff1660e01b815260040160006040518083038186803b15801561038457600080fd5b505af4158015610398573d6000803e3d6000fd5b5050505073__$1af6d17e273104ca3ca5016ca475f591a0$__634d4d56726040518060a0016040528084610100015161043f573073ffffffffffffffffffffffffffffffffffffffff16631f7592ea6040518163ffffffff1660e01b8152600401602060405180830381865afa158015610416573d6000803e3d6000fd5b505050506040513d601f19601f8201168201806040525081019061043a91906121da565b6104ae565b3073ffffffffffffffffffffffffffffffffffffffff166308ba026f6040518163ffffffff1660e01b8152600401602060405180830381865afa15801561048a573d6000803e3d6000fd5b505050506040513d601f19601f820116820180604052508101906104ae91906121da565b73ffffffffffffffffffffffffffffffffffffffff908116825260c08601516020808401919091526040808401899052336060808601919091528851841660809586015281517fffffffff0000000000000000000000000000000000000000000000000000000060e089901b16815286518516600482015292860151602484015290850151604483015284015182166064820152929091015116608482015260a40160006040518083038186803b15801561056857600080fd5b505af415801561057c573d6000803e3d6000fd5b50505050505061058c6001600055565b505050565b60005a90506105bf7f4b45455045520000000000000000000000000000000000000000000000000000611d7c565b6040517f9507d39a0000000000000000000000000000000000000000000000000000000081526004810184905260009073__$68fa9dd76f14c3fca41ae20e35b826bf8f$__90639507d39a9060240161012060405180830381865af415801561062c573d6000803e3d6000fd5b505050506040513d601f19601f82011682018060405250810190610650919061200d565b805190915073ffffffffffffffffffffffffffffffffffffffff166106a1576040517f0f1bc76900000000000000000000000000000000000000000000000000000000815260040160405180910390fd5b6040517fe9d9d76200000000000000000000000000000000000000000000000000000000815273__$bfda8595f03a612d1fcaa1fa61b3e97c85$__9063e9d9d762906106f5908790859088906004016121f7565b60006040518083038186803b15801561070d57600080fd5b505af4158015610721573d6000803e3d6000fd5b5050505073__$1af6d17e273104ca3ca5016ca475f591a0$__634d4d56726040518060a001604052808461010001516107c8573073ffffffffffffffffffffffffffffffffffffffff16631f7592ea6040518163ffffffff1660e01b8152600401602060405180830381865afa15801561079f573d6000803e3d6000fd5b505050506040513d601f19601f820116820180604052508101906107c391906121da565b610837565b3073ffffffffffffffffffffffffffffffffffffffff166308ba026f6040518163ffffffff1660e01b8152600401602060405180830381865afa158015610813573d6000803e3d6000fd5b505050506040513d601f19601f8201168201806040525081019061083791906121da565b73ffffffffffffffffffffffffffffffffffffffff908116825260c08601516020808401919091526040808401899052336060808601919091528851841660809586015281517fffffffff0000000000000000000000000000000000000000000000000000000060e089901b16815286518516600482015292860151602484015290850151604483015284015182166064820152929091015116608482015260a40160006040518083038186803b1580156108f157600080fd5b505af4158015610905573d6000803e3d6000fd5b5050505050505050565b610917611d09565b60005a90506109457f4b45455045520000000000000000000000000000000000000000000000000000611d7c565b6040517f7532d8bc00000000000000000000000000000000000000000000000000000000815273__$76a505dbd6210c6de5172a9e6577e0d579$__90637532d8bc9061099790869086906004016120a7565b60006040518083038186803b1580156109af57600080fd5b505af41580156109c3573d6000803e3d6000fd5b50506040517f9507d39a000000000000000000000000000000000000000000000000000000008152600481018790526000925073__$7ddac4f6f7877bce940c0a4e1582e85ca1$__9150639507d39a9060240160e060405180830381865af4158015610a33573d6000803e3d6000fd5b505050506040513d601f19601f82011682018060405250810190610a57919061221b565b602081015190915073ffffffffffffffffffffffffffffffffffffffff16610aab576040517f512600e800000000000000000000000000000000000000000000000000000000815260040160405180910390fd5b6040517f5b86b58d00000000000000000000000000000000000000000000000000000000815273__$b5e56ff26890d4084241f66805e39ec41d$__90635b86b58d90610afd90889085906004016122ea565b60006040518083038186803b158015610b1557600080fd5b505af4158015610b29573d6000803e3d6000fd5b5050505073__$76a505dbd6210c6de5172a9e6577e0d579$__63e52ed3656040518163ffffffff1660e01b815260040160006040518083038186803b158015610b7157600080fd5b505af4158015610b85573d6000803e3d6000fd5b5050505073__$1af6d17e273104ca3ca5016ca475f591a0$__634d4d56726040518060a001604052803073ffffffffffffffffffffffffffffffffffffffff16631f7592ea6040518163ffffffff1660e01b8152600401602060405180830381865afa15801561048a573d6000803e3d6000fd5b60005a9050610c277f4b45455045520000000000000000000000000000000000000000000000000000611d7c565b6040517f9507d39a0000000000000000000000000000000000000000000000000000000081526004810184905260009073__$7ddac4f6f7877bce940c0a4e1582e85ca1$__90639507d39a9060240160e060405180830381865af4158015610c93573d6000803e3d6000fd5b505050506040513d601f19601f82011682018060405250810190610cb7919061221b565b602081015190915073ffffffffffffffffffffffffffffffffffffffff16610d0b576040517f512600e800000000000000000000000000000000000000000000000000000000815260040160405180910390fd5b6040517f1189a61f00000000000000000000000000000000000000000000000000000000815273__$b5e56ff26890d4084241f66805e39ec41d$__90631189a61f90610d5f9087908590889060040161235c565b60006040518083038186803b158015610d7757600080fd5b505af4158015610d8b573d6000803e3d6000fd5b5050505073__$1af6d17e273104ca3ca5016ca475f591a0$__634d4d56726040518060a001604052803073ffffffffffffffffffffffffffffffffffffffff16631f7592ea6040518163ffffffff1660e01b8152600401602060405180830381865afa158015610813573d6000803e3d6000fd5b610e07611d09565b8060400135600003610e45576040517ffc4f1aae00000000000000000000000000000000000000000000000000000000815260040160405180910390fd5b6000610e5460208301836123dd565b73ffffffffffffffffffffffffffffffffffffffff1603610ea1576040517f801c452300000000000000000000000000000000000000000000000000000000815260040160405180910390fd5b336000610eb460408401602085016123dd565b9050610ec360208401846123dd565b73ffffffffffffffffffffffffffffffffffffffff1673__$2c5e3d38607d7ea6eea9d5dc78ed57d239$__63f141859a6040518163ffffffff1660e01b8152600401602060405180830381865af4158015610f22573d6000803e3d6000fd5b505050506040513d601f19601f82011682018060405250810190610f4691906121da565b73ffffffffffffffffffffffffffffffffffffffff1603611071576040517fe4dd368400000000000000000000000000000000000000000000000000000000815273ffffffffffffffffffffffffffffffffffffffff8216600482015273__$69c89f533e100333dfc56147eb38ab86ce$__9063e4dd368490602401602060405180830381865af4158015610fdf573d6000803e3d6000fd5b505050506040513d601f19601f8201168201806040525081019061100391906123fa565b61106c5761101460208401846123dd565b6040517f64f3d63f00000000000000000000000000000000000000000000000000000000815273ffffffffffffffffffffffffffffffffffffffff918216600482015290821660248201526044015b60405180910390fd5b6112c5565b73__$2c5e3d38607d7ea6eea9d5dc78ed57d239$__634f52e5b661109860208601866123dd565b6040517fffffffff0000000000000000000000000000000000000000000000000000000060e084901b16815273ffffffffffffffffffffffffffffffffffffffff9091166004820152602401602060405180830381865af4158015611101573d6000803e3d6000fd5b505050506040513d601f19601f8201168201806040525081019061112591906123fa565b1561126d57600073__$031d78916aae4b898c89af4123228b6f12$__632f40e73461115360208701876123dd565b6040517fffffffff0000000000000000000000000000000000000000000000000000000060e084901b16815273ffffffffffffffffffffffffffffffffffffffff9091166004820152602401602060405180830381865af41580156111bc573d6000803e3d6000fd5b505050506040513d601f19601f820116820180604052508101906111e091906121c1565b600281015490915073ffffffffffffffffffffffffffffffffffffffff8381169116146112675761121460208501856123dd565b6040517f64f3d63f00000000000000000000000000000000000000000000000000000000815273ffffffffffffffffffffffffffffffffffffffff91821660048201529083166024820152604401611063565b506112c5565b61127a60208401846123dd565b6040517ff31dadd700000000000000000000000000000000000000000000000000000000815273ffffffffffffffffffffffffffffffffffffffff9091166004820152602401611063565b606083013515611477576112e0610100840160e08501612417565b15806112ef5750826060013534145b611355576040517f08c379a000000000000000000000000000000000000000000000000000000000815260206004820152601960248201527f4465706f7369742065746820616d6f756e74206572726f7221000000000000006044820152606401611063565b73__$ae0937d060466c56d4bdd1eafaed47a473$__63ef59a9d16040518060a001604052808573ffffffffffffffffffffffffffffffffffffffff1681526020018660200160208101906113a991906123dd565b73ffffffffffffffffffffffffffffffffffffffff168152606087013560208201526040016113de60e0880160c08901612417565b6113e95760026113ec565b60035b60038111156113fd576113fd612434565b8152602001611413610100880160e08901612417565b15158152506040518263ffffffff1660e01b81526004016114349190612463565b602060405180830381865af4158015611451573d6000803e3d6000fd5b505050506040513d601f19601f8201168201806040525081019061147591906121da565b505b60008073__$bfda8595f03a612d1fcaa1fa61b3e97c85$__637c853ff385876040518363ffffffff1660e01b81526004016114b3929190612588565b6040805180830381865af41580156114cf573d6000803e3d6000fd5b505050506040513d601f19601f820116820180604052508101906114f391906125b3565b915091508185604001351015611535576040517f801c452300000000000000000000000000000000000000000000000000000000815260040160405180910390fd5b6040517fa405d30700000000000000000000000000000000000000000000000000000000815273__$bfda8595f03a612d1fcaa1fa61b3e97c85$__9063a405d3079061158d90889088908890889088906004016125e3565b60006040518083038186803b1580156115a557600080fd5b505af41580156115b9573d6000803e3d6000fd5b50505050505050506115cb6001600055565b50565b6115d6611d09565b6000816060013511611644576040517f08c379a000000000000000000000000000000000000000000000000000000000815260206004820152601260248201527f756e5374616b65416d6f756e74203d3d203000000000000000000000000000006044820152606401611063565b73__$2b00c9d0cdf78dd5187c9c951fc5cff71b$__637ff8770061166b60208401846123dd565b6040517fffffffff0000000000000000000000000000000000000000000000000000000060e084901b16815273ffffffffffffffffffffffffffffffffffffffff909116600482015260240160006040518083038186803b1580156116cf57600080fd5b505af41580156116e3573d6000803e3d6000fd5b50339250600091506116fd905060408401602085016123dd565b6040517f70a0823100000000000000000000000000000000000000000000000000000000815273ffffffffffffffffffffffffffffffffffffffff848116600483015291909116906370a0823190602401602060405180830381865afa15801561176b573d6000803e3d6000fd5b505050506040513d601f19601f8201168201806040525081019061178f91906121c1565b9050806000036117fc57816117aa60408501602086016123dd565b6040517ff8b251f700000000000000000000000000000000000000000000000000000000815273ffffffffffffffffffffffffffffffffffffffff928316600482015291166024820152604401611063565b826060013581101561181957816117aa60408501602086016123dd565b61182960408401602085016123dd565b73ffffffffffffffffffffffffffffffffffffffff1673__$2c5e3d38607d7ea6eea9d5dc78ed57d239$__63f141859a6040518163ffffffff1660e01b8152600401602060405180830381865af4158015611888573d6000803e3d6000fd5b505050506040513d601f19601f820116820180604052508101906118ac91906121da565b73ffffffffffffffffffffffffffffffffffffffff16036119f95773__$69c89f533e100333dfc56147eb38ab86ce$__63e4dd36846118f160608601604087016123dd565b6040517fffffffff0000000000000000000000000000000000000000000000000000000060e084901b16815273ffffffffffffffffffffffffffffffffffffffff9091166004820152602401602060405180830381865af415801561195a573d6000803e3d6000fd5b505050506040513d601f19601f8201168201806040525081019061197e91906123fa565b6119f45761199260408401602085016123dd565b6119a260608501604086016123dd565b6040517ffdeabc1900000000000000000000000000000000000000000000000000000000815273ffffffffffffffffffffffffffffffffffffffff928316600482015291166024820152604401611063565b611bda565b73__$2c5e3d38607d7ea6eea9d5dc78ed57d239$__634f52e5b6611a2360408601602087016123dd565b6040517fffffffff0000000000000000000000000000000000000000000000000000000060e084901b16815273ffffffffffffffffffffffffffffffffffffffff9091166004820152602401602060405180830381865af4158015611a8c573d6000803e3d6000fd5b505050506040513d601f19601f82011682018060405250810190611ab091906123fa565b15611bca57600073__$031d78916aae4b898c89af4123228b6f12$__632f40e734611ae160408701602088016123dd565b6040517fffffffff0000000000000000000000000000000000000000000000000000000060e084901b16815273ffffffffffffffffffffffffffffffffffffffff9091166004820152602401602060405180830381865af4158015611b4a573d6000803e3d6000fd5b505050506040513d601f19601f82011682018060405250810190611b6e91906121c1565b9050611b8060608501604086016123dd565b600282015473ffffffffffffffffffffffffffffffffffffffff908116911614611bc457611bb460408501602086016123dd565b6119a260608601604087016123dd565b50611bda565b61127a60408401602085016123dd565b6040517ff4e6f8dc00000000000000000000000000000000000000000000000000000000815273ffffffffffffffffffffffffffffffffffffffff8316600482015260a0840135602482015273__$b5e56ff26890d4084241f66805e39ec41d$__9063f4e6f8dc9060440160006040518083038186803b158015611c5d57600080fd5b505af4158015611c71573d6000803e3d6000fd5b50506040517f05c00cf100000000000000000000000000000000000000000000000000000000815273__$b5e56ff26890d4084241f66805e39ec41d$__92506305c00cf19150611ccd9086908690606083013590600401612634565b60006040518083038186803b158015611ce557600080fd5b505af4158015611cf9573d6000803e3d6000fd5b5050505050506115cb6001600055565b600260005403611d75576040517f08c379a000000000000000000000000000000000000000000000000000000000815260206004820152601f60248201527f5265656e7472616e637947756172643a207265656e7472616e742063616c6c006044820152606401611063565b6002600055565b611d863382611dc5565b6115cb576040517fb5f4383400000000000000000000000000000000000000000000000000000000815233600482015260248101829052604401611063565b600080611dd0611e0a565b73ffffffffffffffffffffffffffffffffffffffff85166000908152602082905260409020909150611e029084611e8a565b949350505050565b600080604051602001611e4e906020808252601e908201527f78797a2e656c66692e73746f726167652e416363657373436f6e74726f6c0000604082015260600190565b604080517fffffffffffffffffffffffffffffffffffffffffffffffffffffffffffffffe0818403018152919052805160209091012092915050565b600081815260018301602052604081205415155b9392505050565b600080600060408486031215611eba57600080fd5b83359250602084013567ffffffffffffffff80821115611ed957600080fd5b818601915086601f830112611eed57600080fd5b813581811115611efc57600080fd5b8760208260071b8501011115611f1157600080fd5b6020830194508093505050509250925092565b60008060408385031215611f3757600080fd5b50508035926020909101359150565b60006101008284031215611f5957600080fd5b50919050565b600060c08284031215611f5957600080fd5b604051610120810167ffffffffffffffff81118282101715611fbc577f4e487b7100000000000000000000000000000000000000000000000000000000600052604160045260246000fd5b60405290565b73ffffffffffffffffffffffffffffffffffffffff811681146115cb57600080fd5b8051611fef81611fc2565b919050565b80151581146115cb57600080fd5b8051611fef81611ff4565b6000610120828403121561202057600080fd5b612028611f71565b61203183611fe4565b815261203f60208401611fe4565b602082015261205060408401611fe4565b6040820152606083015160608201526080830151608082015260a083015160a082015260c083015160c082015261208960e08401612002565b60e082015261010061209c818501612002565b908201529392505050565b6020808252818101839052600090604080840186845b878110156121215781356120d081611fc2565b73ffffffffffffffffffffffffffffffffffffffff908116845282860135906120f882611fc2565b1683860152818401358484015260608083013590840152608092830192909101906001016120bd565b5090979650505050505050565b73ffffffffffffffffffffffffffffffffffffffff80825116835280602083015116602084015280604083015116604084015250606081015160608301526080810151608083015260a081015160a083015260c081015160c083015260e081015161219d60e084018215159052565b50610100908101511515910152565b8281526101408101611e9e602083018461212e565b6000602082840312156121d357600080fd5b5051919050565b6000602082840312156121ec57600080fd5b8151611e9e81611fc2565b838152610160810161220c602083018561212e565b82610140830152949350505050565b600060e0828403121561222d57600080fd5b60405160e0810181811067ffffffffffffffff82111715612277577f4e487b7100000000000000000000000000000000000000000000000000000000600052604160045260246000fd5b604052825161228581611fc2565b8152602083015161229581611fc2565b602082015260408301516122a881611fc2565b604082015260608301516122bb81611fc2565b806060830152506080830151608082015260a083015160a082015260c083015160c08201528091505092915050565b8281526101008101611e9e602083018473ffffffffffffffffffffffffffffffffffffffff808251168352806020830151166020840152806040830151166040840152806060830151166060840152506080810151608083015260a081015160a083015260c081015160c08301525050565b83815261012081016123ce602083018573ffffffffffffffffffffffffffffffffffffffff808251168352806020830151166020840152806040830151166040840152806060830151166060840152506080810151608083015260a081015160a083015260c081015160c08301525050565b82610100830152949350505050565b6000602082840312156123ef57600080fd5b8135611e9e81611fc2565b60006020828403121561240c57600080fd5b8151611e9e81611ff4565b60006020828403121561242957600080fd5b8135611e9e81611ff4565b7f4e487b7100000000000000000000000000000000000000000000000000000000600052602160045260246000fd5b600060a08201905073ffffffffffffffffffffffffffffffffffffffff80845116835280602085015116602084015250604083015160408301526060830151600481106124d9577f4e487b7100000000000000000000000000000000000000000000000000000000600052602160045260246000fd5b8060608401525060808301511515608083015292915050565b80356124fd81611fc2565b73ffffffffffffffffffffffffffffffffffffffff908116835260208201359061252682611fc2565b8082166020850152505060408101356040830152606081013560608301526080810135608083015260a081013560a083015260c081013561256681611ff4565b151560c083015260e081013561257b81611ff4565b80151560e0840152505050565b73ffffffffffffffffffffffffffffffffffffffff831681526101208101611e9e60208301846124f2565b600080604083850312156125c657600080fd5b8251915060208301516125d881611ff4565b809150509250929050565b61018081016125f282886124f2565b73ffffffffffffffffffffffffffffffffffffffff80871661010084015280861661012084015250836101408301528215156101608301529695505050505050565b6101008101843561264481611fc2565b73ffffffffffffffffffffffffffffffffffffffff908116835260208601359061266d82611fc2565b908116602084015260408601359061268482611fc2565b8082166040850152606087013560608501526080870135608085015260a087013560a085015280861660c085015250508260e083015294935050505056fea2646970667358221220b0c6fb29ec7a09632cef7af7dadd4b477e44deb3428f8b1adb237bebb4cf071864736f6c63430008120033",
  "linkReferences": {
    "contracts/process/AssetsProcess.sol": {
      "AssetsProcess": [
        {
          "length": 20,
          "start": 4988
        }
      ]
    },
    "contracts/process/GasProcess.sol": {
      "GasProcess": [
        {
          "length": 20,
          "start": 963
        },
        {
          "length": 20,
          "start": 1868
        },
        {
          "length": 20,
          "start": 2992
        },
        {
          "length": 20,
          "start": 3510
        }
      ]
    },
    "contracts/process/MintProcess.sol": {
      "MintProcess": [
        {
          "length": 20,
          "start": 759
        },
        {
          "length": 20,
          "start": 1774
        },
        {
          "length": 20,
          "start": 5281
        },
        {
          "length": 20,
          "start": 5506
        }
      ]
    },
    "contracts/process/OracleProcess.sol": {
      "OracleProcess": [
        {
          "length": 20,
          "start": 631
        },
        {
          "length": 20,
          "start": 871
        },
        {
          "length": 20,
          "start": 2450
        },
        {
          "length": 20,
          "start": 2900
        }
      ]
    },
    "contracts/process/RedeemProcess.sol": {
      "RedeemProcess": [
        {
          "length": 20,
          "start": 2808
        },
        {
          "length": 20,
          "start": 3416
        },
        {
          "length": 20,
          "start": 7245
        },
        {
          "length": 20,
          "start": 7360
        }
      ]
    },
    "contracts/storage/CommonData.sol": {
      "CommonData": [
        {
          "length": 20,
          "start": 3840
        },
        {
          "length": 20,
          "start": 4248
        },
        {
          "length": 20,
          "start": 6246
        },
        {
          "length": 20,
          "start": 6688
        }
      ]
    },
    "contracts/storage/LpPool.sol": {
      "LpPool": [
        {
          "length": 20,
          "start": 4435
        },
        {
          "length": 20,
          "start": 6878
        }
      ]
    },
    "contracts/storage/Mint.sol": {
      "Mint": [
        {
          "length": 20,
          "start": 415
        },
        {
          "length": 20,
          "start": 1558
        }
      ]
    },
    "contracts/storage/Redeem.sol": {
      "Redeem": [
        {
          "length": 20,
          "start": 2589
        },
        {
          "length": 20,
          "start": 3198
        }
      ]
    },
    "contracts/storage/UsdPool.sol": {
      "UsdPool": [
        {
          "length": 20,
          "start": 4042
        },
        {
          "length": 20,
          "start": 6382
        }
      ]
    },
    "contracts/utils/AddressUtils.sol": {
      "AddressUtils": [
        {
          "length": 20,
          "start": 5739
        }
      ]
    }
  },
  "deployedLinkReferences": {
    "contracts/process/AssetsProcess.sol": {
      "AssetsProcess": [
        {
          "length": 20,
          "start": 4951
        }
      ]
    },
    "contracts/process/GasProcess.sol": {
      "GasProcess": [
        {
          "length": 20,
          "start": 926
        },
        {
          "length": 20,
          "start": 1831
        },
        {
          "length": 20,
          "start": 2955
        },
        {
          "length": 20,
          "start": 3473
        }
      ]
    },
    "contracts/process/MintProcess.sol": {
      "MintProcess": [
        {
          "length": 20,
          "start": 722
        },
        {
          "length": 20,
          "start": 1737
        },
        {
          "length": 20,
          "start": 5244
        },
        {
          "length": 20,
          "start": 5469
        }
      ]
    },
    "contracts/process/OracleProcess.sol": {
      "OracleProcess": [
        {
          "length": 20,
          "start": 594
        },
        {
          "length": 20,
          "start": 834
        },
        {
          "length": 20,
          "start": 2413
        },
        {
          "length": 20,
          "start": 2863
        }
      ]
    },
    "contracts/process/RedeemProcess.sol": {
      "RedeemProcess": [
        {
          "length": 20,
          "start": 2771
        },
        {
          "length": 20,
          "start": 3379
        },
        {
          "length": 20,
          "start": 7208
        },
        {
          "length": 20,
          "start": 7323
        }
      ]
    },
    "contracts/storage/CommonData.sol": {
      "CommonData": [
        {
          "length": 20,
          "start": 3803
        },
        {
          "length": 20,
          "start": 4211
        },
        {
          "length": 20,
          "start": 6209
        },
        {
          "length": 20,
          "start": 6651
        }
      ]
    },
    "contracts/storage/LpPool.sol": {
      "LpPool": [
        {
          "length": 20,
          "start": 4398
        },
        {
          "length": 20,
          "start": 6841
        }
      ]
    },
    "contracts/storage/Mint.sol": {
      "Mint": [
        {
          "length": 20,
          "start": 378
        },
        {
          "length": 20,
          "start": 1521
        }
      ]
    },
    "contracts/storage/Redeem.sol": {
      "Redeem": [
        {
          "length": 20,
          "start": 2552
        },
        {
          "length": 20,
          "start": 3161
        }
      ]
    },
    "contracts/storage/UsdPool.sol": {
      "UsdPool": [
        {
          "length": 20,
          "start": 4005
        },
        {
          "length": 20,
          "start": 6345
        }
      ]
    },
    "contracts/utils/AddressUtils.sol": {
      "AddressUtils": [
        {
          "length": 20,
          "start": 5702
        }
      ]
    }
  }
}