{"abi":[{"type":"receive","stateMutability":"payable"},{"type":"function","name":"batchUpdateAccountToken","inputs":[{"name":"params","type":"tuple","internalType":"struct AssetsProcess.UpdateAccountTokenParams","components":[{"name":"account","type":"address","internalType":"address"},{"name":"tokens","type":"address[]","internalType":"address[]"},{"name":"changedTokenAmounts","type":"int256[]","internalType":"int256[]"}]}],"outputs":[],"stateMutability":"nonpayable"},{"type":"function","name":"cancelWithdraw","inputs":[{"name":"requestId","type":"uint256","internalType":"uint256"},{"name":"reasonCode","type":"bytes32","internalType":"bytes32"}],"outputs":[],"stateMutability":"nonpayable"},{"type":"function","name":"createWithdrawRequest","inputs":[{"name":"token","type":"address","internalType":"address"},{"name":"amount","type":"uint256","internalType":"uint256"}],"outputs":[],"stateMutability":"nonpayable"},{"type":"function","name":"deposit","inputs":[{"name":"token","type":"address","internalType":"address"},{"name":"amount","type":"uint256","internalType":"uint256"}],"outputs":[],"stateMutability":"payable"},{"type":"function","name":"executeWithdraw","inputs":[{"name":"requestId","type":"uint256","internalType":"uint256"},{"name":"oracles","type":"tuple[]","internalType":"struct OracleProcess.OracleParam[]","components":[{"name":"token","type":"address","internalType":"address"},{"name":"targetToken","type":"address","internalType":"address"},{"name":"minPrice","type":"int256","internalType":"int256"},{"name":"maxPrice","type":"int256","internalType":"int256"}]}],"outputs":[],"stateMutability":"nonpayable"},{"type":"function","name":"getAccountInfo","inputs":[{"name":"account","type":"address","internalType":"address"}],"outputs":[{"name":"","type":"tuple","internalType":"struct IAccount.AccountInfo","components":[{"name":"owner","type":"address","internalType":"address"},{"name":"tokenBalances","type":"tuple[]","internalType":"struct Account.TokenBalance[]","components":[{"name":"amount","type":"uint256","internalType":"uint256"},{"name":"usedAmount","type":"uint256","internalType":"uint256"},{"name":"interest","type":"uint256","internalType":"uint256"},{"name":"liability","type":"uint256","internalType":"uint256"}]},{"name":"tokens","type":"address[]","internalType":"address[]"},{"name":"positions","type":"bytes32[]","internalType":"bytes32[]"},{"name":"portfolioNetValue","type":"uint256","internalType":"uint256"},{"name":"totalUsedValue","type":"uint256","internalType":"uint256"},{"name":"availableValue","type":"int256","internalType":"int256"},{"name":"orderHoldInUsd","type":"uint256","internalType":"uint256"},{"name":"crossMMR","type":"int256","internalType":"int256"},{"name":"crossNetValue","type":"int256","internalType":"int256"},{"name":"totalMM","type":"uint256","internalType":"uint256"}]}],"stateMutability":"view"},{"type":"function","name":"getAccountInfoWithOracles","inputs":[{"name":"account","type":"address","internalType":"address"},{"name":"oracles","type":"tuple[]","internalType":"struct OracleProcess.OracleParam[]","components":[{"name":"token","type":"address","internalType":"address"},{"name":"targetToken","type":"address","internalType":"address"},{"name":"minPrice","type":"int256","internalType":"int256"},{"name":"maxPrice","type":"int256","internalType":"int256"}]}],"outputs":[{"name":"","type":"tuple","internalType":"struct IAccount.AccountInfo","components":[{"name":"owner","type":"address","internalType":"address"},{"name":"tokenBalances","type":"tuple[]","internalType":"struct Account.TokenBalance[]","components":[{"name":"amount","type":"uint256","internalType":"uint256"},{"name":"usedAmount","type":"uint256","internalType":"uint256"},{"name":"interest","type":"uint256","internalType":"uint256"},{"name":"liability","type":"uint256","internalType":"uint256"}]},{"name":"tokens","type":"address[]","internalType":"address[]"},{"name":"positions","type":"bytes32[]","internalType":"bytes32[]"},{"name":"portfolioNetValue","type":"uint256","internalType":"uint256"},{"name":"totalUsedValue","type":"uint256","internalType":"uint256"},{"name":"availableValue","type":"int256","internalType":"int256"},{"name":"orderHoldInUsd","type":"uint256","internalType":"uint256"},{"name":"crossMMR","type":"int256","internalType":"int256"},{"name":"crossNetValue","type":"int256","internalType":"int256"},{"name":"totalMM","type":"uint256","internalType":"uint256"}]}],"stateMutability":"view"},{"type":"error","name":"AmountNotMatch","inputs":[{"name":"amount1","type":"uint256","internalType":"uint256"},{"name":"amount2","type":"uint256","internalType":"uint256"}]},{"type":"error","name":"AmountZeroNotAllowed","inputs":[]},{"type":"error","name":"InvalidRoleAccess","inputs":[{"name":"account","type":"address","internalType":"address"},{"name":"role","type":"bytes32","internalType":"bytes32"}]},{"type":"error","name":"OnlyCollateralSupported","inputs":[]},{"type":"error","name":"WithdrawRequestNotExists","inputs":[]}],"bytecode":{"object":"0x6080604052348015600f57600080fd5b50611cfd8061001f6000396000f3fe6080604052600436106100745760003560e01c806347e7ef241161004e57806347e7ef24146100e2578063750b5a19146100f55780637b510fe814610115578063abac56651461014b57600080fd5b806302e9d19914610080578063115647f7146100a257806313874d37146100c257600080fd5b3661007b57005b600080fd5b34801561008c57600080fd5b506100a061009b3660046113a1565b61016b565b005b3480156100ae57600080fd5b506100a06100bd3660046113ec565b610353565b3480156100ce57600080fd5b506100a06100dd366004611426565b61043b565b6100a06100f036600461145d565b61055e565b34801561010157600080fd5b506100a061011036600461145d565b610774565b34801561012157600080fd5b50610135610130366004611489565b610875565b604051610142919061156d565b60405180910390f35b34801561015757600080fd5b50610135610166366004611642565b610c3a565b61017d6525a2a2a822a960d11b61120e565b604051634a83e9cd60e11b81526004810184905260009073__$1f82edfaba53aca26a2c90be36f4e4230e$__90639507d39a90602401606060405180830381865af41580156101d0573d6000803e3d6000fd5b505050506040513d601f19601f820116820180604052508101906101f491906116fc565b80519091506001600160a01b031661021f576040516324d9d15b60e01b815260040160405180910390fd5b604051631d4cb62f60e21b815273__$76a505dbd6210c6de5172a9e6577e0d579$__90637532d8bc9061025890869086906004016117cf565b60006040518083038186803b15801561027057600080fd5b505af4158015610284573d6000803e3d6000fd5b5050604051632c7dadbd60e21b815273__$ae0937d060466c56d4bdd1eafaed47a473$__925063b1f6b6f491506102c190879085906004016117e3565b60006040518083038186803b1580156102d957600080fd5b505af41580156102ed573d6000803e3d6000fd5b5050505073__$76a505dbd6210c6de5172a9e6577e0d579$__63e52ed3656040518163ffffffff1660e01b815260040160006040518083038186803b15801561033557600080fd5b505af4158015610349573d6000803e3d6000fd5b5050505050505050565b73__$2b00c9d0cdf78dd5187c9c951fc5cff71b$__637ff8770061037a6020840184611489565b6040516001600160e01b031960e084901b1681526001600160a01b03909116600482015260240160006040518083038186803b1580156103b957600080fd5b505af41580156103cd573d6000803e3d6000fd5b505060405163eec5b28760e01b815273__$ae0937d060466c56d4bdd1eafaed47a473$__925063eec5b2879150610408908490600401611861565b60006040518083038186803b15801561042057600080fd5b505af4158015610434573d6000803e3d6000fd5b5050505050565b61044d6525a2a2a822a960d11b61120e565b604051634a83e9cd60e11b81526004810183905260009073__$1f82edfaba53aca26a2c90be36f4e4230e$__90639507d39a90602401606060405180830381865af41580156104a0573d6000803e3d6000fd5b505050506040513d601f19601f820116820180604052508101906104c491906116fc565b80519091506001600160a01b03166104ef576040516324d9d15b60e01b815260040160405180910390fd5b60405162b5903160e31b815273__$ae0937d060466c56d4bdd1eafaed47a473$__906305ac81889061052990869085908790600401611920565b60006040518083038186803b15801561054157600080fd5b505af4158015610555573d6000803e3d6000fd5b50505050505050565b8060000361057f57604051630b4fc37360e11b815260040160405180910390fd5b6001600160a01b038216158080156105975750813414155b156105c357604051630cca541d60e11b8152346004820152602481018390526044015b60405180910390fd5b8015801561064c575060405163e981fddd60e01b81526001600160a01b038416600482015273__$09a3fa90069f9d570d0ba0decbda5b35e6$__9063e981fddd9060240161012060405180830381865af4158015610625573d6000803e3d6000fd5b505050506040513d601f19601f820116820180604052508101906106499190611974565b51155b1561066a5760405163219fc4b560e11b815260040160405180910390fd5b600033905073__$ae0937d060466c56d4bdd1eafaed47a473$__63996dd59e6040518060a00160405280846001600160a01b03168152602001856106ae578761071e565b73__$403afd1716c71ad05f9fd75974b23df554$__63606c0c946040518163ffffffff1660e01b815260040161012060405180830381865af41580156106f8573d6000803e3d6000fd5b505050506040513d601f19601f8201168201806040525081019061071c91906119f6565b515b6001600160a01b0316815260208101879052604001600081526020018515158152506040518263ffffffff1660e01b815260040161075c9190611a1a565b60006040518083038186803b15801561033557600080fd5b604051627ff87760e81b81526001600160a01b038316600482015273__$2b00c9d0cdf78dd5187c9c951fc5cff71b$__90637ff877009060240160006040518083038186803b1580156107c657600080fd5b505af41580156107da573d6000803e3d6000fd5b50505050806000036107ff57604051630b4fc37360e11b815260040160405180910390fd5b60405163750b5a1960e01b81526001600160a01b03831660048201526024810182905273__$ae0937d060466c56d4bdd1eafaed47a473$__9063750b5a199060440160006040518083038186803b15801561085957600080fd5b505af415801561086d573d6000803e3d6000fd5b505050505050565b61087d6112f3565b604051630bd039cd60e21b81526001600160a01b038316600482015260009073__$a224e41da3178beb3af7fdcdf4ade93682$__90632f40e73490602401602060405180830381865af41580156108d8573d6000803e3d6000fd5b505050506040513d601f19601f820116820180604052508101906108fc9190611a81565b90506109066112f3565b604051637f80ceb160e01b81526004810183905273__$a224e41da3178beb3af7fdcdf4ade93682$__90637f80ceb190602401602060405180830381865af4158015610956573d6000803e3d6000fd5b505050506040513d601f19601f8201168201806040525081019061097a9190611a9a565b610985579392505050565b60405163b2485df360e01b81526004810183905260009073__$a224e41da3178beb3af7fdcdf4ade93682$__9063b2485df390602401600060405180830381865af41580156109d8573d6000803e3d6000fd5b505050506040513d6000823e601f3d908101601f19168201604052610a009190810190611ad8565b9050600081516001600160401b03811115610a1d57610a1d61167d565b604051908082528060200260200182016040528015610a7957816020015b610a666040518060800160405280600081526020016000815260200160008152602001600081525090565b815260200190600190039081610a3b5790505b50905060005b8251811015610b54578473__$a224e41da3178beb3af7fdcdf4ade93682$__63a68524569091858481518110610ab757610ab7611b76565b60200260200101516040518363ffffffff1660e01b8152600401610aee9291909182526001600160a01b0316602082015260400190565b608060405180830381865af4158015610b0b573d6000803e3d6000fd5b505050506040513d601f19601f82011682018060405250810190610b2f9190611b8c565b828281518110610b4157610b41611b76565b6020908102919091010152600101610a7f565b506040516335cd115160e01b81526004810185905260009073__$a224e41da3178beb3af7fdcdf4ade93682$__906335cd115190602401600060405180830381865af4158015610ba8573d6000803e3d6000fd5b505050506040513d6000823e601f3d908101601f19168201604052610bd09190810190611bf1565b60408051610160810182526001600160a01b0390991689526020890193909352918701929092526060860152505060006080840181905260a0840181905260c0840181905260019091015460e0840152610100830181905261012083018190526101408301525090565b610c426112f3565b604051630bd039cd60e21b81526001600160a01b038516600482015260009073__$a224e41da3178beb3af7fdcdf4ade93682$__90632f40e73490602401602060405180830381865af4158015610c9d573d6000803e3d6000fd5b505050506040513d601f19601f82011682018060405250810190610cc19190611a81565b9050610ccb6112f3565b604051637f80ceb160e01b81526004810183905273__$a224e41da3178beb3af7fdcdf4ade93682$__90637f80ceb190602401602060405180830381865af4158015610d1b573d6000803e3d6000fd5b505050506040513d601f19601f82011682018060405250810190610d3f9190611a9a565b610d4c5791506112079050565b60405163b2485df360e01b81526004810183905260009073__$a224e41da3178beb3af7fdcdf4ade93682$__9063b2485df390602401600060405180830381865af4158015610d9f573d6000803e3d6000fd5b505050506040513d6000823e601f3d908101601f19168201604052610dc79190810190611ad8565b9050600081516001600160401b03811115610de457610de461167d565b604051908082528060200260200182016040528015610e4057816020015b610e2d6040518060800160405280600081526020016000815260200160008152602001600081525090565b815260200190600190039081610e025790505b50905060005b8251811015610f1b578473__$a224e41da3178beb3af7fdcdf4ade93682$__63a68524569091858481518110610e7e57610e7e611b76565b60200260200101516040518363ffffffff1660e01b8152600401610eb59291909182526001600160a01b0316602082015260400190565b608060405180830381865af4158015610ed2573d6000803e3d6000fd5b505050506040513d601f19601f82011682018060405250810190610ef69190611b8c565b828281518110610f0857610f08611b76565b6020908102919091010152600101610e46565b5060405163c0a12cd760e01b81526000908190819073__$9a5c99e2d87ca73b3b96a7a2a94d399197$__9063c0a12cd790610f5e908a908e908e90600401611c76565b606060405180830381865af4158015610f7b573d6000803e3d6000fd5b505050506040513d601f19601f82011682018060405250810190610f9f9190611c99565b604051633ca45c2f60e21b8152929550909350915060009073__$9a5c99e2d87ca73b3b96a7a2a94d399197$__9063f29170bc90610fe5908b908f908f90600401611c76565b602060405180830381865af4158015611002573d6000803e3d6000fd5b505050506040513d601f19601f820116820180604052508101906110269190611a81565b90506040518061016001604052808d6001600160a01b031681526020018681526020018781526020018973__$a224e41da3178beb3af7fdcdf4ade93682$__6335cd115190916040518263ffffffff1660e01b815260040161108a91815260200190565b600060405180830381865af41580156110a7573d6000803e3d6000fd5b505050506040513d6000823e601f3d908101601f191682016040526110cf9190810190611bf1565b81526020018973__$9a5c99e2d87ca73b3b96a7a2a94d399197$__639ab05b4a90918f8f6040518463ffffffff1660e01b815260040161111193929190611c76565b602060405180830381865af415801561112e573d6000803e3d6000fd5b505050506040513d601f19601f820116820180604052508101906111529190611a81565b81526020018973__$9a5c99e2d87ca73b3b96a7a2a94d399197$__633538b71090918f8f6040518463ffffffff1660e01b815260040161119493929190611c76565b602060405180830381865af41580156111b1573d6000803e3d6000fd5b505050506040513d601f19601f820116820180604052508101906111d59190611a81565b8152602081019290925260019098015460408201526060810193909352608083019190915260a0909101525091925050505b9392505050565b6112183382611241565b61123e57604051632d7d0e0d60e21b8152336004820152602481018290526044016105ba565b50565b60008061124c611279565b6001600160a01b038516600090815260208290526040902090915061127190846112db565b949350505050565b6000806040516020016112bd906020808252601e908201527f78797a2e656c66692e73746f726167652e416363657373436f6e74726f6c0000604082015260600190565b60408051601f19818403018152919052805160209091012092915050565b60008181526001830160205260408120541515611207565b60405180610160016040528060006001600160a01b03168152602001606081526020016060815260200160608152602001600081526020016000815260200160008152602001600081526020016000815260200160008152602001600081525090565b60008083601f84011261136857600080fd5b5081356001600160401b0381111561137f57600080fd5b6020830191508360208260071b850101111561139a57600080fd5b9250929050565b6000806000604084860312156113b657600080fd5b8335925060208401356001600160401b038111156113d357600080fd5b6113df86828701611356565b9497909650939450505050565b6000602082840312156113fe57600080fd5b81356001600160401b0381111561141457600080fd5b82016060818503121561120757600080fd5b6000806040838503121561143957600080fd5b50508035926020909101359150565b6001600160a01b038116811461123e57600080fd5b6000806040838503121561147057600080fd5b823561147b81611448565b946020939093013593505050565b60006020828403121561149b57600080fd5b813561120781611448565b60008151808452602080850194506020840160005b838110156114f75781518051885283810151848901526040808201519089015260609081015190880152608090960195908201906001016114bb565b509495945050505050565b60008151808452602080850194506020840160005b838110156114f75781516001600160a01b031687529582019590820190600101611517565b60008151808452602080850194506020840160005b838110156114f757815187529582019590820190600101611551565b602081526115876020820183516001600160a01b03169052565b600060208301516101608060408501526115a56101808501836114a6565b91506040850151601f19808685030160608701526115c38483611502565b93506060870151915080868503016080870152506115e1838261153c565b925050608085015160a085015260a085015160c085015260c085015160e085015260e0850151610100818187015280870151915050610120818187015280870151915050610140818187015280870151838701525050508091505092915050565b60008060006040848603121561165757600080fd5b833561166281611448565b925060208401356001600160401b038111156113d357600080fd5b634e487b7160e01b600052604160045260246000fd5b60405161012081016001600160401b03811182821017156116b6576116b661167d565b60405290565b604051601f8201601f191681016001600160401b03811182821017156116e4576116e461167d565b604052919050565b80516116f781611448565b919050565b60006060828403121561170e57600080fd5b604051606081018181106001600160401b03821117156117305761173061167d565b604052825161173e81611448565b8152602083015161174e81611448565b60208201526040928301519281019290925250919050565b8183526000602080850194508260005b858110156114f757813561178981611448565b6001600160a01b03908116885282840135906117a482611448565b1687840152604082810135908801526060808301359088015260809687019690910190600101611776565b602081526000611271602083018486611766565b82815260808101611207602083018480516001600160a01b03908116835260208083015190911690830152604090810151910152565b6000808335601e1984360301811261183057600080fd5b83016020810192503590506001600160401b0381111561184f57600080fd5b8060051b360382131561139a57600080fd5b6000602080835260808301843561187781611448565b6001600160a01b038181168685015261189287850188611819565b6060604089015293849052929150600060a087015b838210156118d05784356118ba81611448565b83168152938501936001919091019085016118a7565b6118dd60408a018a611819565b898303601f190160608b01528083529550935085019150600090505b83811015611915578235825291840191908401906001016118f9565b509695505050505050565b83815260a08101611956602083018580516001600160a01b03908116835260208083015190911690830152604090810151910152565b826080830152949350505050565b805180151581146116f757600080fd5b6000610120828403121561198757600080fd5b61198f611693565b61199883611964565b81526020830151602082015260408301516040820152606083015160608201526080830151608082015260a083015160a082015260c083015160c082015260e083015160e08201526101008084015181830152508091505092915050565b60006101208284031215611a0957600080fd5b611a11611693565b611998836116ec565b81516001600160a01b0390811682526020808401519091169082015260408083015190820152606082015160a082019060048110611a6857634e487b7160e01b600052602160045260246000fd5b8060608401525060808301511515608083015292915050565b600060208284031215611a9357600080fd5b5051919050565b600060208284031215611aac57600080fd5b61120782611964565b60006001600160401b03821115611ace57611ace61167d565b5060051b60200190565b60006020808385031215611aeb57600080fd5b82516001600160401b03811115611b0157600080fd5b8301601f81018513611b1257600080fd5b8051611b25611b2082611ab5565b6116bc565b81815260059190911b82018301908381019087831115611b4457600080fd5b928401925b82841015611b6b578351611b5c81611448565b82529284019290840190611b49565b979650505050505050565b634e487b7160e01b600052603260045260246000fd5b600060808284031215611b9e57600080fd5b604051608081018181106001600160401b0382111715611bc057611bc061167d565b8060405250825181526020830151602082015260408301516040820152606083015160608201528091505092915050565b60006020808385031215611c0457600080fd5b82516001600160401b03811115611c1a57600080fd5b8301601f81018513611c2b57600080fd5b8051611c39611b2082611ab5565b81815260059190911b82018301908381019087831115611c5857600080fd5b928401925b82841015611b6b57835182529284019290840190611c5d565b838152604060208201526000611c90604083018486611766565b95945050505050565b600080600060608486031215611cae57600080fd5b835192506020840151915060408401519050925092509256fea26469706673582212201c16f956bdf50ed1b318997674d892c9fa3917e74eab317d2c4849b2bbb5833a64736f6c63430008190033","linkReferences":{"contracts/process/AccountProcess.sol":{"AccountProcess":[{"start":3921,"length":20},{"start":4056,"length":20},{"start":4342,"length":20},{"start":4473,"length":20}]},"contracts/process/AssetsProcess.sol":{"AssetsProcess":[{"start":692,"length":20},{"start":1021,"length":20},{"start":1308,"length":20},{"start":1680,"length":20},{"start":2115,"length":20}]},"contracts/process/OracleProcess.sol":{"OracleProcess":[{"start":589,"length":20},{"start":786,"length":20}]},"contracts/storage/Account.sol":{"Account":[{"start":2237,"length":20},{"start":2363,"length":20},{"start":2493,"length":20},{"start":2730,"length":20},{"start":2957,"length":20},{"start":3202,"length":20},{"start":3328,"length":20},{"start":3460,"length":20},{"start":3697,"length":20},{"start":4209,"length":20}]},"contracts/storage/AppConfig.sol":{"AppConfig":[{"start":1743,"length":20}]},"contracts/storage/AppTradeTokenConfig.sol":{"AppTradeTokenConfig":[{"start":1545,"length":20}]},"contracts/storage/Withdraw.sol":{"Withdraw":[{"start":437,"length":20},{"start":1157,"length":20}]},"contracts/utils/AddressUtils.sol":{"AddressUtils":[{"start":884,"length":20},{"start":1968,"length":20}]}}},"methodIdentifiers":{"batchUpdateAccountToken((address,address[],int256[]))":"115647f7","cancelWithdraw(uint256,bytes32)":"13874d37","createWithdrawRequest(address,uint256)":"750b5a19","deposit(address,uint256)":"47e7ef24","executeWithdraw(uint256,(address,address,int256,int256)[])":"02e9d199","getAccountInfo(address)":"7b510fe8","getAccountInfoWithOracles(address,(address,address,int256,int256)[])":"abac5665"},"id":1}