{"abi":[{"type":"function","name":"requestTokens","inputs":[{"name":"param","type":"tuple","internalType":"struct IFaucet.RequestTokensParam","components":[{"name":"account","type":"address","internalType":"address"},{"name":"mockTokens","type":"address[]","internalType":"address[]"},{"name":"mintAmounts","type":"uint256[]","internalType":"uint256[]"},{"name":"ethAmount","type":"uint256","internalType":"uint256"}]}],"outputs":[],"stateMutability":"payable"},{"type":"error","name":"InvalidRoleAccess","inputs":[{"name":"account","type":"address","internalType":"address"},{"name":"role","type":"bytes32","internalType":"bytes32"}]}],"bytecode":{"object":"0x6080604052348015600f57600080fd5b506103b98061001f6000396000f3fe60806040526004361061001e5760003560e01c8063ff88370414610023575b600080fd5b6100366100313660046102b8565b610038565b005b61004a6525a2a2a822a960d11b6101cc565b60005b61005a60208301836102f3565b90508110156101405761007060208301836102f3565b8281811061008057610080610344565b9050602002016020810190610095919061035a565b6001600160a01b03166340c10f196100b0602085018561035a565b6100bd60408601866102f3565b858181106100cd576100cd610344565b6040516001600160e01b031960e087901b1681526001600160a01b0390941660048501526020029190910135602483015250604401600060405180830381600087803b15801561011c57600080fd5b505af1158015610130573d6000803e3d6000fd5b50506001909201915061004d9050565b5073__$8526888d218a843cc53a77a3ceb13f6b1f$__637c4368c1610168602084018461035a565b6040516001600160e01b031960e084901b1681526001600160a01b0390911660048201526060840135602482015260440160006040518083038186803b1580156101b157600080fd5b505af41580156101c5573d6000803e3d6000fd5b5050505050565b6101d63382610203565b61020057604051632d7d0e0d60e21b81523360048201526024810182905260440160405180910390fd5b50565b60008061020e61023b565b6001600160a01b0385166000908152602082905260409020909150610233908461029d565b949350505050565b60008060405160200161027f906020808252601e908201527f78797a2e656c66692e73746f726167652e416363657373436f6e74726f6c0000604082015260600190565b60408051601f19818403018152919052805160209091012092915050565b600081815260018301602052604081205415155b9392505050565b6000602082840312156102ca57600080fd5b813567ffffffffffffffff8111156102e157600080fd5b8201608081850312156102b157600080fd5b6000808335601e1984360301811261030a57600080fd5b83018035915067ffffffffffffffff82111561032557600080fd5b6020019150600581901b360382131561033d57600080fd5b9250929050565b634e487b7160e01b600052603260045260246000fd5b60006020828403121561036c57600080fd5b81356001600160a01b03811681146102b157600080fdfea264697066735822122040336286b6b0998d6431b0fc80c53b4d7510c2e3093c200a40235f573de46b7464736f6c63430008190033","linkReferences":{"contracts/process/VaultProcess.sol":{"VaultProcess":[{"start":354,"length":20}]}}},"methodIdentifiers":{"requestTokens((address,address[],uint256[],uint256))":"ff883704"},"id":5}