{
  "_format": "hh-sol-artifact-1",
  "contractName": "Order",
  "sourceName": "contracts/storage/Order.sol",
  "abi": [
    {
      "inputs": [
        {
          "internalType": "uint256[]",
          "name": "orders",
          "type": "uint256[]"
        },
        {
          "internalType": "bytes32",
          "name": "symbol",
          "type": "bytes32"
        },
        {
          "internalType": "address",
          "name": "marginToken",
          "type": "address"
        },
        {
          "internalType": "bool",
          "name": "isCrossMargin",
          "type": "bool"
        }
      ],
      "name": "hasOtherShortOrders",
      "outputs": [
        {
          "internalType": "bool",
          "name": "",
          "type": "bool"
        }
      ],
      "stateMutability": "view",
      "type": "function"
    }
  ],
  "bytecode": "0x61090a61003a600b82828239805160001a60731461002d57634e487b7160e01b600052600060045260246000fd5b30600052607381538281f3fe73000000000000000000000000000000000000000030146080604052600436106100925760003560e01c806386d5c4be1161006557806386d5c4be146101b75780639507d39a14610191578063c000c8ee146101bf578063cb7aac6a146101df57600080fd5b80634cc8221514610097578063540a61e2146100b957806358b7169a146100d9578063780900dc14610191575b600080fd5b8180156100a357600080fd5b506100b76100b23660046105d2565b610202565b005b8180156100c557600080fd5b506100b76100d436600461070c565b6102a7565b8180156100e557600080fd5b506100b76100f436600461078d565b60009081526020919091526040812080547fffffffffffffffffffffffff0000000000000000000000000000000000000000168155600181018290556002810180547fffffffffffff000000000000000000000000000000000000000000000000000016905560038101829055600481018290556005810182905560068101829055600781018290556008810182905560098101829055600a0155565b6101a461019f3660046105d2565b610414565b6040519081526020015b60405180910390f35b6101a4610430565b6101a46101cd36600461078d565b60009081526020919091526040902090565b6101f26101ed3660046107af565b6104b0565b60405190151581526020016101ae565b600061020c610430565b6000928352602052506040812080547fffffffffffffffffffffffff0000000000000000000000000000000000000000168155600181018290556002810180547fffffffffffff000000000000000000000000000000000000000000000000000016905560038101829055600481018290556005810182905560068101829055600781018290556008810182905560098101829055600a0155565b60006102b1610430565b905060005b875181101561040a5760008260000160008a84815181106102d9576102d9610817565b60200260200101518152602001908152602001600020905060006001600281111561030657610306610846565b60028084015460ff169081111561031f5761031f610846565b60028401549114915060ff6401000000009091041615158515151480156103495750888260010154145b801561037b5750600282015473ffffffffffffffffffffffffffffffffffffffff898116660100000000000090920416145b80156103e857508515158115151480156103b257506001600283810154610100900460ff16908111156103b0576103b0610846565b145b806103e85750851515811515141580156103e8575060028083810154610100900460ff16908111156103e6576103e6610846565b145b156103f557600482018790555b5050808061040290610875565b9150506102b6565b5050505050505050565b60008061041f610430565b600093845260205250506040902090565b6000806040516020016104749060208082526016908201527f78797a2e656c66692e73746f726167652e4f7264657200000000000000000000604082015260600190565b604080517fffffffffffffffffffffffffffffffffffffffffffffffffffffffffffffffe0818403018152919052805160209091012092915050565b6000806104bb610430565b905060005b86518110156105c35760008260000160008984815181106104e3576104e3610817565b6020026020010151815260200190815260200160002090508681600101541480156105355750600281015473ffffffffffffffffffffffffffffffffffffffff87811666010000000000009092041614155b80156105545750600281015460ff640100000000909104161515851515145b801561057d57506001600282810154610100900460ff169081111561057b5761057b610846565b145b801561059f575060028181015460ff168181111561059d5761059d610846565b145b156105b057600193505050506105ca565b50806105bb81610875565b9150506104c0565b5060009150505b949350505050565b6000602082840312156105e457600080fd5b5035919050565b7f4e487b7100000000000000000000000000000000000000000000000000000000600052604160045260246000fd5b600082601f83011261062b57600080fd5b8135602067ffffffffffffffff80831115610648576106486105eb565b8260051b6040517fffffffffffffffffffffffffffffffffffffffffffffffffffffffffffffffe0603f8301168101818110848211171561068b5761068b6105eb565b6040529384528581018301938381019250878511156106a957600080fd5b83870191505b848210156106c8578135835291830191908301906106af565b979650505050505050565b803573ffffffffffffffffffffffffffffffffffffffff811681146106f757600080fd5b919050565b803580151581146106f757600080fd5b60008060008060008060c0878903121561072557600080fd5b863567ffffffffffffffff81111561073c57600080fd5b61074889828a0161061a565b9650506020870135945061075e604088016106d3565b935060608701359250610773608088016106fc565b915061078160a088016106fc565b90509295509295509295565b600080604083850312156107a057600080fd5b50508035926020909101359150565b600080600080608085870312156107c557600080fd5b843567ffffffffffffffff8111156107dc57600080fd5b6107e88782880161061a565b945050602085013592506107fe604086016106d3565b915061080c606086016106fc565b905092959194509250565b7f4e487b7100000000000000000000000000000000000000000000000000000000600052603260045260246000fd5b7f4e487b7100000000000000000000000000000000000000000000000000000000600052602160045260246000fd5b60007fffffffffffffffffffffffffffffffffffffffffffffffffffffffffffffffff82036108cd577f4e487b7100000000000000000000000000000000000000000000000000000000600052601160045260246000fd5b506001019056fea2646970667358221220e43a734dd39a069981ba9dfc8842440c19eb733b9a80147959a1c8badc96372f64736f6c63430008120033",
  "linkReferences": {},
  "deployedLinkReferences": {}
}