{
  "_format": "hh-sol-artifact-1",
  "contractName": "PermissionFlag",
  "sourceName": "contracts/storage/PermissionFlag.sol",
  "abi": [
    {
      "inputs": [
        {
          "internalType": "address",
          "name": "to",
          "type": "address"
        }
      ],
      "name": "AddressDenied",
      "type": "error"
    },
    {
      "inputs": [],
      "name": "ALL_PERMISSION_FLAG",
      "outputs": [
        {
          "internalType": "bytes32",
          "name": "",
          "type": "bytes32"
        }
      ],
      "stateMutability": "view",
      "type": "function"
    },
    {
      "inputs": [],
      "name": "BURN_PERMISSION_FLAG",
      "outputs": [
        {
          "internalType": "bytes32",
          "name": "",
          "type": "bytes32"
        }
      ],
      "stateMutability": "view",
      "type": "function"
    },
    {
      "inputs": [],
      "name": "DEPOSIT_PERMISSION_FLAG",
      "outputs": [
        {
          "internalType": "bytes32",
          "name": "",
          "type": "bytes32"
        }
      ],
      "stateMutability": "view",
      "type": "function"
    },
    {
      "inputs": [],
      "name": "MINT_PERMISSION_FLAG",
      "outputs": [
        {
          "internalType": "bytes32",
          "name": "",
          "type": "bytes32"
        }
      ],
      "stateMutability": "view",
      "type": "function"
    },
    {
      "inputs": [],
      "name": "ORDER_PERMISSION_FLAG",
      "outputs": [
        {
          "internalType": "bytes32",
          "name": "",
          "type": "bytes32"
        }
      ],
      "stateMutability": "view",
      "type": "function"
    },
    {
      "inputs": [],
      "name": "WITHDRAW_PERMISSION_FLAG",
      "outputs": [
        {
          "internalType": "bytes32",
          "name": "",
          "type": "bytes32"
        }
      ],
      "stateMutability": "view",
      "type": "function"
    },
    {
      "inputs": [
        {
          "internalType": "bytes32",
          "name": "featureKey",
          "type": "bytes32"
        },
        {
          "internalType": "address",
          "name": "to",
          "type": "address"
        }
      ],
      "name": "isAllowed",
      "outputs": [
        {
          "internalType": "bool",
          "name": "",
          "type": "bool"
        }
      ],
      "stateMutability": "view",
      "type": "function"
    },
    {
      "inputs": [
        {
          "internalType": "bytes32",
          "name": "featureKey",
          "type": "bytes32"
        },
        {
          "internalType": "address",
          "name": "to",
          "type": "address"
        }
      ],
      "name": "isDenied",
      "outputs": [
        {
          "internalType": "bool",
          "name": "",
          "type": "bool"
        }
      ],
      "stateMutability": "view",
      "type": "function"
    },
    {
      "inputs": [
        {
          "internalType": "bytes32",
          "name": "featureKey",
          "type": "bytes32"
        },
        {
          "internalType": "address",
          "name": "to",
          "type": "address"
        }
      ],
      "name": "validDenied",
      "outputs": [],
      "stateMutability": "view",
      "type": "function"
    }
  ],
  "bytecode": "0x61051661003a600b82828239805160001a60731461002d57634e487b7160e01b600052600060045260246000fd5b30600052607381538281f3fe73000000000000000000000000000000000000000030146080604052600436106100c85760003560e01c806382027b6d11610080578063f035079911610065578063f0350799146101db578063f2ac8a6914610247578063fa03b4d2146102e657600080fd5b806382027b6d1461019157806393706228146101b457600080fd5b806348355ba7116100b157806348355ba71461011c578063763dde02146101435780637d8f6a461461016a57600080fd5b806315bb2e93146100cd5780631a4e7ede146100e2575b600080fd5b6100e06100db36600461047e565b61030d565b005b6101097f3b226e539733dbbabd4b4d14a11468ade4803c50e42aa599bd4c8c5bb9a8c6bd81565b6040519081526020015b60405180910390f35b6101097f693bdef2aaf3effda459e6a1e4d3faec120b1fab8b8534ebb5f653f9c7f7c59b81565b6101097f61f941c7db6274ccb062eb4f91c9b01f90aed8f6789f1cc23ba31735d307dafe81565b6101097f036a8f0409abfd6ac7133e4e64806c130f78573525195f75d9cf483447e6ed3781565b6101a461019f36600461047e565b6103e9565b6040519015158152602001610113565b6101097f4fa14d620357ceaf4556d627fb221a6ca187f52b73b3acef53780fd68f02474d81565b6101096101e93660046104c7565b604080516020808201839052601b60608301527f78797a2e656c66692e73746f726167652e5065726d697373696f6e0000000000608080840191909152828401949094528251808303909401845260a0909101909152815191012090565b6101a461025536600461047e565b604080516020808201839052601b60608301527f78797a2e656c66692e73746f726167652e5065726d697373696f6e00000000006080808401919091528284018690528351808403909101815260a09092019092528051910120600090819073ffffffffffffffffffffffffffffffffffffffff841660009081526003820160205260409020549091501515610476565b6101097f6addd3c34c04de28a18f3d7a5666c3a2db4f23e56d2e0e05876b411139557b6081565b604080516020808201839052601b60608301527f78797a2e656c66692e73746f726167652e5065726d697373696f6e00000000006080808401919091528284018690528351808403909101815260a0909201835281519181019190912073ffffffffffffffffffffffffffffffffffffffff841660009081526003820190925291902054156103e4576040517f6cb9065a00000000000000000000000000000000000000000000000000000000815273ffffffffffffffffffffffffffffffffffffffff8316600482015260240160405180910390fd5b505050565b604080516020808201839052601b60608301527f78797a2e656c66692e73746f726167652e5065726d697373696f6e00000000006080808401919091528284018690528351808403909101815260a09092019092528051910120600090819073ffffffffffffffffffffffffffffffffffffffff8416600090815260018201602052604090205490915015155b949350505050565b6000806040838503121561049157600080fd5b82359150602083013573ffffffffffffffffffffffffffffffffffffffff811681146104bc57600080fd5b809150509250929050565b6000602082840312156104d957600080fd5b503591905056fea2646970667358221220c1a1afb44a308fe2f4dd920a487afefeea2894985c6f2a1d8c1a810392eed09364736f6c63430008120033",
  "linkReferences": {},
  "deployedLinkReferences": {}
}