{
  "_format": "hh-sol-artifact-1",
  "contractName": "AppTradeConfig",
  "sourceName": "contracts/storage/AppTradeConfig.sol",
  "abi": [
    {
      "inputs": [],
      "name": "AUTO_REDUCE_LIQUIDITY_FACTOR",
      "outputs": [
        {
          "internalType": "bytes32",
          "name": "",
          "type": "bytes32"
        }
      ],
      "stateMutability": "view",
      "type": "function"
    },
    {
      "inputs": [],
      "name": "AUTO_REDUCE_PROFIT_FACTOR",
      "outputs": [
        {
          "internalType": "bytes32",
          "name": "",
          "type": "bytes32"
        }
      ],
      "stateMutability": "view",
      "type": "function"
    },
    {
      "inputs": [],
      "name": "AVAILABLE_COLLATERAL_RATIO",
      "outputs": [
        {
          "internalType": "bytes32",
          "name": "",
          "type": "bytes32"
        }
      ],
      "stateMutability": "view",
      "type": "function"
    },
    {
      "inputs": [],
      "name": "BORROWING_FEE_POOL_REWARDS_RATIO",
      "outputs": [
        {
          "internalType": "bytes32",
          "name": "",
          "type": "bytes32"
        }
      ],
      "stateMutability": "view",
      "type": "function"
    },
    {
      "inputs": [],
      "name": "BORROWING_FEE_STAKING_REWARDS_RATIO",
      "outputs": [
        {
          "internalType": "bytes32",
          "name": "",
          "type": "bytes32"
        }
      ],
      "stateMutability": "view",
      "type": "function"
    },
    {
      "inputs": [],
      "name": "CROSS_LTV_LIMIT",
      "outputs": [
        {
          "internalType": "bytes32",
          "name": "",
          "type": "bytes32"
        }
      ],
      "stateMutability": "view",
      "type": "function"
    },
    {
      "inputs": [],
      "name": "FUNDING_FEE_BASE_RATE",
      "outputs": [
        {
          "internalType": "bytes32",
          "name": "",
          "type": "bytes32"
        }
      ],
      "stateMutability": "view",
      "type": "function"
    },
    {
      "inputs": [],
      "name": "MAX_FUNDING_BASE_RATE",
      "outputs": [
        {
          "internalType": "bytes32",
          "name": "",
          "type": "bytes32"
        }
      ],
      "stateMutability": "view",
      "type": "function"
    },
    {
      "inputs": [],
      "name": "MAX_MAINTENANCE_MARGIN_RATE",
      "outputs": [
        {
          "internalType": "bytes32",
          "name": "",
          "type": "bytes32"
        }
      ],
      "stateMutability": "view",
      "type": "function"
    },
    {
      "inputs": [],
      "name": "MIN_ORDER_MARGIN_USD",
      "outputs": [
        {
          "internalType": "bytes32",
          "name": "",
          "type": "bytes32"
        }
      ],
      "stateMutability": "view",
      "type": "function"
    },
    {
      "inputs": [],
      "name": "SWAP_SLIPPER_TOKEN_FACTOR",
      "outputs": [
        {
          "internalType": "bytes32",
          "name": "",
          "type": "bytes32"
        }
      ],
      "stateMutability": "view",
      "type": "function"
    },
    {
      "inputs": [],
      "name": "TRADE_TOKENS",
      "outputs": [
        {
          "internalType": "bytes32",
          "name": "",
          "type": "bytes32"
        }
      ],
      "stateMutability": "view",
      "type": "function"
    },
    {
      "inputs": [],
      "name": "TRADING_FEE_POOL_REWARDS_RATIO",
      "outputs": [
        {
          "internalType": "bytes32",
          "name": "",
          "type": "bytes32"
        }
      ],
      "stateMutability": "view",
      "type": "function"
    },
    {
      "inputs": [],
      "name": "TRADING_FEE_STAKING_REWARDS_RATIO",
      "outputs": [
        {
          "internalType": "bytes32",
          "name": "",
          "type": "bytes32"
        }
      ],
      "stateMutability": "view",
      "type": "function"
    },
    {
      "inputs": [],
      "name": "TRADING_FEE_USD_POOL_REWARDS_RATIO",
      "outputs": [
        {
          "internalType": "bytes32",
          "name": "",
          "type": "bytes32"
        }
      ],
      "stateMutability": "view",
      "type": "function"
    },
    {
      "inputs": [],
      "name": "getTradeConfig",
      "outputs": [
        {
          "components": [
            {
              "internalType": "address[]",
              "name": "tradeTokens",
              "type": "address[]"
            },
            {
              "components": [
                {
                  "internalType": "bool",
                  "name": "isSupportCollateral",
                  "type": "bool"
                },
                {
                  "internalType": "uint256",
                  "name": "precision",
                  "type": "uint256"
                },
                {
                  "internalType": "uint256",
                  "name": "discount",
                  "type": "uint256"
                },
                {
                  "internalType": "uint256",
                  "name": "collateralUserCap",
                  "type": "uint256"
                },
                {
                  "internalType": "uint256",
                  "name": "collateralTotalCap",
                  "type": "uint256"
                },
                {
                  "internalType": "uint256",
                  "name": "liabilityUserCap",
                  "type": "uint256"
                },
                {
                  "internalType": "uint256",
                  "name": "liabilityTotalCap",
                  "type": "uint256"
                },
                {
                  "internalType": "uint256",
                  "name": "interestRateFactor",
                  "type": "uint256"
                },
                {
                  "internalType": "uint256",
                  "name": "liquidationFactor",
                  "type": "uint256"
                }
              ],
              "internalType": "struct AppTradeTokenConfig.TradeTokenConfig[]",
              "name": "tradeTokenConfigs",
              "type": "tuple[]"
            },
            {
              "internalType": "uint256",
              "name": "minOrderMarginUSD",
              "type": "uint256"
            },
            {
              "internalType": "uint256",
              "name": "availableCollateralRatio",
              "type": "uint256"
            },
            {
              "internalType": "uint256",
              "name": "crossLtvLimit",
              "type": "uint256"
            },
            {
              "internalType": "uint256",
              "name": "maxMaintenanceMarginRate",
              "type": "uint256"
            },
            {
              "internalType": "uint256",
              "name": "fundingFeeBaseRate",
              "type": "uint256"
            },
            {
              "internalType": "uint256",
              "name": "maxFundingBaseRate",
              "type": "uint256"
            },
            {
              "internalType": "uint256",
              "name": "tradingFeeStakingRewardsRatio",
              "type": "uint256"
            },
            {
              "internalType": "uint256",
              "name": "tradingFeePoolRewardsRatio",
              "type": "uint256"
            },
            {
              "internalType": "uint256",
              "name": "tradingFeeUsdPoolRewardsRatio",
              "type": "uint256"
            },
            {
              "internalType": "uint256",
              "name": "borrowingFeeStakingRewardsRatio",
              "type": "uint256"
            },
            {
              "internalType": "uint256",
              "name": "borrowingFeePoolRewardsRatio",
              "type": "uint256"
            },
            {
              "internalType": "uint256",
              "name": "autoReduceProfitFactor",
              "type": "uint256"
            },
            {
              "internalType": "uint256",
              "name": "autoReduceLiquidityFactor",
              "type": "uint256"
            },
            {
              "internalType": "uint256",
              "name": "swapSlipperTokenFactor",
              "type": "uint256"
            }
          ],
          "internalType": "struct AppTradeConfig.TradeConfig",
          "name": "config",
          "type": "tuple"
        }
      ],
      "stateMutability": "view",
      "type": "function"
    }
  ],
  "bytecode": "0x61510161003a600b82828239805160001a60731461002d57634e487b7160e01b600052600060045260246000fd5b30600052607381538281f3fe73000000000000000000000000000000000000000030146080604052600436106101255760003560e01c80638cc4c2e9116100bc578063a8425b7a1161008b578063b458498811610070578063b4584988146101c7578063d68859a3146101dc578063de2a4ad1146101e457600080fd5b8063a8425b7a146101b7578063aa052c68146101bf57600080fd5b80638cc4c2e914610197578063964268f41461019f5780639796bc97146101a7578063a24165fb146101af57600080fd5b80633bf57085116100f85780633bf57085146101775780633dd65b191461017f578063442dc578146101875780635d05c7011461018f57600080fd5b80630f7ffc8d1461012a57806327fc28ba146101455780633071e21d1461014d5780633bb4412b14610155575b600080fd5b6101326101ec565b6040519081526020015b60405180910390f35b610132610244565b610132610285565b81801561016157600080fd5b50610175610170366004614b5e565b6102c6565b005b610132611829565b61013261186a565b6101326118d1565b610132611912565b610132611953565b610132611994565b6101326119d5565b610132611a16565b610132611a7d565b610132611abe565b6101cf611aff565b60405161013c9190614d5d565b610132612e9a565b610132612f01565b60405160200161022b906020808252818101527f424f52524f57494e475f4645455f504f4f4c5f524557415244535f524154494f604082015260600190565b6040516020818303038152906040528051906020012081565b60405160200161022b906020808252601e908201527f54524144494e475f4645455f504f4f4c5f524557415244535f524154494f0000604082015260600190565b60405160200161022b9060208082526015908201527f4d41585f46554e44494e475f424153455f524154450000000000000000000000604082015260600190565b600073__$1b86ea9efa04d6f44bb6dbbf79511d7094$__6386d5c4be6040518163ffffffff1660e01b8152600401602060405180830381865af4158015610311573d6000803e3d6000fd5b505050506040513d601f19601f820116820180604052508101906103359190614e6e565b9050600060405160200161037a906020808252600c908201527f54524144455f434f4e4649470000000000000000000000000000000000000000604082015260600190565b60405160208183030381529060405280519060200120905060008273__$1b86ea9efa04d6f44bb6dbbf79511d7094$__63f22e161d9091846040516020016103f3906020808252600c908201527f54524144455f544f4b454e530000000000000000000000000000000000000000604082015260600190565b60405160208183030381529060405280519060200120604051602001610423929190918252602082015260400190565b604051602081830303815290604052805190602001206040518363ffffffff1660e01b815260040161045f929190918252602082015260400190565b600060405180830381865af415801561047c573d6000803e3d6000fd5b505050506040513d6000823e601f3d9081017fffffffffffffffffffffffffffffffffffffffffffffffffffffffffffffffe01682016040526104c29190810190614e87565b905060005b8151811015610504576104f28282815181106104e5576104e5614f21565b6020026020010151612f42565b806104fc81614f50565b9150506104c7565b508273__$1b86ea9efa04d6f44bb6dbbf79511d7094$__6385df2a94909184604051602001610564906020808252600c908201527f54524144455f544f4b454e530000000000000000000000000000000000000000604082015260600190565b60405160208183030381529060405280519060200120604051602001610594929190918252602082015260400190565b604080517fffffffffffffffffffffffffffffffffffffffffffffffffffffffffffffffe081840301815290829052805160209091012088517fffffffff0000000000000000000000000000000000000000000000000000000060e086901b1683526106039392600401614faf565b60006040518083038186803b15801561061b57600080fd5b505af415801561062f573d6000803e3d6000fd5b5050505060005b845151811015610696576106848560000151828151811061065957610659614f21565b60200260200101518660200151838151811061067757610677614f21565b6020026020010151613b7c565b8061068e81614f50565b915050610636565b508273__$1b86ea9efa04d6f44bb6dbbf79511d7094$__635e42ae169091846040516020016106f69060208082526014908201527f4d494e5f4f524445525f4d415247494e5f555344000000000000000000000000604082015260600190565b60405160208183030381529060405280519060200120604051602001610726929190918252602082015260400190565b604080518083037fffffffffffffffffffffffffffffffffffffffffffffffffffffffffffffffe001815282825280516020909101209089015160e085901b7fffffffff0000000000000000000000000000000000000000000000000000000016835260048301939093526024820152604481019190915260640160006040518083038186803b1580156107b957600080fd5b505af41580156107cd573d6000803e3d6000fd5b505050508273__$1b86ea9efa04d6f44bb6dbbf79511d7094$__635e42ae16909184604051602001610830906020808252601a908201527f415641494c41424c455f434f4c4c41544552414c5f524154494f000000000000604082015260600190565b60405160208183030381529060405280519060200120604051602001610860929190918252602082015260400190565b604080517fffffffffffffffffffffffffffffffffffffffffffffffffffffffffffffffe081840301815290829052805160209091012060608901517fffffffff0000000000000000000000000000000000000000000000000000000060e086901b16835260048301939093526024820152604481019190915260640160006040518083038186803b1580156108f557600080fd5b505af4158015610909573d6000803e3d6000fd5b505050508273__$1b86ea9efa04d6f44bb6dbbf79511d7094$__635e42ae1690918460405160200161096c906020808252600f908201527f43524f53535f4c54565f4c494d49540000000000000000000000000000000000604082015260600190565b6040516020818303038152906040528051906020012060405160200161099c929190918252602082015260400190565b604080517fffffffffffffffffffffffffffffffffffffffffffffffffffffffffffffffe081840301815290829052805160209091012060808901517fffffffff0000000000000000000000000000000000000000000000000000000060e086901b16835260048301939093526024820152604481019190915260640160006040518083038186803b158015610a3157600080fd5b505af4158015610a45573d6000803e3d6000fd5b505050508273__$1b86ea9efa04d6f44bb6dbbf79511d7094$__635e42ae16909184604051602001610aa8906020808252601b908201527f4d41585f4d41494e54454e414e43455f4d415247494e5f524154450000000000604082015260600190565b60405160208183030381529060405280519060200120604051602001610ad8929190918252602082015260400190565b604080517fffffffffffffffffffffffffffffffffffffffffffffffffffffffffffffffe081840301815290829052805160209091012060a08901517fffffffff0000000000000000000000000000000000000000000000000000000060e086901b16835260048301939093526024820152604481019190915260640160006040518083038186803b158015610b6d57600080fd5b505af4158015610b81573d6000803e3d6000fd5b505050508273__$1b86ea9efa04d6f44bb6dbbf79511d7094$__635e42ae16909184604051602001610be49060208082526015908201527f46554e44494e475f4645455f424153455f524154450000000000000000000000604082015260600190565b60405160208183030381529060405280519060200120604051602001610c14929190918252602082015260400190565b604080517fffffffffffffffffffffffffffffffffffffffffffffffffffffffffffffffe081840301815290829052805160209091012060c08901517fffffffff0000000000000000000000000000000000000000000000000000000060e086901b16835260048301939093526024820152604481019190915260640160006040518083038186803b158015610ca957600080fd5b505af4158015610cbd573d6000803e3d6000fd5b505050508273__$1b86ea9efa04d6f44bb6dbbf79511d7094$__635e42ae16909184604051602001610d209060208082526015908201527f4d41585f46554e44494e475f424153455f524154450000000000000000000000604082015260600190565b60405160208183030381529060405280519060200120604051602001610d50929190918252602082015260400190565b604051602081830303815290604052805190602001208760e001516040518463ffffffff1660e01b8152600401610d9a939291909283526020830191909152604082015260600190565b60006040518083038186803b158015610db257600080fd5b505af4158015610dc6573d6000803e3d6000fd5b505050508273__$1b86ea9efa04d6f44bb6dbbf79511d7094$__635e42ae16909184604051602001610e4f9060208082526021908201527f54524144494e475f4645455f5354414b494e475f524557415244535f5241544960408201527f4f00000000000000000000000000000000000000000000000000000000000000606082015260800190565b60405160208183030381529060405280519060200120604051602001610e7f929190918252602082015260400190565b604080517fffffffffffffffffffffffffffffffffffffffffffffffffffffffffffffffe08184030181529082905280516020909101206101008901517fffffffff0000000000000000000000000000000000000000000000000000000060e086901b16835260048301939093526024820152604481019190915260640160006040518083038186803b158015610f1557600080fd5b505af4158015610f29573d6000803e3d6000fd5b505050508273__$1b86ea9efa04d6f44bb6dbbf79511d7094$__635e42ae16909184604051602001610f8c906020808252601e908201527f54524144494e475f4645455f504f4f4c5f524557415244535f524154494f0000604082015260600190565b60405160208183030381529060405280519060200120604051602001610fbc929190918252602082015260400190565b604080517fffffffffffffffffffffffffffffffffffffffffffffffffffffffffffffffe08184030181529082905280516020909101206101208901517fffffffff0000000000000000000000000000000000000000000000000000000060e086901b16835260048301939093526024820152604481019190915260640160006040518083038186803b15801561105257600080fd5b505af4158015611066573d6000803e3d6000fd5b505050508273__$1b86ea9efa04d6f44bb6dbbf79511d7094$__635e42ae169091846040516020016110ef9060208082526022908201527f54524144494e475f4645455f5553445f504f4f4c5f524557415244535f52415460408201527f494f000000000000000000000000000000000000000000000000000000000000606082015260800190565b6040516020818303038152906040528051906020012060405160200161111f929190918252602082015260400190565b604080517fffffffffffffffffffffffffffffffffffffffffffffffffffffffffffffffe08184030181529082905280516020909101206101408901517fffffffff0000000000000000000000000000000000000000000000000000000060e086901b16835260048301939093526024820152604481019190915260640160006040518083038186803b1580156111b557600080fd5b505af41580156111c9573d6000803e3d6000fd5b505050508273__$1b86ea9efa04d6f44bb6dbbf79511d7094$__635e42ae169091846040516020016112529060208082526023908201527f424f52524f57494e475f4645455f5354414b494e475f524557415244535f524160408201527f54494f0000000000000000000000000000000000000000000000000000000000606082015260800190565b60405160208183030381529060405280519060200120604051602001611282929190918252602082015260400190565b604080517fffffffffffffffffffffffffffffffffffffffffffffffffffffffffffffffe08184030181529082905280516020909101206101608901517fffffffff0000000000000000000000000000000000000000000000000000000060e086901b16835260048301939093526024820152604481019190915260640160006040518083038186803b15801561131857600080fd5b505af415801561132c573d6000803e3d6000fd5b505050508273__$1b86ea9efa04d6f44bb6dbbf79511d7094$__635e42ae1690918460405160200161138d906020808252818101527f424f52524f57494e475f4645455f504f4f4c5f524557415244535f524154494f604082015260600190565b604051602081830303815290604052805190602001206040516020016113bd929190918252602082015260400190565b604080517fffffffffffffffffffffffffffffffffffffffffffffffffffffffffffffffe08184030181529082905280516020909101206101808901517fffffffff0000000000000000000000000000000000000000000000000000000060e086901b16835260048301939093526024820152604481019190915260640160006040518083038186803b15801561145357600080fd5b505af4158015611467573d6000803e3d6000fd5b505050508273__$1b86ea9efa04d6f44bb6dbbf79511d7094$__635e42ae169091846040516020016114ca9060208082526019908201527f4155544f5f5245445543455f50524f4649545f464143544f5200000000000000604082015260600190565b604051602081830303815290604052805190602001206040516020016114fa929190918252602082015260400190565b604080517fffffffffffffffffffffffffffffffffffffffffffffffffffffffffffffffe08184030181529082905280516020909101206101a08901517fffffffff0000000000000000000000000000000000000000000000000000000060e086901b16835260048301939093526024820152604481019190915260640160006040518083038186803b15801561159057600080fd5b505af41580156115a4573d6000803e3d6000fd5b505050508273__$1b86ea9efa04d6f44bb6dbbf79511d7094$__635e42ae16909184604051602001611607906020808252601c908201527f4155544f5f5245445543455f4c49515549444954595f464143544f5200000000604082015260600190565b60405160208183030381529060405280519060200120604051602001611637929190918252602082015260400190565b604080517fffffffffffffffffffffffffffffffffffffffffffffffffffffffffffffffe08184030181529082905280516020909101206101c08901517fffffffff0000000000000000000000000000000000000000000000000000000060e086901b16835260048301939093526024820152604481019190915260640160006040518083038186803b1580156116cd57600080fd5b505af41580156116e1573d6000803e3d6000fd5b505050508273__$1b86ea9efa04d6f44bb6dbbf79511d7094$__635e42ae169091846040516020016117449060208082526019908201527f535741505f534c49505045525f544f4b454e5f464143544f5200000000000000604082015260600190565b60405160208183030381529060405280519060200120604051602001611774929190918252602082015260400190565b604080517fffffffffffffffffffffffffffffffffffffffffffffffffffffffffffffffe08184030181529082905280516020909101206101e08901517fffffffff0000000000000000000000000000000000000000000000000000000060e086901b1683526004830193909352602482015260448101919091526064015b60006040518083038186803b15801561180b57600080fd5b505af415801561181f573d6000803e3d6000fd5b5050505050505050565b60405160200161022b906020808252601c908201527f4155544f5f5245445543455f4c49515549444954595f464143544f5200000000604082015260600190565b60405160200161022b9060208082526023908201527f424f52524f57494e475f4645455f5354414b494e475f524557415244535f524160408201527f54494f0000000000000000000000000000000000000000000000000000000000606082015260800190565b60405160200161022b906020808252600f908201527f43524f53535f4c54565f4c494d49540000000000000000000000000000000000604082015260600190565b60405160200161022b9060208082526019908201527f4155544f5f5245445543455f50524f4649545f464143544f5200000000000000604082015260600190565b60405160200161022b906020808252601a908201527f415641494c41424c455f434f4c4c41544552414c5f524154494f000000000000604082015260600190565b60405160200161022b906020808252601b908201527f4d41585f4d41494e54454e414e43455f4d415247494e5f524154450000000000604082015260600190565b60405160200161022b9060208082526014908201527f4d494e5f4f524445525f4d415247494e5f555344000000000000000000000000604082015260600190565b60405160200161022b9060208082526021908201527f54524144494e475f4645455f5354414b494e475f524557415244535f5241544960408201527f4f00000000000000000000000000000000000000000000000000000000000000606082015260800190565b60405160200161022b9060208082526015908201527f46554e44494e475f4645455f424153455f524154450000000000000000000000604082015260600190565b60405160200161022b906020808252600c908201527f54524144455f544f4b454e530000000000000000000000000000000000000000604082015260600190565b611b7f604051806102000160405280606081526020016060815260200160008152602001600081526020016000815260200160008152602001600081526020016000815260200160008152602001600081526020016000815260200160008152602001600081526020016000815260200160008152602001600081525090565b600073__$1b86ea9efa04d6f44bb6dbbf79511d7094$__6386d5c4be6040518163ffffffff1660e01b8152600401602060405180830381865af4158015611bca573d6000803e3d6000fd5b505050506040513d601f19601f82011682018060405250810190611bee9190614e6e565b90506000604051602001611c33906020808252600c908201527f54524144455f434f4e4649470000000000000000000000000000000000000000604082015260600190565b6040516020818303038152906040528051906020012090508173__$1b86ea9efa04d6f44bb6dbbf79511d7094$__63f22e161d909183604051602001611caa906020808252600c908201527f54524144455f544f4b454e530000000000000000000000000000000000000000604082015260600190565b60405160208183030381529060405280519060200120604051602001611cda929190918252602082015260400190565b604051602081830303815290604052805190602001206040518363ffffffff1660e01b8152600401611d16929190918252602082015260400190565b600060405180830381865af4158015611d33573d6000803e3d6000fd5b505050506040513d6000823e601f3d9081017fffffffffffffffffffffffffffffffffffffffffffffffffffffffffffffffe0168201604052611d799190810190614e87565b8084525167ffffffffffffffff811115611d9557611d956148de565b604051908082528060200260200182016040528015611e1757816020015b611e0460405180610120016040528060001515815260200160008152602001600081526020016000815260200160008152602001600081526020016000815260200160008152602001600081525090565b815260200190600190039081611db35790505b50602084015260005b835151811015611f105773__$09a3fa90069f9d570d0ba0decbda5b35e6$__63e981fddd85600001518381518110611e5a57611e5a614f21565b60200260200101516040518263ffffffff1660e01b8152600401611e9a919073ffffffffffffffffffffffffffffffffffffffff91909116815260200190565b61012060405180830381865af4158015611eb8573d6000803e3d6000fd5b505050506040513d601f19601f82011682018060405250810190611edc9190615025565b84602001518281518110611ef257611ef2614f21565b60200260200101819052508080611f0890614f50565b915050611e20565b508173__$1b86ea9efa04d6f44bb6dbbf79511d7094$__638b776447909183604051602001611f709060208082526014908201527f4d494e5f4f524445525f4d415247494e5f555344000000000000000000000000604082015260600190565b60405160208183030381529060405280519060200120604051602001611fa0929190918252602082015260400190565b604051602081830303815290604052805190602001206040518363ffffffff1660e01b8152600401611fdc929190918252602082015260400190565b602060405180830381865af4158015611ff9573d6000803e3d6000fd5b505050506040513d601f19601f8201168201806040525081019061201d9190614e6e565b8360400181815250508173__$1b86ea9efa04d6f44bb6dbbf79511d7094$__638b776447909183604051602001612085906020808252601a908201527f415641494c41424c455f434f4c4c41544552414c5f524154494f000000000000604082015260600190565b604051602081830303815290604052805190602001206040516020016120b5929190918252602082015260400190565b604051602081830303815290604052805190602001206040518363ffffffff1660e01b81526004016120f1929190918252602082015260400190565b602060405180830381865af415801561210e573d6000803e3d6000fd5b505050506040513d601f19601f820116820180604052508101906121329190614e6e565b606084015260405173__$1b86ea9efa04d6f44bb6dbbf79511d7094$__90638b7764479084908490612198906020016020808252600f908201527f43524f53535f4c54565f4c494d49540000000000000000000000000000000000604082015260600190565b604051602081830303815290604052805190602001206040516020016121c8929190918252602082015260400190565b604051602081830303815290604052805190602001206040518363ffffffff1660e01b8152600401612204929190918252602082015260400190565b602060405180830381865af4158015612221573d6000803e3d6000fd5b505050506040513d601f19601f820116820180604052508101906122459190614e6e565b608084015260405173__$1b86ea9efa04d6f44bb6dbbf79511d7094$__90638b77644790849084906122ab906020016020808252601b908201527f4d41585f4d41494e54454e414e43455f4d415247494e5f524154450000000000604082015260600190565b604051602081830303815290604052805190602001206040516020016122db929190918252602082015260400190565b604051602081830303815290604052805190602001206040518363ffffffff1660e01b8152600401612317929190918252602082015260400190565b602060405180830381865af4158015612334573d6000803e3d6000fd5b505050506040513d601f19601f820116820180604052508101906123589190614e6e565b60a084015260405173__$1b86ea9efa04d6f44bb6dbbf79511d7094$__90638b77644790849084906123be9060200160208082526015908201527f46554e44494e475f4645455f424153455f524154450000000000000000000000604082015260600190565b604051602081830303815290604052805190602001206040516020016123ee929190918252602082015260400190565b604051602081830303815290604052805190602001206040518363ffffffff1660e01b815260040161242a929190918252602082015260400190565b602060405180830381865af4158015612447573d6000803e3d6000fd5b505050506040513d601f19601f8201168201806040525081019061246b9190614e6e565b60c084015260405173__$1b86ea9efa04d6f44bb6dbbf79511d7094$__90638b77644790849084906124d19060200160208082526015908201527f4d41585f46554e44494e475f424153455f524154450000000000000000000000604082015260600190565b60405160208183030381529060405280519060200120604051602001612501929190918252602082015260400190565b604051602081830303815290604052805190602001206040518363ffffffff1660e01b815260040161253d929190918252602082015260400190565b602060405180830381865af415801561255a573d6000803e3d6000fd5b505050506040513d601f19601f8201168201806040525081019061257e9190614e6e565b60e084015260405173__$1b86ea9efa04d6f44bb6dbbf79511d7094$__90638b776447908490849061260a9060200160208082526021908201527f54524144494e475f4645455f5354414b494e475f524557415244535f5241544960408201527f4f00000000000000000000000000000000000000000000000000000000000000606082015260800190565b6040516020818303038152906040528051906020012060405160200161263a929190918252602082015260400190565b604051602081830303815290604052805190602001206040518363ffffffff1660e01b8152600401612676929190918252602082015260400190565b602060405180830381865af4158015612693573d6000803e3d6000fd5b505050506040513d601f19601f820116820180604052508101906126b79190614e6e565b61010084015260405173__$1b86ea9efa04d6f44bb6dbbf79511d7094$__90638b776447908490849061271e906020016020808252601e908201527f54524144494e475f4645455f504f4f4c5f524557415244535f524154494f0000604082015260600190565b6040516020818303038152906040528051906020012060405160200161274e929190918252602082015260400190565b604051602081830303815290604052805190602001206040518363ffffffff1660e01b815260040161278a929190918252602082015260400190565b602060405180830381865af41580156127a7573d6000803e3d6000fd5b505050506040513d601f19601f820116820180604052508101906127cb9190614e6e565b61012084015260405173__$1b86ea9efa04d6f44bb6dbbf79511d7094$__90638b77644790849084906128589060200160208082526022908201527f54524144494e475f4645455f5553445f504f4f4c5f524557415244535f52415460408201527f494f000000000000000000000000000000000000000000000000000000000000606082015260800190565b60405160208183030381529060405280519060200120604051602001612888929190918252602082015260400190565b604051602081830303815290604052805190602001206040518363ffffffff1660e01b81526004016128c4929190918252602082015260400190565b602060405180830381865af41580156128e1573d6000803e3d6000fd5b505050506040513d601f19601f820116820180604052508101906129059190614e6e565b61014084015260405173__$1b86ea9efa04d6f44bb6dbbf79511d7094$__90638b77644790849084906129929060200160208082526023908201527f424f52524f57494e475f4645455f5354414b494e475f524557415244535f524160408201527f54494f0000000000000000000000000000000000000000000000000000000000606082015260800190565b604051602081830303815290604052805190602001206040516020016129c2929190918252602082015260400190565b604051602081830303815290604052805190602001206040518363ffffffff1660e01b81526004016129fe929190918252602082015260400190565b602060405180830381865af4158015612a1b573d6000803e3d6000fd5b505050506040513d601f19601f82011682018060405250810190612a3f9190614e6e565b61016084015260405173__$1b86ea9efa04d6f44bb6dbbf79511d7094$__90638b7764479084908490612aa4906020016020808252818101527f424f52524f57494e475f4645455f504f4f4c5f524557415244535f524154494f604082015260600190565b60405160208183030381529060405280519060200120604051602001612ad4929190918252602082015260400190565b604051602081830303815290604052805190602001206040518363ffffffff1660e01b8152600401612b10929190918252602082015260400190565b602060405180830381865af4158015612b2d573d6000803e3d6000fd5b505050506040513d601f19601f82011682018060405250810190612b519190614e6e565b61018084015260405173__$1b86ea9efa04d6f44bb6dbbf79511d7094$__90638b7764479084908490612bb89060200160208082526019908201527f4155544f5f5245445543455f50524f4649545f464143544f5200000000000000604082015260600190565b60405160208183030381529060405280519060200120604051602001612be8929190918252602082015260400190565b604051602081830303815290604052805190602001206040518363ffffffff1660e01b8152600401612c24929190918252602082015260400190565b602060405180830381865af4158015612c41573d6000803e3d6000fd5b505050506040513d601f19601f82011682018060405250810190612c659190614e6e565b6101a084015260405173__$1b86ea9efa04d6f44bb6dbbf79511d7094$__90638b7764479084908490612ccc906020016020808252601c908201527f4155544f5f5245445543455f4c49515549444954595f464143544f5200000000604082015260600190565b60405160208183030381529060405280519060200120604051602001612cfc929190918252602082015260400190565b604051602081830303815290604052805190602001206040518363ffffffff1660e01b8152600401612d38929190918252602082015260400190565b602060405180830381865af4158015612d55573d6000803e3d6000fd5b505050506040513d601f19601f82011682018060405250810190612d799190614e6e565b6101c084015260405173__$1b86ea9efa04d6f44bb6dbbf79511d7094$__90638b7764479084908490612de09060200160208082526019908201527f535741505f534c49505045525f544f4b454e5f464143544f5200000000000000604082015260600190565b60405160208183030381529060405280519060200120604051602001612e10929190918252602082015260400190565b604051602081830303815290604052805190602001206040518363ffffffff1660e01b8152600401612e4c929190918252602082015260400190565b602060405180830381865af4158015612e69573d6000803e3d6000fd5b505050506040513d601f19601f82011682018060405250810190612e8d9190614e6e565b6101e08401525090919050565b60405160200161022b9060208082526022908201527f54524144494e475f4645455f5553445f504f4f4c5f524557415244535f52415460408201527f494f000000000000000000000000000000000000000000000000000000000000606082015260800190565b60405160200161022b9060208082526019908201527f535741505f534c49505045525f544f4b454e5f464143544f5200000000000000604082015260600190565b600073__$1b86ea9efa04d6f44bb6dbbf79511d7094$__6386d5c4be6040518163ffffffff1660e01b8152600401602060405180830381865af4158015612f8d573d6000803e3d6000fd5b505050506040513d601f19601f82011682018060405250810190612fb19190614e6e565b90506000604051602001612ff69060208082526012908201527f54524144455f544f4b454e5f434f4e4649470000000000000000000000000000604082015260600190565b604080518083037fffffffffffffffffffffffffffffffffffffffffffffffffffffffffffffffe00181529082905280516020909101207f2f6e7e79000000000000000000000000000000000000000000000000000000008252600482018490526024820181905273ffffffffffffffffffffffffffffffffffffffff85166044830152915073__$1b86ea9efa04d6f44bb6dbbf79511d7094$__90632f6e7e7990606401602060405180830381865af41580156130b8573d6000803e3d6000fd5b505050506040513d601f19601f820116820180604052508101906130dc91906150a7565b6130e557505050565b6040517fd738518c000000000000000000000000000000000000000000000000000000008152600481018390526024810182905273ffffffffffffffffffffffffffffffffffffffff8416604482015273__$1b86ea9efa04d6f44bb6dbbf79511d7094$__9063d738518c9060640160006040518083038186803b15801561316c57600080fd5b505af4158015613180573d6000803e3d6000fd5b505050508173__$1b86ea9efa04d6f44bb6dbbf79511d7094$__63d4313265909183866040516020016131e49060208082526015908201527f49535f535550504f52545f434f4c4c41544552414c0000000000000000000000604082015260600190565b604051602081830303815290604052805190602001206040516020016132339392919092835273ffffffffffffffffffffffffffffffffffffffff919091166020830152604082015260600190565b604051602081830303815290604052805190602001206040518363ffffffff1660e01b815260040161326f929190918252602082015260400190565b60006040518083038186803b15801561328757600080fd5b505af415801561329b573d6000803e3d6000fd5b505050508173__$1b86ea9efa04d6f44bb6dbbf79511d7094$__6376e43b4d909183866040516020016132ff9060208082526009908201527f505245434953494f4e0000000000000000000000000000000000000000000000604082015260600190565b6040516020818303038152906040528051906020012060405160200161334e9392919092835273ffffffffffffffffffffffffffffffffffffffff919091166020830152604082015260600190565b604051602081830303815290604052805190602001206040518363ffffffff1660e01b815260040161338a929190918252602082015260400190565b60006040518083038186803b1580156133a257600080fd5b505af41580156133b6573d6000803e3d6000fd5b505050508173__$1b86ea9efa04d6f44bb6dbbf79511d7094$__6376e43b4d9091838660405160200161341a9060208082526008908201527f444953434f554e54000000000000000000000000000000000000000000000000604082015260600190565b604051602081830303815290604052805190602001206040516020016134699392919092835273ffffffffffffffffffffffffffffffffffffffff919091166020830152604082015260600190565b604051602081830303815290604052805190602001206040518363ffffffff1660e01b81526004016134a5929190918252602082015260400190565b60006040518083038186803b1580156134bd57600080fd5b505af41580156134d1573d6000803e3d6000fd5b505050508173__$1b86ea9efa04d6f44bb6dbbf79511d7094$__6376e43b4d909183866040516020016135359060208082526013908201527f434f4c4c41544552414c5f555345525f43415000000000000000000000000000604082015260600190565b604051602081830303815290604052805190602001206040516020016135849392919092835273ffffffffffffffffffffffffffffffffffffffff919091166020830152604082015260600190565b604051602081830303815290604052805190602001206040518363ffffffff1660e01b81526004016135c0929190918252602082015260400190565b60006040518083038186803b1580156135d857600080fd5b505af41580156135ec573d6000803e3d6000fd5b505050508173__$1b86ea9efa04d6f44bb6dbbf79511d7094$__6376e43b4d909183866040516020016136509060208082526014908201527f434f4c4c41544552414c5f544f54414c5f434150000000000000000000000000604082015260600190565b6040516020818303038152906040528051906020012060405160200161369f9392919092835273ffffffffffffffffffffffffffffffffffffffff919091166020830152604082015260600190565b604051602081830303815290604052805190602001206040518363ffffffff1660e01b81526004016136db929190918252602082015260400190565b60006040518083038186803b1580156136f357600080fd5b505af4158015613707573d6000803e3d6000fd5b505050508173__$1b86ea9efa04d6f44bb6dbbf79511d7094$__6376e43b4d9091838660405160200161376b9060208082526012908201527f4c494142494c4954595f555345525f4341500000000000000000000000000000604082015260600190565b604051602081830303815290604052805190602001206040516020016137ba9392919092835273ffffffffffffffffffffffffffffffffffffffff919091166020830152604082015260600190565b604051602081830303815290604052805190602001206040518363ffffffff1660e01b81526004016137f6929190918252602082015260400190565b60006040518083038186803b15801561380e57600080fd5b505af4158015613822573d6000803e3d6000fd5b505050508173__$1b86ea9efa04d6f44bb6dbbf79511d7094$__6376e43b4d909183866040516020016138869060208082526013908201527f4c494142494c4954595f544f54414c5f43415000000000000000000000000000604082015260600190565b604051602081830303815290604052805190602001206040516020016138d59392919092835273ffffffffffffffffffffffffffffffffffffffff919091166020830152604082015260600190565b604051602081830303815290604052805190602001206040518363ffffffff1660e01b8152600401613911929190918252602082015260400190565b60006040518083038186803b15801561392957600080fd5b505af415801561393d573d6000803e3d6000fd5b505050508173__$1b86ea9efa04d6f44bb6dbbf79511d7094$__6376e43b4d909183866040516020016139a19060208082526014908201527f494e5445524553545f524154455f464143544f52000000000000000000000000604082015260600190565b604051602081830303815290604052805190602001206040516020016139f09392919092835273ffffffffffffffffffffffffffffffffffffffff919091166020830152604082015260600190565b604051602081830303815290604052805190602001206040518363ffffffff1660e01b8152600401613a2c929190918252602082015260400190565b60006040518083038186803b158015613a4457600080fd5b505af4158015613a58573d6000803e3d6000fd5b505050508173__$1b86ea9efa04d6f44bb6dbbf79511d7094$__6376e43b4d90918386604051602001613abc9060208082526012908201527f4c49515549444154494f4e5f464143544f520000000000000000000000000000604082015260600190565b60405160208183030381529060405280519060200120604051602001613b0b9392919092835273ffffffffffffffffffffffffffffffffffffffff919091166020830152604082015260600190565b604051602081830303815290604052805190602001206040518363ffffffff1660e01b8152600401613b47929190918252602082015260400190565b60006040518083038186803b158015613b5f57600080fd5b505af4158015613b73573d6000803e3d6000fd5b50505050505050565b600073__$1b86ea9efa04d6f44bb6dbbf79511d7094$__6386d5c4be6040518163ffffffff1660e01b8152600401602060405180830381865af4158015613bc7573d6000803e3d6000fd5b505050506040513d601f19601f82011682018060405250810190613beb9190614e6e565b90506000604051602001613c309060208082526012908201527f54524144455f544f4b454e5f434f4e4649470000000000000000000000000000604082015260600190565b604080518083037fffffffffffffffffffffffffffffffffffffffffffffffffffffffffffffffe00181529082905280516020909101207f6c75c7ef000000000000000000000000000000000000000000000000000000008252600482018490526024820181905273ffffffffffffffffffffffffffffffffffffffff86166044830152915073__$1b86ea9efa04d6f44bb6dbbf79511d7094$__90636c75c7ef9060640160006040518083038186803b158015613ced57600080fd5b505af4158015613d01573d6000803e3d6000fd5b505050508173__$1b86ea9efa04d6f44bb6dbbf79511d7094$__6307a735a890918387604051602001613d659060208082526015908201527f49535f535550504f52545f434f4c4c41544552414c0000000000000000000000604082015260600190565b60405160208183030381529060405280519060200120604051602001613db49392919092835273ffffffffffffffffffffffffffffffffffffffff919091166020830152604082015260600190565b604080518083037fffffffffffffffffffffffffffffffffffffffffffffffffffffffffffffffe0018152908290528051602090910120875160e085901b7fffffffff0000000000000000000000000000000000000000000000000000000016835260048301939093526024820152901515604482015260640160006040518083038186803b158015613e4657600080fd5b505af4158015613e5a573d6000803e3d6000fd5b505050508173__$1b86ea9efa04d6f44bb6dbbf79511d7094$__635e42ae1690918387604051602001613ebe9060208082526009908201527f505245434953494f4e0000000000000000000000000000000000000000000000604082015260600190565b60405160208183030381529060405280519060200120604051602001613f0d9392919092835273ffffffffffffffffffffffffffffffffffffffff919091166020830152604082015260600190565b604080517fffffffffffffffffffffffffffffffffffffffffffffffffffffffffffffffe0818403018152908290528051602091820120908801517fffffffff0000000000000000000000000000000000000000000000000000000060e086901b16835260048301939093526024820152604481019190915260640160006040518083038186803b158015613fa157600080fd5b505af4158015613fb5573d6000803e3d6000fd5b505050508173__$1b86ea9efa04d6f44bb6dbbf79511d7094$__635e42ae16909183876040516020016140199060208082526008908201527f444953434f554e54000000000000000000000000000000000000000000000000604082015260600190565b604051602081830303815290604052805190602001206040516020016140689392919092835273ffffffffffffffffffffffffffffffffffffffff919091166020830152604082015260600190565b604080518083037fffffffffffffffffffffffffffffffffffffffffffffffffffffffffffffffe001815282825280516020909101209088015160e085901b7fffffffff0000000000000000000000000000000000000000000000000000000016835260048301939093526024820152604481019190915260640160006040518083038186803b1580156140fb57600080fd5b505af415801561410f573d6000803e3d6000fd5b505050508173__$1b86ea9efa04d6f44bb6dbbf79511d7094$__635e42ae16909183876040516020016141739060208082526013908201527f434f4c4c41544552414c5f555345525f43415000000000000000000000000000604082015260600190565b604051602081830303815290604052805190602001206040516020016141c29392919092835273ffffffffffffffffffffffffffffffffffffffff919091166020830152604082015260600190565b604080517fffffffffffffffffffffffffffffffffffffffffffffffffffffffffffffffe081840301815290829052805160209091012060608801517fffffffff0000000000000000000000000000000000000000000000000000000060e086901b16835260048301939093526024820152604481019190915260640160006040518083038186803b15801561425757600080fd5b505af415801561426b573d6000803e3d6000fd5b505050508173__$1b86ea9efa04d6f44bb6dbbf79511d7094$__635e42ae16909183876040516020016142cf9060208082526014908201527f434f4c4c41544552414c5f544f54414c5f434150000000000000000000000000604082015260600190565b6040516020818303038152906040528051906020012060405160200161431e9392919092835273ffffffffffffffffffffffffffffffffffffffff919091166020830152604082015260600190565b604080517fffffffffffffffffffffffffffffffffffffffffffffffffffffffffffffffe081840301815290829052805160209091012060808801517fffffffff0000000000000000000000000000000000000000000000000000000060e086901b16835260048301939093526024820152604481019190915260640160006040518083038186803b1580156143b357600080fd5b505af41580156143c7573d6000803e3d6000fd5b505050508173__$1b86ea9efa04d6f44bb6dbbf79511d7094$__635e42ae169091838760405160200161442b9060208082526012908201527f4c494142494c4954595f555345525f4341500000000000000000000000000000604082015260600190565b6040516020818303038152906040528051906020012060405160200161447a9392919092835273ffffffffffffffffffffffffffffffffffffffff919091166020830152604082015260600190565b604080517fffffffffffffffffffffffffffffffffffffffffffffffffffffffffffffffe081840301815290829052805160209091012060a08801517fffffffff0000000000000000000000000000000000000000000000000000000060e086901b16835260048301939093526024820152604481019190915260640160006040518083038186803b15801561450f57600080fd5b505af4158015614523573d6000803e3d6000fd5b505050508173__$1b86ea9efa04d6f44bb6dbbf79511d7094$__635e42ae16909183876040516020016145879060208082526013908201527f4c494142494c4954595f544f54414c5f43415000000000000000000000000000604082015260600190565b604051602081830303815290604052805190602001206040516020016145d69392919092835273ffffffffffffffffffffffffffffffffffffffff919091166020830152604082015260600190565b604080517fffffffffffffffffffffffffffffffffffffffffffffffffffffffffffffffe081840301815290829052805160209091012060c08801517fffffffff0000000000000000000000000000000000000000000000000000000060e086901b16835260048301939093526024820152604481019190915260640160006040518083038186803b15801561466b57600080fd5b505af415801561467f573d6000803e3d6000fd5b505050508173__$1b86ea9efa04d6f44bb6dbbf79511d7094$__635e42ae16909183876040516020016146e39060208082526014908201527f494e5445524553545f524154455f464143544f52000000000000000000000000604082015260600190565b604051602081830303815290604052805190602001206040516020016147329392919092835273ffffffffffffffffffffffffffffffffffffffff919091166020830152604082015260600190565b604051602081830303815290604052805190602001208660e001516040518463ffffffff1660e01b815260040161477c939291909283526020830191909152604082015260600190565b60006040518083038186803b15801561479457600080fd5b505af41580156147a8573d6000803e3d6000fd5b505050508173__$1b86ea9efa04d6f44bb6dbbf79511d7094$__635e42ae169091838760405160200161480c9060208082526012908201527f4c49515549444154494f4e5f464143544f520000000000000000000000000000604082015260600190565b6040516020818303038152906040528051906020012060405160200161485b9392919092835273ffffffffffffffffffffffffffffffffffffffff919091166020830152604082015260600190565b604080517fffffffffffffffffffffffffffffffffffffffffffffffffffffffffffffffe08184030181529082905280516020909101206101008801517fffffffff0000000000000000000000000000000000000000000000000000000060e086901b1683526004830193909352602482015260448101919091526064016117f3565b7f4e487b7100000000000000000000000000000000000000000000000000000000600052604160045260246000fd5b604051610120810167ffffffffffffffff81118282101715614931576149316148de565b60405290565b604051610200810167ffffffffffffffff81118282101715614931576149316148de565b604051601f82017fffffffffffffffffffffffffffffffffffffffffffffffffffffffffffffffe016810167ffffffffffffffff811182821017156149a2576149a26148de565b604052919050565b600067ffffffffffffffff8211156149c4576149c46148de565b5060051b60200190565b73ffffffffffffffffffffffffffffffffffffffff811681146149f057600080fd5b50565b600082601f830112614a0457600080fd5b81356020614a19614a14836149aa565b61495b565b82815260059290921b84018101918181019086841115614a3857600080fd5b8286015b84811015614a5c578035614a4f816149ce565b8352918301918301614a3c565b509695505050505050565b80151581146149f057600080fd5b8035614a8081614a67565b919050565b600082601f830112614a9657600080fd5b81356020614aa6614a14836149aa565b8281526101209283028501820192828201919087851115614ac657600080fd5b8387015b85811015614b515781818a031215614ae25760008081fd5b614aea61490d565b614af382614a75565b8152818601358682015260408083013590820152606080830135908201526080808301359082015260a0808301359082015260c0808301359082015260e0808301359082015261010080830135908201528452928401928101614aca565b5090979650505050505050565b600060208284031215614b7057600080fd5b813567ffffffffffffffff80821115614b8857600080fd5b908301906102008286031215614b9d57600080fd5b614ba5614937565b823582811115614bb457600080fd5b614bc0878286016149f3565b825250602083013582811115614bd557600080fd5b614be187828601614a85565b60208301525060408381013590820152606080840135908201526080808401359082015260a0808401359082015260c0808401359082015260e08084013590820152610100808401359082015261012080840135908201526101408084013590820152610160808401359082015261018080840135908201526101a080840135908201526101c080840135908201526101e09283013592810192909252509392505050565b600081518084526020808501945080840160005b83811015614ccc57815173ffffffffffffffffffffffffffffffffffffffff1687529582019590820190600101614c9a565b509495945050505050565b600081518084526020808501945080840160005b83811015614ccc578151805115158852838101518489015260408082015190890152606080820151908901526080808201519089015260a0808201519089015260c0808201519089015260e0808201519089015261010090810151908801526101209096019590820190600101614ceb565b6020815260008251610200806020850152614d7c610220850183614c86565b915060208501517fffffffffffffffffffffffffffffffffffffffffffffffffffffffffffffffe0858403016040860152614db78382614cd7565b604087015160608781019190915287015160808088019190915287015160a08088019190915287015160c08088019190915287015160e08088019190915287015161010080880191909152870151610120808801919091528701516101408088019190915287015161016080880191909152870151610180808801919091528701516101a0808801919091528701516101c0808801919091528701516101e080880191909152909601519190940152509192915050565b600060208284031215614e8057600080fd5b5051919050565b60006020808385031215614e9a57600080fd5b825167ffffffffffffffff811115614eb157600080fd5b8301601f81018513614ec257600080fd5b8051614ed0614a14826149aa565b81815260059190911b82018301908381019087831115614eef57600080fd5b928401925b82841015614f16578351614f07816149ce565b82529284019290840190614ef4565b979650505050505050565b7f4e487b7100000000000000000000000000000000000000000000000000000000600052603260045260246000fd5b60007fffffffffffffffffffffffffffffffffffffffffffffffffffffffffffffffff8203614fa8577f4e487b7100000000000000000000000000000000000000000000000000000000600052601160045260246000fd5b5060010190565b6000606082018583526020858185015260606040850152818551808452608086019150828701935060005b8181101561500c57845173ffffffffffffffffffffffffffffffffffffffff1683529383019391830191600101614fda565b509098975050505050505050565b8051614a8081614a67565b6000610120828403121561503857600080fd5b61504061490d565b6150498361501a565b81526020830151602082015260408301516040820152606083015160608201526080830151608082015260a083015160a082015260c083015160c082015260e083015160e08201526101008084015181830152508091505092915050565b6000602082840312156150b957600080fd5b81516150c481614a67565b939250505056fea2646970667358221220054f40db9326590f45cfb51f1fb6ee18379636767d012aa74be98f5bcfb0896164736f6c63430008120033",
  "linkReferences": {
    "contracts/storage/AppStorage.sol": {
      "AppStorage": [
        {
          "length": 20,
          "start": 772
        },
        {
          "length": 20,
          "start": 977
        },
        {
          "length": 20,
          "start": 1346
        },
        {
          "length": 20,
          "start": 1748
        },
        {
          "length": 20,
          "start": 2062
        },
        {
          "length": 20,
          "start": 2378
        },
        {
          "length": 20,
          "start": 2694
        },
        {
          "length": 20,
          "start": 3010
        },
        {
          "length": 20,
          "start": 3326
        },
        {
          "length": 20,
          "start": 3591
        },
        {
          "length": 20,
          "start": 3946
        },
        {
          "length": 20,
          "start": 4263
        },
        {
          "length": 20,
          "start": 4618
        },
        {
          "length": 20,
          "start": 4973
        },
        {
          "length": 20,
          "start": 5288
        },
        {
          "length": 20,
          "start": 5605
        },
        {
          "length": 20,
          "start": 5922
        },
        {
          "length": 20,
          "start": 7101
        },
        {
          "length": 20,
          "start": 7304
        },
        {
          "length": 20,
          "start": 8014
        },
        {
          "length": 20,
          "start": 8291
        },
        {
          "length": 20,
          "start": 8566
        },
        {
          "length": 20,
          "start": 8841
        },
        {
          "length": 20,
          "start": 9116
        },
        {
          "length": 20,
          "start": 9391
        },
        {
          "length": 20,
          "start": 9666
        },
        {
          "length": 20,
          "start": 9980
        },
        {
          "length": 20,
          "start": 10256
        },
        {
          "length": 20,
          "start": 10570
        },
        {
          "length": 20,
          "start": 10884
        },
        {
          "length": 20,
          "start": 11158
        },
        {
          "length": 20,
          "start": 11434
        },
        {
          "length": 20,
          "start": 11710
        },
        {
          "length": 20,
          "start": 12160
        },
        {
          "length": 20,
          "start": 12472
        },
        {
          "length": 20,
          "start": 12657
        },
        {
          "length": 20,
          "start": 12737
        },
        {
          "length": 20,
          "start": 13020
        },
        {
          "length": 20,
          "start": 13303
        },
        {
          "length": 20,
          "start": 13586
        },
        {
          "length": 20,
          "start": 13869
        },
        {
          "length": 20,
          "start": 14152
        },
        {
          "length": 20,
          "start": 14435
        },
        {
          "length": 20,
          "start": 14718
        },
        {
          "length": 20,
          "start": 15001
        },
        {
          "length": 20,
          "start": 15290
        },
        {
          "length": 20,
          "start": 15602
        },
        {
          "length": 20,
          "start": 15682
        },
        {
          "length": 20,
          "start": 16027
        },
        {
          "length": 20,
          "start": 16374
        },
        {
          "length": 20,
          "start": 16720
        },
        {
          "length": 20,
          "start": 17068
        },
        {
          "length": 20,
          "start": 17416
        },
        {
          "length": 20,
          "start": 17764
        },
        {
          "length": 20,
          "start": 18112
        },
        {
          "length": 20,
          "start": 18409
        }
      ]
    },
    "contracts/storage/AppTradeTokenConfig.sol": {
      "AppTradeTokenConfig": [
        {
          "length": 20,
          "start": 7782
        }
      ]
    }
  },
  "deployedLinkReferences": {
    "contracts/storage/AppStorage.sol": {
      "AppStorage": [
        {
          "length": 20,
          "start": 714
        },
        {
          "length": 20,
          "start": 919
        },
        {
          "length": 20,
          "start": 1288
        },
        {
          "length": 20,
          "start": 1690
        },
        {
          "length": 20,
          "start": 2004
        },
        {
          "length": 20,
          "start": 2320
        },
        {
          "length": 20,
          "start": 2636
        },
        {
          "length": 20,
          "start": 2952
        },
        {
          "length": 20,
          "start": 3268
        },
        {
          "length": 20,
          "start": 3533
        },
        {
          "length": 20,
          "start": 3888
        },
        {
          "length": 20,
          "start": 4205
        },
        {
          "length": 20,
          "start": 4560
        },
        {
          "length": 20,
          "start": 4915
        },
        {
          "length": 20,
          "start": 5230
        },
        {
          "length": 20,
          "start": 5547
        },
        {
          "length": 20,
          "start": 5864
        },
        {
          "length": 20,
          "start": 7043
        },
        {
          "length": 20,
          "start": 7246
        },
        {
          "length": 20,
          "start": 7956
        },
        {
          "length": 20,
          "start": 8233
        },
        {
          "length": 20,
          "start": 8508
        },
        {
          "length": 20,
          "start": 8783
        },
        {
          "length": 20,
          "start": 9058
        },
        {
          "length": 20,
          "start": 9333
        },
        {
          "length": 20,
          "start": 9608
        },
        {
          "length": 20,
          "start": 9922
        },
        {
          "length": 20,
          "start": 10198
        },
        {
          "length": 20,
          "start": 10512
        },
        {
          "length": 20,
          "start": 10826
        },
        {
          "length": 20,
          "start": 11100
        },
        {
          "length": 20,
          "start": 11376
        },
        {
          "length": 20,
          "start": 11652
        },
        {
          "length": 20,
          "start": 12102
        },
        {
          "length": 20,
          "start": 12414
        },
        {
          "length": 20,
          "start": 12599
        },
        {
          "length": 20,
          "start": 12679
        },
        {
          "length": 20,
          "start": 12962
        },
        {
          "length": 20,
          "start": 13245
        },
        {
          "length": 20,
          "start": 13528
        },
        {
          "length": 20,
          "start": 13811
        },
        {
          "length": 20,
          "start": 14094
        },
        {
          "length": 20,
          "start": 14377
        },
        {
          "length": 20,
          "start": 14660
        },
        {
          "length": 20,
          "start": 14943
        },
        {
          "length": 20,
          "start": 15232
        },
        {
          "length": 20,
          "start": 15544
        },
        {
          "length": 20,
          "start": 15624
        },
        {
          "length": 20,
          "start": 15969
        },
        {
          "length": 20,
          "start": 16316
        },
        {
          "length": 20,
          "start": 16662
        },
        {
          "length": 20,
          "start": 17010
        },
        {
          "length": 20,
          "start": 17358
        },
        {
          "length": 20,
          "start": 17706
        },
        {
          "length": 20,
          "start": 18054
        },
        {
          "length": 20,
          "start": 18351
        }
      ]
    },
    "contracts/storage/AppTradeTokenConfig.sol": {
      "AppTradeTokenConfig": [
        {
          "length": 20,
          "start": 7724
        }
      ]
    }
  }
}