{
  "_format": "hh-sol-artifact-1",
  "contractName": "FeeQueryProcess",
  "sourceName": "contracts/process/FeeQueryProcess.sol",
  "abi": [
    {
      "inputs": [
        {
          "internalType": "uint256",
          "name": "decreaseQty",
          "type": "uint256"
        },
        {
          "components": [
            {
              "internalType": "bytes32",
              "name": "key",
              "type": "bytes32"
            },
            {
              "internalType": "bytes32",
              "name": "symbol",
              "type": "bytes32"
            },
            {
              "internalType": "bool",
              "name": "isLong",
              "type": "bool"
            },
            {
              "internalType": "bool",
              "name": "isCrossMargin",
              "type": "bool"
            },
            {
              "internalType": "address",
              "name": "account",
              "type": "address"
            },
            {
              "internalType": "address",
              "name": "marginToken",
              "type": "address"
            },
            {
              "internalType": "address",
              "name": "indexToken",
              "type": "address"
            },
            {
              "internalType": "uint256",
              "name": "qty",
              "type": "uint256"
            },
            {
              "internalType": "uint256",
              "name": "entryPrice",
              "type": "uint256"
            },
            {
              "internalType": "uint256",
              "name": "leverage",
              "type": "uint256"
            },
            {
              "internalType": "uint256",
              "name": "initialMargin",
              "type": "uint256"
            },
            {
              "internalType": "uint256",
              "name": "initialMarginInUsd",
              "type": "uint256"
            },
            {
              "internalType": "uint256",
              "name": "initialMarginInUsdFromBalance",
              "type": "uint256"
            },
            {
              "internalType": "uint256",
              "name": "holdPoolAmount",
              "type": "uint256"
            },
            {
              "components": [
                {
                  "internalType": "uint256",
                  "name": "closeFeeInUsd",
                  "type": "uint256"
                },
                {
                  "internalType": "uint256",
                  "name": "openBorrowingFeePerToken",
                  "type": "uint256"
                },
                {
                  "internalType": "uint256",
                  "name": "realizedBorrowingFee",
                  "type": "uint256"
                },
                {
                  "internalType": "uint256",
                  "name": "realizedBorrowingFeeInUsd",
                  "type": "uint256"
                },
                {
                  "internalType": "int256",
                  "name": "openFundingFeePerQty",
                  "type": "int256"
                },
                {
                  "internalType": "int256",
                  "name": "realizedFundingFee",
                  "type": "int256"
                },
                {
                  "internalType": "int256",
                  "name": "realizedFundingFeeInUsd",
                  "type": "int256"
                }
              ],
              "internalType": "struct Position.PositionFee",
              "name": "positionFee",
              "type": "tuple"
            },
            {
              "internalType": "int256",
              "name": "realizedPnl",
              "type": "int256"
            },
            {
              "internalType": "uint256",
              "name": "lastUpdateTime",
              "type": "uint256"
            }
          ],
          "internalType": "struct Position.Props",
          "name": "position",
          "type": "tuple"
        }
      ],
      "name": "calcBorrowingFee",
      "outputs": [
        {
          "internalType": "uint256",
          "name": "fee",
          "type": "uint256"
        },
        {
          "internalType": "uint256",
          "name": "feeInUsd",
          "type": "uint256"
        }
      ],
      "stateMutability": "pure",
      "type": "function"
    },
    {
      "inputs": [
        {
          "internalType": "uint8",
          "name": "tokenDecimals",
          "type": "uint8"
        },
        {
          "internalType": "uint256",
          "name": "feeInUsd",
          "type": "uint256"
        },
        {
          "internalType": "uint256",
          "name": "tokenPrice",
          "type": "uint256"
        }
      ],
      "name": "calcCloseFee",
      "outputs": [
        {
          "internalType": "uint256",
          "name": "",
          "type": "uint256"
        }
      ],
      "stateMutability": "pure",
      "type": "function"
    },
    {
      "inputs": [
        {
          "internalType": "uint256",
          "name": "tokenAmount",
          "type": "uint256"
        },
        {
          "internalType": "uint256",
          "name": "feeRate",
          "type": "uint256"
        }
      ],
      "name": "calcMintOrRedeemFee",
      "outputs": [
        {
          "internalType": "uint256",
          "name": "",
          "type": "uint256"
        }
      ],
      "stateMutability": "pure",
      "type": "function"
    },
    {
      "inputs": [
        {
          "internalType": "uint256",
          "name": "orderMargin",
          "type": "uint256"
        },
        {
          "internalType": "uint256",
          "name": "leverage",
          "type": "uint256"
        },
        {
          "internalType": "bytes32",
          "name": "symbol",
          "type": "bytes32"
        }
      ],
      "name": "calcOpenFee",
      "outputs": [
        {
          "internalType": "uint256",
          "name": "",
          "type": "uint256"
        }
      ],
      "stateMutability": "view",
      "type": "function"
    },
    {
      "inputs": [
        {
          "internalType": "address",
          "name": "account",
          "type": "address"
        }
      ],
      "name": "getAccountFeeRewards",
      "outputs": [
        {
          "components": [
            {
              "internalType": "address",
              "name": "account",
              "type": "address"
            },
            {
              "internalType": "address[]",
              "name": "stakeTokens",
              "type": "address[]"
            },
            {
              "internalType": "address[]",
              "name": "tokens",
              "type": "address[]"
            },
            {
              "internalType": "uint256[]",
              "name": "rewards",
              "type": "uint256[]"
            }
          ],
          "internalType": "struct IFee.AccountFeeRewards",
          "name": "",
          "type": "tuple"
        }
      ],
      "stateMutability": "view",
      "type": "function"
    },
    {
      "inputs": [
        {
          "internalType": "address",
          "name": "account",
          "type": "address"
        }
      ],
      "name": "getAccountUsdFeeReward",
      "outputs": [
        {
          "components": [
            {
              "internalType": "address",
              "name": "account",
              "type": "address"
            },
            {
              "internalType": "address",
              "name": "stakeToken",
              "type": "address"
            },
            {
              "internalType": "uint256",
              "name": "reward",
              "type": "uint256"
            }
          ],
          "internalType": "struct IFee.AccountUsdFeeReward",
          "name": "",
          "type": "tuple"
        }
      ],
      "stateMutability": "view",
      "type": "function"
    },
    {
      "inputs": [
        {
          "internalType": "address",
          "name": "stakeToken",
          "type": "address"
        }
      ],
      "name": "getCumulativeRewardsPerStakeToken",
      "outputs": [
        {
          "internalType": "uint256",
          "name": "",
          "type": "uint256"
        }
      ],
      "stateMutability": "view",
      "type": "function"
    },
    {
      "inputs": [
        {
          "internalType": "address",
          "name": "stakeToken",
          "type": "address"
        },
        {
          "internalType": "address",
          "name": "token",
          "type": "address"
        }
      ],
      "name": "getDaoTokenFee",
      "outputs": [
        {
          "internalType": "uint256",
          "name": "",
          "type": "uint256"
        }
      ],
      "stateMutability": "view",
      "type": "function"
    },
    {
      "inputs": [
        {
          "internalType": "bytes32",
          "name": "symbol",
          "type": "bytes32"
        },
        {
          "internalType": "address",
          "name": "token",
          "type": "address"
        }
      ],
      "name": "getMarketTokenFeeAmount",
      "outputs": [
        {
          "internalType": "uint256",
          "name": "",
          "type": "uint256"
        }
      ],
      "stateMutability": "view",
      "type": "function"
    },
    {
      "inputs": [
        {
          "internalType": "address",
          "name": "stakeToken",
          "type": "address"
        },
        {
          "internalType": "address",
          "name": "token",
          "type": "address"
        }
      ],
      "name": "getPoolTokenFeeAmount",
      "outputs": [
        {
          "internalType": "uint256",
          "name": "",
          "type": "uint256"
        }
      ],
      "stateMutability": "view",
      "type": "function"
    },
    {
      "inputs": [
        {
          "internalType": "address",
          "name": "stakeToken",
          "type": "address"
        },
        {
          "internalType": "address",
          "name": "token",
          "type": "address"
        }
      ],
      "name": "getStakingTokenFee",
      "outputs": [
        {
          "internalType": "uint256",
          "name": "",
          "type": "uint256"
        }
      ],
      "stateMutability": "view",
      "type": "function"
    }
  ],
  "bytecode": "0x6120aa61003a600b82828239805160001a60731461002d57634e487b7160e01b600052600060045260246000fd5b30600052607381538281f3fe73000000000000000000000000000000000000000030146080604052600436106100d35760003560e01c80636c485fde1161008b5780639f04c8e4116100655780639f04c8e4146101d5578063ada56365146101e8578063b9ee80731461020857600080fd5b80636c485fde146101875780637ad18303146101af578063840ad0f1146101c257600080fd5b806355be18cb116100bc57806355be18cb146101115780635c99abaa14610124578063652a5cd41461017457600080fd5b80634750581d146100d85780634f9a8558146100fe575b600080fd5b6100eb6100e6366004611921565b61021b565b6040519081526020015b60405180910390f35b6100eb61010c366004611943565b6102bb565b6100eb61011f3660046119b3565b610364565b6101376101323660046119ec565b610464565b60408051825173ffffffffffffffffffffffffffffffffffffffff90811682526020808501519091169082015291810151908201526060016100f5565b6100eb6101823660046119b3565b610a49565b61019a610195366004611b45565b610b61565b604080519283526020830191909152016100f5565b6100eb6101bd3660046119ec565b610be1565b6100eb6101d0366004611c88565b610d1f565b6100eb6101e3366004611cad565b610d75565b6101fb6101f63660046119ec565b610f49565b6040516100f59190611d2a565b6100eb6102163660046119b3565b6118bd565b6040517fee7fc5a3000000000000000000000000000000000000000000000000000000008152600481018390526024810182905260009073__$60cdec19f17936bbc33543273078a7e6b8$__9063ee7fc5a390604401602060405180830381865af415801561028e573d6000803e3d6000fd5b505050506040513d601f19601f820116820180604052508101906102b29190611dee565b90505b92915050565b6040517ff5873b970000000000000000000000000000000000000000000000000000000081526004810183905260ff841660248201526044810182905260009073__$60cdec19f17936bbc33543273078a7e6b8$__9063f5873b97906064015b602060405180830381865af4158015610338573d6000803e3d6000fd5b505050506040513d601f19601f8201168201806040525081019061035c9190611dee565b949350505050565b60008073__$b27d1c2281fddc8a36199ed5903373bfda$__63d28d611a6040518163ffffffff1660e01b8152600401602060405180830381865af41580156103b0573d6000803e3d6000fd5b505050506040513d601f19601f820116820180604052508101906103d49190611dee565b6040517fa47e4f050000000000000000000000000000000000000000000000000000000081526004810182905273ffffffffffffffffffffffffffffffffffffffff80871660248301528516604482015290915073__$b27d1c2281fddc8a36199ed5903373bfda$__9063a47e4f0590606401602060405180830381865af4158015610338573d6000803e3d6000fd5b60408051606081018252600080825260208201819052918101919091526040517f2f40e73400000000000000000000000000000000000000000000000000000000815273ffffffffffffffffffffffffffffffffffffffff8316600482015260009073__$c2028ccb9058768042ba03031ed37ddd55$__90632f40e73490602401602060405180830381865af4158015610502573d6000803e3d6000fd5b505050506040513d601f19601f820116820180604052508101906105269190611dee565b9050600073__$2c5e3d38607d7ea6eea9d5dc78ed57d239$__63f141859a6040518163ffffffff1660e01b8152600401602060405180830381865af4158015610573573d6000803e3d6000fd5b505050506040513d601f19601f820116820180604052508101906105979190611e07565b6040517fbb3020ea0000000000000000000000000000000000000000000000000000000081526004810184905273ffffffffffffffffffffffffffffffffffffffff8216602482015290915060009073__$c2028ccb9058768042ba03031ed37ddd55$__9063bb3020ea90604401602060405180830381865af4158015610622573d6000803e3d6000fd5b505050506040513d601f19601f820116820180604052508101906106469190611dee565b6040517ffd7f5ae800000000000000000000000000000000000000000000000000000000815273ffffffffffffffffffffffffffffffffffffffff8416600482015290915060009073__$b27d1c2281fddc8a36199ed5903373bfda$__9063fd7f5ae890602401602060405180830381865af41580156106ca573d6000803e3d6000fd5b505050506040513d601f19601f820116820180604052508101906106ee9190611dee565b6040517f70a0823100000000000000000000000000000000000000000000000000000000815273ffffffffffffffffffffffffffffffffffffffff88811660048301529192506000918516906370a0823190602401602060405180830381865afa158015610760573d6000803e3d6000fd5b505050506040513d601f19601f820116820180604052508101906107849190611dee565b8354600185015491925090158015906108c357506040517f34e1a7770000000000000000000000000000000000000000000000000000000081526004810184905273__$b27d1c2281fddc8a36199ed5903373bfda$__906334e1a77790602401602060405180830381865af4158015610801573d6000803e3d6000fd5b505050506040513d601f19601f820116820180604052508101906108259190611dee565b60018501546040517f72fc76b40000000000000000000000000000000000000000000000000000000081526004810186905273__$b27d1c2281fddc8a36199ed5903373bfda$__906372fc76b490602401602060405180830381865af4158015610893573d6000803e3d6000fd5b505050506040513d601f19601f820116820180604052508101906108b79190611dee565b6108c19190611e53565b115b156109f55760018401546040517f72fc76b40000000000000000000000000000000000000000000000000000000081526004810185905273__$60cdec19f17936bbc33543273078a7e6b8$__9163c8a4ac9c9173__$b27d1c2281fddc8a36199ed5903373bfda$__906372fc76b490602401602060405180830381865af4158015610952573d6000803e3d6000fd5b505050506040513d601f19601f820116820180604052508101906109769190611dee565b6109809190611e53565b846040518363ffffffff1660e01b81526004016109a7929190918252602082015260400190565b602060405180830381865af41580156109c4573d6000803e3d6000fd5b505050506040513d601f19601f820116820180604052508101906109e89190611dee565b6109f29082611e66565b90505b60405180606001604052808973ffffffffffffffffffffffffffffffffffffffff1681526020018673ffffffffffffffffffffffffffffffffffffffff168152602001828152509650505050505050919050565b6040517ffd7f5ae800000000000000000000000000000000000000000000000000000000815273ffffffffffffffffffffffffffffffffffffffff83166004820152600090819073__$b27d1c2281fddc8a36199ed5903373bfda$__9063fd7f5ae8906024015b602060405180830381865af4158015610acd573d6000803e3d6000fd5b505050506040513d601f19601f82011682018060405250810190610af19190611dee565b6040517fc5ca76540000000000000000000000000000000000000000000000000000000081526004810182905273ffffffffffffffffffffffffffffffffffffffff8516602482015290915073__$b27d1c2281fddc8a36199ed5903373bfda$__9063c5ca76549060440161031b565b6000808260e001518403610b875750506101c08101516040810151606090910151610bda565b610bb18360e00151610bab86866101c001516040015161190990919063ffffffff16565b90611915565b610bd58460e00151610bab87876101c001516060015161190990919063ffffffff16565b915091505b9250929050565b6040517ffd7f5ae800000000000000000000000000000000000000000000000000000000815273ffffffffffffffffffffffffffffffffffffffff82166004820152600090819073__$b27d1c2281fddc8a36199ed5903373bfda$__9063fd7f5ae890602401602060405180830381865af4158015610c64573d6000803e3d6000fd5b505050506040513d601f19601f82011682018060405250810190610c889190611dee565b6040517f72fc76b40000000000000000000000000000000000000000000000000000000081526004810182905290915073__$b27d1c2281fddc8a36199ed5903373bfda$__906372fc76b490602401602060405180830381865af4158015610cf4573d6000803e3d6000fd5b505050506040513d601f19601f82011682018060405250810190610d189190611dee565b9392505050565b6040517f214d112b00000000000000000000000000000000000000000000000000000000815260048101839052600090819073__$b27d1c2281fddc8a36199ed5903373bfda$__9063214d112b90602401610ab0565b6040517fe1be37bd00000000000000000000000000000000000000000000000000000000815260048101829052600090819073__$403afd1716c71ad05f9fd75974b23df554$__9063e1be37bd9060240161010060405180830381865af4158015610de4573d6000803e3d6000fd5b505050506040513d601f19601f82011682018060405250810190610e089190611e79565b6040517fee7fc5a3000000000000000000000000000000000000000000000000000000008152600481018790526024810186905290915060009073__$60cdec19f17936bbc33543273078a7e6b8$__9063ee7fc5a390604401602060405180830381865af4158015610e7e573d6000803e3d6000fd5b505050506040513d601f19601f82011682018060405250810190610ea29190611dee565b60408084015190517fee7fc5a300000000000000000000000000000000000000000000000000000000815260048101839052602481019190915290915073__$60cdec19f17936bbc33543273078a7e6b8$__9063ee7fc5a390604401602060405180830381865af4158015610f1b573d6000803e3d6000fd5b505050506040513d601f19601f82011682018060405250810190610f3f9190611dee565b9695505050505050565b610f8a6040518060800160405280600073ffffffffffffffffffffffffffffffffffffffff1681526020016060815260200160608152602001606081525090565b6040517f2f40e73400000000000000000000000000000000000000000000000000000000815273ffffffffffffffffffffffffffffffffffffffff8316600482015260009073__$c2028ccb9058768042ba03031ed37ddd55$__90632f40e73490602401602060405180830381865af415801561100b573d6000803e3d6000fd5b505050506040513d601f19601f8201168201806040525081019061102f9190611dee565b6040517fb73b8b7c0000000000000000000000000000000000000000000000000000000081526004810182905290915060009073__$c2028ccb9058768042ba03031ed37ddd55$__9063b73b8b7c90602401600060405180830381865af415801561109e573d6000803e3d6000fd5b505050506040513d6000823e601f3d9081017fffffffffffffffffffffffffffffffffffffffffffffffffffffffffffffffe01682016040526110e49190810190611f09565b90506111276040518060800160405280600073ffffffffffffffffffffffffffffffffffffffff1681526020016060815260200160608152602001606081525090565b73ffffffffffffffffffffffffffffffffffffffff8516815260208101829052815167ffffffffffffffff81111561116157611161611a09565b60405190808252806020026020018201604052801561118a578160200160208202803683370190505b506040820152815167ffffffffffffffff8111156111aa576111aa611a09565b6040519080825280602002602001820160405280156111d3578160200160208202803683370190505b50606082015260005b82518110156118b457600073__$b27d1c2281fddc8a36199ed5903373bfda$__63fd7f5ae885848151811061121357611213611fbb565b60200260200101516040518263ffffffff1660e01b8152600401611253919073ffffffffffffffffffffffffffffffffffffffff91909116815260200190565b602060405180830381865af4158015611270573d6000803e3d6000fd5b505050506040513d601f19601f820116820180604052508101906112949190611dee565b905060008573__$c2028ccb9058768042ba03031ed37ddd55$__63bb3020ea90918786815181106112c7576112c7611fbb565b60200260200101516040518363ffffffff1660e01b815260040161130b92919091825273ffffffffffffffffffffffffffffffffffffffff16602082015260400190565b602060405180830381865af4158015611328573d6000803e3d6000fd5b505050506040513d601f19601f8201168201806040525081019061134c9190611dee565b9050600085848151811061136257611362611fbb565b60209081029190910101516040517f70a0823100000000000000000000000000000000000000000000000000000000815273ffffffffffffffffffffffffffffffffffffffff8b81166004830152909116906370a0823190602401602060405180830381865afa1580156113da573d6000803e3d6000fd5b505050506040513d601f19601f820116820180604052508101906113fe9190611dee565b905085848151811061141257611412611fbb565b602002602001015173ffffffffffffffffffffffffffffffffffffffff1673__$2c5e3d38607d7ea6eea9d5dc78ed57d239$__63f141859a6040518163ffffffff1660e01b8152600401602060405180830381865af4158015611479573d6000803e3d6000fd5b505050506040513d601f19601f8201168201806040525081019061149d9190611e07565b73ffffffffffffffffffffffffffffffffffffffff1614806114bd575080155b156114ca575050506118a2565b600073__$031d78916aae4b898c89af4123228b6f12$__632f40e7348887815181106114f8576114f8611fbb565b60200260200101516040518263ffffffff1660e01b8152600401611538919073ffffffffffffffffffffffffffffffffffffffff91909116815260200190565b602060405180830381865af4158015611555573d6000803e3d6000fd5b505050506040513d601f19601f820116820180604052508101906115799190611dee565b60028101546040880151805192935073ffffffffffffffffffffffffffffffffffffffff90911691879081106115b1576115b1611fbb565b602002602001019073ffffffffffffffffffffffffffffffffffffffff16908173ffffffffffffffffffffffffffffffffffffffff16815250506000836001015411801561172557506040517f34e1a7770000000000000000000000000000000000000000000000000000000081526004810185905273__$b27d1c2281fddc8a36199ed5903373bfda$__906334e1a77790602401602060405180830381865af4158015611663573d6000803e3d6000fd5b505050506040513d601f19601f820116820180604052508101906116879190611dee565b60018401546040517f72fc76b40000000000000000000000000000000000000000000000000000000081526004810187905273__$b27d1c2281fddc8a36199ed5903373bfda$__906372fc76b490602401602060405180830381865af41580156116f5573d6000803e3d6000fd5b505050506040513d601f19601f820116820180604052508101906117199190611dee565b6117239190611e53565b115b1561186d5760018301546040517f72fc76b40000000000000000000000000000000000000000000000000000000081526004810186905273__$60cdec19f17936bbc33543273078a7e6b8$__9163228d17e09173__$b27d1c2281fddc8a36199ed5903373bfda$__906372fc76b490602401602060405180830381865af41580156117b4573d6000803e3d6000fd5b505050506040513d601f19601f820116820180604052508101906117d89190611dee565b6117e29190611e53565b846040518363ffffffff1660e01b8152600401611809929190918252602082015260400190565b602060405180830381865af4158015611826573d6000803e3d6000fd5b505050506040513d601f19601f8201168201806040525081019061184a9190611dee565b8660600151868151811061186057611860611fbb565b6020026020010181815250505b8254606087015180518790811061188657611886611fbb565b6020026020010181815161189a9190611e66565b905250505050505b806118ac81611fea565b9150506111dc565b50949350505050565b60008073__$b27d1c2281fddc8a36199ed5903373bfda$__63604c42456040518163ffffffff1660e01b8152600401602060405180830381865af41580156103b0573d6000803e3d6000fd5b60006102b28284612022565b60006102b28284612039565b6000806040838503121561193457600080fd5b50508035926020909101359150565b60008060006060848603121561195857600080fd5b833560ff8116811461196957600080fd5b95602085013595506040909401359392505050565b73ffffffffffffffffffffffffffffffffffffffff811681146119a057600080fd5b50565b80356119ae8161197e565b919050565b600080604083850312156119c657600080fd5b82356119d18161197e565b915060208301356119e18161197e565b809150509250929050565b6000602082840312156119fe57600080fd5b8135610d188161197e565b7f4e487b7100000000000000000000000000000000000000000000000000000000600052604160045260246000fd5b604051610220810167ffffffffffffffff81118282101715611a5c57611a5c611a09565b60405290565b604051601f82017fffffffffffffffffffffffffffffffffffffffffffffffffffffffffffffffe016810167ffffffffffffffff81118282101715611aa957611aa9611a09565b604052919050565b803580151581146119ae57600080fd5b600060e08284031215611ad357600080fd5b60405160e0810181811067ffffffffffffffff82111715611af657611af6611a09565b8060405250809150823581526020830135602082015260408301356040820152606083013560608201526080830135608082015260a083013560a082015260c083013560c08201525092915050565b600080828403610300811215611b5a57600080fd5b833592506102e0807fffffffffffffffffffffffffffffffffffffffffffffffffffffffffffffffe083011215611b9057600080fd5b611b98611a38565b91506020850135825260408501356020830152611bb760608601611ab1565b6040830152611bc860808601611ab1565b6060830152611bd960a086016119a3565b6080830152611bea60c086016119a3565b60a0830152611bfb60e086016119a3565b60c08301526101008086013560e084015261012080870135828501526101409150818701358185015250610160808701358285015261018091508187013581850152506101a080870135828501526101c091508187013581850152506101e0611c6688828901611ac1565b918401919091526102c086013590830152909301356102008401525092909150565b60008060408385031215611c9b57600080fd5b8235915060208301356119e18161197e565b600080600060608486031215611cc257600080fd5b505081359360208301359350604090920135919050565b600081518084526020808501945080840160005b83811015611d1f57815173ffffffffffffffffffffffffffffffffffffffff1687529582019590820190600101611ced565b509495945050505050565b6000602080835273ffffffffffffffffffffffffffffffffffffffff845116818401528084015160806040850152611d6560a0850182611cd9565b905060408501517fffffffffffffffffffffffffffffffffffffffffffffffffffffffffffffffe080868403016060870152611da18383611cd9565b6060880151878203909201608088015281518082529185019350600092508401905b80831015611de35783518252928401926001929092019190840190611dc3565b509695505050505050565b600060208284031215611e0057600080fd5b5051919050565b600060208284031215611e1957600080fd5b8151610d188161197e565b7f4e487b7100000000000000000000000000000000000000000000000000000000600052601160045260246000fd5b818103818111156102b5576102b5611e24565b808201808211156102b5576102b5611e24565b6000610100808385031215611e8d57600080fd5b6040519081019067ffffffffffffffff82118183101715611eb057611eb0611a09565b81604052835181526020840151602082015260408401516040820152606084015160608201526080840151608082015260a084015160a082015260c084015160c082015260e084015160e0820152809250505092915050565b60006020808385031215611f1c57600080fd5b825167ffffffffffffffff80821115611f3457600080fd5b818501915085601f830112611f4857600080fd5b815181811115611f5a57611f5a611a09565b8060051b9150611f6b848301611a62565b8181529183018401918481019088841115611f8557600080fd5b938501935b83851015611faf5784519250611f9f8361197e565b8282529385019390850190611f8a565b98975050505050505050565b7f4e487b7100000000000000000000000000000000000000000000000000000000600052603260045260246000fd5b60007fffffffffffffffffffffffffffffffffffffffffffffffffffffffffffffffff820361201b5761201b611e24565b5060010190565b80820281158282048414176102b5576102b5611e24565b60008261206f577f4e487b7100000000000000000000000000000000000000000000000000000000600052601260045260246000fd5b50049056fea26469706673582212209be56601b87fee73e50db7dca99ac348cb8a18d7173fd6c5436220a1a067c56764736f6c63430008120033",
  "linkReferences": {
    "contracts/storage/AppConfig.sol": {
      "AppConfig": [
        {
          "length": 20,
          "start": 3555
        }
      ]
    },
    "contracts/storage/CommonData.sol": {
      "CommonData": [
        {
          "length": 20,
          "start": 1382
        },
        {
          "length": 20,
          "start": 5228
        }
      ]
    },
    "contracts/storage/FeeRewards.sol": {
      "FeeRewards": [
        {
          "length": 20,
          "start": 931
        },
        {
          "length": 20,
          "start": 1124
        },
        {
          "length": 20,
          "start": 1738
        },
        {
          "length": 20,
          "start": 2049
        },
        {
          "length": 20,
          "start": 2195
        },
        {
          "length": 20,
          "start": 2386
        },
        {
          "length": 20,
          "start": 2764
        },
        {
          "length": 20,
          "start": 2937
        },
        {
          "length": 20,
          "start": 3172
        },
        {
          "length": 20,
          "start": 3316
        },
        {
          "length": 20,
          "start": 3469
        },
        {
          "length": 20,
          "start": 4643
        },
        {
          "length": 20,
          "start": 5731
        },
        {
          "length": 20,
          "start": 5877
        },
        {
          "length": 20,
          "start": 6068
        },
        {
          "length": 20,
          "start": 6396
        }
      ]
    },
    "contracts/storage/LpPool.sol": {
      "LpPool": [
        {
          "length": 20,
          "start": 5384
        }
      ]
    },
    "contracts/storage/StakingAccount.sol": {
      "StakingAccount": [
        {
          "length": 20,
          "start": 1282
        },
        {
          "length": 20,
          "start": 1570
        },
        {
          "length": 20,
          "start": 4107
        },
        {
          "length": 20,
          "start": 4254
        },
        {
          "length": 20,
          "start": 4821
        }
      ]
    },
    "contracts/utils/CalUtils.sol": {
      "CalUtils": [
        {
          "length": 20,
          "start": 654
        },
        {
          "length": 20,
          "start": 823
        },
        {
          "length": 20,
          "start": 2358
        },
        {
          "length": 20,
          "start": 3710
        },
        {
          "length": 20,
          "start": 3867
        },
        {
          "length": 20,
          "start": 6040
        }
      ]
    }
  },
  "deployedLinkReferences": {
    "contracts/storage/AppConfig.sol": {
      "AppConfig": [
        {
          "length": 20,
          "start": 3497
        }
      ]
    },
    "contracts/storage/CommonData.sol": {
      "CommonData": [
        {
          "length": 20,
          "start": 1324
        },
        {
          "length": 20,
          "start": 5170
        }
      ]
    },
    "contracts/storage/FeeRewards.sol": {
      "FeeRewards": [
        {
          "length": 20,
          "start": 873
        },
        {
          "length": 20,
          "start": 1066
        },
        {
          "length": 20,
          "start": 1680
        },
        {
          "length": 20,
          "start": 1991
        },
        {
          "length": 20,
          "start": 2137
        },
        {
          "length": 20,
          "start": 2328
        },
        {
          "length": 20,
          "start": 2706
        },
        {
          "length": 20,
          "start": 2879
        },
        {
          "length": 20,
          "start": 3114
        },
        {
          "length": 20,
          "start": 3258
        },
        {
          "length": 20,
          "start": 3411
        },
        {
          "length": 20,
          "start": 4585
        },
        {
          "length": 20,
          "start": 5673
        },
        {
          "length": 20,
          "start": 5819
        },
        {
          "length": 20,
          "start": 6010
        },
        {
          "length": 20,
          "start": 6338
        }
      ]
    },
    "contracts/storage/LpPool.sol": {
      "LpPool": [
        {
          "length": 20,
          "start": 5326
        }
      ]
    },
    "contracts/storage/StakingAccount.sol": {
      "StakingAccount": [
        {
          "length": 20,
          "start": 1224
        },
        {
          "length": 20,
          "start": 1512
        },
        {
          "length": 20,
          "start": 4049
        },
        {
          "length": 20,
          "start": 4196
        },
        {
          "length": 20,
          "start": 4763
        }
      ]
    },
    "contracts/utils/CalUtils.sol": {
      "CalUtils": [
        {
          "length": 20,
          "start": 596
        },
        {
          "length": 20,
          "start": 765
        },
        {
          "length": 20,
          "start": 2300
        },
        {
          "length": 20,
          "start": 3652
        },
        {
          "length": 20,
          "start": 3809
        },
        {
          "length": 20,
          "start": 5982
        }
      ]
    }
  }
}