{"abi":[{"type":"function","name":"callLiabilityClean","inputs":[{"name":"cleanId","type":"uint256","internalType":"uint256"}],"outputs":[],"stateMutability":"nonpayable"},{"type":"function","name":"getAllCleanInfos","inputs":[],"outputs":[{"name":"","type":"tuple[]","internalType":"struct LiabilityClean.LiabilityCleanInfo[]","components":[{"name":"account","type":"address","internalType":"address"},{"name":"createTime","type":"uint256","internalType":"uint256"},{"name":"liabilityTokens","type":"address[]","internalType":"address[]"},{"name":"liabilities","type":"uint256[]","internalType":"uint256[]"},{"name":"collaterals","type":"address[]","internalType":"address[]"},{"name":"collateralsAmount","type":"uint256[]","internalType":"uint256[]"}]}],"stateMutability":"view"},{"type":"function","name":"getInsuranceFunds","inputs":[{"name":"stakeToken","type":"address","internalType":"address"},{"name":"token","type":"address","internalType":"address"}],"outputs":[{"name":"","type":"uint256","internalType":"uint256"}],"stateMutability":"view"},{"type":"function","name":"liquidationAccount","inputs":[{"name":"account","type":"address","internalType":"address"},{"name":"oracles","type":"tuple[]","internalType":"struct OracleProcess.OracleParam[]","components":[{"name":"token","type":"address","internalType":"address"},{"name":"targetToken","type":"address","internalType":"address"},{"name":"minPrice","type":"int256","internalType":"int256"},{"name":"maxPrice","type":"int256","internalType":"int256"}]}],"outputs":[],"stateMutability":"nonpayable"},{"type":"function","name":"liquidationLiability","inputs":[{"name":"params","type":"tuple","internalType":"struct ILiquidation.CleanLiabilityParams","components":[{"name":"account","type":"address","internalType":"address"},{"name":"liabilityToken","type":"address","internalType":"address"},{"name":"liability","type":"uint256","internalType":"uint256"},{"name":"payTokens","type":"address[]","internalType":"address[]"},{"name":"payAmounts","type":"uint256[]","internalType":"uint256[]"}]}],"outputs":[],"stateMutability":"nonpayable"},{"type":"function","name":"liquidationPosition","inputs":[{"name":"positionKey","type":"bytes32","internalType":"bytes32"},{"name":"oracles","type":"tuple[]","internalType":"struct OracleProcess.OracleParam[]","components":[{"name":"token","type":"address","internalType":"address"},{"name":"targetToken","type":"address","internalType":"address"},{"name":"minPrice","type":"int256","internalType":"int256"},{"name":"maxPrice","type":"int256","internalType":"int256"}]}],"outputs":[],"stateMutability":"nonpayable"},{"type":"event","name":"LiabilityCleanSuccessful","inputs":[{"name":"cleanId","type":"uint256","indexed":false,"internalType":"uint256"}],"anonymous":false},{"type":"error","name":"CallLiabilityCleanNotExists","inputs":[{"name":"id","type":"uint256","internalType":"uint256"}]},{"type":"error","name":"InvalidRoleAccess","inputs":[{"name":"account","type":"address","internalType":"address"},{"name":"role","type":"bytes32","internalType":"bytes32"}]}],"bytecode":{"object":"0x6080604052348015600f57600080fd5b506113458061001f6000396000f3fe608060405234801561001057600080fd5b50600436106100625760003560e01c80632358072c146100675780635a536f8f1461008557806367180d0c1461009a578063ac9deaa4146100bb578063c0828713146100ce578063d96faa28146100e1575b600080fd5b61006f6100f4565b60405161007c9190610adc565b60405180910390f35b610098610093366004610c1c565b61016c565b005b6100ad6100a8366004610c71565b61031e565b60405190815260200161007c565b6100986100c9366004610caa565b610428565b6100986100dc366004610ce5565b61050e565b6100986100ef366004610d18565b6105c7565b606073__$4ad7ebe7c986528cfaff5d11eb4a0ffa90$__63b45cb6b26040518163ffffffff1660e01b8152600401600060405180830381865af415801561013f573d6000803e3d6000fd5b505050506040513d6000823e601f3d908101601f191682016040526101679190810190610f80565b905090565b61017e6525a2a2a822a960d11b610986565b60005a604051631d4cb62f60e21b815290915073__$76a505dbd6210c6de5172a9e6577e0d579$__90637532d8bc906101bd9086908690600401611031565b60006040518083038186803b1580156101d557600080fd5b505af41580156101e9573d6000803e3d6000fd5b50506040516336f9339360e01b81526001600160a01b038716600482015273__$32adf8695f5daf445be469a7fd8cffdf8b$__92506336f9339391506024015b60006040518083038186803b15801561024157600080fd5b505af4158015610255573d6000803e3d6000fd5b5050505073__$76a505dbd6210c6de5172a9e6577e0d579$__63e52ed3656040518163ffffffff1660e01b815260040160006040518083038186803b15801561029d57600080fd5b505af41580156102b1573d6000803e3d6000fd5b50506040516307c43b6960e21b81526004810184905273__$1af6d17e273104ca3ca5016ca475f591a0$__9250631f10eda4915060240160006040518083038186803b15801561030057600080fd5b505af4158015610314573d6000803e3d6000fd5b5050505050505050565b604051630bd039cd60e21b81526001600160a01b038316600482015260009073__$8095a854f53b8cd566db1efd1a12f91e07$__90632f40e73490602401602060405180830381865af4158015610379573d6000803e3d6000fd5b505050506040513d601f19601f8201168201806040525081019061039d91906110ab565b60405163831fb95760e01b815260048101919091526001600160a01b038316602482015273__$8095a854f53b8cd566db1efd1a12f91e07$__9063831fb95790604401602060405180830381865af41580156103fd573d6000803e3d6000fd5b505050506040513d601f19601f8201168201806040525081019061042191906110ab565b9392505050565b61043a6525a2a2a822a960d11b610986565b60005a60405163112572d960e31b815290915073__$32adf8695f5daf445be469a7fd8cffdf8b$__9063892b96c89061047790859060040161113f565b60006040518083038186803b15801561048f57600080fd5b505af41580156104a3573d6000803e3d6000fd5b50506040516307c43b6960e21b81526004810184905273__$1af6d17e273104ca3ca5016ca475f591a0$__9250631f10eda4915060240160006040518083038186803b1580156104f257600080fd5b505af4158015610506573d6000803e3d6000fd5b505050505050565b6105206525a2a2a822a960d11b610986565b60005a604051631d4cb62f60e21b815290915073__$76a505dbd6210c6de5172a9e6577e0d579$__90637532d8bc9061055f9086908690600401611031565b60006040518083038186803b15801561057757600080fd5b505af415801561058b573d6000803e3d6000fd5b505060405163a9ccf5f760e01b81526004810187905273__$32adf8695f5daf445be469a7fd8cffdf8b$__925063a9ccf5f79150602401610229565b60405163310a0e4160e01b81526004810182905260009073__$4ad7ebe7c986528cfaff5d11eb4a0ffa90$__9063310a0e4190602401600060405180830381865af415801561061a573d6000803e3d6000fd5b505050506040513d6000823e601f3d908101601f191682016040526106429190810190611208565b80519091506001600160a01b03166106755760405163527de13160e01b8152600481018390526024015b60405180910390fd5b60005b8160400151518110156107905773__$ae0937d060466c56d4bdd1eafaed47a473$__63ef59a9d16040518060a00160405280336001600160a01b03168152602001856040015185815181106106cf576106cf61123d565b60200260200101516001600160a01b03168152602001856060015185815181106106fb576106fb61123d565b602002602001015181526020016000600381111561071b5761071b611253565b815260006020909101526040516001600160e01b031960e084901b1681526107469190600401611269565b602060405180830381865af4158015610763573d6000803e3d6000fd5b505050506040513d601f19601f8201168201806040525081019061078791906112d0565b50600101610678565b5060005b8160800151518110156108e55773__$8526888d218a843cc53a77a3ceb13f6b1f$__6385e2b880306001600160a01b0316631f7592ea6040518163ffffffff1660e01b8152600401602060405180830381865afa1580156107f9573d6000803e3d6000fd5b505050506040513d601f19601f8201168201806040525081019061081d91906112d0565b846080015184815181106108335761083361123d565b6020026020010151338660a0015186815181106108525761085261123d565b60209081029190910101516040516001600160e01b031960e087901b1681526001600160a01b0394851660048201529284166024840152921660448201526064810191909152608401602060405180830381865af41580156108b8573d6000803e3d6000fd5b505050506040513d601f19601f820116820180604052508101906108dc91906112ed565b50600101610794565b5060405163fc3d7d9960e01b81526004810183905273__$4ad7ebe7c986528cfaff5d11eb4a0ffa90$__9063fc3d7d999060240160006040518083038186803b15801561093157600080fd5b505af4158015610945573d6000803e3d6000fd5b505050507f9658b573a066e713f2cff0b7a9e1d3b1c6395ce9379f271c4c3fa96552b9904f8260405161097a91815260200190565b60405180910390a15050565b61099033826109b9565b6109b657604051632d7d0e0d60e21b81523360048201526024810182905260440161066c565b50565b6000806109c4610a04565b6001600160a01b03851660009081526020829052604090209091506109fc908460008181526001830160205260408120541515610421565b949350505050565b600080604051602001610a48906020808252601e908201527f78797a2e656c66692e73746f726167652e416363657373436f6e74726f6c0000604082015260600190565b60408051601f19818403018152919052805160209091012092915050565b60008151808452602080850194506020840160005b83811015610aa05781516001600160a01b031687529582019590820190600101610a7b565b509495945050505050565b60008151808452602080850194506020840160005b83811015610aa057815187529582019590820190600101610ac0565b600060208083018184528085518083526040925060408601915060408160051b87010184880160005b83811015610bad57888303603f19018552815180516001600160a01b0316845287810151888501528681015160c088860181905290610b4682870182610a66565b91505060608083015186830382880152610b608382610aab565b9250505060808083015186830382880152610b7b8382610a66565b9250505060a08083015192508582038187015250610b998183610aab565b968901969450505090860190600101610b05565b509098975050505050505050565b6001600160a01b03811681146109b657600080fd5b60008083601f840112610be257600080fd5b50813567ffffffffffffffff811115610bfa57600080fd5b6020830191508360208260071b8501011115610c1557600080fd5b9250929050565b600080600060408486031215610c3157600080fd5b8335610c3c81610bbb565b9250602084013567ffffffffffffffff811115610c5857600080fd5b610c6486828701610bd0565b9497909650939450505050565b60008060408385031215610c8457600080fd5b8235610c8f81610bbb565b91506020830135610c9f81610bbb565b809150509250929050565b600060208284031215610cbc57600080fd5b813567ffffffffffffffff811115610cd357600080fd5b820160a0818503121561042157600080fd5b600080600060408486031215610cfa57600080fd5b83359250602084013567ffffffffffffffff811115610c5857600080fd5b600060208284031215610d2a57600080fd5b5035919050565b634e487b7160e01b600052604160045260246000fd5b60405160c0810167ffffffffffffffff81118282101715610d6a57610d6a610d31565b60405290565b604051601f8201601f1916810167ffffffffffffffff81118282101715610d9957610d99610d31565b604052919050565b600067ffffffffffffffff821115610dbb57610dbb610d31565b5060051b60200190565b8051610dd081610bbb565b919050565b600082601f830112610de657600080fd5b81516020610dfb610df683610da1565b610d70565b8083825260208201915060208460051b870101935086841115610e1d57600080fd5b602086015b84811015610e42578051610e3581610bbb565b8352918301918301610e22565b509695505050505050565b600082601f830112610e5e57600080fd5b81516020610e6e610df683610da1565b8083825260208201915060208460051b870101935086841115610e9057600080fd5b602086015b84811015610e425780518352918301918301610e95565b600060c08284031215610ebe57600080fd5b610ec6610d47565b9050610ed182610dc5565b815260208201516020820152604082015167ffffffffffffffff80821115610ef857600080fd5b610f0485838601610dd5565b60408401526060840151915080821115610f1d57600080fd5b610f2985838601610e4d565b60608401526080840151915080821115610f4257600080fd5b610f4e85838601610dd5565b608084015260a0840151915080821115610f6757600080fd5b50610f7484828501610e4d565b60a08301525092915050565b60006020808385031215610f9357600080fd5b825167ffffffffffffffff80821115610fab57600080fd5b818501915085601f830112610fbf57600080fd5b8151610fcd610df682610da1565b81815260059190911b83018401908481019088831115610fec57600080fd5b8585015b83811015611024578051858111156110085760008081fd5b6110168b89838a0101610eac565b845250918601918601610ff0565b5098975050505050505050565b6020808252818101839052600090604080840186845b8781101561109e57813561105a81610bbb565b6001600160a01b039081168452828601359061107582610bbb565b168386015281840135848401526060808301359084015260809283019290910190600101611047565b5090979650505050505050565b6000602082840312156110bd57600080fd5b5051919050565b6000808335601e198436030181126110db57600080fd5b830160208101925035905067ffffffffffffffff8111156110fb57600080fd5b8060051b3603821315610c1557600080fd5b81835260006001600160fb1b0383111561112657600080fd5b8260051b80836020870137939093016020019392505050565b6000602080835260c08301843561115581610bbb565b6001600160a01b039081166020868101919091528601359061117682610bbb565b80821660408701526040870135606087015261119560608801886110c4565b60a0608089015293849052929150600060e087015b838210156111d35784356111bd81610bbb565b83168152938501936001919091019085016111aa565b6111e060808a018a6110c4565b898303601f190160a08b0152965094506111fb81878761110d565b9998505050505050505050565b60006020828403121561121a57600080fd5b815167ffffffffffffffff81111561123157600080fd5b6109fc84828501610eac565b634e487b7160e01b600052603260045260246000fd5b634e487b7160e01b600052602160045260246000fd5b81516001600160a01b0390811682526020808401519091169082015260408083015190820152606082015160a0820190600481106112b757634e487b7160e01b600052602160045260246000fd5b8060608401525060808301511515608083015292915050565b6000602082840312156112e257600080fd5b815161042181610bbb565b6000602082840312156112ff57600080fd5b8151801515811461042157600080fdfea264697066735822122076446e718b4aa9f299ae7fe45a8ece97e6dcf5df369f08af6f2334b56186166e64736f6c63430008190033","linkReferences":{"contracts/process/AssetsProcess.sol":{"AssetsProcess":[{"start":1702,"length":20}]},"contracts/process/GasProcess.sol":{"GasProcess":[{"start":744,"length":20},{"start":1242,"length":20}]},"contracts/process/LiquidationProcess.sol":{"LiquidationProcess":[{"start":552,"length":20},{"start":1134,"length":20},{"start":1474,"length":20}]},"contracts/process/OracleProcess.sol":{"OracleProcess":[{"start":434,"length":20},{"start":634,"length":20},{"start":1364,"length":20}]},"contracts/process/VaultProcess.sol":{"VaultProcess":[{"start":1986,"length":20}]},"contracts/storage/InsuranceFund.sol":{"InsuranceFund":[{"start":862,"length":20},{"start":994,"length":20}]},"contracts/storage/LiabilityClean.sol":{"LiabilityClean":[{"start":279,"length":20},{"start":1535,"length":20},{"start":2331,"length":20}]}}},"methodIdentifiers":{"callLiabilityClean(uint256)":"d96faa28","getAllCleanInfos()":"2358072c","getInsuranceFunds(address,address)":"67180d0c","liquidationAccount(address,(address,address,int256,int256)[])":"5a536f8f","liquidationLiability((address,address,uint256,address[],uint256[]))":"ac9deaa4","liquidationPosition(bytes32,(address,address,int256,int256)[])":"c0828713"},"id":7}