{
  "_format": "hh-sol-artifact-1",
  "contractName": "PositionFacet",
  "sourceName": "contracts/facets/PositionFacet.sol",
  "abi": [
    {
      "inputs": [],
      "name": "AmountZeroNotAllowed",
      "type": "error"
    },
    {
      "inputs": [
        {
          "internalType": "address",
          "name": "account",
          "type": "address"
        },
        {
          "internalType": "bytes32",
          "name": "role",
          "type": "bytes32"
        }
      ],
      "name": "InvalidRoleAccess",
      "type": "error"
    },
    {
      "inputs": [
        {
          "internalType": "bytes32",
          "name": "symbol",
          "type": "bytes32"
        },
        {
          "internalType": "uint256",
          "name": "leverage",
          "type": "uint256"
        }
      ],
      "name": "LeverageInvalid",
      "type": "error"
    },
    {
      "inputs": [],
      "name": "OnlyIsolateSupported",
      "type": "error"
    },
    {
      "inputs": [],
      "name": "PositionNotExists",
      "type": "error"
    },
    {
      "inputs": [],
      "name": "SymbolNotExists",
      "type": "error"
    },
    {
      "inputs": [
        {
          "internalType": "bytes32",
          "name": "symbol",
          "type": "bytes32"
        }
      ],
      "name": "SymbolStatusInvalid",
      "type": "error"
    },
    {
      "inputs": [],
      "name": "UpdateLeverageRequestNotExists",
      "type": "error"
    },
    {
      "inputs": [],
      "name": "UpdatePositionMarginRequestNotExists",
      "type": "error"
    },
    {
      "inputs": [
        {
          "internalType": "bytes32[]",
          "name": "positionKeys",
          "type": "bytes32[]"
        }
      ],
      "name": "autoReducePositions",
      "outputs": [],
      "stateMutability": "nonpayable",
      "type": "function"
    },
    {
      "inputs": [
        {
          "internalType": "uint256",
          "name": "requestId",
          "type": "uint256"
        },
        {
          "internalType": "bytes32",
          "name": "reasonCode",
          "type": "bytes32"
        }
      ],
      "name": "cancelUpdateLeverageRequest",
      "outputs": [],
      "stateMutability": "nonpayable",
      "type": "function"
    },
    {
      "inputs": [
        {
          "internalType": "uint256",
          "name": "requestId",
          "type": "uint256"
        },
        {
          "internalType": "bytes32",
          "name": "reasonCode",
          "type": "bytes32"
        }
      ],
      "name": "cancelUpdatePositionMarginRequest",
      "outputs": [],
      "stateMutability": "nonpayable",
      "type": "function"
    },
    {
      "inputs": [
        {
          "components": [
            {
              "internalType": "bytes32",
              "name": "symbol",
              "type": "bytes32"
            },
            {
              "internalType": "bool",
              "name": "isLong",
              "type": "bool"
            },
            {
              "internalType": "bool",
              "name": "isNativeToken",
              "type": "bool"
            },
            {
              "internalType": "bool",
              "name": "isCrossMargin",
              "type": "bool"
            },
            {
              "internalType": "uint256",
              "name": "leverage",
              "type": "uint256"
            },
            {
              "internalType": "address",
              "name": "marginToken",
              "type": "address"
            },
            {
              "internalType": "uint256",
              "name": "addMarginAmount",
              "type": "uint256"
            },
            {
              "internalType": "uint256",
              "name": "executionFee",
              "type": "uint256"
            }
          ],
          "internalType": "struct IPosition.UpdateLeverageParams",
          "name": "params",
          "type": "tuple"
        }
      ],
      "name": "createUpdateLeverageRequest",
      "outputs": [],
      "stateMutability": "payable",
      "type": "function"
    },
    {
      "inputs": [
        {
          "components": [
            {
              "internalType": "bytes32",
              "name": "positionKey",
              "type": "bytes32"
            },
            {
              "internalType": "bool",
              "name": "isAdd",
              "type": "bool"
            },
            {
              "internalType": "bool",
              "name": "isNativeToken",
              "type": "bool"
            },
            {
              "internalType": "address",
              "name": "marginToken",
              "type": "address"
            },
            {
              "internalType": "uint256",
              "name": "updateMarginAmount",
              "type": "uint256"
            },
            {
              "internalType": "uint256",
              "name": "executionFee",
              "type": "uint256"
            }
          ],
          "internalType": "struct IPosition.UpdatePositionMarginParams",
          "name": "params",
          "type": "tuple"
        }
      ],
      "name": "createUpdatePositionMarginRequest",
      "outputs": [],
      "stateMutability": "payable",
      "type": "function"
    },
    {
      "inputs": [
        {
          "internalType": "uint256",
          "name": "requestId",
          "type": "uint256"
        },
        {
          "components": [
            {
              "internalType": "address",
              "name": "token",
              "type": "address"
            },
            {
              "internalType": "address",
              "name": "targetToken",
              "type": "address"
            },
            {
              "internalType": "int256",
              "name": "minPrice",
              "type": "int256"
            },
            {
              "internalType": "int256",
              "name": "maxPrice",
              "type": "int256"
            }
          ],
          "internalType": "struct OracleProcess.OracleParam[]",
          "name": "oracles",
          "type": "tuple[]"
        }
      ],
      "name": "executeUpdateLeverageRequest",
      "outputs": [],
      "stateMutability": "nonpayable",
      "type": "function"
    },
    {
      "inputs": [
        {
          "internalType": "uint256",
          "name": "requestId",
          "type": "uint256"
        },
        {
          "components": [
            {
              "internalType": "address",
              "name": "token",
              "type": "address"
            },
            {
              "internalType": "address",
              "name": "targetToken",
              "type": "address"
            },
            {
              "internalType": "int256",
              "name": "minPrice",
              "type": "int256"
            },
            {
              "internalType": "int256",
              "name": "maxPrice",
              "type": "int256"
            }
          ],
          "internalType": "struct OracleProcess.OracleParam[]",
          "name": "oracles",
          "type": "tuple[]"
        }
      ],
      "name": "executeUpdatePositionMarginRequest",
      "outputs": [],
      "stateMutability": "nonpayable",
      "type": "function"
    },
    {
      "inputs": [
        {
          "internalType": "address",
          "name": "account",
          "type": "address"
        }
      ],
      "name": "getAllPositions",
      "outputs": [
        {
          "components": [
            {
              "components": [
                {
                  "internalType": "bytes32",
                  "name": "key",
                  "type": "bytes32"
                },
                {
                  "internalType": "bytes32",
                  "name": "symbol",
                  "type": "bytes32"
                },
                {
                  "internalType": "bool",
                  "name": "isLong",
                  "type": "bool"
                },
                {
                  "internalType": "bool",
                  "name": "isCrossMargin",
                  "type": "bool"
                },
                {
                  "internalType": "address",
                  "name": "account",
                  "type": "address"
                },
                {
                  "internalType": "address",
                  "name": "marginToken",
                  "type": "address"
                },
                {
                  "internalType": "address",
                  "name": "indexToken",
                  "type": "address"
                },
                {
                  "internalType": "uint256",
                  "name": "qty",
                  "type": "uint256"
                },
                {
                  "internalType": "uint256",
                  "name": "entryPrice",
                  "type": "uint256"
                },
                {
                  "internalType": "uint256",
                  "name": "leverage",
                  "type": "uint256"
                },
                {
                  "internalType": "uint256",
                  "name": "initialMargin",
                  "type": "uint256"
                },
                {
                  "internalType": "uint256",
                  "name": "initialMarginInUsd",
                  "type": "uint256"
                },
                {
                  "internalType": "uint256",
                  "name": "initialMarginInUsdFromBalance",
                  "type": "uint256"
                },
                {
                  "internalType": "uint256",
                  "name": "holdPoolAmount",
                  "type": "uint256"
                },
                {
                  "components": [
                    {
                      "internalType": "uint256",
                      "name": "closeFeeInUsd",
                      "type": "uint256"
                    },
                    {
                      "internalType": "uint256",
                      "name": "openBorrowingFeePerToken",
                      "type": "uint256"
                    },
                    {
                      "internalType": "uint256",
                      "name": "realizedBorrowingFee",
                      "type": "uint256"
                    },
                    {
                      "internalType": "uint256",
                      "name": "realizedBorrowingFeeInUsd",
                      "type": "uint256"
                    },
                    {
                      "internalType": "int256",
                      "name": "openFundingFeePerQty",
                      "type": "int256"
                    },
                    {
                      "internalType": "int256",
                      "name": "realizedFundingFee",
                      "type": "int256"
                    },
                    {
                      "internalType": "int256",
                      "name": "realizedFundingFeeInUsd",
                      "type": "int256"
                    }
                  ],
                  "internalType": "struct Position.PositionFee",
                  "name": "positionFee",
                  "type": "tuple"
                },
                {
                  "internalType": "int256",
                  "name": "realizedPnl",
                  "type": "int256"
                },
                {
                  "internalType": "uint256",
                  "name": "lastUpdateTime",
                  "type": "uint256"
                }
              ],
              "internalType": "struct Position.Props",
              "name": "position",
              "type": "tuple"
            },
            {
              "internalType": "uint256",
              "name": "liquidationPrice",
              "type": "uint256"
            },
            {
              "internalType": "uint256",
              "name": "currentTimestamp",
              "type": "uint256"
            }
          ],
          "internalType": "struct IPosition.PositionInfo[]",
          "name": "",
          "type": "tuple[]"
        }
      ],
      "stateMutability": "view",
      "type": "function"
    },
    {
      "inputs": [
        {
          "internalType": "address",
          "name": "account",
          "type": "address"
        },
        {
          "internalType": "bytes32",
          "name": "symbol",
          "type": "bytes32"
        },
        {
          "internalType": "address",
          "name": "marginToken",
          "type": "address"
        },
        {
          "internalType": "bool",
          "name": "isCrossMargin",
          "type": "bool"
        }
      ],
      "name": "getSinglePosition",
      "outputs": [
        {
          "components": [
            {
              "internalType": "bytes32",
              "name": "key",
              "type": "bytes32"
            },
            {
              "internalType": "bytes32",
              "name": "symbol",
              "type": "bytes32"
            },
            {
              "internalType": "bool",
              "name": "isLong",
              "type": "bool"
            },
            {
              "internalType": "bool",
              "name": "isCrossMargin",
              "type": "bool"
            },
            {
              "internalType": "address",
              "name": "account",
              "type": "address"
            },
            {
              "internalType": "address",
              "name": "marginToken",
              "type": "address"
            },
            {
              "internalType": "address",
              "name": "indexToken",
              "type": "address"
            },
            {
              "internalType": "uint256",
              "name": "qty",
              "type": "uint256"
            },
            {
              "internalType": "uint256",
              "name": "entryPrice",
              "type": "uint256"
            },
            {
              "internalType": "uint256",
              "name": "leverage",
              "type": "uint256"
            },
            {
              "internalType": "uint256",
              "name": "initialMargin",
              "type": "uint256"
            },
            {
              "internalType": "uint256",
              "name": "initialMarginInUsd",
              "type": "uint256"
            },
            {
              "internalType": "uint256",
              "name": "initialMarginInUsdFromBalance",
              "type": "uint256"
            },
            {
              "internalType": "uint256",
              "name": "holdPoolAmount",
              "type": "uint256"
            },
            {
              "components": [
                {
                  "internalType": "uint256",
                  "name": "closeFeeInUsd",
                  "type": "uint256"
                },
                {
                  "internalType": "uint256",
                  "name": "openBorrowingFeePerToken",
                  "type": "uint256"
                },
                {
                  "internalType": "uint256",
                  "name": "realizedBorrowingFee",
                  "type": "uint256"
                },
                {
                  "internalType": "uint256",
                  "name": "realizedBorrowingFeeInUsd",
                  "type": "uint256"
                },
                {
                  "internalType": "int256",
                  "name": "openFundingFeePerQty",
                  "type": "int256"
                },
                {
                  "internalType": "int256",
                  "name": "realizedFundingFee",
                  "type": "int256"
                },
                {
                  "internalType": "int256",
                  "name": "realizedFundingFeeInUsd",
                  "type": "int256"
                }
              ],
              "internalType": "struct Position.PositionFee",
              "name": "positionFee",
              "type": "tuple"
            },
            {
              "internalType": "int256",
              "name": "realizedPnl",
              "type": "int256"
            },
            {
              "internalType": "uint256",
              "name": "lastUpdateTime",
              "type": "uint256"
            }
          ],
          "internalType": "struct Position.Props",
          "name": "",
          "type": "tuple"
        }
      ],
      "stateMutability": "pure",
      "type": "function"
    }
  ],
  "bytecode": "0x608060405234801561001057600080fd5b506001600055613e42806100256000396000f3fe6080604052600436106100965760003560e01c80637431564711610069578063e606789b1161004e578063e606789b14610166578063fb11e96914610186578063fe1b7245146101b357600080fd5b80637431564714610133578063cb5c8d811461014657600080fd5b806309fb7aac1461009b578063311be5f4146100bd57806341065c62146100dd57806359086dc914610113575b600080fd5b3480156100a757600080fd5b506100bb6100b6366004613041565b6101c6565b005b3480156100c957600080fd5b506100bb6100d83660046130b6565b61063c565b3480156100e957600080fd5b506100fd6100f8366004613180565b610ac0565b60405161010a9190613338565b60405180910390f35b34801561011f57600080fd5b506100bb61012e366004613347565b610cd2565b6100bb610141366004613369565b61101f565b34801561015257600080fd5b506100bb6101613660046130b6565b611680565b34801561017257600080fd5b506100bb610181366004613347565b611aa9565b34801561019257600080fd5b506101a66101a1366004613382565b611e1a565b60405161010a919061339f565b6100bb6101c1366004613404565b612323565b60005a90506101f47f4b4545504552000000000000000000000000000000000000000000000000000061284e565b6040517f204c72520000000000000000000000000000000000000000000000000000000081527f8116fe254c434350c8a963d750885fee6b2213d5416ba4444044ed0bb91a725d600482015260009073__$1f6634ba11cc1ae886305aee292e3d3d68$__9063204c725290602401602060405180830381865af415801561027f573d6000803e3d6000fd5b505050506040513d601f19601f820116820180604052508101906102a39190613416565b905060005b838110156105b857600073__$37e953c735ca981103e3546928ae79276f$__63f03507998787858181106102de576102de61342f565b905060200201356040518263ffffffff1660e01b815260040161030391815260200190565b602060405180830381865af4158015610320573d6000803e3d6000fd5b505050506040513d601f19601f820116820180604052508101906103449190613416565b6040517fa51dafc70000000000000000000000000000000000000000000000000000000081526004810182905290915073__$37e953c735ca981103e3546928ae79276f$__9063a51dafc79060240160006040518083038186803b1580156103ab57600080fd5b505af41580156103bf573d6000803e3d6000fd5b50506040805160e08101825286815260018501546020820152600081830152600285015460ff6101008204811615156060840152600387015473ffffffffffffffffffffffffffffffffffffffff9081166080850152600588015460a085015260048089015495517f1a0994f50000000000000000000000000000000000000000000000000000000081529590911690850152161515602483015273__$8a6942328533ff1a7954ae37c47aac250b$__9350635b9a574e9250849160c082019073__$76a505dbd6210c6de5172a9e6577e0d579$__90631a0994f590604401602060405180830381865af41580156104bb573d6000803e3d6000fd5b505050506040513d601f19601f820116820180604052508101906104df9190613416565b9052604080517fffffffff0000000000000000000000000000000000000000000000000000000060e086901b1681526004810193909352815160248401526020820151604484015281015115156064830152606081015115156084830152608081015173ffffffffffffffffffffffffffffffffffffffff1660a483015260a081015160c483015260c0015160e48201526101040160006040518083038186803b15801561058c57600080fd5b505af41580156105a0573d6000803e3d6000fd5b505050505080806105b09061348d565b9150506102a8565b506040517f1f10eda40000000000000000000000000000000000000000000000000000000081526004810183905273__$1af6d17e273104ca3ca5016ca475f591a0$__90631f10eda4906024015b60006040518083038186803b15801561061e57600080fd5b505af4158015610632573d6000803e3d6000fd5b5050505050505050565b60005a905061066a7f4b4545504552000000000000000000000000000000000000000000000000000061284e565b6040517f9507d39a0000000000000000000000000000000000000000000000000000000081526004810185905260009073__$7cb1c1955038c1ee89159641ca86f25b85$__90639507d39a9060240161010060405180830381865af41580156106d7573d6000803e3d6000fd5b505050506040513d601f19601f820116820180604052508101906106fb91906135cb565b805190915073ffffffffffffffffffffffffffffffffffffffff1661074c576040517ffd0b752300000000000000000000000000000000000000000000000000000000815260040160405180910390fd5b6040517f7532d8bc00000000000000000000000000000000000000000000000000000000815273__$76a505dbd6210c6de5172a9e6577e0d579$__90637532d8bc9061079e908790879060040161365c565b60006040518083038186803b1580156107b657600080fd5b505af41580156107ca573d6000803e3d6000fd5b50506040517fca7b4ab900000000000000000000000000000000000000000000000000000000815273__$1f57ed0a0c01c58a7f0bc8f5acff836f64$__925063ca7b4ab9915061082090889085906004016136e3565b60006040518083038186803b15801561083857600080fd5b505af415801561084c573d6000803e3d6000fd5b5050505073__$76a505dbd6210c6de5172a9e6577e0d579$__63e52ed3656040518163ffffffff1660e01b815260040160006040518083038186803b15801561089457600080fd5b505af41580156108a8573d6000803e3d6000fd5b5050505073__$1af6d17e273104ca3ca5016ca475f591a0$__634d4d56726040518060a001604052808460c0015161094e573073ffffffffffffffffffffffffffffffffffffffff16631f7592ea6040518163ffffffff1660e01b8152600401602060405180830381865afa158015610925573d6000803e3d6000fd5b505050506040513d601f19601f82011682018060405250810190610949919061375f565b6109bd565b3073ffffffffffffffffffffffffffffffffffffffff166397e7b7f26040518163ffffffff1660e01b8152600401602060405180830381865afa158015610999573d6000803e3d6000fd5b505050506040513d601f19601f820116820180604052508101906109bd919061375f565b73ffffffffffffffffffffffffffffffffffffffff168152602001846080015181526020018581526020013373ffffffffffffffffffffffffffffffffffffffff168152602001846000015173ffffffffffffffffffffffffffffffffffffffff168152506040518263ffffffff1660e01b8152600401610a899190815173ffffffffffffffffffffffffffffffffffffffff90811682526020808401519083015260408084015190830152606080840151821690830152608092830151169181019190915260a00190565b60006040518083038186803b158015610aa157600080fd5b505af4158015610ab5573d6000803e3d6000fd5b505050505050505050565b610ac8612f20565b6040517f6b38d07600000000000000000000000000000000000000000000000000000000815273ffffffffffffffffffffffffffffffffffffffff80871660048301526024820186905284166044820152821515606482015273__$37e953c735ca981103e3546928ae79276f$__90636b38d07690608401602060405180830381865af4158015610b5d573d6000803e3d6000fd5b505050506040513d601f19601f82011682018060405250810190610b819190613416565b6040805161022081018252825481526001830154602080830191909152600284015460ff808216151584860152610100808304909116151560608086019190915273ffffffffffffffffffffffffffffffffffffffff6201000090930483166080808701919091526003880154841660a080880191909152600489015490941660c080880191909152600589015460e08089019190915260068a015494880194909452600789015461012088015260088901546101408801526009890154610160880152600a890154610180880152600b8901546101a088015287519384018852600c8901548452600d89015495840195909552600e88015496830196909652600f870154908201526010860154948101949094526011850154908401526012840154908301526101c081019190915260138201546101e08201526014909101546102008201529050949350505050565b60005a9050610d007f4b4545504552000000000000000000000000000000000000000000000000000061284e565b6040517f9507d39a0000000000000000000000000000000000000000000000000000000081526004810184905260009073__$535111eaeba9e619ebd6ca98edd99626b9$__90639507d39a9060240161014060405180830381865af4158015610d6d573d6000803e3d6000fd5b505050506040513d601f19601f82011682018060405250810190610d91919061377c565b805190915073ffffffffffffffffffffffffffffffffffffffff16610de2576040517f24f411fc00000000000000000000000000000000000000000000000000000000815260040160405180910390fd5b6040517fc428cf6600000000000000000000000000000000000000000000000000000000815273__$1f57ed0a0c01c58a7f0bc8f5acff836f64$__9063c428cf6690610e36908790859088906004016138d6565b60006040518083038186803b158015610e4e57600080fd5b505af4158015610e62573d6000803e3d6000fd5b5050505073__$1af6d17e273104ca3ca5016ca475f591a0$__634d4d56726040518060a001604052808460600151610f08573073ffffffffffffffffffffffffffffffffffffffff16631f7592ea6040518163ffffffff1660e01b8152600401602060405180830381865afa158015610edf573d6000803e3d6000fd5b505050506040513d601f19601f82011682018060405250810190610f03919061375f565b610f77565b3073ffffffffffffffffffffffffffffffffffffffff166397e7b7f26040518163ffffffff1660e01b8152600401602060405180830381865afa158015610f53573d6000803e3d6000fd5b505050506040513d601f19601f82011682018060405250810190610f77919061375f565b73ffffffffffffffffffffffffffffffffffffffff90811682526101008601516020808401919091526040808401899052336060808601919091528851841660809586015281517fffffffff0000000000000000000000000000000000000000000000000000000060e089901b16815286518516600482015292860151602484015290850151604483015284015182166064820152929091015116608482015260a401610606565b6040517fe1be37bd0000000000000000000000000000000000000000000000000000000081528135600482015260009073__$c06d506426af55c412c71c91137196f65b$__9063e1be37bd9060240161010060405180830381865af415801561108c573d6000803e3d6000fd5b505050506040513d601f19601f820116820180604052508101906110b091906138fa565b6040517ff03507990000000000000000000000000000000000000000000000000000000081528335600482015290915060009073__$c1ae4f2fd189c456c923d4bac13705c722$__9063f035079990602401602060405180830381865af415801561111f573d6000803e3d6000fd5b505050506040513d601f19601f820116820180604052508101906111439190613416565b6040805160c08101909152815481526001820154909190602083019060ff16600381111561117357611173613969565b600381111561118457611184613969565b8152600182015473ffffffffffffffffffffffffffffffffffffffff6101009091048116602083015260028301548116604083015260038301541660608201526004820180546080909201916111d990613998565b80601f016020809104026020016040519081016040528092919081815260200182805461120590613998565b80156112525780601f1061122757610100808354040283529160200191611252565b820191906000526020600020905b81548152906001019060200180831161123557829003601f168201915b5050509190925250919250611265915050565b60008160200151600381111561127d5761127d613969565b146112bc576040517fc0d71bc0000000000000000000000000000000000000000000000000000000008152833560048201526024015b60405180910390fd5b8151608084013511806112df57506112d8620186a060016139e5565b8360800135105b15611323576040517f5c93c83700000000000000000000000000000000000000000000000000000000815283356004820152608084013560248201526044016112b3565b6040517f2f40e73400000000000000000000000000000000000000000000000000000000815233600482018190529060009073__$a224e41da3178beb3af7fdcdf4ade93682$__90632f40e73490602401602060405180830381865af4158015611391573d6000803e3d6000fd5b505050506040513d601f19601f820116820180604052508101906113b59190613416565b905060008560c001351180156113d857506113d660808601606087016139fc565b155b156115df576113ed60608601604087016139fc565b15806113fc57508460c0013534145b611462576040517f08c379a000000000000000000000000000000000000000000000000000000000815260206004820152601960248201527f4465706f7369742065746820616d6f756e74206572726f72210000000000000060448201526064016112b3565b73__$ae0937d060466c56d4bdd1eafaed47a473$__63ef59a9d16040518060a001604052808573ffffffffffffffffffffffffffffffffffffffff1681526020018860400160208101906114b691906139fc565b6114cf576114ca60c08a0160a08b01613382565b61153f565b73__$403afd1716c71ad05f9fd75974b23df554$__63606c0c946040518163ffffffff1660e01b815260040161012060405180830381865af4158015611519573d6000803e3d6000fd5b505050506040513d601f19601f8201168201806040525081019061153d9190613a19565b515b73ffffffffffffffffffffffffffffffffffffffff16815260c089013560208201526040016001815260200161157b60608a0160408b016139fc565b15158152506040518263ffffffff1660e01b815260040161159c9190613a9b565b602060405180830381865af41580156115b9573d6000803e3d6000fd5b505050506040513d601f19601f820116820180604052508101906115dd919061375f565b505b6000806115ec838861289a565b6040517f7f4c94bd000000000000000000000000000000000000000000000000000000008152919350915073__$1f57ed0a0c01c58a7f0bc8f5acff836f64$__90637f4c94bd906116479087908b9087908790600401613b2a565b60006040518083038186803b15801561165f57600080fd5b505af4158015611673573d6000803e3d6000fd5b5050505050505050505050565b60005a90506116ae7f4b4545504552000000000000000000000000000000000000000000000000000061284e565b6040517f9507d39a0000000000000000000000000000000000000000000000000000000081526004810185905260009073__$535111eaeba9e619ebd6ca98edd99626b9$__90639507d39a9060240161014060405180830381865af415801561171b573d6000803e3d6000fd5b505050506040513d601f19601f8201168201806040525081019061173f919061377c565b805190915073ffffffffffffffffffffffffffffffffffffffff16611790576040517f24f411fc00000000000000000000000000000000000000000000000000000000815260040160405180910390fd5b6040517f7532d8bc00000000000000000000000000000000000000000000000000000000815273__$76a505dbd6210c6de5172a9e6577e0d579$__90637532d8bc906117e2908790879060040161365c565b60006040518083038186803b1580156117fa57600080fd5b505af415801561180e573d6000803e3d6000fd5b50506040517ffecb413400000000000000000000000000000000000000000000000000000000815273__$1f57ed0a0c01c58a7f0bc8f5acff836f64$__925063fecb413491506118649088908590600401613bfd565b60006040518083038186803b15801561187c57600080fd5b505af4158015611890573d6000803e3d6000fd5b5050505073__$76a505dbd6210c6de5172a9e6577e0d579$__63e52ed3656040518163ffffffff1660e01b815260040160006040518083038186803b1580156118d857600080fd5b505af41580156118ec573d6000803e3d6000fd5b5050505073__$1af6d17e273104ca3ca5016ca475f591a0$__634d4d56726040518060a001604052808460600151611992573073ffffffffffffffffffffffffffffffffffffffff16631f7592ea6040518163ffffffff1660e01b8152600401602060405180830381865afa158015611969573d6000803e3d6000fd5b505050506040513d601f19601f8201168201806040525081019061198d919061375f565b611a01565b3073ffffffffffffffffffffffffffffffffffffffff166397e7b7f26040518163ffffffff1660e01b8152600401602060405180830381865afa1580156119dd573d6000803e3d6000fd5b505050506040513d601f19601f82011682018060405250810190611a01919061375f565b73ffffffffffffffffffffffffffffffffffffffff90811682526101008601516020808401919091526040808401899052336060808601919091528851841660809586015281517fffffffff0000000000000000000000000000000000000000000000000000000060e089901b16815286518516600482015292860151602484015290850151604483015284015182166064820152929091015116608482015260a401610a89565b60005a9050611ad77f4b4545504552000000000000000000000000000000000000000000000000000061284e565b6040517f9507d39a0000000000000000000000000000000000000000000000000000000081526004810184905260009073__$7cb1c1955038c1ee89159641ca86f25b85$__90639507d39a9060240161010060405180830381865af4158015611b44573d6000803e3d6000fd5b505050506040513d601f19601f82011682018060405250810190611b6891906135cb565b805190915073ffffffffffffffffffffffffffffffffffffffff16611bb9576040517ffd0b752300000000000000000000000000000000000000000000000000000000815260040160405180910390fd5b6040517fb34f305f00000000000000000000000000000000000000000000000000000000815273__$1f57ed0a0c01c58a7f0bc8f5acff836f64$__9063b34f305f90611c0d90879085908890600401613c12565b60006040518083038186803b158015611c2557600080fd5b505af4158015611c39573d6000803e3d6000fd5b5050505073__$1af6d17e273104ca3ca5016ca475f591a0$__634d4d56726040518060a001604052808460c00151611cdf573073ffffffffffffffffffffffffffffffffffffffff16631f7592ea6040518163ffffffff1660e01b8152600401602060405180830381865afa158015611cb6573d6000803e3d6000fd5b505050506040513d601f19601f82011682018060405250810190611cda919061375f565b611d4e565b3073ffffffffffffffffffffffffffffffffffffffff166397e7b7f26040518163ffffffff1660e01b8152600401602060405180830381865afa158015611d2a573d6000803e3d6000fd5b505050506040513d601f19601f82011682018060405250810190611d4e919061375f565b73ffffffffffffffffffffffffffffffffffffffff168152602001846080015181526020018581526020013373ffffffffffffffffffffffffffffffffffffffff168152602001846000015173ffffffffffffffffffffffffffffffffffffffff168152506040518263ffffffff1660e01b81526004016106069190815173ffffffffffffffffffffffffffffffffffffffff90811682526020808401519083015260408084015190830152606080840151821690830152608092830151169181019190915260a00190565b6040517f2f40e73400000000000000000000000000000000000000000000000000000000815273ffffffffffffffffffffffffffffffffffffffff8216600482015260609060009073__$a224e41da3178beb3af7fdcdf4ade93682$__90632f40e73490602401602060405180830381865af4158015611e9e573d6000803e3d6000fd5b505050506040513d601f19601f82011682018060405250810190611ec29190613416565b6040517f7f80ceb10000000000000000000000000000000000000000000000000000000081526004810182905290915073__$a224e41da3178beb3af7fdcdf4ade93682$__90637f80ceb190602401602060405180830381865af4158015611f2e573d6000803e3d6000fd5b505050506040513d601f19601f82011682018060405250810190611f529190613c9d565b611f5f5750606092915050565b6040517f35cd11510000000000000000000000000000000000000000000000000000000081526004810182905260009073__$a224e41da3178beb3af7fdcdf4ade93682$__906335cd115190602401600060405180830381865af4158015611fcb573d6000803e3d6000fd5b505050506040513d6000823e601f3d9081017fffffffffffffffffffffffffffffffffffffffffffffffffffffffffffffffe01682016040526120119190810190613cba565b90506000815167ffffffffffffffff81111561202f5761202f6134c5565b60405190808252806020026020018201604052801561206857816020015b61205561302e565b81526020019060019003908161204d5790505b50905060005b825181101561231a57600073__$37e953c735ca981103e3546928ae79276f$__63f03507998584815181106120a5576120a561342f565b60200260200101516040518263ffffffff1660e01b81526004016120cb91815260200190565b602060405180830381865af41580156120e8573d6000803e3d6000fd5b505050506040513d601f19601f8201168201806040525081019061210c9190613416565b6040805161022081018252825481526001830154602080830191909152600284015460ff808216151584860152610100808304909116151560608086019190915273ffffffffffffffffffffffffffffffffffffffff6201000090930483166080808701919091526003880154841660a080880191909152600489015490941660c080880191909152600589015460e08089019190915260068a015494880194909452600789015461012088015260088901546101408801526009890154610160880152600a890154610180880152600b8901546101a088015287519384018852600c8901548452600d89015495840195909552600e88015496830196909652600f870154908201526010860154948101949094526011850154908401526012840154908301526101c081019190915260138201546101e0820152601482015461020082015284519192509084908490811061226a5761226a61342f565b60200260200101516000018190525073__$f7ce058f5081a8aa62d2c976fd52cf5c62$__631e2ff94f6040518163ffffffff1660e01b8152600401602060405180830381865af41580156122c2573d6000803e3d6000fd5b505050506040513d601f19601f820116820180604052508101906122e69190613416565b8383815181106122f8576122f861342f565b60209081029190910101516040015250806123128161348d565b91505061206e565b50949350505050565b8060800135600003612361576040517f169f86e600000000000000000000000000000000000000000000000000000000815260040160405180910390fd5b6040517f2f40e73400000000000000000000000000000000000000000000000000000000815233600482018190529060009073__$a224e41da3178beb3af7fdcdf4ade93682$__90632f40e73490602401602060405180830381865af41580156123cf573d6000803e3d6000fd5b505050506040513d601f19601f820116820180604052508101906123f39190613416565b6040517fcb7ccd93000000000000000000000000000000000000000000000000000000008152600481018290528435602482015290915073__$a224e41da3178beb3af7fdcdf4ade93682$__9063cb7ccd9390604401602060405180830381865af4158015612466573d6000803e3d6000fd5b505050506040513d601f19601f8201168201806040525081019061248a9190613c9d565b6124c0576040517f4a32858f00000000000000000000000000000000000000000000000000000000815260040160405180910390fd5b6040517ff03507990000000000000000000000000000000000000000000000000000000081528335600482015260009073__$37e953c735ca981103e3546928ae79276f$__9063f035079990602401602060405180830381865af415801561252c573d6000803e3d6000fd5b505050506040513d601f19601f820116820180604052508101906125509190613416565b6002810154909150610100900460ff1615612597576040517f3046114700000000000000000000000000000000000000000000000000000000815260040160405180910390fd5b6125a760408501602086016139fc565b156127ae576125bc60608501604086016139fc565b15806125cb5750836080013534145b612631576040517f08c379a000000000000000000000000000000000000000000000000000000000815260206004820152601960248201527f4465706f7369742065746820616d6f756e74206572726f72210000000000000060448201526064016112b3565b73__$ae0937d060466c56d4bdd1eafaed47a473$__63ef59a9d16040518060a001604052808673ffffffffffffffffffffffffffffffffffffffff16815260200187604001602081019061268591906139fc565b61269e576126996080890160608a01613382565b61270e565b73__$403afd1716c71ad05f9fd75974b23df554$__63606c0c946040518163ffffffff1660e01b815260040161012060405180830381865af41580156126e8573d6000803e3d6000fd5b505050506040513d601f19601f8201168201806040525081019061270c9190613a19565b515b73ffffffffffffffffffffffffffffffffffffffff168152608088013560208201526040016001815260200161274a6060890160408a016139fc565b15158152506040518263ffffffff1660e01b815260040161276b9190613a9b565b602060405180830381865af4158015612788573d6000803e3d6000fd5b505050506040513d601f19601f820116820180604052508101906127ac919061375f565b505b6000806127bb8487612b77565b6040517faf5c2a6b000000000000000000000000000000000000000000000000000000008152919350915073__$1f57ed0a0c01c58a7f0bc8f5acff836f64$__9063af5c2a6b906128169088908a9087908790600401613d60565b60006040518083038186803b15801561282e57600080fd5b505af4158015612842573d6000803e3d6000fd5b50505050505050505050565b6128583382612e3e565b612897576040517fb5f43834000000000000000000000000000000000000000000000000000000008152336004820152602481018290526044016112b3565b50565b600080600073__$403afd1716c71ad05f9fd75974b23df554$__63606c0c946040518163ffffffff1660e01b815260040161012060405180830381865af41580156128e9573d6000803e3d6000fd5b505050506040513d601f19601f8201168201806040525081019061290d9190613a19565b60c08101516040517f4b7bc68100000000000000000000000000000000000000000000000000000000815260e08701356004820152602481019190915290915073__$1af6d17e273104ca3ca5016ca475f591a0$__90634b7bc6819060440160006040518083038186803b15801561298457600080fd5b505af4158015612998573d6000803e3d6000fd5b506129ad9250505060608501604086016139fc565b80156129c157508360e001358460c0013510155b80156129da57506129d860808501606086016139fc565b155b156129fd576129f160e085013560c0860135613df9565b60019250925050612b70565b8360e001353414612a90576040517f08c379a000000000000000000000000000000000000000000000000000000000815260206004820152602960248201527f757064617465206c65766572616765207769746820657865637574696f6e206660448201527f6565206572726f7221000000000000000000000000000000000000000000000060648201526084016112b3565b6040805160a081018252865473ffffffffffffffffffffffffffffffffffffffff9081168252835116602082015260e086013581830152600060608201526001608082015290517fef59a9d100000000000000000000000000000000000000000000000000000000815273__$ae0937d060466c56d4bdd1eafaed47a473$__9163ef59a9d191612b239190600401613a9b565b602060405180830381865af4158015612b40573d6000803e3d6000fd5b505050506040513d601f19601f82011682018060405250810190612b64919061375f565b5050505060c081013560005b9250929050565b600080600073__$403afd1716c71ad05f9fd75974b23df554$__63606c0c946040518163ffffffff1660e01b815260040161012060405180830381865af4158015612bc6573d6000803e3d6000fd5b505050506040513d601f19601f82011682018060405250810190612bea9190613a19565b60a0818101516040517f4b7bc681000000000000000000000000000000000000000000000000000000008152918701356004830152602482015290915073__$1af6d17e273104ca3ca5016ca475f591a0$__90634b7bc6819060440160006040518083038186803b158015612c5e57600080fd5b505af4158015612c72573d6000803e3d6000fd5b50612c879250505060608501604086016139fc565b8015612c9e5750612c9e60408501602086016139fc565b8015612cb257508360a00135846080013510155b15612cc9576129f160a08501356080860135613df9565b8360a001353414612d5c576040517f08c379a000000000000000000000000000000000000000000000000000000000815260206004820152602760248201527f757064617465206d617267696e207769746820657865637574696f6e2066656560448201527f206572726f72210000000000000000000000000000000000000000000000000060648201526084016112b3565b6040805160a08082018352875473ffffffffffffffffffffffffffffffffffffffff9081168352845116602083015286013581830152600060608201526001608082015290517fef59a9d100000000000000000000000000000000000000000000000000000000815273__$ae0937d060466c56d4bdd1eafaed47a473$__9163ef59a9d191612dee9190600401613a9b565b602060405180830381865af4158015612e0b573d6000803e3d6000fd5b505050506040513d601f19601f82011682018060405250810190612e2f919061375f565b50505050608001359160009150565b600080612e49612e85565b73ffffffffffffffffffffffffffffffffffffffff85166000908152602082905260409020909150612e7b9084612f05565b9150505b92915050565b600080604051602001612ec9906020808252601e908201527f78797a2e656c66692e73746f726167652e416363657373436f6e74726f6c0000604082015260600190565b604080517fffffffffffffffffffffffffffffffffffffffffffffffffffffffffffffffe0818403018152919052805160209091012092915050565b600081815260018301602052604081205415155b9392505050565b6040518061022001604052806000801916815260200160008019168152602001600015158152602001600015158152602001600073ffffffffffffffffffffffffffffffffffffffff168152602001600073ffffffffffffffffffffffffffffffffffffffff168152602001600073ffffffffffffffffffffffffffffffffffffffff1681526020016000815260200160008152602001600081526020016000815260200160008152602001600081526020016000815260200161301a6040518060e00160405280600081526020016000815260200160008152602001600081526020016000815260200160008152602001600081525090565b815260200160008152602001600081525090565b604051806060016040528061301a612f20565b6000806020838503121561305457600080fd5b823567ffffffffffffffff8082111561306c57600080fd5b818501915085601f83011261308057600080fd5b81358181111561308f57600080fd5b8660208260051b85010111156130a457600080fd5b60209290920196919550909350505050565b6000806000604084860312156130cb57600080fd5b83359250602084013567ffffffffffffffff808211156130ea57600080fd5b818601915086601f8301126130fe57600080fd5b81358181111561310d57600080fd5b8760208260071b850101111561312257600080fd5b6020830194508093505050509250925092565b73ffffffffffffffffffffffffffffffffffffffff8116811461289757600080fd5b803561316281613135565b919050565b801515811461289757600080fd5b803561316281613167565b6000806000806080858703121561319657600080fd5b84356131a181613135565b93506020850135925060408501356131b881613135565b915060608501356131c881613167565b939692955090935050565b805182526020810151602083015260408101516131f4604084018215159052565b506060810151613208606084018215159052565b506080810151613230608084018273ffffffffffffffffffffffffffffffffffffffff169052565b5060a081015161325860a084018273ffffffffffffffffffffffffffffffffffffffff169052565b5060c081015161328060c084018273ffffffffffffffffffffffffffffffffffffffff169052565b5060e08181015190830152610100808201519083015261012080820151908301526101408082015190830152610160808201519083015261018080820151908301526101a080820151908301526101c08082015180518285015260208101516101e085015260408101516102008501526060810151610220850152608081015161024085015260a081015161026085015260c081015161028085015250506101e08101516102a083015261020001516102c090910152565b6102e08101612e7f82846131d3565b6000806040838503121561335a57600080fd5b50508035926020909101359150565b6000610100828403121561337c57600080fd5b50919050565b60006020828403121561339457600080fd5b8135612f1981613135565b602080825282518282018190526000919060409081850190868401855b828110156133f75781516133d18582516131d3565b808701516102e086015285015161030085015261032090930192908501906001016133bc565b5091979650505050505050565b600060c0828403121561337c57600080fd5b60006020828403121561342857600080fd5b5051919050565b7f4e487b7100000000000000000000000000000000000000000000000000000000600052603260045260246000fd5b7f4e487b7100000000000000000000000000000000000000000000000000000000600052601160045260246000fd5b60007fffffffffffffffffffffffffffffffffffffffffffffffffffffffffffffffff82036134be576134be61345e565b5060010190565b7f4e487b7100000000000000000000000000000000000000000000000000000000600052604160045260246000fd5b604051610100810167ffffffffffffffff81118282101715613518576135186134c5565b60405290565b604051610140810167ffffffffffffffff81118282101715613518576135186134c5565b604051610120810167ffffffffffffffff81118282101715613518576135186134c5565b604051601f82017fffffffffffffffffffffffffffffffffffffffffffffffffffffffffffffffe016810167ffffffffffffffff811182821017156135ad576135ad6134c5565b604052919050565b805161316281613135565b805161316281613167565b600061010082840312156135de57600080fd5b6135e66134f4565b82516135f181613135565b815260208381015190820152604083015161360b81613135565b80604083015250606083015160608201526080830151608082015261363260a084016135c0565b60a082015261364360c084016135c0565b60c082015260e083015160e08201528091505092915050565b6020808252818101839052600090604080840186845b878110156136d657813561368581613135565b73ffffffffffffffffffffffffffffffffffffffff908116845282860135906136ad82613135565b168386015281840135848401526060808301359084015260809283019290910190600101613672565b5090979650505050505050565b8281526101208101612f19602083018473ffffffffffffffffffffffffffffffffffffffff8082511683526020820151602084015280604083015116604084015250606081015160608301526080810151608083015260a0810151151560a083015260c0810151151560c083015260e081015160e08301525050565b60006020828403121561377157600080fd5b8151612f1981613135565b6000610140828403121561378f57600080fd5b61379761351e565b6137a0836135b5565b8152602083015160208201526137b8604084016135c0565b60408201526137c9606084016135c0565b60608201526137da608084016135c0565b608082015260a083015160a08201526137f560c084016135b5565b60c082015260e083810151908201526101008084015190820152610120928301519281019290925250919050565b805173ffffffffffffffffffffffffffffffffffffffff16825260208101516020830152604081015161385a604084018215159052565b50606081015161386e606084018215159052565b506080810151613882608084018215159052565b5060a081015160a083015260c08101516138b460c084018273ffffffffffffffffffffffffffffffffffffffff169052565b5060e08181015190830152610100808201519083015261012090810151910152565b83815261018081016138eb6020830185613823565b82610160830152949350505050565b6000610100828403121561390d57600080fd5b6139156134f4565b825181526020830151602082015260408301516040820152606083015160608201526080830151608082015260a083015160a082015260c083015160c082015260e083015160e08201528091505092915050565b7f4e487b7100000000000000000000000000000000000000000000000000000000600052602160045260246000fd5b600181811c908216806139ac57607f821691505b60208210810361337c577f4e487b7100000000000000000000000000000000000000000000000000000000600052602260045260246000fd5b8082028115828204841417612e7f57612e7f61345e565b600060208284031215613a0e57600080fd5b8135612f1981613167565b60006101208284031215613a2c57600080fd5b613a34613542565b613a3d836135b5565b81526020830151602082015260408301516040820152606083015160608201526080830151608082015260a083015160a082015260c083015160c082015260e083015160e08201526101008084015181830152508091505092915050565b600060a08201905073ffffffffffffffffffffffffffffffffffffffff8084511683528060208501511660208401525060408301516040830152606083015160048110613b11577f4e487b7100000000000000000000000000000000000000000000000000000000600052602160045260246000fd5b8060608401525060808301511515608083015292915050565b60006101608201905073ffffffffffffffffffffffffffffffffffffffff86168252843560208301526020850135613b6181613167565b8015156040840152506040850135613b7881613167565b801515606084015250613b8d60608601613175565b801515608084015250608085013560a0830152613bac60a08601613157565b73ffffffffffffffffffffffffffffffffffffffff811660c08401525060c085013560e083015260e085013561010083015283610120830152613bf461014083018415159052565b95945050505050565b8281526101608101612f196020830184613823565b8381526101408101613c8e602083018573ffffffffffffffffffffffffffffffffffffffff8082511683526020820151602084015280604083015116604084015250606081015160608301526080810151608083015260a0810151151560a083015260c0810151151560c083015260e081015160e08301525050565b82610120830152949350505050565b600060208284031215613caf57600080fd5b8151612f1981613167565b60006020808385031215613ccd57600080fd5b825167ffffffffffffffff80821115613ce557600080fd5b818501915085601f830112613cf957600080fd5b815181811115613d0b57613d0b6134c5565b8060051b9150613d1c848301613566565b8181529183018401918481019088841115613d3657600080fd5b938501935b83851015613d5457845182529385019390850190613d3b565b98975050505050505050565b60006101208201905073ffffffffffffffffffffffffffffffffffffffff8087168352853560208401526020860135613d9881613167565b8015156040850152506040860135613daf81613167565b8015156060850152506060860135613dc681613135565b81811660808501525050608085013560a083015260a085013560c08301528360e0830152613bf461010083018415159052565b81810381811115612e7f57612e7f61345e56fea26469706673582212206a965a694742be5118e5da7878a431ccbf573217227e87327f41c487151276b464736f6c63430008120033",
  "linkReferences": {
    "contracts/process/AssetsProcess.sol": {
      "AssetsProcess": [
        {
          "length": 20,
          "start": 5257
        },
        {
          "length": 20,
          "start": 9816
        },
        {
          "length": 20,
          "start": 11041
        },
        {
          "length": 20,
          "start": 11756
        }
      ]
    },
    "contracts/process/ConfigProcess.sol": {
      "ConfigProcess": [
        {
          "length": 20,
          "start": 4214
        }
      ]
    },
    "contracts/process/DecreasePositionProcess.sol": {
      "DecreasePositionProcess": [
        {
          "length": 20,
          "start": 1153
        }
      ]
    },
    "contracts/process/GasProcess.sol": {
      "GasProcess": [
        {
          "length": 20,
          "start": 1549
        },
        {
          "length": 20,
          "start": 2259
        },
        {
          "length": 20,
          "start": 3725
        },
        {
          "length": 20,
          "start": 6423
        },
        {
          "length": 20,
          "start": 7268
        },
        {
          "length": 20,
          "start": 10612
        },
        {
          "length": 20,
          "start": 11342
        }
      ]
    },
    "contracts/process/OracleProcess.sol": {
      "OracleProcess": [
        {
          "length": 20,
          "start": 1190
        },
        {
          "length": 20,
          "start": 1945
        },
        {
          "length": 20,
          "start": 2167
        },
        {
          "length": 20,
          "start": 6109
        },
        {
          "length": 20,
          "start": 6331
        }
      ]
    },
    "contracts/process/PositionMarginProcess.sol": {
      "PositionMarginProcess": [
        {
          "length": 20,
          "start": 2073
        },
        {
          "length": 20,
          "start": 3631
        },
        {
          "length": 20,
          "start": 5694
        },
        {
          "length": 20,
          "start": 6237
        },
        {
          "length": 20,
          "start": 7174
        },
        {
          "length": 20,
          "start": 10253
        }
      ]
    },
    "contracts/storage/Account.sol": {
      "Account": [
        {
          "length": 20,
          "start": 4988
        },
        {
          "length": 20,
          "start": 7817
        },
        {
          "length": 20,
          "start": 7961
        },
        {
          "length": 20,
          "start": 8118
        },
        {
          "length": 20,
          "start": 9146
        },
        {
          "length": 20,
          "start": 9297
        }
      ]
    },
    "contracts/storage/AppConfig.sol": {
      "AppConfig": [
        {
          "length": 20,
          "start": 5366
        },
        {
          "length": 20,
          "start": 9925
        },
        {
          "length": 20,
          "start": 10438
        },
        {
          "length": 20,
          "start": 11171
        }
      ]
    },
    "contracts/storage/Position.sol": {
      "Position": [
        {
          "length": 20,
          "start": 729
        },
        {
          "length": 20,
          "start": 923
        },
        {
          "length": 20,
          "start": 2888
        },
        {
          "length": 20,
          "start": 8352
        },
        {
          "length": 20,
          "start": 9495
        }
      ]
    },
    "contracts/storage/Symbol.sol": {
      "Symbol": [
        {
          "length": 20,
          "start": 4362
        }
      ]
    },
    "contracts/storage/UpdateLeverage.sol": {
      "UpdateLeverage": [
        {
          "length": 20,
          "start": 3415
        },
        {
          "length": 20,
          "start": 5893
        }
      ]
    },
    "contracts/storage/UpdatePositionMargin.sol": {
      "UpdatePositionMargin": [
        {
          "length": 20,
          "start": 1729
        },
        {
          "length": 20,
          "start": 6958
        }
      ]
    },
    "contracts/storage/UuidCreator.sol": {
      "UuidCreator": [
        {
          "length": 20,
          "start": 618
        }
      ]
    },
    "contracts/utils/ChainUtils.sol": {
      "ChainUtils": [
        {
          "length": 20,
          "start": 8864
        }
      ]
    }
  },
  "deployedLinkReferences": {
    "contracts/process/AssetsProcess.sol": {
      "AssetsProcess": [
        {
          "length": 20,
          "start": 5220
        },
        {
          "length": 20,
          "start": 9779
        },
        {
          "length": 20,
          "start": 11004
        },
        {
          "length": 20,
          "start": 11719
        }
      ]
    },
    "contracts/process/ConfigProcess.sol": {
      "ConfigProcess": [
        {
          "length": 20,
          "start": 4177
        }
      ]
    },
    "contracts/process/DecreasePositionProcess.sol": {
      "DecreasePositionProcess": [
        {
          "length": 20,
          "start": 1116
        }
      ]
    },
    "contracts/process/GasProcess.sol": {
      "GasProcess": [
        {
          "length": 20,
          "start": 1512
        },
        {
          "length": 20,
          "start": 2222
        },
        {
          "length": 20,
          "start": 3688
        },
        {
          "length": 20,
          "start": 6386
        },
        {
          "length": 20,
          "start": 7231
        },
        {
          "length": 20,
          "start": 10575
        },
        {
          "length": 20,
          "start": 11305
        }
      ]
    },
    "contracts/process/OracleProcess.sol": {
      "OracleProcess": [
        {
          "length": 20,
          "start": 1153
        },
        {
          "length": 20,
          "start": 1908
        },
        {
          "length": 20,
          "start": 2130
        },
        {
          "length": 20,
          "start": 6072
        },
        {
          "length": 20,
          "start": 6294
        }
      ]
    },
    "contracts/process/PositionMarginProcess.sol": {
      "PositionMarginProcess": [
        {
          "length": 20,
          "start": 2036
        },
        {
          "length": 20,
          "start": 3594
        },
        {
          "length": 20,
          "start": 5657
        },
        {
          "length": 20,
          "start": 6200
        },
        {
          "length": 20,
          "start": 7137
        },
        {
          "length": 20,
          "start": 10216
        }
      ]
    },
    "contracts/storage/Account.sol": {
      "Account": [
        {
          "length": 20,
          "start": 4951
        },
        {
          "length": 20,
          "start": 7780
        },
        {
          "length": 20,
          "start": 7924
        },
        {
          "length": 20,
          "start": 8081
        },
        {
          "length": 20,
          "start": 9109
        },
        {
          "length": 20,
          "start": 9260
        }
      ]
    },
    "contracts/storage/AppConfig.sol": {
      "AppConfig": [
        {
          "length": 20,
          "start": 5329
        },
        {
          "length": 20,
          "start": 9888
        },
        {
          "length": 20,
          "start": 10401
        },
        {
          "length": 20,
          "start": 11134
        }
      ]
    },
    "contracts/storage/Position.sol": {
      "Position": [
        {
          "length": 20,
          "start": 692
        },
        {
          "length": 20,
          "start": 886
        },
        {
          "length": 20,
          "start": 2851
        },
        {
          "length": 20,
          "start": 8315
        },
        {
          "length": 20,
          "start": 9458
        }
      ]
    },
    "contracts/storage/Symbol.sol": {
      "Symbol": [
        {
          "length": 20,
          "start": 4325
        }
      ]
    },
    "contracts/storage/UpdateLeverage.sol": {
      "UpdateLeverage": [
        {
          "length": 20,
          "start": 3378
        },
        {
          "length": 20,
          "start": 5856
        }
      ]
    },
    "contracts/storage/UpdatePositionMargin.sol": {
      "UpdatePositionMargin": [
        {
          "length": 20,
          "start": 1692
        },
        {
          "length": 20,
          "start": 6921
        }
      ]
    },
    "contracts/storage/UuidCreator.sol": {
      "UuidCreator": [
        {
          "length": 20,
          "start": 581
        }
      ]
    },
    "contracts/utils/ChainUtils.sol": {
      "ChainUtils": [
        {
          "length": 20,
          "start": 8827
        }
      ]
    }
  }
}