{
  "_format": "hh-sol-artifact-1",
  "contractName": "AppConfig",
  "sourceName": "contracts/storage/AppConfig.sol",
  "abi": [
    {
      "inputs": [],
      "name": "CLAIM_REWARDS_GAS_FEE_LIMIT",
      "outputs": [
        {
          "internalType": "bytes32",
          "name": "",
          "type": "bytes32"
        }
      ],
      "stateMutability": "view",
      "type": "function"
    },
    {
      "inputs": [],
      "name": "CLOSE_FEE_RATE",
      "outputs": [
        {
          "internalType": "bytes32",
          "name": "",
          "type": "bytes32"
        }
      ],
      "stateMutability": "view",
      "type": "function"
    },
    {
      "inputs": [],
      "name": "LONG_SHORT_OI_BOTTOM_LIMIT",
      "outputs": [
        {
          "internalType": "bytes32",
          "name": "",
          "type": "bytes32"
        }
      ],
      "stateMutability": "view",
      "type": "function"
    },
    {
      "inputs": [],
      "name": "LONG_SHORT_RATIO_LIMIT",
      "outputs": [
        {
          "internalType": "bytes32",
          "name": "",
          "type": "bytes32"
        }
      ],
      "stateMutability": "view",
      "type": "function"
    },
    {
      "inputs": [],
      "name": "MAX_LEVERAGE",
      "outputs": [
        {
          "internalType": "bytes32",
          "name": "",
          "type": "bytes32"
        }
      ],
      "stateMutability": "view",
      "type": "function"
    },
    {
      "inputs": [],
      "name": "MAX_LONG_OPEN_INTEREST_CAP",
      "outputs": [
        {
          "internalType": "bytes32",
          "name": "",
          "type": "bytes32"
        }
      ],
      "stateMutability": "view",
      "type": "function"
    },
    {
      "inputs": [],
      "name": "MAX_SHORT_OPEN_INTEREST_CAP",
      "outputs": [
        {
          "internalType": "bytes32",
          "name": "",
          "type": "bytes32"
        }
      ],
      "stateMutability": "view",
      "type": "function"
    },
    {
      "inputs": [],
      "name": "MINT_GAS_FEE_LIMIT",
      "outputs": [
        {
          "internalType": "bytes32",
          "name": "",
          "type": "bytes32"
        }
      ],
      "stateMutability": "view",
      "type": "function"
    },
    {
      "inputs": [],
      "name": "OPEN_FEE_RATE",
      "outputs": [
        {
          "internalType": "bytes32",
          "name": "",
          "type": "bytes32"
        }
      ],
      "stateMutability": "view",
      "type": "function"
    },
    {
      "inputs": [],
      "name": "PLACE_DECREASE_ORDER_GAS_FEE_LIMIT",
      "outputs": [
        {
          "internalType": "bytes32",
          "name": "",
          "type": "bytes32"
        }
      ],
      "stateMutability": "view",
      "type": "function"
    },
    {
      "inputs": [],
      "name": "PLACE_INCREASE_ORDER_GAS_FEE_LIMIT",
      "outputs": [
        {
          "internalType": "bytes32",
          "name": "",
          "type": "bytes32"
        }
      ],
      "stateMutability": "view",
      "type": "function"
    },
    {
      "inputs": [],
      "name": "POSITION_UPDATE_LEVERAGE_GAS_FEE_LIMIT",
      "outputs": [
        {
          "internalType": "bytes32",
          "name": "",
          "type": "bytes32"
        }
      ],
      "stateMutability": "view",
      "type": "function"
    },
    {
      "inputs": [],
      "name": "POSITION_UPDATE_MARGIN_GAS_FEE_LIMIT",
      "outputs": [
        {
          "internalType": "bytes32",
          "name": "",
          "type": "bytes32"
        }
      ],
      "stateMutability": "view",
      "type": "function"
    },
    {
      "inputs": [],
      "name": "REDEEM_GAS_FEE_LIMIT",
      "outputs": [
        {
          "internalType": "bytes32",
          "name": "",
          "type": "bytes32"
        }
      ],
      "stateMutability": "view",
      "type": "function"
    },
    {
      "inputs": [],
      "name": "TICK_SIZE",
      "outputs": [
        {
          "internalType": "bytes32",
          "name": "",
          "type": "bytes32"
        }
      ],
      "stateMutability": "view",
      "type": "function"
    },
    {
      "inputs": [],
      "name": "UNISWAP_ROUTER",
      "outputs": [
        {
          "internalType": "bytes32",
          "name": "",
          "type": "bytes32"
        }
      ],
      "stateMutability": "view",
      "type": "function"
    },
    {
      "inputs": [],
      "name": "WITHDRAW_GAS_FEE_LIMIT",
      "outputs": [
        {
          "internalType": "bytes32",
          "name": "",
          "type": "bytes32"
        }
      ],
      "stateMutability": "view",
      "type": "function"
    },
    {
      "inputs": [],
      "name": "WRAPPER_TOKEN",
      "outputs": [
        {
          "internalType": "bytes32",
          "name": "",
          "type": "bytes32"
        }
      ],
      "stateMutability": "view",
      "type": "function"
    },
    {
      "inputs": [],
      "name": "getChainConfig",
      "outputs": [
        {
          "components": [
            {
              "internalType": "address",
              "name": "wrapperToken",
              "type": "address"
            },
            {
              "internalType": "uint256",
              "name": "mintGasFeeLimit",
              "type": "uint256"
            },
            {
              "internalType": "uint256",
              "name": "redeemGasFeeLimit",
              "type": "uint256"
            },
            {
              "internalType": "uint256",
              "name": "placeIncreaseOrderGasFeeLimit",
              "type": "uint256"
            },
            {
              "internalType": "uint256",
              "name": "placeDecreaseOrderGasFeeLimit",
              "type": "uint256"
            },
            {
              "internalType": "uint256",
              "name": "positionUpdateMarginGasFeeLimit",
              "type": "uint256"
            },
            {
              "internalType": "uint256",
              "name": "positionUpdateLeverageGasFeeLimit",
              "type": "uint256"
            },
            {
              "internalType": "uint256",
              "name": "withdrawGasFeeLimit",
              "type": "uint256"
            },
            {
              "internalType": "uint256",
              "name": "claimRewardsGasFeeLimit",
              "type": "uint256"
            }
          ],
          "internalType": "struct AppConfig.ChainConfig",
          "name": "chainConfig",
          "type": "tuple"
        }
      ],
      "stateMutability": "view",
      "type": "function"
    },
    {
      "inputs": [
        {
          "internalType": "bytes32",
          "name": "symbol",
          "type": "bytes32"
        }
      ],
      "name": "getSymbolConfig",
      "outputs": [
        {
          "components": [
            {
              "internalType": "uint256",
              "name": "maxLeverage",
              "type": "uint256"
            },
            {
              "internalType": "uint256",
              "name": "tickSize",
              "type": "uint256"
            },
            {
              "internalType": "uint256",
              "name": "openFeeRate",
              "type": "uint256"
            },
            {
              "internalType": "uint256",
              "name": "closeFeeRate",
              "type": "uint256"
            },
            {
              "internalType": "uint256",
              "name": "maxLongOpenInterestCap",
              "type": "uint256"
            },
            {
              "internalType": "uint256",
              "name": "maxShortOpenInterestCap",
              "type": "uint256"
            },
            {
              "internalType": "uint256",
              "name": "longShortRatioLimit",
              "type": "uint256"
            },
            {
              "internalType": "uint256",
              "name": "longShortOiBottomLimit",
              "type": "uint256"
            }
          ],
          "internalType": "struct AppConfig.SymbolConfig",
          "name": "",
          "type": "tuple"
        }
      ],
      "stateMutability": "view",
      "type": "function"
    },
    {
      "inputs": [],
      "name": "getUniswapRouter",
      "outputs": [
        {
          "internalType": "address",
          "name": "",
          "type": "address"
        }
      ],
      "stateMutability": "view",
      "type": "function"
    }
  ],
  "bytecode": "0x613fa461003a600b82828239805160001a60731461002d57634e487b7160e01b600052600060045260246000fd5b30600052607381538281f3fe73000000000000000000000000000000000000000030146080604052600436106101a25760003560e01c8063813a029d116100ed578063bea9849e11610096578063d826492011610070578063d826492014610354578063e1be37bd1461035c578063e7816092146103d057600080fd5b8063bea9849e14610324578063c233926414610344578063d088f55e1461034c57600080fd5b8063a3caef7e116100c7578063a3caef7e1461030c578063abc11cd014610314578063bafe42871461031c57600080fd5b8063813a029d146102f45780638570560d146102fc5780639b45ec971461030457600080fd5b8063524900b51161014f578063606c0c9411610129578063606c0c94146102415780636690212a146102cc5780637724b106146102ec57600080fd5b8063524900b514610204578063547319df14610231578063554988fa1461023957600080fd5b80633b533993116101805780633b533993146101ec578063418dd7e8146101f45780634ebc4a98146101fc57600080fd5b806315513ea3146101a757806319dfbeca146101c2578063341f3af9146101ca575b600080fd5b6101af6103d8565b6040519081526020015b60405180910390f35b6101af610432565b8180156101d657600080fd5b506101ea6101e5366004613daa565b610473565b005b6101af6110d5565b6101af611116565b6101af61117d565b61020c6111be565b60405173ffffffffffffffffffffffffffffffffffffffff90911681526020016101b9565b6101af611398565b6101af6113d9565b610249611440565b6040516101b9919060006101208201905073ffffffffffffffffffffffffffffffffffffffff83511682526020830151602083015260408301516040830152606083015160608301526080830151608083015260a083015160a083015260c083015160c083015260e083015160e083015261010080840151818401525092915050565b8180156102d857600080fd5b506101ea6102e7366004613e2c565b611fd1565b6101af612bea565b6101af612c51565b6101af612c92565b6101af612cd3565b6101af612d14565b6101af612d55565b6101af612d96565b81801561033057600080fd5b506101ea61033f366004613ed9565b612dd7565b6101af612ff0565b6101af613031565b6101af613098565b61036f61036a366004613efd565b6130d9565b6040516101b99190600061010082019050825182526020830151602083015260408301516040830152606083015160608301526080830151608083015260a083015160a083015260c083015160c083015260e083015160e083015292915050565b6101af613c98565b604051602001610419906020808252600d908201527f575241505045525f544f4b454e00000000000000000000000000000000000000604082015260600190565b6040516020818303038152906040528051906020012081565b6040516020016104199060208082526014908201527f52454445454d5f4741535f4645455f4c494d4954000000000000000000000000604082015260600190565b600073__$1b86ea9efa04d6f44bb6dbbf79511d7094$__6386d5c4be6040518163ffffffff1660e01b8152600401602060405180830381865af41580156104be573d6000803e3d6000fd5b505050506040513d601f19601f820116820180604052508101906104e29190613f16565b90506000604051602001610527906020808252600c908201527f434841494e5f434f4e4649470000000000000000000000000000000000000000604082015260600190565b6040516020818303038152906040528051906020012090508173__$1b86ea9efa04d6f44bb6dbbf79511d7094$__632aa3374890918360405160200161059e906020808252600d908201527f575241505045525f544f4b454e00000000000000000000000000000000000000604082015260600190565b604051602081830303815290604052805190602001206040516020016105ce929190918252602082015260400190565b604080518083037fffffffffffffffffffffffffffffffffffffffffffffffffffffffffffffffe0018152908290528051602090910120875160e085901b7fffffffff000000000000000000000000000000000000000000000000000000001683526004830193909352602482015273ffffffffffffffffffffffffffffffffffffffff909116604482015260640160006040518083038186803b15801561067557600080fd5b505af4158015610689573d6000803e3d6000fd5b505050508173__$1b86ea9efa04d6f44bb6dbbf79511d7094$__635e42ae169091836040516020016106ec9060208082526012908201527f4d494e545f4741535f4645455f4c494d49540000000000000000000000000000604082015260600190565b6040516020818303038152906040528051906020012060405160200161071c929190918252602082015260400190565b604080517fffffffffffffffffffffffffffffffffffffffffffffffffffffffffffffffe0818403018152908290528051602091820120908801517fffffffff0000000000000000000000000000000000000000000000000000000060e086901b16835260048301939093526024820152604481019190915260640160006040518083038186803b1580156107b057600080fd5b505af41580156107c4573d6000803e3d6000fd5b505050508173__$1b86ea9efa04d6f44bb6dbbf79511d7094$__635e42ae169091836040516020016108279060208082526014908201527f52454445454d5f4741535f4645455f4c494d4954000000000000000000000000604082015260600190565b60405160208183030381529060405280519060200120604051602001610857929190918252602082015260400190565b604080518083037fffffffffffffffffffffffffffffffffffffffffffffffffffffffffffffffe001815282825280516020909101209088015160e085901b7fffffffff0000000000000000000000000000000000000000000000000000000016835260048301939093526024820152604481019190915260640160006040518083038186803b1580156108ea57600080fd5b505af41580156108fe573d6000803e3d6000fd5b505050508173__$1b86ea9efa04d6f44bb6dbbf79511d7094$__635e42ae169091836040516020016109879060208082526022908201527f504c4143455f494e4352454153455f4f524445525f4741535f4645455f4c494d60408201527f4954000000000000000000000000000000000000000000000000000000000000606082015260800190565b604051602081830303815290604052805190602001206040516020016109b7929190918252602082015260400190565b604080517fffffffffffffffffffffffffffffffffffffffffffffffffffffffffffffffe081840301815290829052805160209091012060608801517fffffffff0000000000000000000000000000000000000000000000000000000060e086901b16835260048301939093526024820152604481019190915260640160006040518083038186803b158015610a4c57600080fd5b505af4158015610a60573d6000803e3d6000fd5b505050508173__$1b86ea9efa04d6f44bb6dbbf79511d7094$__635e42ae16909183604051602001610ae99060208082526022908201527f504c4143455f44454352454153455f4f524445525f4741535f4645455f4c494d60408201527f4954000000000000000000000000000000000000000000000000000000000000606082015260800190565b60405160208183030381529060405280519060200120604051602001610b19929190918252602082015260400190565b604080517fffffffffffffffffffffffffffffffffffffffffffffffffffffffffffffffe081840301815290829052805160209091012060808801517fffffffff0000000000000000000000000000000000000000000000000000000060e086901b16835260048301939093526024820152604481019190915260640160006040518083038186803b158015610bae57600080fd5b505af4158015610bc2573d6000803e3d6000fd5b505050508173__$1b86ea9efa04d6f44bb6dbbf79511d7094$__635e42ae16909183604051602001610c4b9060208082526024908201527f504f534954494f4e5f5550444154455f4d415247494e5f4741535f4645455f4c60408201527f494d495400000000000000000000000000000000000000000000000000000000606082015260800190565b60405160208183030381529060405280519060200120604051602001610c7b929190918252602082015260400190565b604080517fffffffffffffffffffffffffffffffffffffffffffffffffffffffffffffffe081840301815290829052805160209091012060a08801517fffffffff0000000000000000000000000000000000000000000000000000000060e086901b16835260048301939093526024820152604481019190915260640160006040518083038186803b158015610d1057600080fd5b505af4158015610d24573d6000803e3d6000fd5b505050508173__$1b86ea9efa04d6f44bb6dbbf79511d7094$__635e42ae16909183604051602001610dad9060208082526026908201527f504f534954494f4e5f5550444154455f4c455645524147455f4741535f46454560408201527f5f4c494d49540000000000000000000000000000000000000000000000000000606082015260800190565b60405160208183030381529060405280519060200120604051602001610ddd929190918252602082015260400190565b604080517fffffffffffffffffffffffffffffffffffffffffffffffffffffffffffffffe081840301815290829052805160209091012060c08801517fffffffff0000000000000000000000000000000000000000000000000000000060e086901b16835260048301939093526024820152604481019190915260640160006040518083038186803b158015610e7257600080fd5b505af4158015610e86573d6000803e3d6000fd5b505050508173__$1b86ea9efa04d6f44bb6dbbf79511d7094$__635e42ae16909183604051602001610ee99060208082526016908201527f57495448445241575f4741535f4645455f4c494d495400000000000000000000604082015260600190565b60405160208183030381529060405280519060200120604051602001610f19929190918252602082015260400190565b604051602081830303815290604052805190602001208660e001516040518463ffffffff1660e01b8152600401610f63939291909283526020830191909152604082015260600190565b60006040518083038186803b158015610f7b57600080fd5b505af4158015610f8f573d6000803e3d6000fd5b505050508173__$1b86ea9efa04d6f44bb6dbbf79511d7094$__635e42ae16909183604051602001610ff2906020808252601b908201527f434c41494d5f524557415244535f4741535f4645455f4c494d49540000000000604082015260600190565b60405160208183030381529060405280519060200120604051602001611022929190918252602082015260400190565b604080517fffffffffffffffffffffffffffffffffffffffffffffffffffffffffffffffe08184030181529082905280516020909101206101008801517fffffffff0000000000000000000000000000000000000000000000000000000060e086901b16835260048301939093526024820152604481019190915260640160006040518083038186803b1580156110b857600080fd5b505af41580156110cc573d6000803e3d6000fd5b50505050505050565b604051602001610419906020808252601b908201527f4d41585f53484f52545f4f50454e5f494e5445524553545f4341500000000000604082015260600190565b6040516020016104199060208082526024908201527f504f534954494f4e5f5550444154455f4d415247494e5f4741535f4645455f4c60408201527f494d495400000000000000000000000000000000000000000000000000000000606082015260800190565b6040516020016104199060208082526016908201527f4c4f4e475f53484f52545f524154494f5f4c494d495400000000000000000000604082015260600190565b60008073__$1b86ea9efa04d6f44bb6dbbf79511d7094$__6386d5c4be6040518163ffffffff1660e01b8152600401602060405180830381865af415801561120a573d6000803e3d6000fd5b505050506040513d601f19601f8201168201806040525081019061122e9190613f16565b90508073__$1b86ea9efa04d6f44bb6dbbf79511d7094$__6356c8caa9909160405160200161128e906020808252600d908201527f434f4d4d4f4e5f434f4e46494700000000000000000000000000000000000000604082015260600190565b604051602081830303815290604052805190602001206040516020016112e5906020808252600e908201527f554e49535741505f524f55544552000000000000000000000000000000000000604082015260600190565b60405160208183030381529060405280519060200120604051602001611315929190918252602082015260400190565b604051602081830303815290604052805190602001206040518363ffffffff1660e01b8152600401611351929190918252602082015260400190565b602060405180830381865af415801561136e573d6000803e3d6000fd5b505050506040513d601f19601f820116820180604052508101906113929190613f2f565b91505090565b604051602001610419906020808252600d908201527f4f50454e5f4645455f5241544500000000000000000000000000000000000000604082015260600190565b6040516020016104199060208082526022908201527f504c4143455f44454352454153455f4f524445525f4741535f4645455f4c494d60408201527f4954000000000000000000000000000000000000000000000000000000000000606082015260800190565b6114a5604051806101200160405280600073ffffffffffffffffffffffffffffffffffffffff16815260200160008152602001600081526020016000815260200160008152602001600081526020016000815260200160008152602001600081525090565b600073__$1b86ea9efa04d6f44bb6dbbf79511d7094$__6386d5c4be6040518163ffffffff1660e01b8152600401602060405180830381865af41580156114f0573d6000803e3d6000fd5b505050506040513d601f19601f820116820180604052508101906115149190613f16565b90506000604051602001611559906020808252600c908201527f434841494e5f434f4e4649470000000000000000000000000000000000000000604082015260600190565b6040516020818303038152906040528051906020012090508173__$1b86ea9efa04d6f44bb6dbbf79511d7094$__6356c8caa99091836040516020016115d0906020808252600d908201527f575241505045525f544f4b454e00000000000000000000000000000000000000604082015260600190565b60405160208183030381529060405280519060200120604051602001611600929190918252602082015260400190565b604051602081830303815290604052805190602001206040518363ffffffff1660e01b815260040161163c929190918252602082015260400190565b602060405180830381865af4158015611659573d6000803e3d6000fd5b505050506040513d601f19601f8201168201806040525081019061167d9190613f2f565b73ffffffffffffffffffffffffffffffffffffffff16835260405173__$1b86ea9efa04d6f44bb6dbbf79511d7094$__90638b77644790849084906116f69060200160208082526012908201527f4d494e545f4741535f4645455f4c494d49540000000000000000000000000000604082015260600190565b60405160208183030381529060405280519060200120604051602001611726929190918252602082015260400190565b604051602081830303815290604052805190602001206040518363ffffffff1660e01b8152600401611762929190918252602082015260400190565b602060405180830381865af415801561177f573d6000803e3d6000fd5b505050506040513d601f19601f820116820180604052508101906117a39190613f16565b8360200181815250508173__$1b86ea9efa04d6f44bb6dbbf79511d7094$__638b77644790918360405160200161180b9060208082526014908201527f52454445454d5f4741535f4645455f4c494d4954000000000000000000000000604082015260600190565b6040516020818303038152906040528051906020012060405160200161183b929190918252602082015260400190565b604051602081830303815290604052805190602001206040518363ffffffff1660e01b8152600401611877929190918252602082015260400190565b602060405180830381865af4158015611894573d6000803e3d6000fd5b505050506040513d601f19601f820116820180604052508101906118b89190613f16565b8360400181815250508173__$1b86ea9efa04d6f44bb6dbbf79511d7094$__638b7764479091836040516020016119469060208082526022908201527f504c4143455f494e4352454153455f4f524445525f4741535f4645455f4c494d60408201527f4954000000000000000000000000000000000000000000000000000000000000606082015260800190565b60405160208183030381529060405280519060200120604051602001611976929190918252602082015260400190565b604051602081830303815290604052805190602001206040518363ffffffff1660e01b81526004016119b2929190918252602082015260400190565b602060405180830381865af41580156119cf573d6000803e3d6000fd5b505050506040513d601f19601f820116820180604052508101906119f39190613f16565b606084015260405173__$1b86ea9efa04d6f44bb6dbbf79511d7094$__90638b7764479084908490611a7f9060200160208082526022908201527f504c4143455f44454352454153455f4f524445525f4741535f4645455f4c494d60408201527f4954000000000000000000000000000000000000000000000000000000000000606082015260800190565b60405160208183030381529060405280519060200120604051602001611aaf929190918252602082015260400190565b604051602081830303815290604052805190602001206040518363ffffffff1660e01b8152600401611aeb929190918252602082015260400190565b602060405180830381865af4158015611b08573d6000803e3d6000fd5b505050506040513d601f19601f82011682018060405250810190611b2c9190613f16565b608084015260405173__$1b86ea9efa04d6f44bb6dbbf79511d7094$__90638b7764479084908490611bb89060200160208082526024908201527f504f534954494f4e5f5550444154455f4d415247494e5f4741535f4645455f4c60408201527f494d495400000000000000000000000000000000000000000000000000000000606082015260800190565b60405160208183030381529060405280519060200120604051602001611be8929190918252602082015260400190565b604051602081830303815290604052805190602001206040518363ffffffff1660e01b8152600401611c24929190918252602082015260400190565b602060405180830381865af4158015611c41573d6000803e3d6000fd5b505050506040513d601f19601f82011682018060405250810190611c659190613f16565b60a084015260405173__$1b86ea9efa04d6f44bb6dbbf79511d7094$__90638b7764479084908490611cf19060200160208082526026908201527f504f534954494f4e5f5550444154455f4c455645524147455f4741535f46454560408201527f5f4c494d49540000000000000000000000000000000000000000000000000000606082015260800190565b60405160208183030381529060405280519060200120604051602001611d21929190918252602082015260400190565b604051602081830303815290604052805190602001206040518363ffffffff1660e01b8152600401611d5d929190918252602082015260400190565b602060405180830381865af4158015611d7a573d6000803e3d6000fd5b505050506040513d601f19601f82011682018060405250810190611d9e9190613f16565b60c084015260405173__$1b86ea9efa04d6f44bb6dbbf79511d7094$__90638b7764479084908490611e049060200160208082526016908201527f57495448445241575f4741535f4645455f4c494d495400000000000000000000604082015260600190565b60405160208183030381529060405280519060200120604051602001611e34929190918252602082015260400190565b604051602081830303815290604052805190602001206040518363ffffffff1660e01b8152600401611e70929190918252602082015260400190565b602060405180830381865af4158015611e8d573d6000803e3d6000fd5b505050506040513d601f19601f82011682018060405250810190611eb19190613f16565b60e084015260405173__$1b86ea9efa04d6f44bb6dbbf79511d7094$__90638b7764479084908490611f17906020016020808252601b908201527f434c41494d5f524557415244535f4741535f4645455f4c494d49540000000000604082015260600190565b60405160208183030381529060405280519060200120604051602001611f47929190918252602082015260400190565b604051602081830303815290604052805190602001206040518363ffffffff1660e01b8152600401611f83929190918252602082015260400190565b602060405180830381865af4158015611fa0573d6000803e3d6000fd5b505050506040513d601f19601f82011682018060405250810190611fc49190613f16565b6101008401525090919050565b600073__$1b86ea9efa04d6f44bb6dbbf79511d7094$__6386d5c4be6040518163ffffffff1660e01b8152600401602060405180830381865af415801561201c573d6000803e3d6000fd5b505050506040513d601f19601f820116820180604052508101906120409190613f16565b90506000604051602001612085906020808252600d908201527f53594d424f4c5f434f4e46494700000000000000000000000000000000000000604082015260600190565b604080518083037fffffffffffffffffffffffffffffffffffffffffffffffffffffffffffffffe00181529082905280516020909101207f3dd33a5e000000000000000000000000000000000000000000000000000000008252600482018490526024820181905260448201869052915073__$1b86ea9efa04d6f44bb6dbbf79511d7094$__90633dd33a5e9060640160006040518083038186803b15801561212d57600080fd5b505af4158015612141573d6000803e3d6000fd5b505050508173__$1b86ea9efa04d6f44bb6dbbf79511d7094$__635e42ae16909183876040516020016121a5906020808252600c908201527f4d41585f4c455645524147450000000000000000000000000000000000000000604082015260600190565b604080517fffffffffffffffffffffffffffffffffffffffffffffffffffffffffffffffe08184030181528282528051602091820120908301949094528101919091526060810191909152608001604080518083037fffffffffffffffffffffffffffffffffffffffffffffffffffffffffffffffe0018152908290528051602090910120875160e085901b7fffffffff0000000000000000000000000000000000000000000000000000000016835260048301939093526024820152604481019190915260640160006040518083038186803b15801561228557600080fd5b505af4158015612299573d6000803e3d6000fd5b505050508173__$1b86ea9efa04d6f44bb6dbbf79511d7094$__635e42ae16909183876040516020016122fd9060208082526009908201527f5449434b5f53495a450000000000000000000000000000000000000000000000604082015260600190565b604080517fffffffffffffffffffffffffffffffffffffffffffffffffffffffffffffffe08184030181528282528051602091820120908301949094528101919091526060810191909152608001604080517fffffffffffffffffffffffffffffffffffffffffffffffffffffffffffffffe0818403018152908290528051602091820120908801517fffffffff0000000000000000000000000000000000000000000000000000000060e086901b16835260048301939093526024820152604481019190915260640160006040518083038186803b1580156123df57600080fd5b505af41580156123f3573d6000803e3d6000fd5b505050508173__$1b86ea9efa04d6f44bb6dbbf79511d7094$__635e42ae1690918387604051602001612457906020808252600d908201527f4f50454e5f4645455f5241544500000000000000000000000000000000000000604082015260600190565b604080517fffffffffffffffffffffffffffffffffffffffffffffffffffffffffffffffe08184030181528282528051602091820120908301949094528101919091526060810191909152608001604080518083037fffffffffffffffffffffffffffffffffffffffffffffffffffffffffffffffe001815282825280516020909101209088015160e085901b7fffffffff0000000000000000000000000000000000000000000000000000000016835260048301939093526024820152604481019190915260640160006040518083038186803b15801561253857600080fd5b505af415801561254c573d6000803e3d6000fd5b505050508173__$1b86ea9efa04d6f44bb6dbbf79511d7094$__635e42ae16909183876040516020016125b0906020808252600e908201527f434c4f53455f4645455f52415445000000000000000000000000000000000000604082015260600190565b604080517fffffffffffffffffffffffffffffffffffffffffffffffffffffffffffffffe08184030181528282528051602091820120908301949094528101919091526060810191909152608001604080517fffffffffffffffffffffffffffffffffffffffffffffffffffffffffffffffe081840301815290829052805160209091012060608801517fffffffff0000000000000000000000000000000000000000000000000000000060e086901b16835260048301939093526024820152604481019190915260640160006040518083038186803b15801561269357600080fd5b505af41580156126a7573d6000803e3d6000fd5b505050508173__$1b86ea9efa04d6f44bb6dbbf79511d7094$__635e42ae169091838760405160200161270b906020808252601a908201527f4d41585f4c4f4e475f4f50454e5f494e5445524553545f434150000000000000604082015260600190565b604080517fffffffffffffffffffffffffffffffffffffffffffffffffffffffffffffffe08184030181528282528051602091820120908301949094528101919091526060810191909152608001604080517fffffffffffffffffffffffffffffffffffffffffffffffffffffffffffffffe081840301815290829052805160209091012060808801517fffffffff0000000000000000000000000000000000000000000000000000000060e086901b16835260048301939093526024820152604481019190915260640160006040518083038186803b1580156127ee57600080fd5b505af4158015612802573d6000803e3d6000fd5b505050508173__$1b86ea9efa04d6f44bb6dbbf79511d7094$__635e42ae1690918387604051602001612866906020808252601b908201527f4d41585f53484f52545f4f50454e5f494e5445524553545f4341500000000000604082015260600190565b604080517fffffffffffffffffffffffffffffffffffffffffffffffffffffffffffffffe08184030181528282528051602091820120908301949094528101919091526060810191909152608001604080517fffffffffffffffffffffffffffffffffffffffffffffffffffffffffffffffe081840301815290829052805160209091012060a08801517fffffffff0000000000000000000000000000000000000000000000000000000060e086901b16835260048301939093526024820152604481019190915260640160006040518083038186803b15801561294957600080fd5b505af415801561295d573d6000803e3d6000fd5b505050508173__$1b86ea9efa04d6f44bb6dbbf79511d7094$__635e42ae16909183876040516020016129c19060208082526016908201527f4c4f4e475f53484f52545f524154494f5f4c494d495400000000000000000000604082015260600190565b604080517fffffffffffffffffffffffffffffffffffffffffffffffffffffffffffffffe08184030181528282528051602091820120908301949094528101919091526060810191909152608001604080517fffffffffffffffffffffffffffffffffffffffffffffffffffffffffffffffe081840301815290829052805160209091012060c08801517fffffffff0000000000000000000000000000000000000000000000000000000060e086901b16835260048301939093526024820152604481019190915260640160006040518083038186803b158015612aa457600080fd5b505af4158015612ab8573d6000803e3d6000fd5b505050508173__$1b86ea9efa04d6f44bb6dbbf79511d7094$__635e42ae1690918387604051602001612b1c906020808252601a908201527f4c4f4e475f53484f52545f4f495f424f54544f4d5f4c494d4954000000000000604082015260600190565b604080517fffffffffffffffffffffffffffffffffffffffffffffffffffffffffffffffe08184030181528282528051602091820120908301949094528101919091526060810191909152608001604051602081830303815290604052805190602001208660e001516040518463ffffffff1660e01b8152600401612bb4939291909283526020830191909152604082015260600190565b60006040518083038186803b158015612bcc57600080fd5b505af4158015612be0573d6000803e3d6000fd5b5050505050505050565b6040516020016104199060208082526026908201527f504f534954494f4e5f5550444154455f4c455645524147455f4741535f46454560408201527f5f4c494d49540000000000000000000000000000000000000000000000000000606082015260800190565b604051602001610419906020808252600e908201527f434c4f53455f4645455f52415445000000000000000000000000000000000000604082015260600190565b604051602001610419906020808252601a908201527f4d41585f4c4f4e475f4f50454e5f494e5445524553545f434150000000000000604082015260600190565b604051602001610419906020808252600c908201527f4d41585f4c455645524147450000000000000000000000000000000000000000604082015260600190565b6040516020016104199060208082526012908201527f4d494e545f4741535f4645455f4c494d49540000000000000000000000000000604082015260600190565b6040516020016104199060208082526009908201527f5449434b5f53495a450000000000000000000000000000000000000000000000604082015260600190565b6040516020016104199060208082526016908201527f57495448445241575f4741535f4645455f4c494d495400000000000000000000604082015260600190565b600073__$1b86ea9efa04d6f44bb6dbbf79511d7094$__6386d5c4be6040518163ffffffff1660e01b8152600401602060405180830381865af4158015612e22573d6000803e3d6000fd5b505050506040513d601f19601f82011682018060405250810190612e469190613f16565b90508073__$1b86ea9efa04d6f44bb6dbbf79511d7094$__632aa337489091604051602001612ea6906020808252600d908201527f434f4d4d4f4e5f434f4e46494700000000000000000000000000000000000000604082015260600190565b60405160208183030381529060405280519060200120604051602001612efd906020808252600e908201527f554e49535741505f524f55544552000000000000000000000000000000000000604082015260600190565b60405160208183030381529060405280519060200120604051602001612f2d929190918252602082015260400190565b604080517fffffffffffffffffffffffffffffffffffffffffffffffffffffffffffffffe08184030181529082905280516020909101207fffffffff0000000000000000000000000000000000000000000000000000000060e085901b1682526004820192909252602481019190915273ffffffffffffffffffffffffffffffffffffffff8516604482015260640160006040518083038186803b158015612fd457600080fd5b505af4158015612fe8573d6000803e3d6000fd5b505050505050565b604051602001610419906020808252601a908201527f4c4f4e475f53484f52545f4f495f424f54544f4d5f4c494d4954000000000000604082015260600190565b6040516020016104199060208082526022908201527f504c4143455f494e4352454153455f4f524445525f4741535f4645455f4c494d60408201527f4954000000000000000000000000000000000000000000000000000000000000606082015260800190565b604051602001610419906020808252600e908201527f554e49535741505f524f55544552000000000000000000000000000000000000604082015260600190565b61312160405180610100016040528060008152602001600081526020016000815260200160008152602001600081526020016000815260200160008152602001600081525090565b61316960405180610100016040528060008152602001600081526020016000815260200160008152602001600081526020016000815260200160008152602001600081525090565b600073__$1b86ea9efa04d6f44bb6dbbf79511d7094$__6386d5c4be6040518163ffffffff1660e01b8152600401602060405180830381865af41580156131b4573d6000803e3d6000fd5b505050506040513d601f19601f820116820180604052508101906131d89190613f16565b9050600060405160200161321d906020808252600d908201527f53594d424f4c5f434f4e46494700000000000000000000000000000000000000604082015260600190565b604080518083037fffffffffffffffffffffffffffffffffffffffffffffffffffffffffffffffe00181529082905280516020909101207f7cc7c2c9000000000000000000000000000000000000000000000000000000008252600482018490526024820181905260448201879052915073__$1b86ea9efa04d6f44bb6dbbf79511d7094$__90637cc7c2c990606401602060405180830381865af41580156132ca573d6000803e3d6000fd5b505050506040513d601f19601f820116820180604052508101906132ee9190613f4c565b6132fb5750909392505050565b8173__$1b86ea9efa04d6f44bb6dbbf79511d7094$__638b7764479091838860405160200161335b906020808252600c908201527f4d41585f4c455645524147450000000000000000000000000000000000000000604082015260600190565b604080517fffffffffffffffffffffffffffffffffffffffffffffffffffffffffffffffe08184030181528282528051602091820120908301949094528101919091526060810191909152608001604051602081830303815290604052805190602001206040518363ffffffff1660e01b81526004016133e5929190918252602082015260400190565b602060405180830381865af4158015613402573d6000803e3d6000fd5b505050506040513d601f19601f820116820180604052508101906134269190613f16565b835260405173__$1b86ea9efa04d6f44bb6dbbf79511d7094$__90638b7764479084908490899061348b9060200160208082526009908201527f5449434b5f53495a450000000000000000000000000000000000000000000000604082015260600190565b604080517fffffffffffffffffffffffffffffffffffffffffffffffffffffffffffffffe08184030181528282528051602091820120908301949094528101919091526060810191909152608001604051602081830303815290604052805190602001206040518363ffffffff1660e01b8152600401613515929190918252602082015260400190565b602060405180830381865af4158015613532573d6000803e3d6000fd5b505050506040513d601f19601f820116820180604052508101906135569190613f16565b8360200181815250508173__$1b86ea9efa04d6f44bb6dbbf79511d7094$__638b776447909183886040516020016135bf906020808252600d908201527f4f50454e5f4645455f5241544500000000000000000000000000000000000000604082015260600190565b604080517fffffffffffffffffffffffffffffffffffffffffffffffffffffffffffffffe08184030181528282528051602091820120908301949094528101919091526060810191909152608001604051602081830303815290604052805190602001206040518363ffffffff1660e01b8152600401613649929190918252602082015260400190565b602060405180830381865af4158015613666573d6000803e3d6000fd5b505050506040513d601f19601f8201168201806040525081019061368a9190613f16565b8360400181815250508173__$1b86ea9efa04d6f44bb6dbbf79511d7094$__638b776447909183886040516020016136f3906020808252600e908201527f434c4f53455f4645455f52415445000000000000000000000000000000000000604082015260600190565b604080517fffffffffffffffffffffffffffffffffffffffffffffffffffffffffffffffe08184030181528282528051602091820120908301949094528101919091526060810191909152608001604051602081830303815290604052805190602001206040518363ffffffff1660e01b815260040161377d929190918252602082015260400190565b602060405180830381865af415801561379a573d6000803e3d6000fd5b505050506040513d601f19601f820116820180604052508101906137be9190613f16565b606084015260405173__$1b86ea9efa04d6f44bb6dbbf79511d7094$__90638b77644790849084908990613826906020016020808252601a908201527f4d41585f4c4f4e475f4f50454e5f494e5445524553545f434150000000000000604082015260600190565b604080517fffffffffffffffffffffffffffffffffffffffffffffffffffffffffffffffe08184030181528282528051602091820120908301949094528101919091526060810191909152608001604051602081830303815290604052805190602001206040518363ffffffff1660e01b81526004016138b0929190918252602082015260400190565b602060405180830381865af41580156138cd573d6000803e3d6000fd5b505050506040513d601f19601f820116820180604052508101906138f19190613f16565b608084015260405173__$1b86ea9efa04d6f44bb6dbbf79511d7094$__90638b77644790849084908990613959906020016020808252601b908201527f4d41585f53484f52545f4f50454e5f494e5445524553545f4341500000000000604082015260600190565b604080517fffffffffffffffffffffffffffffffffffffffffffffffffffffffffffffffe08184030181528282528051602091820120908301949094528101919091526060810191909152608001604051602081830303815290604052805190602001206040518363ffffffff1660e01b81526004016139e3929190918252602082015260400190565b602060405180830381865af4158015613a00573d6000803e3d6000fd5b505050506040513d601f19601f82011682018060405250810190613a249190613f16565b60a084015260405173__$1b86ea9efa04d6f44bb6dbbf79511d7094$__90638b77644790849084908990613a8c9060200160208082526016908201527f4c4f4e475f53484f52545f524154494f5f4c494d495400000000000000000000604082015260600190565b604080517fffffffffffffffffffffffffffffffffffffffffffffffffffffffffffffffe08184030181528282528051602091820120908301949094528101919091526060810191909152608001604051602081830303815290604052805190602001206040518363ffffffff1660e01b8152600401613b16929190918252602082015260400190565b602060405180830381865af4158015613b33573d6000803e3d6000fd5b505050506040513d601f19601f82011682018060405250810190613b579190613f16565b60c084015260405173__$1b86ea9efa04d6f44bb6dbbf79511d7094$__90638b77644790849084908990613bbf906020016020808252601a908201527f4c4f4e475f53484f52545f4f495f424f54544f4d5f4c494d4954000000000000604082015260600190565b604080517fffffffffffffffffffffffffffffffffffffffffffffffffffffffffffffffe08184030181528282528051602091820120908301949094528101919091526060810191909152608001604051602081830303815290604052805190602001206040518363ffffffff1660e01b8152600401613c49929190918252602082015260400190565b602060405180830381865af4158015613c66573d6000803e3d6000fd5b505050506040513d601f19601f82011682018060405250810190613c8a9190613f16565b60e084015250909392505050565b604051602001610419906020808252601b908201527f434c41494d5f524557415244535f4741535f4645455f4c494d49540000000000604082015260600190565b604051610120810167ffffffffffffffff81118282101715613d24577f4e487b7100000000000000000000000000000000000000000000000000000000600052604160045260246000fd5b60405290565b604051610100810167ffffffffffffffff81118282101715613d24577f4e487b7100000000000000000000000000000000000000000000000000000000600052604160045260246000fd5b73ffffffffffffffffffffffffffffffffffffffff81168114613d9757600080fd5b50565b8035613da581613d75565b919050565b60006101208284031215613dbd57600080fd5b613dc5613cd9565b613dce83613d9a565b81526020830135602082015260408301356040820152606083013560608201526080830135608082015260a083013560a082015260c083013560c082015260e083013560e08201526101008084013581830152508091505092915050565b600080828403610120811215613e4157600080fd5b83359250610100807fffffffffffffffffffffffffffffffffffffffffffffffffffffffffffffffe083011215613e7757600080fd5b613e7f613d2a565b91506020850135825260408501356020830152606085013560408301526080850135606083015260a0850135608083015260c085013560a083015260e085013560c08301528085013560e083015250809150509250929050565b600060208284031215613eeb57600080fd5b8135613ef681613d75565b9392505050565b600060208284031215613f0f57600080fd5b5035919050565b600060208284031215613f2857600080fd5b5051919050565b600060208284031215613f4157600080fd5b8151613ef681613d75565b600060208284031215613f5e57600080fd5b81518015158114613ef657600080fdfea264697066735822122062dfe8ce4eae8296e9199eb5e101f689b10cd120e8b948ada8d4b261ec5e9fb564736f6c63430008120033",
  "linkReferences": {
    "contracts/storage/AppStorage.sol": {
      "AppStorage": [
        {
          "length": 20,
          "start": 1201
        },
        {
          "length": 20,
          "start": 1404
        },
        {
          "length": 20,
          "start": 1738
        },
        {
          "length": 20,
          "start": 2053
        },
        {
          "length": 20,
          "start": 2367
        },
        {
          "length": 20,
          "start": 2721
        },
        {
          "length": 20,
          "start": 3075
        },
        {
          "length": 20,
          "start": 3429
        },
        {
          "length": 20,
          "start": 3783
        },
        {
          "length": 20,
          "start": 4048
        },
        {
          "length": 20,
          "start": 4605
        },
        {
          "length": 20,
          "start": 4717
        },
        {
          "length": 20,
          "start": 5347
        },
        {
          "length": 20,
          "start": 5550
        },
        {
          "length": 20,
          "start": 5844
        },
        {
          "length": 20,
          "start": 6121
        },
        {
          "length": 20,
          "start": 6398
        },
        {
          "length": 20,
          "start": 6711
        },
        {
          "length": 20,
          "start": 7024
        },
        {
          "length": 20,
          "start": 7337
        },
        {
          "length": 20,
          "start": 7650
        },
        {
          "length": 20,
          "start": 7925
        },
        {
          "length": 20,
          "start": 8207
        },
        {
          "length": 20,
          "start": 8498
        },
        {
          "length": 20,
          "start": 8578
        },
        {
          "length": 20,
          "start": 8922
        },
        {
          "length": 20,
          "start": 9268
        },
        {
          "length": 20,
          "start": 9613
        },
        {
          "length": 20,
          "start": 9960
        },
        {
          "length": 20,
          "start": 10307
        },
        {
          "length": 20,
          "start": 10654
        },
        {
          "length": 20,
          "start": 11001
        },
        {
          "length": 20,
          "start": 11797
        },
        {
          "length": 20,
          "start": 11909
        },
        {
          "length": 20,
          "start": 12711
        },
        {
          "length": 20,
          "start": 13002
        },
        {
          "length": 20,
          "start": 13112
        },
        {
          "length": 20,
          "start": 13415
        },
        {
          "length": 20,
          "start": 13724
        },
        {
          "length": 20,
          "start": 14032
        },
        {
          "length": 20,
          "start": 14338
        },
        {
          "length": 20,
          "start": 14645
        },
        {
          "length": 20,
          "start": 14952
        },
        {
          "length": 20,
          "start": 15259
        }
      ]
    }
  },
  "deployedLinkReferences": {
    "contracts/storage/AppStorage.sol": {
      "AppStorage": [
        {
          "length": 20,
          "start": 1143
        },
        {
          "length": 20,
          "start": 1346
        },
        {
          "length": 20,
          "start": 1680
        },
        {
          "length": 20,
          "start": 1995
        },
        {
          "length": 20,
          "start": 2309
        },
        {
          "length": 20,
          "start": 2663
        },
        {
          "length": 20,
          "start": 3017
        },
        {
          "length": 20,
          "start": 3371
        },
        {
          "length": 20,
          "start": 3725
        },
        {
          "length": 20,
          "start": 3990
        },
        {
          "length": 20,
          "start": 4547
        },
        {
          "length": 20,
          "start": 4659
        },
        {
          "length": 20,
          "start": 5289
        },
        {
          "length": 20,
          "start": 5492
        },
        {
          "length": 20,
          "start": 5786
        },
        {
          "length": 20,
          "start": 6063
        },
        {
          "length": 20,
          "start": 6340
        },
        {
          "length": 20,
          "start": 6653
        },
        {
          "length": 20,
          "start": 6966
        },
        {
          "length": 20,
          "start": 7279
        },
        {
          "length": 20,
          "start": 7592
        },
        {
          "length": 20,
          "start": 7867
        },
        {
          "length": 20,
          "start": 8149
        },
        {
          "length": 20,
          "start": 8440
        },
        {
          "length": 20,
          "start": 8520
        },
        {
          "length": 20,
          "start": 8864
        },
        {
          "length": 20,
          "start": 9210
        },
        {
          "length": 20,
          "start": 9555
        },
        {
          "length": 20,
          "start": 9902
        },
        {
          "length": 20,
          "start": 10249
        },
        {
          "length": 20,
          "start": 10596
        },
        {
          "length": 20,
          "start": 10943
        },
        {
          "length": 20,
          "start": 11739
        },
        {
          "length": 20,
          "start": 11851
        },
        {
          "length": 20,
          "start": 12653
        },
        {
          "length": 20,
          "start": 12944
        },
        {
          "length": 20,
          "start": 13054
        },
        {
          "length": 20,
          "start": 13357
        },
        {
          "length": 20,
          "start": 13666
        },
        {
          "length": 20,
          "start": 13974
        },
        {
          "length": 20,
          "start": 14280
        },
        {
          "length": 20,
          "start": 14587
        },
        {
          "length": 20,
          "start": 14894
        },
        {
          "length": 20,
          "start": 15201
        }
      ]
    }
  }
}